:020000040800F2
:10000000B881002061020008DD5400082546000880
:10001000ED4F0008FD0C0008F5720008000000001C
:10002000000000000000000000000000A101000826
:100030009911000800000000FD0100081569000882
:100040007B0200087B0200087B0200087B0200089C
:100050007B0200087B0200087B0200087B0200088C
:100060007B0200087B0200087B0200087B0200087C
:10007000C10E00087B0200087B0200087B0200081A
:10008000CD0E00087B0200087B0200080D0D000861
:10009000010D00087B0200087B0200087B020008BB
:1000A0007B020008D96900087B0200087B02000877
:1000B000E56900087B0200087B0200087B0200085B
:1000C0007B0200087B0200087B0200087B0200081C
:1000D0007B0200087B02000869700008517100086B
:1000E0007B0200087B0200087B0200087B020008FC
:1000F0007B0200087B0200087B0200087B020008EC
:100100007B020008555C00087B0200087B020008A7
:100110007B0200087B0200087B0200087B020008CB
:10012000D90E00087B020008E50E0008F10E000859
:100130007B0200087B0200087B0200087B020008AB
:100140007B0200087B0200087B0200087B0200089B
:100150007B020008FD0E0008090F00087B02000862
:100160007B0200087B0200087B0200087B0200087B
:100170007B0200087B0200087B02000800000000F0
:100180007B02000801120008DFF810D000F0BEFB6F
:100190000048004759810008AFF30080B881002073
:1001A0002C4B19680868B0E8F04F80F30988BFF35A
:1001B0006F8F4FF0000080F311887047000000003F
:1001C00008480068006880F308884FF0000080F35A
:1001D000148862B661B6BFF34F8FBFF36F8F00DF35
:1001E00000BF00BF08ED00E0DFF80C00016841F43B
:1001F00070010160704700BF88ED00E0EFF30980F7
:10020000BFF36F8F134B1A681EF0100F08BF20ED5D
:10021000108A20E9F04F106009B44FF0200080F3FD
:100220001188BFF34F8FBFF36F8F09F037FB4FF08B
:10023000000080F3118809BC19680868B0E8F04F25
:100240001EF0100F08BFB0EC108A80F30988BFF3CE
:100250006F8F7047A4000020EFF305807047000007
:100260000648804706480047FEE7FEE7FEE7FEE750
:10027000FEE7FEE7FEE7FEE7FEE7FEE7C9690008E6
:10028000890100082DE9F05F0546002092469B4653
:1002900088460646814640241BE02846414647469C
:1002A000224600F048F953465A46C01A914110D3ED
:1002B00011461846224600F02FF92D1A67EB010867
:1002C0004F4622460120002100F026F917EB0009D5
:1002D0004E41201EA4F10104DFDC484631462A4687
:1002E0004346BDE8F09F40EA01039B0703D009E0C5
:1002F00008C9121F08C0042AFAD203E011F8013B12
:1003000000F8013B521EF9D27047D2B201E000F86A
:10031000012B491EFBD270470022F6E710B51346A9
:100320000A4604461946FFF7F0FF204610BD30B5D7
:1003300005462A460B4612F8010B13F8014B08B18B
:10034000A042F8D01CB1002802D06D1CF1E728466D
:1003500030BD421C10F8011B0029FBD1801A7047E8
:1003600010B5002200E0521C835C8C5CA34201D1DA
:10037000002BF8D1D8B2E1B2401A10BD70B50646D4
:1003800007F0F6F9046805460A220021304600F01D
:10039000E2F82C6070BD2DE9FE4F81EA030404F001
:1003A000004421F0004100944FF0000B23F0004383
:1003B00050EA01045ED052EA03045BD0C3F30A544E
:1003C000C1F30A552C44A4F2F3340194A0FB025467
:1003D000C1F3130141F48011C3F3130343F48013F9
:1003E00001FB024400FB034E840A970A44EA81544D
:1003F00047EA8357A4FB076802958D0A05FB07852A
:100400004FEA932C04FB0C542705029D4FEA065833
:1004100047EA1637B5EB08056EEB070C870E920E10
:1004200047EA811742EA8312A7FB0201B6EB0B01F0
:1004300064EB00042B0D43EA0C335E1844EB1C50B4
:10044000DA465146E7FB0201C5F313044FEA0B33CA
:1004500043EA14534FEA0432019C43EA0603A4F131
:100460000C040294009CCDE900B400F0BBF803B08A
:10047000BDE8F08F00200146F9E70EB540F23341A8
:1004800002910021CDE900110A460B4600F0AAF8BE
:1004900003B000BDC1F30A5210B5C1F3130140F21D
:1004A000FF3341F480119A4201DA002010BD40F27E
:1004B00033439A42A2F2334203DC524200F03BF84B
:1004C00010BD904010BD00F0004230F000400AD056
:1004D000C10D01F56071C0F3160042EA0151C20876
:1004E00040071143704700200146704730B50B4666
:1004F000014600202022012409E021FA02F59D4254
:1005000005D303FA02F5491B04FA02F52844151E27
:10051000A2F10102F1DC30BD202A04DB203A00FA0E
:1005200002F1002070479140C2F1200320FA03F34A
:10053000194390407047202A04DB203A21FA02F048
:100540000021704721FA02F3D040C2F1200291400D
:100550000843194670472DE9F04791460F468046FB
:100560000446002614F8015B2DB100F0F3F9006891
:10057000405DC007F6D12B2D02D02D2D18D0641E62
:100580004A463946204600F0E9F927B13968A142C8
:1005900001D1C7F8008071054FF002040BD540422D
:1005A000002803DD07F0E4F80460A007BDE8F08749
:1005B00046F48066E4E70028F8DA07F0D9F804602A
:1005C0006FF00040F2E710B5141E73F1000408DA72
:1005D000401C41F1000192185B411A4301D120F007
:1005E000010010BD2DE9F04D92469B4611B1B1FAC4
:1005F00081F202E0B0FA80F220329046FFF78CFFE1
:1006000004460F4640EA0A0041EA0B0153465A46A7
:10061000084313D0114653EA010019D0C8F1400233
:100620005046FFF788FF05460E465046594642465B
:10063000FFF772FF084305D0012004E02046394649
:10064000BDE8F08D0020054346EAE0762C433743B1
:100650000A986305E40AA0EB08000022FD0A44EAB8
:1006600047540A3002D500200146E9E70105101978
:100670006941DDE9084500196941BDE8F04DA2E78F
:100680002DE9FE4F804681EA0300C00F0C46009022
:1006900021F0004123F00045B8EB0200A94105D24A
:1006A0004046214690461C460B46024623F0004039
:1006B000104347D0270DC7F30A00C3F30A51029035
:1006C000401A019040286BDAC3F3130040F4801BFA
:1006D0000098924620B10023D2EB030A63EB0B0B88
:1006E00001985946C0F140025046FFF715FF0646F3
:1006F0000D4650465946019A00F01AF910EB0800D1
:100700006141002487EA115284EAE7731A4340D01A
:10071000009A62B3019A012A4FEA075215DC001BC6
:1007200061EB02014FF0004202EA0752CDE90042BC
:10073000001C41F5801132462B46FFF753FF03B0F2
:10074000BDE8F08F40462146F9E7001B61EB02014E
:10075000001C41F5801300185B412018A2F500171A
:1007600047EB030140EAD570B6196D4111E06D0801
:100770004FEA360645EAC0754FEA0752001B61EBA7
:100780000201001C41F5801149084FEA30000019B0
:10079000514132462B4603B0BDE8F04FFFF713BF7F
:1007A0000098012240000023D0EB020263EBE073CB
:1007B000009821464FEAE074B8EB000061EB0401B9
:1007C000E9E783F000435BE781F0004158E72DE95A
:1007D000F04D81EA030404F0004B21F0004514467B
:1007E0004FF0000A23F0004150EA050220D054EAFD
:1007F00001021DD0C5F30A570246C5F31303C1F326
:100800001300C1F30A5640F4801543F48013A7EB9C
:100810000608101BD64608F2FD3873EB050002D31C
:1008200008F1010801E092185B41B8F1000F03DA0A
:1008300000200146BDE8F08D00204FF480110646EF
:1008400084460EE0171B73EB050705D3121B63EB01
:10085000050306434CEA010C49084FEA30009218A0
:100860005B4150EA0107EDD152EA030012D082EA5F
:10087000040083EA0501084305D0101BAB4106D2F2
:100880000122002306E000224FF0004302E06FF057
:10089000010253101AEB06004CEB085110EB0A0052
:1008A00041EB0B01BDE8F04DFFF78DBEC1F30A52DD
:1008B000C1F3130140F2FF3341F480119A4202DA8E
:1008C00000200146704740F233439A42A2F233427D
:1008D00002DC5242FFF72FBEFFF71EBE30B5041EEA
:1008E00071F1000404DB4FF00044404264EB01016D
:1008F000141E73F1000405DB1C464FF00043524206
:1009000063EB0403994208BF904230BD064C074D8B
:1009100006E0E06840F0010394E8070098471034CF
:10092000AC42F6D3FFF734FC68BA000888BA000876
:10093000202A06DBCB17203A41FA02F043EAE073A3
:1009400006E041FA02F3D040C2F120029140084390
:10095000194670470048704788B000082DE9F05FDD
:1009600082460078002715468B460AF10104B946F5
:10097000302801D09DB113E014F8010B012778282D
:1009800003D0582801D045B10AE00DB1102D07D190
:100990000027102514F8010B02E0082500E00A25C5
:1009A0000026B0460EE005FB080005FB06F1012716
:1009B00001EB10461FFA80F8B6F5803F00D3B94628
:1009C00014F8010B294600F018F80028EBDABBF107
:1009D000000F05D00FB1641E00E05446CBF8004074
:1009E000B9F1000F06D006F0C3FE02210160C81E57
:1009F000BDE8F09F48EA0640FAE73A2800D23038CE
:100A000020F02002412A01D3A2F13700884201D30D
:100A10004FF0FF30704770B58C1810F8015B15F07F
:100A2000070301D110F8013B2A1106D110F8012B60
:100A300003E010F8016B01F8016B5B1EF9D12B0785
:100A400005D40023521E0DD401F8013BFAE710F83B
:100A5000013BCB1A921C03E013F8015B01F8015B28
:100A6000521EF9D5A142D8D3002070BD10B5014661
:100A7000806B026C12F0500F05D0026CD20626D5A6
:100A800000F09FFD10BD016C41F40071016401682C
:100A90008A6812F0405F17D1027EAAB9CA6A12F4BE
:100AA000700F02D08A6852050ED44A6822F02002E4
:100AB0004A60016C21F480710164016CC90403D4A3
:100AC000016C41F00101016400F064FD10BD806B18
:100AD000C26CBDE810400846104710B5806B40213D
:100AE0000164416C41F00401416400F06AFD10BDF5
:100AF00010B5806B00F064FD10BD0000464910B5D4
:100B00004A6822F440324A604A6843681A434A609D
:100B100001684A6822F480724A6001684A68036981
:100B200042EA03224A6001684A6822F040724A6041
:100B300001684A6883681A434A6001688A6822F437
:100B400000628A6001688A68C3681A438A60816AA1
:100B50006FF07062D14201688A6822F070628A6028
:100B600001688A680CD0836A1A438A6001688A68BF
:100B700022F040528A6001688A68C36A1A4301E021
:100B800022F040528A6001688A6822F002028A607C
:100B900001688A68037E42EA43028A6090F8201066
:100BA000002901684A680FD042F400624A60016877
:100BB0004A6822F460424A6001684A68174C436AF6
:100BC00004EB43331A4301E022F400624A600168F7
:100BD000CA6A22F47002CA620168CA6A838B104C26
:100BE00004EB03531A43CA6201688A6822F4007254
:100BF0008A6001688A6890F8303042EA43228A604D
:100C000001688A6822F480628A6001688A684069A3
:100C100042EA8020886010BD0023014000E0FFFF11
:100C20000000F0FF704700000146014802F030BAB2
:100C30008008002010B5044802F03CFA042801D0D6
:100C4000012010BD002010BD8008002010B500F06C
:100C500015F8012801D0012010BD074802F044FB1F
:100C6000040006D14FF40061034802F0B7F800B168
:100C70000124204610BD00008008002008B5012096
:100C80008DF800009DF8000008BD0000134610B567
:100C90000A4601460024034802F022FC00B1012468
:100CA000204610BD8008002008B50120ADF80000E6
:100CB000034800231A466946406807F0F1FC08BD66
:100CC00084000020134610B50A460146002403485C
:100CD00002F0A0FC00B10124204610BD80080020D5
:100CE00008B50220ADF80000034800231A46694603
:100CF000406807F0D5FC08BD84000020FEE7000036
:100D0000014800F07ABF00004C080020014800F0C4
:100D100074BF00004C080020054D4FF0FF34214601
:100D2000E86C07F0F1FC012007F039FBF7E7000061
:100D300008000020F0B589B015460E46074600248D
:100D400007F000FC0020CDE900700290CDE903051A
:100D50008DF8140006A803E0315D0155641CE4B26F
:100D6000AC42F9D3094800F032FF0028FAD02B46F4
:100D700006AA6946054800F0C1FD10B104A006F0BE
:100D8000ADFC07F011FC09B0F0BD00004C080020DC
:100D9000CAFDBEDDB7A2CBCDCAA7B0DCA3A10D0AA8
:100DA0000000000010B50C4CA078612806D0652822
:100DB00009D06D280FD106F005FB06E006F0E4FA35
:100DC00038B106A003E006F01BFB10B109A006F045
:100DD00085FCFF20A07010BD240100200D0A536582
:100DE000742041636343616C69204572726F720DB8
:100DF0000A0000000D0A536574204D616743616C61
:100E000069204572726F720D0A0000002DE9F047EB
:100E100000270425DFF8A080DFF8A09050383E4678
:100E200001F1060A102845D2DFE800F01108130C82
:100E30001517191B1D1F2144444444233424032542
:100E4000402702E03D2403252E27012613E030240D
:100E500011E037242BE03A2429E041240BE045241B
:100E600009E0492407E04D2405E0512403E055241E
:100E700001E0D8F82440032A19D04DB16A0009EBEB
:100E80004400FFF730FAD8F818202946204690474A
:100E9000002E0FD0720009EB47005146FFF723FAEE
:100EA00031463846D8F81820BDE8F04710470325EA
:100EB0000026E3E7BDE8F08724010020E856002083
:100EC000014801F03DB90000600C0020014801F02C
:100ED00037B90000000C0020014801F031B90000D2
:100EE00064070020014801F02BB90000C40700206E
:100EF000014801F025B9000004090020014801F073
:100F00001FB9000064090020014801F019B9000070
:100F1000A00B002001681823CAB2103AB2FBF3F20A
:100F2000054B6FF30901032A9B5CC36500D9091DBA
:100F3000816508467047000050AB000810B50146B7
:100F400000208B698A6A4FF0C07453B1B3F5005F1B
:100F500015D072B1012A0CD0022A0AD0032A09D175
:100F600004E01AB1012A06D0022A03D1C96AC901D4
:100F700000D5012010BDC96AA142FAD010BD002AD7
:100F8000F7D0012AF2D0022AF3D0032AF3D010BD01
:100F900030B50468256825F4802525600468636001
:100FA0008368402B036803D099600068C26030BD3D
:100FB0009A600068C16030BD2D4C00254FF48067F9
:100FC0004FF47A76002007F045F9384604F0B2FC79
:100FD000A06128A006F082FB09E0042007F026F8B3
:100FE00000283AD06D1CADB2304607F0D8F90A2D72
:100FF000F3D92B4806F072FB2AA006F06FFB2FA056
:1010000006F06CFB34A006F069FB40A006F066FB1E
:101010004BA006F063FB544806F060FB534806F013
:101020005DFB304607F0BBF9606D07F0E4F900079F
:101030000FD408214EA008F00BF90221606D07F0D3
:10104000FBF94FF4FA7007F0AAF90421606D07F07C
:10105000F3F9206B08F0A4FAB4E70821606D07F0FB
:10106000ABF946A006F03AFB0A2DC2D8DCE7000037
:10107000080000205761697420666F722043617414
:10108000312044545520746F2073746172742C2085
:1010900077616974203130732E2E2E2E200D0A00B8
:1010A000DCB0000841544B2D44545520496E6974FE
:1010B000204661696C202E2E2E0D0A00C7EBB0B4BD
:1010C000D5D5D2D4CFC2B2BDD6E8BDF8D0D0BCEC15
:1010D000B2E93A0D0A000000312ECAB9D3C3B5E710
:1010E000C4D4C9CFCEBBBBFAC5E4D6C3C8EDBCFEE1
:1010F000BCECB2E9445455C4DCB7F1B5A5B6C0D5D3
:10110000FDB3A3B9A4D7F70D0A000000322EBCEC42
:10111000B2E9445455B4AEBFDAB2CECAFDD3EB53F4
:10112000544D3332CDA8D1B6B5C4B4AEBFDAB2CEC9
:10113000CAFDCAC7B7F1D2BBD6C20D0A0000000073
:10114000332EBCECB2E9445455D3EB53544D3332F7
:10115000B4AEBFDAB5C4BDD3CFDFCAC7B7F1D5FDD2
:10116000C8B70D0A000000002CB100088CB00008C0
:1011700041542B434C4B0D0A000000004361743175
:101180002044545520496E69742053756363657318
:1011900073200D0A000000007047000072B602A024
:1011A00006F09CFAFEE700004572726F725F4861BC
:1011B0006E646C65720D0A00002200F001B8000038
:1011C00030B50E4B054601205C7A002C14D1587ABC
:1011D0001C54587A03EB800045605D7A03F10800E7
:1011E0002A54587A421C5A72303008703A2048709B
:1011F0002F208870CC70002030BD0000080D00202A
:101200007047000070B50C46054603F075FF214697
:10121000284603F001FF2146284603F01FFF04483B
:101220002146027D2846BDE8704003F0DBBF000088
:10123000680100200B4C002540F2ED36606D07F090
:10124000DAF8C00509D56088000406D5658006492E
:101250000648FFF7D7FF00F05BF8304607F09FF82D
:10126000ECE7000008000020607300204804002024
:10127000FF25DFF86C80DFF86C901B4F00244FF4E3
:101280007A764FF4FA7A4FF4807B0121304605F0EC
:10129000C9FF60B920E001224146484605F0E6FF5B
:1012A00005F08EFF641CE4B20546052C08D8012128
:1012B000304605F0B7FF08B1002DECD1052C01D95F
:1012C0000AA000E00DA006F009FA504607F067F802
:1012D0005946786D07F0B0F8B86B08F061F9D4E7BB
:1012E000A086010040420F00080000204750532014
:1012F000536574204661696C0D0A00004750532005
:1013000053657420537563636573730D0A000000A1
:1013100070B5A0B00326022580216846FEF7FCFFC9
:10132000254C4FF47A71B4F86700B0FBF1F000EE91
:10133000100A2248B8EE400A80ED000A94F85C00DA
:10134000032806D81D49503151F820101CA006F082
:10135000C5F994F84F101EA0313406F0BFF914F807
:10136000310C6421B0FBF1F201FB12011EA006F06A
:10137000B5F9E37BA27BA18922A006F0AFF9A37C9B
:10138000627C217C27A006F0A9F90C481C38406D2E
:1013900007F031F8800507D52A48007820B9802267
:1013A0003146684604F03CFA042204492846FFF717
:1013B000C1FC20B070BD00004804002024000020C3
:1013C000466978204D6F64653A25730D0A00000068
:1013D00056616C696420736174656C6C6974653AFC
:1013E000253032640D0A000056697369626C65200D
:1013F000736174656C6C6974653A253032640D0AEA
:101400000000000055544320446174653A2530348F
:10141000642F253032642F253032642020200D0ABD
:10142000000000005554432054696D653A25303260
:10143000643A253032643A253032642020200D0A87
:1014400000000000B001002078B50024009490F85E
:101450003C20012A19D0012280F83C200A68072389
:101460000568092A13D9EE680A3A02EB4202934052
:101470009E43EE600B788A680A3B03EB43039A4075
:101480000368DD682A43DA6010E0022078BD2E6927
:1014900002EB420293409E432E610B788A6803EB75
:1014A00043039A4003681D692A431A614A681F234F
:1014B000072A13D205686E6B521E02EB820293401C
:1014C0009E436E630B790A885B1E92B203EB830323
:1014D0009A4003685D6B2A435A6327E005680D2A2A
:1014E00012D22E6BD21F02EB820293409E432E63D8
:1014F0000B790A88DB1F92B203EB83039A400368DF
:101500001D6B2A431A6311E0EE6A0D3A02EB820268
:1015100093409E43EE620B790A880D3B92B203EB37
:1015200083039A400368DD6A2A43DA62164B056832
:10153000144A9D4206D10D68122D03D1556845F419
:101540008005556005689D4218D10B68102B01D0AD
:10155000112B13D1536843F4000353600968102919
:101560000CD10A490A4A0968B1FBF2F101EB810189
:10157000490000E0491E00910029FBD180F83C4061
:10158000002078BD0023014000200140A000002081
:1015900040420F000068064A0121904201D10548EF
:1015A00003E0054A904201D10448017070470000F1
:1015B0000020014008000020002101400900002017
:1015C0007047704770B504004FF0000503D0206CE1
:1015D000002610B107E0012070BD204600F01CF885
:1015E000666484F83C60206CC00610D4206C20F443
:1015F000885040F0020020642046FFF77FFA6664BE
:10160000206C20F0020040F00100206400E0012581
:1016100084F83C60284670BD2DE9F04F87B006463F
:1016200014216846FEF778FE4F484E4B1438326856
:1016300000244D490325DFF834B107154FF48058D5
:101640004FF480494FF4803A9A4238D10A6842F404
:1016500080720A60096801F480710591016841F0A7
:1016600004010160016801F004010591016841F085
:10167000020101600068694600F002000590372011
:10168000CDE900050294584600F0DEFE0120CDE9C8
:10169000000569460294364800F0D6FE364D3548BE
:1016A000E5E80204344810C5A5E8900365E8074A58
:1016B0006C624FE0B563AE6307B0BDE8F08F2F4BAF
:1016C0009A42F9D10A6842F400720A60096801F48A
:1016D00000710591016841F001010160016801F0AC
:1016E00001010591016841F004010160016801F008
:1016F00004010591016841F002010160006869463A
:1017000000F0020005904020CDE9000502941C483D
:1017100000F09AFE2020CDE9000569460294584663
:1017200000F092FE0220CDE90005694602941048BF
:1017300000F08AFE104D0F486035303001C54FF083
:101740000070E5E802040C48A5E89003603065E805
:10175000074A6C6200F0C4FD0028ABD0FFF71EFD05
:10176000A8E7000000200140443802400008024081
:101770000004024010640240640700200021014080
:1017800000000240F8B5044600200E46009094F890
:101790003C10012907D0012184F83C1021688B6896
:1017A000DB0702D011E00220F8BD8B6843F0010393
:1017B0008B604049404B0968B1FBF3F101EB4101FB
:1017C00000E0491E00910029FBD121688B68DB05F0
:1017D00003D58B6823F480738B6021688B68DB07EB
:1017E0005DD0236C40F20165AB4343F48073236406
:1017F0004968490505D5216C21F4005141F4805117
:101800002164216CC90404D5616C21F00601616476
:1018100000E0606484F83C00A16B2948274DC86350
:10182000A16B28480864A16B2748C86421686FF041
:10183000220008602068416841F0806141602068B2
:10184000816841F4807181602168134632464C31D1
:10185000A06B00F0AFFD68681C49C006206806D088
:10186000884224D1816811F0405F13D01FE0884284
:10187000F8D0174A904203D1D1F80423D206F1D010
:10188000144A904213D1D1F8041301F01F0110291A
:10189000E8D30CE0816841F08041816007E0206C72
:1018A00040F010002064606C40F001006064002093
:1018B000F8BD0000A000002040420F0000230140BE
:1018C0006D0A0008F10A0008DB0A00080020014048
:1018D000002101400022014090F82020012A07D079
:1018E000022A05D0416A41F48021416201207047FB
:1018F000006842690A43426100207047F0B590F8E1
:1019000020500468A468012D05D0022D03D0416A3F
:1019100041F480215DE014F0406F01D1E50055D520
:10192000C4F30164022C03D9416A41F4000150E080
:101930000125A5401D608D684FF4C0739DB1CE6830
:1019400035434E6845EAC605066803EB0417F551B2
:101950004FF4C275076805EB04150E697E51097DC9
:10196000012905D009E00E88CD6845EA4655EBE728
:1019700001684E5946F480764E511179D5795679E1
:1019800041EA056195792D0445EA062529434FF47E
:10199000C676056806EB0416A9511178D57841EA98
:1019A0000561957852782D0445EA022211434FF4DF
:1019B000C475026805EB04155151006803EB04116E
:1019C000425842F0010242500020F0BD416A41F409
:1019D000001141620120F0BD10B590F82020012ACD
:1019E00007D0022A05D0416A41F4802141620120DA
:1019F00010BD3B48D0F8002242F00102C0F800229E
:101A0000D0F8002222F47C52C0F80022D0F8002244
:101A10004B6A42EA0322C0F800220A7D02F01F034B
:101A200001229A40D0F81C329343C0F81C32CB6993
:101A3000B3B9D0F80C329343C0F80C328C894B68A0
:101A400064F31F434C6900EBC404C4F840320C89B2
:101A50000B6864F31F434C6900EBC404C4F84432C0
:101A6000CB69012B16D1D0F80C321343C0F80C32DD
:101A70000C884B6864F31F434C6900EBC404C4F842
:101A800040320C89CB6864F31F434C6900EBC404FB
:101A9000C4F844328B69002BD0F804320ED01343C3
:101AA000C0F804320B69002BD0F8143208D013436D
:101AB000C0F81432096A012904D008E09343EFE723
:101AC0009343F5E7D0F81C121143C0F81C12D0F86C
:101AD000001221F00101C0F80012002010BD00002A
:101AE00000640040704730B590F82040012C05D0CC
:101AF000022C03D0416A41F480215DE00468002992
:101B000055D02469A40754D04FF4D874056804EB69
:101B100001142D5915F00405956005682D594ED016
:101B2000ED08556005682C5904F00204D4604FF4A8
:101B3000DA74056804EB01142D5905F00F051561E1
:101B400005682D59C5F30725956105682C59240CA6
:101B500054614FF4DC72046802EB0112A4581C704B
:101B60000468A458240A5C700468A458240C9C706F
:101B70000468A258120EDA704FF4DE72046802EBA9
:101B80000112A4581C710468A458240A5C710468EA
:101B9000A458240C9C710468A258120EDA710068D3
:101BA00081B1016941F020010161002030BDE4688C
:101BB000A8E7416A41F400114162012030BD6D0D7A
:101BC0001560AFE7C16841F02001C160EDE7024652
:101BD000002092F82010012901D002290CD11168AF
:101BE0008A68520100D501208A68120100D5401C84
:101BF0008968C90000D5401C70472DE9F05F054693
:101C0000006800244669D0F804908768D0F80CB0CA
:101C1000D0F810A0D0F81880F10748D0F90714D0F8
:101C200001218160B80703D5284600F026FA0CE0B0
:101C3000780702D54FF4006407E0380702D54FF467
:101C4000805402E0284600F017FAF80516D52968F6
:101C50004FF480708860B80503D5284600F00FFA6D
:101C60000CE0780502D544F4005407E0380502D5AD
:101C700044F4804402E0284600F000FAF80316D548
:101C800029684FF480308860B80303D5284600F0F7
:101C9000F8F90CE0780302D544F4004407E0380377
:101CA00002D544F4803402E0284600F0E9F9300718
:101CB00007D55FEACB6004D52968102044F400748E
:101CC000C86070074FF0080707D55FEA0B7004D5AE
:101CD0002868C760284600F061F9B00706D5286873
:101CE000C068800702D0284600F05AF9700607D570
:101CF0005FEACA6004D52968102044F48064086152
:101D0000B00607D55FEA0A7004D52868076128463F
:101D100000F082F9F00606D528680069800702D035
:101D2000284600F07AF9B00308D55FEAC96005D506
:101D3000296810204860284600F070F9F00307D5A4
:101D40005FEA097004D528684760284600F09AF9D0
:101D5000300446D55FEA497040D5F00504D55FEA06
:101D6000C87001D044F00104B00504D55FEA887062
:101D700001D544F00204700504D55FEA487001D52E
:101D800044F00404300529D518F0700F26D008F06F
:101D90007000402815D006DC102809D020280AD071
:101DA000302816D10AE050280ED0602811D10EE05C
:101DB00044F008040DE044F010040AE044F020046C
:101DC00007E044F0400404E044F0800401E044F4FF
:101DD00080742868816921F070018161296804207C
:101DE0004860002C05D0686A204368622846FFF7E7
:101DF00079FEBDE8F09F70B5040003D094F8200090
:101E000010B104E0012070BD204600F081F8206888
:101E1000016841F00101016000F018FC054605264B
:101E200004E000F013FC401B0A2811D82068406829
:101E3000C007F6D02068016821F00201016000F0BF
:101E400005FC05460BE000F001FC401B0A2806D902
:101E5000606A40F40030606284F82060D2E7206855
:101E600040688007EFD4207E0128206801683DD0BB
:101E700021F080010160607E01282068016838D06F
:101E800021F040010160A07E01282068016833D064
:101E900021F020010160E07E0128206801682ED039
:101EA00041F010010160207F01282068016829D0DD
:101EB00021F008010160607F01282068016824D0BA
:101EC00021F004010160D4E902010843D4E90412BD
:101ED000114308436168491E08432168C861002016
:101EE0006062012084F82000002070BD41F0800174
:101EF000C0E741F04001C5E741F02001CAE721F009
:101F00001001CFE741F00801D4E741F00401D9E71F
:101F100010B586B0044614216846FEF7FDF91C4949
:101F20002068884231D11B480021026842F00072CB
:101F30000260006800F000700590164810380268D2
:101F400042F001020260006800F0010005904FF4C9
:101F5000C05000900220CDE9010103200390092028
:101F6000049069460C4800F06FFA00220221132009
:101F700000F03CFC132000F02BFC00220221142076
:101F800000F034FC142000F023FC06B010BD00006B
:101F900000640040403802400000024070470000EA
:101FA00070B50068184A002190422BD1174C0020D0
:101FB000174A20606060A0602061E0606061A061FD
:101FC0005054491CC9B20829FAD3114B0F4A0021B9
:101FD0001048FFF788FD0E4D2068633D50280CD156
:101FE000A06850B92069082807D10821084805F0E1
:101FF00083F90121686D06F01FFAE86CBDE87040B6
:1020000006F0FCBB70BD000000640040200400200E
:102010006B0000204C08002070477047704700009C
:1020200070B5044690F82000012804D0606A40F49E
:102030000020606218E0022084F820002068016817
:1020400021F00101016000F001FB05460EE000BF38
:1020500000F0FCFA401B0A2808D9606A40F40030FE
:102060006062052084F82000012070BD206840686F
:10207000C007EDD1606270BD704770477047704710
:102080007047704770472DE9F0410446876D00F0B6
:10209000DDFA064694F835000025022806D0802097
:1020A000606584F834500120BDE8F0812068016843
:1020B00021F0160101602068416921F08001416131
:1020C000206C08B9A06C20B12068016821F00801DB
:1020D00001602068016821F0010101600CE000F05E
:1020E000B5FA801B052807D920206065032084F8F5
:1020F000350084F83450D7E720680068C007EED177
:1021000094F85C103F208840B860012084F83500C6
:1021100084F834500020C7E790F83510022903D026
:102120008021416501207047052180F83510006845
:10213000016821F00101016000207047406D704787
:102140002DE9F84304464FF00009CDF800906348AC
:102150004FF41651A56D0068B0FBF1F72E6894F8A6
:102160005C10082000FA01F131420FD021680A68A2
:1021700052070BD50A6822F004020A6094F85C103A
:102180008840A860606D40F00100606594F85C10C4
:102190004FF0010808FA01F0304208D0216849697F
:1021A000090604D5A860606D40F00200606594F8EF
:1021B0005C1004208840304208D0216809688907F3
:1021C00004D5A860606D40F00400606594F85C1070
:1021D00010208840304218D021680968090714D5BA
:1021E000A86020680168490304D50068000308D589
:1021F000A16C07E00168C90503D4016821F008015A
:102200000160216C09B12046884794F85C102020B9
:102210008840304231D021680968C9062DD5A860B0
:1022200094F8350005282068016806D0490347D591
:10223000006800031DD4616C1CE021F016010160F0
:102240002068416921F080014161206C08B9A06CCF
:1022500020B12068016821F00801016094F85C1049
:102260003F208840A86084F8358084F83490216D40
:102270001FE0E16B09B120468847606D00282BD034
:10228000606DC00714D0052084F83500206801680F
:1022900021F0010101600098401C0090B84203D871
:1022A00020680068C007F6D184F8358084F834903F
:1022B000E16C002910D001B02046BDE8F04308478A
:1022C0000168C905D5D4016821F01001016084F8C6
:1022D000358084F83490CCE7BDE8F883A000002076
:1022E0002DE9F041044600F0B1F906465CB1022048
:1022F00084F83500002584F834502068016821F006
:10230000010101600DE00120BDE8F08100F09EF9BF
:10231000801B052805D920206065032084F835003E
:10232000F2E720680068C007F0D1226811682048F1
:102330000140D4E901031843D4E903363343184379
:1023400063691843A3691843E3691843236A184370
:102350000843616A042903D1D4E90B1319430843E4
:10236000106020684069666A20F0070130460E431D
:10237000012704280CD1A06A0643E06A40B1204638
:10238000FEF7DCFD20B14020606584F83570BAE7C7
:10239000206846612046FEF7BDFD94F85C203F2191
:1023A00091408160656584F835700020ACE70000DD
:1023B0003F8010F02DE9F0410446866D90F834001E
:1023C000002501280DD0012084F8340094F83570E0
:1023D0000020012F07D084F8340002252846BDE8EC
:1023E000F0810220FBE7022784F835706065204603
:1023F000FEF7CEFD94F85C103F208840B060206866
:10240000016841F016010160206C20B1206801686C
:1024100041F0080101602068016841F0010101609C
:10242000DCE7000070B5044600F010F90546601CBA
:1024300002D004480078044400F008F9401BA04290
:10244000FAD370BD940000202DE9F84FDFF8BCA14D
:102450000022012503264FF00F090AF1040BAAF10F
:10246000040E00BF0B6805FA02F42340A34270D1AA
:102470000F7907F00307012F01D0022F16D18768CB
:102480004FEA420806FA08FC27EA0C07D1F80CC00C
:102490000CFA08FC4CEA070CC0F808C04768A743D0
:1024A0000C79C4F3001494403C4344600C79E44339
:1024B000A4070AD0C4684FEA420C06FA0CF7BC43E2
:1024C0008F6807FA0CF72743C7600C7904F0030400
:1024D000022C12D1D40800EB840CDCF82040570702
:1024E000FF0E09FA07F824EA0804D1F8108008FA68
:1024F00007F848EA0408CCF8208004684FEA420C48
:1025000006FA0CF7BC430F7907F0030707FA0CF73C
:10251000274307604C6814F4403F70D03C4C276858
:1025200047F480472760246822F0030704F48044BE
:102530000094384C07EB040CDCF8084897074FEA86
:10254000177809FA08F7BC43334FB84202D1002785
:1025500024E054E0314FB84201D101271EE0304F52
:10256000B84201D1022719E02E4FB84201D103270A
:1025700014E02D4FB84201D104270FE02B4FB84291
:1025800001D105270AE02A4FB84201D1062705E00C
:10259000284FB84201D1072700E0082707FA08F7BB
:1025A0002743CCF80878DAF800405746D1F804C041
:1025B0009C435FEACC2C00D51C433C60DBF8004018
:1025C0005F46D1F804C09C435FEA8C2C00D51C43C5
:1025D0003C60DEF800407746D1F804C09C435FEAD7
:1025E0008C3C00D51C433C60084F083F3C68D1F848
:1025F00004C09C435FEACC3C00D51C433C60521CA9
:10260000102AFFF42FAFBDE8F88F0000083C01400E
:102610004438024000300140000002400004024003
:1026200000080240000C024000100240001402406A
:1026300000180240001C02400069084000D0012040
:1026400070470AB1816170470904FBE7014880685F
:10265000704700009400002070B5040011D021687C
:102660004CF6CC400860216845F255500860D4E92A
:10267000000141602168A0688860FFF7E7FF054618
:102680000DE0012070BD00BFFFF7E0FF401B3128C7
:1026900005D92068C068800701D0032070BD20687C
:1026A000C0688007F0D121684AF6AA20086000209F
:1026B00070BD000002488168027811448160704753
:1026C000940000200B4810B5016841F400710160CE
:1026D000016841F480610160016841F4807101602A
:1026E000032000F0A3F80F2000F006F800F04AF8ED
:1026F000002010BD003C024030B505461C4887B0A4
:102700000024016841F001010160006806A900F0A1
:102710000100009001A800F035F900F063F91549B7
:102720004000B0FBF1F11548134A491E026040F227
:10273000E732C0E90324C0E90114846101F044F8E0
:10274000040012D10D4801F0B5F804000DD1192094
:1027500000F03EF8102D07D200222946192000F083
:1027600045F80748056000E0012407B0204630BD69
:102770004438024040420F0000000140C00C0020DD
:1027800098000020114808B5016841F480410160BB
:10279000006800F4804000900C48001F016841F080
:1027A000805101600068002200F0805000900F21ED
:1027B000901E00F01BF800220221512000F016F8B4
:1027C000BDE80840512000F003B800004438024042
:1027D000002809DB00F01F02012191404009800020
:1027E00000F1E020C0F8001170470000F0B40E4B7B
:1027F0001B680C46C3F30223C3F10705042D00D95F
:102800000425191D072901D2002300E0DB1E012643
:1028100006FA05F1491E214099409E40761E164059
:102820003143F0BC04F094BF0CED00E0064900F029
:10283000070208684FF6FF03184040EA0220034AE7
:1028400010430860704700000CED00E00000FA053E
:102850002DE9F0470E46050065D0DFF81481D8F861
:102860000000F7B200F00700B04207D288F800700D
:10287000D8F8000000F00700B04254D128683D4C61
:10288000810712D5400703D5206840F4E05020604E
:102890002878000703D5206840F460402060206855
:1028A000A96820F0F000084320602878C0072DD0E8
:1028B000304968680839012812D0022813D003284B
:1028C00011D00968890700292DDA216821F0030158
:1028D00001432160FFF7BAFE814641F2883A0EE0DB
:1028E00009688903EFE709688901ECE7FFF7AEFEA5
:1028F000A0EB0901514502D90320BDE8F08720680B
:10290000696800F00C00B0EB810FEFD1D8F800102F
:10291000404601F00701B14207D90770006800F096
:102920000700B04201D00120E7E72878400705D52D
:102930002068E96820F4E050084320602878000708
:1029400006D52068296920F4604040EAC100206073
:1029500000F058F82168084AC1F30311515CC840DF
:102960000649086006480068FFF7C6FE0020C4E775
:10297000003C02400838024058AB0008A00000208C
:10298000980000200F2202600C4A136803F0030332
:102990004360136803F0F0038360136803F4E053AB
:1029A000C36012684FF4E05303EAD20202610448A4
:1029B000006800F007000860704700000838024017
:1029C000003C02400448054900680968044AC1F314
:1029D0008221515CC8407047A000002008380240A6
:1029E00068AB00080448054900680968044AC1F357
:1029F0004231515CC8407047A000002008380240B6
:102A000068AB0008154810B5006810F00C021448B7
:102A100013D01449042A0FD0082A0ED10F4C241FBA
:102A20002268236802F03F025B0207D52068C0F3EA
:102A30008810A0FB010106E0084610BD2168C1F323
:102A40008811A1FB00010023FDF71CFC2168C1F3E4
:102A50000141491C4900B0FBF1F010BD08380240AB
:102A60000024F40040787D012DE9F84F04006ED079
:102A70002078DFF84C93C007A9F104054AD009F18A
:102A800004000168C1F38101012908D00068C0F386
:102A9000810002280AD1D9F80000400206D5286832
:102AA000800337D560680028E1D033E06068B0F576
:102AB000803F10D0B0F5A02F286810D020F48030CF
:102AC0002860286820F4802028606068A8B1FFF79B
:102AD000BDFD06460DE0286840F48030F4E740F480
:102AE00080202860F7E700BFFFF7B0FD801B642857
:102AF00073D828688003F7D50CE0FFF7A7FD0646DA
:102B000005E000BFFFF7A2FD801B6428F0D828680D
:102B10008003F7D42078DFF8AC8280074FF0000AFA
:102B20003ED5A748001D016811F00C0F08D00068C1
:102B3000C0F3810002280BD1D9F80000400207D46D
:102B40002868800716D5E068012800D112E033E13B
:102B5000E068B8B10120C8F80000FFF777FD06462D
:102B600005E000BFFFF772FD801B0228C0D828686F
:102B70008007F7D52868216920F0F80040EAC100F5
:102B800028600DE0C8F800A0FFF760FD064604E0ED
:102B9000FFF75CFD801B02281FD828688007F7D448
:102BA0002078000722D5864F87486169703771B158
:102BB00001210160FFF74AFD064604E0FFF746FDEC
:102BC000801B022809D838688007F7D50EE0C0F8C6
:102BD00000A0FFF73BFD064605E082E0FFF736FD6B
:102BE000801B02287DD838688007F7D420784007FA
:102BF00068D5DFF8CCB100270BF13C0BDBF8000007
:102C0000C0000BD4DBF8001041F08051CBF800106D
:102C1000DBF80000012700F0805000906B4E306818
:102C2000C00510D4306840F480703060FFF70EFDAE
:102C3000009005E0FFF70AFD0099401A022850D8DD
:102C40003068C005F6D55E4EA0686C3601280FD0FE
:102C50000528306810D020F001003060306820F086
:102C600004003060A068B8B1FFF7F0FC00900FE0FE
:102C7000306840F00100F4E740F004003060F7E70E
:102C8000FFF7E4FC0099411A41F28830814266D88E
:102C900030688007F4D50EE0FFF7D8FC009007E01D
:102CA000FFF7D4FC0099411A41F28830814256D88E
:102CB00030688007F4D42FB1DBF8001021F0805188
:102CC000CBF80010A069C8B33D49091D0968C1F3DC
:102CD000810102294AD00228504607D0C8F8600076
:102CE00000E03CE0FFF7B2FC04463BE04746C8F892
:102CF0006000FFF7ABFC064605E000BFFFF7A6FC4F
:102D0000801B02282BD828688001F7D4D4E907015A
:102D10000843A16A2E4A490802EB0141626A41EA6E
:102D20008211084394F82C1040EA0161C9F80010A0
:102D300001203866FFF78AFC044606E03EE000BF4B
:102D4000FFF784FC001B022809D828688001F7D50A
:102D500034E000BFFFF77AFC001B022802D90320F1
:102D6000BDE8F88F28688001F4D427E00128F7D067
:102D7000D9F80000E26900F4800191421CD1226A76
:102D800000F03F01914217D147F6C071626A0140DD
:102D9000B1EB821F10D1A26A4FF0FF3300F4403133
:102DA00003EB5202B1EB024F06D194F82C1000F065
:102DB0007060B0EB016F01D00120D1E70020CFE7B8
:102DC0000438024000004742800E47420070004035
:102DD0000000FFFF10B5FDF725FF10BD2DE9FE43F4
:102DE0000446002603200D4684F83400606C032856
:102DF0005ED0B5F5805F5BD04FF4006700204FF0E8
:102E00008068BD421FD1814600900190002120685A
:102E100002F01CFF800113D46946204603F00AFB30
:102E200007000DD10198400334D5B4F850000104D7
:102E3000206802F043FF070002D10221206823E04E
:102E4000A06B384328E01DB1A06B40F0006023E088
:102E50008146009001900021206802F0F7FE800179
:102E6000EED46946204603F0E5FA0700E8D1019860
:102E7000C0030FD5B4F850000104206802F01EFF13
:102E80000700DDD10021206802F065FF0700D7D1DF
:102E90004F46D5E74746D3E7A063A06B144F4FF0EA
:102EA000010848B12068876384F8348001260EE069
:102EB000A06B40F08050EFE7211DD4E9050C0EC94E
:102EC000CDE90050CDF808C0206802F0C9FE4FF4EB
:102ED0000071206802F026FF28B121688F63A16B82
:102EE0000143A163012684F834803046BDE8FE83A7
:102EF000FF05400070470000F0B5426E920F0A7067
:102F0000426EC2F383624A70426EC2F301628A70FB
:102F1000426E120CCA70B0F86420120A0A7190F85E
:102F200064204A71826E120DCA80826EC2F303421F
:102F30000A72B0F86820C2F3C0324A72B0F8682052
:102F4000C2F380328A72B0F86820C2F34032CA728B
:102F5000B0F86820C2F300320A7300264E73426C48
:102F60004FF40075012462B1012A3AD00268474942
:102F70009163816B41F08051816380F8344001207E
:102F8000F0BDB0F86820C36E9205120D42EA93724C
:102F90000A61C26EC2F3C2620A75C26EC2F30262F5
:102FA0004A75C26EC2F342528A75C26EC2F3824241
:102FB000CA75C26EC2F3C2320A760A69521C4265F1
:102FC0000B7E03F007039B1C9A4042650B7A03F0CB
:102FD0000F0704FA07F383655B0A5A43C0E9172514
:102FE0000EE090F86820C36E9206920A42EA1342FD
:102FF0000A610A69521C92024265C0E916520566CE
:1030000030F86C2FC2F3803201F8192F0288C2F316
:10301000C6124A70027802F07F028A704268D20FAC
:10302000CA704268C2F341720A714268C2F3826296
:103030004A714268C2F383528A714268C2F34052B5
:10304000CA710E724268C2F300424A728288C2F3A9
:10305000C0328A728288C2F38032CA728288C2F316
:1030600040320A738288C2F300324A738288C2F304
:1030700081228A738288C2F30122CA730079C0F365
:10308000460008744C740020F0BD0000FF054000AD
:10309000426C0A60826C4A60C26C8A60026DCA60CF
:1030A000426D0A61826D4A61C26D8A61006EC861BB
:1030B0000020704770B50446B0F8500000250104A8
:1030C000206802F030FF18B1A16B0143A16304E056
:1030D0000021206802F0BAFD0546C5F3432070BD0B
:1030E000F8B5056B04460068416B09041BD5290738
:1030F00019D5D4E90A56002E14D00027206802F012
:10310000C5FD05F8010B010A05F8011B010C05F8C6
:10311000021B000E361F7F1C05F8010C082FEDD393
:10312000C4E90A56F8BD416B4FF00006C9054FF0DF
:10313000010744D5390281632068C16B4CF23A32F1
:103140009143C1632068C16A21F00101C16228076F
:103150001DD515F0220F09D0206802F015FF28B107
:10316000A16B0143A1632046FFF7C4FE216840F232
:103170003A50886384F834702663A80703D0204649
:1031800000F040FAF8BD204600F040FAF8BD2806ED
:10319000FCD5A80609D5206802F0F6FE28B1A16B7F
:1031A0000143A1632046FFF7A5FEA807EED12068E2
:1031B000C16A21F00801C16284F83470E3E7416B11
:1031C000490424D5290722D5D4E90856002EDDD09C
:1031D0005FF0000715F8010B009015F8011B361F72
:1031E00040EA0120009015F8021B40EA01400090DF
:1031F00015F8011C40EA016000906946206802F061
:1032000058FD7F1C082FE5D3C4E90856F8BD416B73
:1032100040F23A221142F9D0416B890703D5A16BE4
:1032200041F00201A163416B090703D5A16B41F095
:103230000801A163416B890603D5A16B41F0200110
:10324000A163416BC90603D5A16B41F01001A163D5
:10325000416B890503D5A16B41F00801A16340F2E0
:103260003A7181632068C16B40F23A329143C16385
:10327000206802F089FEA16B0843A063280706D5E9
:1032800084F8347026632046FFF734FEF8BD280624
:10329000FCD515F0300F0CD0E16B11480865E06BE0
:1032A000FEF73AFF0028F1D0E06BBDE8F84003F0EC
:1032B0009FB8A8070CD0216C0A480865206CFEF75F
:1032C0002BFF0028E2D0206CBDE8F84003F067B87F
:1032D000A66384F8347026632046FFF77BFDF8BDB3
:1032E000F16300089F63000870B504000ED094F8E5
:1032F0003400002518B92577204600F04FF8032048
:1033000084F83400204600F00BF808B1012070BDAD
:10331000A5632563012084F83400002070BD0000FF
:10332000FEB50025044676200095CDE901502946DA
:103330000B460A46206802F093FC48BB154E46F83F
:10334000A05F206802F09EFC012535600220FFF797
:1033500069F8204603F052F930B100BF84F83450C8
:10336000A16B0143A16313E0204603F0D0F80028CD
:10337000F4D14FF40071206802F0D4FC002808D08A
:10338000226805499163A16B0143A16384F834501D
:103390000120FEBD00802542FF0540002DE9F04FD1
:1033A00087B0054614216846FCF7B6FF46492868F1
:1033B00088427DD145480068444940F40060086077
:1033C000086800F4006005904048143800683F49E0
:1033D00040F0040014390860086800F0040005900B
:1033E000086840F0080008600868022400F008003F
:1033F00005904FF4F850CDE9000402AA00200326FE
:103400004FF00C0882E8410169463148FFF71CF88B
:1034100002AA002082E841010427CDE90074694630
:103420002C48FFF711F82D4C2B484FF00068C4E9E9
:10343000000800204FF48069A060C4E90309B802C5
:103440004FF4804BC4E9050BC4E909764FF0200A1C
:103450000020C4E907A07E05B7102046C4E90B6729
:10346000FEF73EFF08B1FDF799FE2C64A5631B4CE7
:10347000194860344830C4E900084020A0600020AA
:10348000C4E90309C4E907A00420606204F128022A
:10349000032082E8C1004FF48051C4E9051B204697
:1034A000FEF71EFF08B1FDF779FEEC63002200E095
:1034B00007E005213120A563FFF798F93120FFF7D8
:1034C00087F907B0BDE8F08F002C01404438024076
:1034D00000080240000C0240586402400409002029
:1034E0002DE9F04786B01F460446154639B194F8D9
:1034F0003400012807D0022006B0BDE8F087A06B99
:1035000040F0006008E00020A063E36DEA199A42F1
:1035100004D9A06B40F00070A06369E0032284F836
:10352000342022688146D0622268D36B40F22A366A
:103530003343D363236C2F4ADA63236C2E4ADA6455
:10354000226C1065226C9060206C0068026822F08A
:10355000C002026020680A46266C4FEA472800F144
:1035600080014FEA98033046FEF724FFDFF88CA075
:10357000012670B12068C16B21F49571C163216887
:10358000C1F838A0A06B40F08040A06384F834609C
:103590002EE01B480660606C012800D06D024FF0E1
:1035A000FF30CDE900089020029002200596CDE979
:1035B00003096946206802F033FB012F06D98220F7
:1035C00020632946206802F01FFC05E0812020636B
:1035D0002946206802F031FC00288DD02268C2F80C
:1035E00038A0A16B0143A16384F83460C4F8309023
:1035F000012081E75D630008F9620008FF054000D3
:103600008C85254210B5FDF74FFB10BD10B5FDF7B9
:1036100067FB10BD2DE9F04F5FEA010B87B01E4636
:103620000446114607D094F83400012807D0022040
:1036300007B0BDE8F08FA06B40F0006008E0002507
:10364000A563E26D8819904204D9A06B40F0007028
:10365000A06356E0032084F834002068C562206827
:10366000C26B40F21A2942EA0902C263E26B2D489A
:10367000D063E26B2C48D064E06B0565606C012878
:1036800000D049024FF09008012E05D9A0202063F8
:10369000206802F093FC04E0C4F83080206802F057
:1036A000A6FCDFF888A0012730B12268C2F838A054
:1036B000A16B0143A16321E01D480760E16B40203D
:1036C0008860E06B0068016821F0C00141F04001B2
:1036D000016022687602B30859468032E06BFEF73B
:1036E00069FE80B12068C16B21EA0901C1632168CC
:1036F000C1F838A0A06B40F08040A06384F834701B
:103700002563012094E74FF0FF30CDE90006CDE9B5
:103710000285CDE904576946206802F081FA00204D
:1037200086E70000E3630008F9620008FF05400037
:103730008C8525427047704770B590F83C20012A6F
:1037400032D0012480F83C40022280F83D200368FA
:103750005A689D6822F070060A6832435A60134B1B
:1037600002689A4214D0B2F1804F11D0104B9A42A5
:103770000ED0104B9A420BD00F4B9A4208D00F4BF1
:103780009A4205D00E4B9A4202D00E4B9A4204D177
:10379000496825F080031943916080F83D4000217D
:1037A00080F83C10084670BD022070BD000001404A
:1037B0000004004000080040000C004000040140EC
:1037C000004001400018004010B5040003D094F8F8
:1037D0003D0010B107E0012010BD002084F83C003E
:1037E000204600F01FF8022084F83D00211D2068CB
:1037F00003F0FEF8012084F8460084F83E0084F8C7
:103800003F0084F8400084F8410084F8420084F8C6
:10381000430084F8440084F8450084F83D0000200B
:1038200010BD000010B586B0044614216846FCF7B0
:1038300073FD226800211C48B2F1804F0CD01B4957
:103840008A4207D1016841F480710160006800F488
:103850008070059006B010BD026842F0010202605F
:10386000006800F0010005900F481038026842F02F
:1038700001020260006800F0010005902E20009017
:103880000220CDE901010120CDE903106946084875
:10389000FEF7DAFD002202211C20FEF7A7FF1C2004
:1038A000FEF796FFD6E700004038024000200040B7
:1038B0000000024090F83D10012901D0012070471E
:1038C000022180F83D100168CA6842F00102CA6016
:1038D00000681149884214D0B0F1804F11D00F49CF
:1038E00088420ED00E4988420BD00E49884208D03B
:1038F0000D49884205D00D49884202D00C498842C2
:1039000004D1816801F00701062903D0016841F064
:1039100001010160002070470000014000040040E8
:1039200000080040000C004000040140004001403D
:103930000018004070B5044690F83C0000250128AE
:1039400017D0012684F83C60022084F83D002068EE
:10395000826822F0770222F47F4282600868502851
:1039600038D00DDC20284FD005DC90B3102811D1C1
:103970004AE0022070BD302846D040280AD13BE002
:1039800060282FD070280DD0B0F5805F03D0B0F53F
:10399000005F12D0012584F83D60002084F83C00CF
:1039A000284670BDCB68D1E90121206803F091F869
:1039B0002068816841F0770109E0CB68D1E90121F5
:1039C000206803F086F82068816841F480418160B6
:1039D000E1E719E0CA684968206803F08CF85021D3
:1039E000206806E0CA684968206803F0D5F86021BD
:1039F000206803F078F8CEE7CA684968206803F0C9
:103A00007AF840212068F4E7226801461046F0E782
:103A10002DE9F04107460068B0F1804F40D1214DBB
:103A20006878214C012802D1A068401CA0601D4884
:103A300018304078012802D1E068401CE060194845
:103A400030304078012802D12069401C206115489F
:103A500048304078012802D16069401C6061022131
:103A60001248FEF7E9FD01281AD1A8780126A8B16D
:103A70000021384600F060F9A06868603868406A44
:103A80006969401AA8600020A66068702E70A8704E
:103A9000A06DBDE8F041012104F0CEBC6E702E7423
:103AA000BDE8F081C00300200800002000000240B3
:103AB0002DE9F041054690F83C0000260C4601280F
:103AC00010D0012085F83C0072B1042A1CD0082ACD
:103AD0002CD00C2A50D00126002085F83C0030461E
:103AE000BDE8F0810220FBE7D4E90012E368286812
:103AF00003F012F82868816921F00C0181612868BF
:103B00008169A26811430FE0D4E90012E3682868D4
:103B100003F054F82868816921F4406181612868C4
:103B20008169A26841EA02218161D5E72868D4E968
:103B3000002C277B016A21F480710162C169036A4C
:103B400021F0030141EA0C0121F0F00C39074FF498
:103B500020674CEA116123F4206307EA02221A432A
:103B6000C16102622868C16921F00C01C161286845
:103B7000C169A268114328E02868D4E90027E168F8
:103B8000036A23F480530362D0F81CC0036A2CF448
:103B9000407C4CEA07274FF6FF7C27F470470CEA7D
:103BA000013139434FF4204723F4204307EA02321E
:103BB0001A43C16102622868C16921F44061C16190
:103BC0002868C169A26841EA0221C16184E710B591
:103BD000040003D094F83D0010B107E0012010BDAF
:103BE000002084F83C00204600F01EF8022084F8F3
:103BF0003D00211D206802F0FBFE012084F84600F4
:103C000084F83E0084F83F0084F8400084F84100C6
:103C100084F8420084F8430084F8440084F84500A6
:103C200084F83D00002010BD7047000030B5044608
:103C3000002551B104290DD0082910D094F8410075
:103C400094F84520012811D10EE094F83E0094F834
:103C50004220F7E794F83F0094F84320F2E794F805
:103C6000400094F84420EDE7012A01D0012030BD46
:103C7000022059B1042912D0082919D084F8410032
:103C800084F845000C2944D0012540E084F83E002A
:103C900084F842002068C26842F0020210E084F812
:103CA0003F0084F843002068C26842F0040207E045
:103CB00084F8400084F844002068C26842F008029A
:103CC000C2600122206802F0F7FE14492068884291
:103CD00014D0B0F1804F11D0114988420ED0114953
:103CE00088420BD01049884208D01049884205D03C
:103CF0000F49884202D00F49884204D1816801F0FF
:103D00000701062903D0016841F00101016028463E
:103D100030BD2068C26842F01002D1E700000140C7
:103D20000004004000080040000C00400004014076
:103D3000004001400018004070B50D0004464FF0EF
:103D4000000607D0042D0AD0082D0DD00C2D10D060
:103D500001262FE02068C16821F002010DE02068F3
:103D6000C16821F0040108E02068C16821F0080161
:103D700003E02068C16821F01001C16000222946DB
:103D8000206802F099FE2068016A41F21112114286
:103D900007D1016A9210114203D1016821F001019B
:103DA0000160012045B1042D09D0082D0AD004F886
:103DB000410F2071304670BD04F83E0FF9E704F85A
:103DC0003F0FF6E704F8400FF3E770B504460068CC
:103DD00001694FF00005C943890715D4C168C9437B
:103DE000890711D4E91E01610120207720688069CC
:103DF0008007204602D0FFF70BFE04E000F098F8A1
:103E0000204600F096F8257720680169C9434907E4
:103E100017D4C168C943490713D46FF00401016185
:103E2000022020772068806910F4407F204602D06D
:103E3000FFF7EEFD04E000F07BF8204600F079F893
:103E4000257720680169C943090716D4C168C943A9
:103E5000090712D46FF0080101610420207720685F
:103E6000C0698007204602D0FFF7D2FD04E000F0D1
:103E70005FF8204600F05DF8257720680169C943A6
:103E8000C90617D4C168C943C90613D46FF010011D
:103E90000161082020772068C06910F4407F204627
:103EA00002D0FFF7B5FD04E000F042F8204600F034
:103EB00040F8257720680169C943C90708D1C1685E
:103EC000C943C90704D1891E0161204600F032F8B8
:103ED00020680169C943090609D4C168C9430906B4
:103EE00005D46FF0800101612046FFF723FC2068B4
:103EF0000169C943490609D4C168C943490605D4C3
:103F00006FF040010161204600F01EF82068016951
:103F1000C94389060BD4C168C943890607D46FF029
:103F2000200101612046BDE87040FFF704BC70BD70
:103F30007047704700680349884201D1FEF7BABB59
:103F400070470000000001407047704770B504469C
:103F500020680C3050E8001F21F4907140E80012F6
:103F6000002AF5D12068143050E8001F21F001012B
:103F700040E80012002AF5D1206B012809D1206801
:103F80000C3050E8001F21F0100140E80012002A18
:103F9000F5D1206840694FF00005400615D520682E
:103FA000143050E8001F21F0400140E80012002AC0
:103FB000F5D1A06B48B10565A06BFEF764F820B1A0
:103FC000A06BFEF7BBF8202806D0E585202084F8FA
:103FD0003E002563002070BD10202064032070BDCA
:103FE00070470000F8B5016804460868CA684B6964
:103FF00010F00F0F4FF0000559D003F0010602F446
:104000009077374365D0C10705D0D10503D5216C22
:1040100041F001012164410705D5D90703D0216C86
:1040200041F002012164810705D5D90703D0216C35
:1040300041F004012164010707D502F0200131435A
:1040400003D0216C41F008012164216C00293AD091
:10405000800604D5900602D5204602F07AFE20683C
:104060004069216CC0F38010090700D460B320467A
:1040700002F03AFE20684069400621D520681430DD
:1040800050E8001F21F0400140E80012002AF5D15D
:10409000A06BA8B16C490165A06BFEF73DF8002844
:1040A00011D0A06B016D01B0BDE8F0400847830658
:1040B0000FD593060DD52046BDE8F84002F049BE65
:1040C0002046FFF78DFFF8BD2046FFF789FF2564E6
:1040D000F8BD266B2023012E79D1C60677D5D606EA
:1040E00075D50868486800904869400640D5A16BBE
:1040F000086840680004000CEAD0A28D8242E7D92B
:10410000E085C869B0F5807F2DD020680C3050E87C
:10411000001F21F4807140E80012002AF5D12068C8
:10412000143050E8001F21F0010140E80012002A7D
:10413000F5D12068143050E8001F21F0400140E81C
:104140000012002AF5D184F83E30256320680C3037
:1041500050E8001F21F0100140E80012002AF5D1BC
:10416000A06BFDF790FFA08DE18D401A81B229E090
:10417000A08DE18D401A81B2E08D0028A8D00029E1
:10418000A6D020680C3050E8002F22F4907240E84E
:104190000026002EF5D12068143050E8002F22F0C0
:1041A000010240E80026002EF5D184F83E30256358
:1041B00020680C3050E8002F22F0100240E8002365
:1041C000002BF5D12046FFF7C0FEF8BDFFE705063E
:1041D0002BD5150629D594F83D002128F5D1A068E6
:1041E000B0F5805F01D12069B0B1206A411C216225
:1041F000216800784860E08C401E0004000CE084D8
:10420000E3D12068C16821F08001C1602068C168E5
:1042100041F04001C160D8E7206A0088C0F308007F
:104220004860206A801C2062E5E74006CDD5500634
:10423000CBD5CA68204622F04002CA6084F83D30DF
:1042400000F0EFF9C1E70000F36B000870B504005F
:1042500004D094F83D00002510B106E0012070BDA7
:1042600084F83C50204600F023F8242084F83D00D8
:104270002068C16821F40051C160204602F0CAFDE7
:104280002068016921F4904101612068416921F0B1
:104290002A0141612068C16841F40051C160256470
:1042A000202084F83D0084F83E00002070BD00000E
:1042B0002DE9F04387B0054614216846FCF72CF839
:1042C0007348DFF8C8810221D5F800C0002403221A
:1042D00007238E060715C4453ED1DFF8B4C10CF1A3
:1042E000140CDCF8008048F01008CCF80080DCF8F2
:1042F00000C00CF0100CCDF814C0D0F800C04CF089
:10430000010CC0F800C0006800F0010005905002E8
:104310008DE8130069465F48CDE90323FEF794F862
:10432000DFF878815C494046E0E80216402192C0FF
:1043300040F814498461C46104624046C8F82440CE
:10434000FDF7CEFF08B1FCF729FFC5F83480C8F8A7
:10435000385007B0BDE8F083DFF84481DFF83091D2
:10436000C44509F1100944D1D9F8008048F4003857
:10437000C9F80080D9F800C00CF4003CCDF814C096
:10438000D0F800C04CF0080CC0F800C0006800F085
:104390000800059060208DE8130069464148CDE98A
:1043A0000323FEF751F8DFF8F4803F4908F1600875
:1043B0004046C8F80010C0E90164C0E90347C8F8E6
:1043C00014404FF44031C8F81840C8E90741C8F814
:1043D0002440FDF785FF08B1FCF7E0FEC5F8388002
:1043E000002205212620C8F83850FEF7FFF92620C4
:1043F00049E0DFF8B880C445ABD1D9F8008048F473
:104400008028C9F80080D9F800C00CF4802CCDF8C1
:1044100014C0D0F800C04CF0020CC0F800C0006816
:1044200000F0020005904FF440608DE813006946EB
:104430001F48CDE90323FEF707F8DFF860801A492B
:1044400008F1C00860394046C8F80010C0E90164AE
:10445000C0E90347C8F81440C8F81840C8F81C4021
:10446000C8F82040C8F82440FDF73AFF08B1FCF72F
:1044700095FEC5F83880002205212720C8F838505D
:10448000FEF7B4F92720FEF7A3F962E70010014018
:104490003038024000000240B8640240A00B002007
:1044A00000440040000C0240886002400048004088
:1044B0000004024090F83E30202B0ED159B152B189
:1044C00090F83C30012B08D0012380F83C300023C9
:1044D000036302F025BD012070470220704790F869
:1044E0003E30202B0ED159B152B190F83C30012B07
:1044F00008D0012380F83C300023036302F05ABD4A
:10450000012070470220704700681249884220D17C
:1045100011484188090417D44188B1F5006F0FD2C2
:1045200042880E4909684AB141680D490A784188B4
:104530000C4B0B44491C41801A7005E04160F4E7C4
:10454000418841F400414180012205490648FFF7B6
:10455000C6BF704700480040080000209C000020B3
:1045600091000020607300205C0B00207047000069
:104570002DE9F843044690F83D001F4616460D46C7
:1045800020284CD1C5B1BEB194F83C00012846D0DA
:10459000012084F83C004FF00008C4F8408021203E
:1045A00084F83D00FEF752F8A6848146E684A068B0
:1045B000B0F5805F03D004E00120BDE8F8832069F6
:1045C00028B12E465FF0000584F83C800EE00026FE
:1045D000FAE78021204602F00AFDA0B9AEB116F834
:1045E000010B21684860E08C401EE084E08C4B4663
:1045F0004FF0000200970028EBD14FF04001204619
:1046000002F0F5FC30B10320D7E735F8020BC0F318
:104610000800E6E7202084F83D000020CDE70220D6
:10462000CBE7704701A003F059F8FEE74572726FBF
:10463000725F486172644661756C745F48616E6454
:104640006C65720D0A000000044C4AF6AA25206829
:104650000560642003F0A3FEF9E700007408002061
:104660007FB500213448009101910291314A0391B4
:10467000026001244FF480320461C0E90121047614
:1046800080F820102D4AC0E90A210625C561C160C5
:1046900080F830404461FCF795FF08B1FCF77EFDDF
:1046A0000C20CDE90004694623480294FCF7CCFEB7
:1046B00008B1FCF773FD0B200090022001906946C1
:1046C0001D48FCF7C1FE08B1FCF768FD0820032473
:1046D000CDE9000469461848FCF7B6FE08B1FCF7BE
:1046E0005DFD0E2000900420019069461248FCF701
:1046F000ABFE08B1FCF752FD0A2000900520CDE981
:10470000010569460C48FCF79FFE08B1FCF746FD21
:104710000F20CDE90005694602940748FCF794FE96
:1047200008B1FCF73BFD3C2205490348FDF72AF898
:104730007FBD000000200140D40600200100000FD2
:10474000940500207FB500211E480091019102913F
:104750001B4A0391026001244FF480320461C0E9D6
:104760000121047680F82010174AC0E90A210225A9
:10477000C561C16080F830404461FCF723FF08B197
:10478000FCF70CFD0920CDE90004072002906946E2
:104790000C48FCF759FE08B1FCF700FD0620CDE9F6
:1047A000000569460748FCF74FFE08B1FCF7F6FC28
:1047B0000449142298390348FCF7E4FF7FBD000048
:1047C000002101401C0700200100000F70B51948AE
:1047D0001749002401601821C0E901144FF4003189
:1047E000C0E9034109014161047644768476C476C8
:1047F000047701254577FDF7FEFA08B1FCF7CEFCFA
:104800000C482838014644610461046044608460B7
:104810000562C460C0E906452830FDF7DDF80221D5
:104820000448FDF759F8BDE870400248FDF7F8BBB1
:10483000006400404C080020254808B5016841F498
:1048400080010160016801F480010091016841F478
:10485000001101600068002200F4001000900221A5
:104860000C20FDF7C3FF0C20FDF7B2FF0022022150
:104870001020FDF7BBFF1020FDF7AAFF0022022148
:104880003820FDF7B3FF3820FDF7A2FF00220221F8
:104890003A20FDF7ABFF3A20FDF79AFF00220721EF
:1048A0003B20FDF7A3FF3B20FDF792FF00220721ED
:1048B0004520FDF79BFF4520FDF78AFF00220721D9
:1048C0004620FDF793FFBDE808404620FDF780BF76
:1048D0003038024010B504490448FCF76DFC024929
:1048E000491E087010BD00008D0000203CAB000880
:1048F00070B50121594A084603F034FF584C574A15
:104900000121E0641032084603F02CFF534A206571
:10491000183A4021042003F097FEA064514A002178
:10492000514803F097FF4F4A2062243200214F483C
:1049300003F090FF4B4A6062483200214C4803F07C
:1049400089FF484AA0626C3200214A4803F082FF86
:10495000444AE06290320021474803F07BFF414A1D
:104960002063B4320021454803F074FF3B4A606382
:10497000A83A0021424803F06DFF384AA063843A08
:104980000021404803F066FF344AE063603A0021AA
:104990003D4803F05FFF314A20643C3A00213B4828
:1049A00003F058FF4FF0FF3560642946206D03F097
:1049B000ABFE2946E06C03F0A7FE206B08B134A0E3
:1049C00000E03CA002F08AFE206A08B142A000E0AC
:1049D0004AA002F083FE606A08B151A000E059A02D
:1049E00002F07CFEA06A08B15FA000E067A002F0C0
:1049F00075FEE06A08B16EA000E077A002F06EFEDE
:104A0000606B08B17EA000E086A002F067FEA06B9C
:104A100008B18EA000E096A002F060FEE06B08B145
:104A20009CA000E0A4A002F059FE206C08B1ABA04D
:104A300000E0B2A002F052FE606C08B1B7A000E046
:104A4000BFA002F04BFE0548203003F0DFFC60659C
:104A50000248303003F0DAFCA06570BDFCAA000803
:104A6000080000207CA900088D750008190D0008B9
:104A7000D559000895550008B90F00086968000865
:104A8000711200083512000849460008E154000878
:104A90004454555F496E69745F5461736B48616E2D
:104AA000646C65C8CECEF1B4B4BDA8B3C9B9A621B3
:104AB0000D0A0000204454555F496E69745F5461CB
:104AC000736B48616E646C65C8CECEF1B4B4BDA89A
:104AD000CAA7B0DC210D0A005769745F6461745F76
:104AE0005461736B48616E646C65C8CECEF1B4B42A
:104AF000BDA8B3C9B9A6210D0A00000020576974EA
:104B00005F6461745F5461736B48616E646C65C807
:104B1000CECEF1B4B4BDA8CAA7B0DC210D0A000006
:104B200043616E5F52785F5461736B48616E646C71
:104B300065C8CECEF1B4B4BDA8B3C9B9A6210D0ADB
:104B4000000000002043616E5F52785F5461736B18
:104B500048616E646C65C8CECEF1B4B4BDA8CAA776
:104B6000B0DC210D0A00000052425F526561645FB3
:104B70005461736B48616E646C65C8CECEF1B4B499
:104B8000BDA8B3C9B9A6210D0A0000002052425F9A
:104B9000526561645F5461736B48616E646C65C893
:104BA000CECEF1B4B4BDA8CAA7B0DC210D0A000076
:104BB0004F696C446973706C61795F5461736B48C1
:104BC000616E646C65C8CECEF1B4B4BDA8B3C9B98A
:104BD000A6210D0A00000000204F696C4469737023
:104BE0006C61795F5461736B48616E646C65C8CEAB
:104BF000CEF1B4B4BDA8CAA7B0DC210D0A000000F4
:104C00005369676E616C5F34475F5461736B4861D1
:104C10006E646C65C8CECEF1B4B4BDA8B3C9B9A6F4
:104C2000210D0A00205369676E616C5F34475F5441
:104C300061736B48616E646C65C8CECEF1B4B4BD6F
:104C4000A8CAA7B0DC210D0A000000004750535F3E
:104C5000496E69745F5461736B48616E646C65C8BA
:104C6000CECEF1B4B4BDA8B3C9B9A6210D0A0000D7
:104C7000204750535F496E69745F5461736B48619C
:104C80006E646C65C8CECEF1B4B4BDA8CAA7B0DC62
:104C9000210D0A004750535F4765745F5461736B81
:104CA00048616E646C65C8CECEF1B4B4BDA8B3C91A
:104CB000B9A6210D0A000000204750535F476574D4
:104CC0005F5461736B48616E646C65C8CECEF1B49D
:104CD000B4BDA8CAA7B0DC210D0A0000495744475B
:104CE0005F5461736B48616E646C65C8CECEF1B47D
:104CF000B4BDA8B3C9B9A6210D0A00002049574484
:104D0000475F5461736B48616E646C65C8CECEF1C9
:104D1000B4B4BDA8CAA7B0DC210D0A004F74686501
:104D2000726164635F7461736B48616E646C65C8C3
:104D3000CECEF1B4B4BDA8B3C9B9A6210D0A000006
:104D4000204F746865726164635F7461736B48615E
:104D50006E646C65C8CECEF1B4B4BDA8CAA7B0DC91
:104D6000210D0A00154808B5016841F08001016075
:104D7000016801F080010091016841F004010160C7
:104D8000016801F004010091016841F00101016036
:104D9000016801F001010091016841F00201016028
:104DA000016801F002010091016841F00801016011
:104DB000006800F00800009008BD00003038024094
:104DC000094810B507490160032141604FF47A7129
:104DD0008160FDF741FC002803D0BDE81040FCF7DE
:104DE000DDB910BD003000407408002007480649B6
:104DF0004FF400620160002141608160C0E903124C
:104E00004161022181617047002C0140800800202F
:104E10000B4810B50949016000214FF6FF7241604F
:104E2000C0E9021201618161FEF7CEFC002803D0C7
:104E3000BDE81040FCF7B2B910BD000000200040F2
:104E40000C0A002010B58AB0002430480494059460
:104E500006940794089409940094019402944FF0E6
:104E600080410394016048F24031C0E90114611EA1
:104E7000C0E9031480218161FEF7A6FC08B1FCF7AC
:104E80008DF94FF48050049004A92048FEF752FD9C
:104E900008B1FCF783F91D48FEF799FE08B1FCF74D
:104EA0007DF9089408A919480994FEF745FC08B152
:104EB000FCF774F90120CDE9004002940022694614
:104EC00012480394FEF7F4FD08B1FCF767F90422D9
:104ED00069460E48FEF7ECFD08B1FCF75FF90822C1
:104EE00069460A48FEF7E4FD08B1FCF757F90C22C1
:104EF00069460648FEF7DCFD08B1FCF74FF90C21C6
:104F00000248FEF793FE0AB010BD0000C40900205D
:104F10000C4810B50A4901604FF4E13141600021AD
:104F200081600C22C160C0E904128161C161FFF798
:104F30008DF9002803D0BDE81040FCF72FB910BD53
:104F400000100140D40A002038B5134C11480C2140
:104F500020604FF4E13060600020A060E060C4E9B0
:104F60000401A061E0612046FFF770F908B1FCF789
:104F700015F92068016841680091C16841F010018D
:104F8000C160BDE8384004498022C4390248FFF7B7
:104F900091BA000000440040180B002010B5114CDD
:104FA0000F480C2120604FF4165060600020A06074
:104FB000E060C4E90401A061E0612046FFF746F922
:104FC00008B1FCF7EBF82068C16841F02001C1602E
:104FD000BDE81040012204490248FFF780BA0000F2
:104FE000004800405C0B002091000020FEE70346D3
:104FF0000DE002782A2A03D0202A01D37A2A01D987
:10500000FF2070472C2A01D1491EC9B2401C00293B
:10501000EFD1C01AC0B2704738B50A4605460EA196
:105020001046FBF784F904460921FFF7E0FFFF284B
:1050300005D02044694600F0F1F9C5F86300072166
:105040002046FFF7D4FFFF2805D02044694600F032
:10505000E5F985F84F0038BD47474100F8B50A46E5
:10506000064624A11046FBF762F905460221FFF728
:10507000BEFFFF2805D02844694600F0CFF986F826
:105080005C000024E01CC1B22846FFF7B0FFFF28F7
:105090000AD02844694600F0C1F93119641CE4B211
:1050A00081F850000C2CEDD30F212846FFF79FFF0D
:1050B000FF2805D02844694600F0B0F9A6F85D0045
:1050C00010212846FFF793FFFF2805D028446946A2
:1050D00000F0A4F9A6F85F0011212846FFF787FF2A
:1050E000FF2805D02844694600F098F9A6F8610029
:1050F000F8BD0000475341002DE9F84F0C468246A9
:105100004FF0000835A12046FBF711F90546C0799C
:1051100003213038C7B22846FFF769FFFF2805D0C2
:105120002844694600F07AF98AF80000002651E028
:105130002AA12046FBF7FBF8044600254FF0040B9C
:105140000BEB8500C1B22046FFF751FFFF283ED090
:105150002044694600F062F908EB880202EB0A0974
:1051600089F80100052000EB8500C1B22046FFF759
:105170003EFFFF282BD02044694600F04FF989F804
:105180000200062000EB8500C1B22046FFF72FFF8A
:10519000FF281CD02044694600F040F9A9F803001C
:1051A000072000EB8500C1B22046FFF720FFFF2853
:1051B0000DD02044694600F031F989F805006D1CD6
:1051C00008F10100EDB200F0FF08042DB8D3761C01
:1051D000F6B2641CBE42ABD3BDE8F88F24475047FB
:1051E000535600002DE9F8430A46044683A11046B1
:1051F000FBF79DF805460121FFF7F9FE42F2107614
:105200004FF06408FF281ED02844694600F006F9D4
:1052100007469DF800100A2000F0F8F8B7FBF0F1FF
:10522000B1FBF6F084F841004046B1FBF0F2B2FB6E
:10523000F0F308FB132284F84220B1FBF8F208FBDC
:10524000121084F8430003212846FFF7D0FE9FED9B
:105250006C0AFF283ED02844694600F0DFF8074674
:105260009DF80000801CC1B20A2000F0CFF8B7FB07
:10527000F0F060649DF80000801CC1B20A2000F0CC
:10528000C5F8B7FBF0F100FB117000EE900A0521A4
:105290000A20F8EE600A00F0B9F8616C484301EEAC
:1052A000100A9DF80000C0F10500C1B2F8EE411AE5
:1052B0000A2000F0ABF801EE100AB8EE411A61EED8
:1052C000200A80EE801A71EE810AFCEEE00A10EEF0
:1052D000900A606404212846FFF789FEFF2802D067
:1052E000285C84F8480005212846FFF780FEFF2847
:1052F00040D02844694600F091F807469DF8000028
:10530000801CC1B20A2000F081F8B7FBF0F044F82D
:10531000490F9DF80000801CC1B20A2000F076F809
:10532000B7FBF0F100FB117000EE900A05210A2096
:10533000F8EE600A00F06AF82168484301EE100AAE
:105340009DF80000C0F10500C1B2F8EE411A0A2034
:1053500000F05CF801EE100AB8EE411A61EE200A86
:1053600080EE801A31EE810ABCEEC00A10EE100AFF
:1053700044F8490906212846FFF739FEFF2802D0E4
:10538000285C84F84D0007212846FFF730FEFF28EF
:1053900012D02844694600F041F84FF47A7148432E
:1053A000FBF76BF89FED171B53EC112BFAF7F3FF8C
:1053B000FBF770F8A4F8670009212846FFF717FEED
:1053C000FF2818D02844694600F028F8B0FBF6F111
:1053D00084F840104146B0FBF1F2B2FBF1F308FB58
:1053E000132284F83F20B0FBF8F208FB120000F50E
:1053F000FA60A4F83D00BDE8F8830000524D430078
:10540000000070426F1283C0CAA1FD3F0246012016
:1054100000E05043491EC9B2FBD270472DE9F04F5E
:105420004FF0000A8B468046D146554654465646B4
:1054300001782D2902D146F00206401C01782C2962
:1054400008D02A2906D02E290AD030390A290AD3B1
:1054500000252C46B00701D508F10108002718E007
:1054600046F00106401CF10702D0641CE4B201E0E2
:105470006D1CEDB2401CDBE7E81B401EC1B20A20E8
:10548000FFF7C4FF18F80710303900FB01AA7F1C92
:10549000FFB2AF42F0D3052C00D905248BF80040B1
:1054A00000270EE0E01B401EC1B20A20FFF7AEFF4E
:1054B000EA1902EB08014978303900FB01997F1C99
:1054C000FFB2A742EED321460A20FFF79FFF0AFB57
:1054D0000090B10700D54042BDE8F08FFEE7000024
:1054E00008B505270025284E2C4600957078012820
:1054F00045D175702549002051F82020801CC0B28C
:1055000014441428F8D34FF4A5704443240B40F6F8
:10551000A340844201D906201CE0A4F659404A2841
:1055200001D2052016E0A4F609404F2801D204203C
:1055300010E0A4F6AF30592801D203200AE0A4F607
:105540005F304F2801D2022004E0A4F6193045282C
:1055500003D201208DF8000005E040F6FA208442D5
:1055600001D28DF800508DF801500222694638466C
:10557000FBF7E0FB142205490548FCF703F944F664
:10558000206002F00CFFB1E7080000208406002034
:105590001C0700209AB0402103A8FAF7BDFE4FF087
:1055A000000ADFF808914FF0010BCDF804A0CDF808
:1055B00008A099F800104846012973D180F800A08E
:1055C00000263B4837463446334632463146354658
:1055D00050F825C06D1CEDB2674450F825C06D1C15
:1055E000EDB2644450F825C06D1CEDB2634450F830
:1055F00025C06D1CEDB2624450F825C06D1CEDB2A3
:10560000614450F825C06D1CEDB266443C2DDFD3DB
:10561000C7EB07154FF4FA6779430F0B4FF0640C93
:1056200006EB8600060B2148B7FBFCF15C30B7FBAC
:10563000FCF806702D0BC4EB04144570240BC3EB6F
:10564000031384701B0BC2EB0212C370120B0271A6
:105650000CFB1877417187718DF804608DF8055047
:105660008DF808208DF806408DF809108DF8073068
:105670008DF80A70D9F8540002F0BDFE400607D537
:105680000C48007820B94022022103A800F0C8F895
:10569000072201A95846FBF74DFB3C220449064866
:1056A000FCF770F8C82002F07AFE82E708000020BC
:1056B00094050020B0010020D40600202DE9F04F11
:1056C00091B00C46054602F03DFF0020012C06D0AB
:1056D000022C52D0032C55D0042C6FD166E03A4CEA
:1056E0002860206AFAF7EFFE06460F46E069FAF7EF
:1056F000EAFECDE90801A069FAF7E5FECDE9060169
:105700006069FAF7E0FECDE904012069FAF7DBFEF3
:10571000CDE90201E068FAF7D6FECDE90001A06804
:10572000FAF7D1FE82468B466068FAF7CCFE8046D7
:1057300089462068FAF7C7FE41EC100BCDE90E67E9
:10574000DDE90801CDE90C01DDE90601CDE90A0139
:10575000DDE90401CDE90801DDE90201CDE9060139
:10576000DDE90001CDE904018DE8000F53EC102BB9
:105770001649284601F0C2FF20E02860144815A110
:10578000027818E01A4928604FF47A7231F8670FEE
:10579000B0FBF2F00880FAF770FE41EC100B15A197
:1057A00053EC102B284601F0A9FF07E028600648BB
:1057B00016A124308278284601F0A0FF11B0BDE880
:1057C000F04F02F0F1BE00008C01002078B200081A
:1057D000640000207B274F696C5F446973706C61C3
:1057E00063656D656E74273A272564277D00000088
:1057F000480400207B2753706565645F64617427EB
:105800003A27252E31666D277D0000007B2734471F
:105810005F7369676E616C273A272564277D0000F6
:105820002DE9F843064623A0234D006800909046DA
:105830000F460024686D02F0DEFD000734D400BF7F
:1058400002F06AFC58B1641CE4B21CA001F046FFEF
:10585000592002F0A4FD052CF2D3BDE8F8830821FD
:10586000686D02F0E9FD1BA001F038FF39463046B3
:10587000FFF724FFFF23012269461B48FEF778FE4D
:105880006C46FF2301221848611CFEF771FEFF23BE
:105890000122A11C1448FEF76BFEFF23424631464D
:1058A0001148FEF765FED8E739463046FFF706FF98
:1058B000F3E700000300460008000020445455BDF3
:1058C000F8C8EBCDB8B4ABD7B4CCACCAA7B0DC0D3C
:1058D0000A000000445455BDF8C8EBCDB8B4ABD7AE
:1058E000B4CCAC0D0A000000180B00202DE9F041EB
:1058F0000E4604464168D4E90230181A081A90424C
:1059000000D910460746481E0340CD1ABD4200D9B3
:105910003D4620682A4618443146FAF7E4FC7A1BD3
:1059200071192068FAF7DFFCA0683844A060384697
:10593000BDE8F08170B504461021002002F018FD8A
:1059400005001BD0002601222CB1611E0C420CD098
:10595000B4F1004F14D821465FF0000002FA00F4C1
:10596000A14202D9401C2028F8DB2146002002F089
:10597000FFFC286020B1EE60C5E90146284670BDF5
:105980002946002002F0E8FC002070BD2DE9F0411E
:1059900004460E46D4E90201401A904200D910464E
:1059A00007466068421E1140451ABD4200D93D4677
:1059B00020682A4601443046FAF795FC7A1B701994
:1059C0002168FAF790FCE0683844E0603846BDE8AA
:1059D000F081000094B0002403200294CDE90C046F
:1059E0000194A2460F941094242103A80E94FAF770
:1059F00093FCDFF81082844E0DF1040903AF0DF122
:105A00000E0B4546D8F8540002F0F5FC800721D56E
:105A1000242103A8FAF780FC4FF0FF33002203A9EA
:105A2000A86C02F0DFFD794903A8FAF799FC78B178
:105A3000764903A8C91DFAF793FC60B174A103A8C5
:105A4000FAF775FC58457CD102F07CFD002573E027
:105A500001203070D2E086F800A0CFE0A5F1080068
:105A600002280FD27819817A09F80410641CE4B274
:105A7000022C61D301A8FAF781FCA0F5FA6086F840
:105A8000080258E0A5F10B0002280DD27819817A9E
:105A900009F80410641CE4B2022C4DD301A8FAF7F3
:105AA0006DFC86F8090246E0A5F10E0002280DD231
:105AB0007819817A09F80410641CE4B2022C3BD3F3
:105AC00001A8FAF75BFC86F80A0234E0A5F11100A0
:105AD00002280DD27819817A09F80410641CE4B206
