:020000040800F2
:10000000788B002061020008AD5D0008B54C000847
:10001000BD580008190D0008D57D0008000000003B
:10002000000000000000000000000000A101000826
:100030009512000800000000FD0100089D710008F5
:100040007B0200087B0200087B0200087B0200089C
:100050007B0200087B0200087B0200087B0200088C
:100060007B0200087B0200087B0200087B0200087C
:100070007B0200087B0200087B0200087B0200086C
:10008000B91000087B020008FD0A0008290D0008CD
:100090001D0D00087B0200087B0200087B0200089F
:1000A0007B020008617200087B0200087B020008E6
:1000B0006D720008797200087B0200087B0200085C
:1000C0007B0200087B0200087B0200087B0200081C
:1000D0007B0200087B020008717B0008317C00086D
:1000E0007B0200087B0200087B0200087B020008FC
:1000F0007B0200089D7200087B0200087B0200085A
:100100007B020008C1640008857200087B020008B9
:100110007B0200087B0200087B0200089172000845
:10012000C51000087B020008D1100008DD1000088F
:100130007B0200087B0200087B0200087B020008AB
:100140007B0200087B0200087B0200087B0200089B
:100150007B020008E9100008F51000087B02000887
:100160007B0200087B0200087B0200087B0200087B
:100170007B0200087B0200087B02000800000000F0
:100180007B020008FD120008DFF810D000F0BEFB73
:10019000004800476D960008AFF30080788B002080
:1001A0002C4B19680868B0E8F04F80F30988BFF35A
:1001B0006F8F4FF0000080F311887047000000003F
:1001C00008480068006880F308884FF0000080F35A
:1001D000148862B661B6BFF34F8FBFF36F8F00DF35
:1001E00000BF00BF08ED00E0DFF80C00016841F43B
:1001F00070010160704700BF88ED00E0EFF30980F7
:10020000BFF36F8F134B1A681EF0100F08BF20ED5D
:10021000108A20E9F04F106009B44FF0200080F3FD
:100220001188BFF34F8FBFF36F8F0AF0D5FE4FF0E9
:10023000000080F3118809BC19680868B0E8F04F25
:100240001EF0100F08BFB0EC108A80F30988BFF3CE
:100250006F8F7047CC020020EFF3058070470000DD
:100260000648804706480047FEE7FEE7FEE7FEE750
:10027000FEE7FEE7FEE7FEE7FEE7FEE75172000855
:10028000890100082DE9F05F0546002092469B4653
:1002900088460646814640241BE02846414647469C
:1002A000224600F0B7F953465A46C01A914110D37E
:1002B00011461846224600F09EF92D1A67EB0108F8
:1002C0004F4622460120002100F095F917EB000966
:1002D0004E41201EA4F10104DFDC484631462A4687
:1002E0004346BDE8F09F40EA01039B0703D009E0C5
:1002F00008C9121F08C0042AFAD203E011F8013B12
:1003000000F8013B521EF9D27047D2B201E000F86A
:10031000012B491EFBD270470022F6E710B51346A9
:100320000A4604461946FFF7F0FF204610BD30B5D7
:1003300005462A460B4612F8010B13F8014B08B18B
:10034000A042F8D01CB1002802D06D1CF1E728466D
:1003500030BD421C10F8011B0029FBD1801A7047E8
:1003600010B5002200E0521C835C8C5CA34201D1DA
:10037000002BF8D1D8B2E1B2401A10BD70B50646D4
:1003800007F07EFF046805460A220021304600F08F
:1003900051F92C6070BD2DE9FE4F81EA030404F091
:1003A000004421F0004100944FF0000B23F0004383
:1003B00050EA01045ED052EA03045BD0C3F30A544E
:1003C000C1F30A552C44A4F2F3340194A0FB025467
:1003D000C1F3130141F48011C3F3130343F48013F9
:1003E00001FB024400FB034E840A970A44EA81544D
:1003F00047EA8357A4FB076802958D0A05FB07852A
:100400004FEA932C04FB0C542705029D4FEA065833
:1004100047EA1637B5EB08056EEB070C870E920E10
:1004200047EA811742EA8312A7FB0201B6EB0B01F0
:1004300064EB00042B0D43EA0C335E1844EB1C50B4
:10044000DA465146E7FB0201C5F313044FEA0B33CA
:1004500043EA14534FEA0432019C43EA0603A4F131
:100460000C040294009CCDE900B400F02AF903B01A
:10047000BDE8F08F00200146F9E72DE9F04D81EA53
:10048000030404F0004B21F0004514464FF0000A2D
:1004900023F0004150EA050220D054EA01021DD0A9
:1004A000C5F30A570246C5F31303C1F31300C1F3A2
:1004B0000A5640F4801543F48013A7EB0608101B7E
:1004C000D64608F2FD3873EB050002D308F10108A7
:1004D00001E092185B41B8F1000F03DA00200146F9
:1004E000BDE8F08D00204FF48011064684460EE0F2
:1004F000171B73EB050705D3121B63EB05030643BC
:100500004CEA010C49084FEA300092185B4150EA6E
:100510000107EDD152EA030012D082EA040083EA17
:100520000501084305D0101BAB4106D20122002370
:1005300006E000224FF0004302E06FF0010253108A
:100540001AEB06004CEB085110EB0A0041EB0B01D3
:10055000BDE8F04D00F0A6B80EB540F2334102916F
:100560000021CDE900110A460B4600F0AAF803B0BD
:1005700000BDC1F30A5210B5C1F3130140F2FF33BD
:1005800041F480119A4201DA002010BD40F2334359
:100590009A42A2F2334203DC524200F03BF810BD13
:1005A000904010BD00F0004230F000400AD0C10D74
:1005B00001F56071C0F3160042EA0151C20840071C
:1005C0001143704700200146704730B50B46014685
:1005D00000202022012409E021FA02F59D4205D3E2
:1005E00003FA02F5491B04FA02F52844151EA2F18C
:1005F0000102F1DC30BD202A04DB203A00FA02F1CE
:10060000002070479140C2F1200320FA03F3194300
:1006100090407047202A04DB203A21FA02F00021A2
:10062000704721FA02F3D040C2F120029140084302
:10063000194670472DE9F04791460F46804604461B
:10064000002614F8015B2DB100F084F90068405DCC
:10065000C007F6D12B2D02D02D2D18D0641E4A468E
:100660003946204600F07AF927B13968A14201D114
:10067000C7F8008071054FF002040BD540420028F6
:1006800003DD07F0FDFD0460A007BDE8F08746F438
:100690008066E4E70028F8DA07F0F2FD04606FF006
:1006A0000040F2E710B5141E73F1000408DA401C94
:1006B00041F1000192185B411A4301D120F0010081
:1006C00010BD2DE9F04D92469B4611B1B1FA81F271
:1006D00002E0B0FA80F220329046FFF78CFF044629
:1006E0000F4640EA0A0041EA0B0153465A460843C6
:1006F00013D0114653EA010019D0C8F14002504608
:10070000FFF788FF05460E46504659464246FFF71A
:1007100072FF084305D0012004E020463946BDE8B9
:10072000F08D0020054346EAE0762C4337430A98D3
:100730006305E40AA0EB08000022FD0A44EA4754DE
:100740000A3002D500200146E9E701051019694188
:10075000DDE9084500196941BDE8F04DA2E72DE942
:10076000FE4F804681EA0300C00F0C46009021F046
:10077000004123F00045B8EB0200A94105D24046F4
:10078000214690461C460B46024623F0004010438B
:1007900047D0270DC7F30A00C3F30A510290401A4D
:1007A000019040286BDAC3F3130040F4801B0098DB
:1007B000924620B10023D2EB030A63EB0B0B0198A6
:1007C0005946C0F140025046FFF715FF06460D4658
:1007D00050465946019A00F0ABF810EB0800614111
:1007E000002487EA115284EAE7731A4340D0009A42
:1007F00062B3019A012A4FEA075215DC001B61EB34
:1008000002014FF0004202EA0752CDE90042001C0B
:1008100041F5801132462B46FFF753FF03B0BDE888
:10082000F08F40462146F9E7001B61EB0201001CF6
:1008300041F5801300185B412018A2F5001747EB23
:10084000030140EAD570B6196D4111E06D084FEA19
:10085000360645EAC0754FEA0752001B61EB0201FC
:10086000001C41F5801149084FEA30000019514140
:1008700032462B4603B0BDE8F04FFFF713BF009898
:10088000012240000023D0EB020263EBE0730098EA
:1008900021464FEAE074B8EB000061EB0401E9E7A0
:1008A00083F000435BE781F0004158E7C1F30A524F
:1008B000C1F3130140F2FF3341F480119A4202DA8E
:1008C00000200146704740F233439A42A2F233427D
:1008D00002DC5242FFF79EBEFFF78DBE30B5041E0C
:1008E00071F1000404DB4FF00044404264EB01016D
:1008F000141E73F1000405DB1C464FF00043524206
:1009000063EB0403994208BF904230BD064C074D8B
:1009100006E0E06840F0010394E8070098471034CF
:10092000AC42F6D3FFF734FC04D2000824D200080E
:10093000202A06DBCB17203A41FA02F043EAE073A3
:1009400006E041FA02F3D040C2F120029140084390
:10095000194670470048704758C800082DE9F05FF5
:1009600082460078002715468B460AF10104B946F5
:10097000302801D09DB113E014F8010B012778282D
:1009800003D0582801D045B10AE00DB1102D07D190
:100990000027102514F8010B02E0082500E00A25C5
:1009A0000026B0460EE005FB080005FB06F1012716
:1009B00001EB10461FFA80F8B6F5803F00D3B94628
:1009C00014F8010B294600F018F80028EBDABBF107
:1009D000000F05D00FB1641E00E05446CBF8004074
:1009E000B9F1000F06D007F04BFC02210160C81ED0
:1009F000BDE8F09F48EA0640FAE73A2800D23038CE
:100A000020F02002412A01D3A2F13700884201D30D
:100A10004FF0FF30704770B58C1810F8015B15F07F
:100A2000070301D110F8013B2A1106D110F8012B60
:100A300003E010F8016B01F8016B5B1EF9D12B0785
:100A400005D40023521E0DD401F8013BFAE710F83B
:100A5000013BCB1A921C03E013F8015B01F8015B28
:100A6000521EF9D5A142D8D3002070BD10B5014661
:100A7000806B026C12F0500F05D0026CD20626D5A6
:100A800000F00FFE10BD016C41F4007101640168BB
:100A90008A6812F0405F17D1027EAAB9CA6A12F4BE
:100AA000700F02D08A6852050ED44A6822F02002E4
:100AB0004A60016C21F480710164016CC90403D4A3
:100AC000016C41F00101016400F0D2FD10BD806BAA
:100AD000C26CBDE810400846104710B5806B40213D
:100AE0000164416C41F00401416400F0DAFD10BD85
:100AF00010B5806B00F0D4FD10BD000010B50448A7
:100B000000F0D0FDBDE81040024800F0CBBD000071
:100B1000141000205C100020464910B54A6822F4E9
:100B200040324A604A6843681A434A6001684A682A
:100B300022F480724A6001684A68036942EA03222B
:100B40004A6001684A6822F040724A6001684A6857
:100B500083681A434A6001688A6822F400628A60E6
:100B600001688A68C3681A438A60816A6FF070629C
:100B7000D14201688A6822F070628A6001688A68DE
:100B80000CD0836A1A438A6001688A6822F0405256
:100B90008A6001688A68C36A1A4301E022F0405201
:100BA0008A6001688A6822F002028A6001688A68A5
:100BB000037E42EA43028A6090F82010002901680F
:100BC0004A680FD042F400624A6001684A6822F421
:100BD00060424A6001684A68174C436A04EB433339
:100BE0001A4301E022F400624A600168CA6A22F4F2
:100BF0007002CA620168CA6A838B104C04EB03530B
:100C00001A43CA6201688A6822F400728A60016825
:100C10008A6890F8303042EA43228A6001688A6824
:100C200022F480628A6001688A68406942EA802012
:100C3000886010BD0023014000E0FFFF0000F0FFCE
:100C4000704700000146014802F0E8BBC0110020D7
:100C500010B5044802F0F4FB042801D0012010BDB7
:100C6000002010BDC011002010B500F015F80128BB
:100C700001D0012010BD074802F0FCFC040006D1A1
:100C80004FF40061034802F06FFA00B101242046DE
:100C900010BD0000C011002008B501208DF8000033
:100CA0009DF8000008BD0000134610B50A46014635
:100CB0000024034802F0DAFD00B10124204610BDF3
:100CC000C011002008B50120ADF800000348002342
:100CD0001A466946406809F02BF808BDA4020020B6
:100CE000134610B50A4601460024034802F058FE98
:100CF00000B10124204610BDC011002008B502201B
:100D0000ADF80000034800231A466946406809F020
:100D10000FF808BDA4020020FEE70000014801F022
:100D200028B900008C110020014801F022B9000010
:100D30008C110020054D4FF0FF342146686D09F0FD
:100D40002BF8012008F073FEF7E700000C000020EC
:100D500088B0002008250226884C0190029003905C
:100D60008DF8140001274FF00408606E08F08BFE28
:100D7000C00744D00121606E08F066FE5120049542
:100D800000907F4801F0DFF80028FAD006AB7D4ADA
:100D900069467B4800F06EFF10B17BA007F026FA91
:100DA000052008F044FE522004950090744801F09C
:100DB000CAF80028FAD0734A06AB08326946704870
:100DC00000F058FF10B170A007F010FA052008F0ED
:100DD0002EFE532004950090694801F0B4F80028D5
:100DE000FAD0684A06AB10326946654800F042FF07
:100DF00010B165A007F0FAF9052008F018FE606E42
:100E000008F041FE800718D50221606E08F01CFE34
:100E1000009504955A4801F096F80028FAD0574AF0
:100E200006AB88326946564800F024FF10B156A040
:100E300007F0DCF9052008F0FAFD606E08F023FEEB
:100E4000000719D50821606E08F0FEFDCDF810806E
:100E500000964B4801F077F80028FAD0474A06ABD5
:100E60001C326946464800F005FF10B146A007F065
:100E7000BDF9052008F0DBFD606E08F004FEC00639
:100E80001AD51021606E08F0DFFD032000900620C7
:100E900004903B4801F057F80028FAD0374A06ABD7
:100EA0006C326946364800F0E5FE10B136A007F016
:100EB0009DF9052008F0BBFD606E08F0E4FD80069A
:100EC00019D52021606E08F0BFFD0720009704901F
:100ED0002B4801F038F80028FAD0284A06AB7232C5
:100EE0006946274800F0C6FE10B127A007F07EF93A
:100EF000052008F09CFD606E08F0C5FD400619D580
:100F00004021606E08F0A0FD0520049600901C486A
:100F100001F019F80028FAD0184A06AB921D69466C
:100F2000174800F0A7FE10B117A007F05FF90520E1
:100F300008F07DFD606E08F0A6FD000619D5802141
:100F4000606E08F081FDCDF8008004970C4800F039
:100F5000FAFF0028FAD0094A06AB923269460848DF
:100F600000F088FE10B108A007F040F9052008F055
:100F70005EFD012008F05BFDF7E600000C0000209C
:100F80008C11002010080020CAFDBEDDB7A2CBCD19
:100F9000CAA7B0DCA3A10D0A0000000010B50C4CDC
:100FA000A078612806D0652809D06D280FD106F0F9
:100FB00079FF06E006F058FF38B106A003E006F01E
:100FC0008FFF10B109A007F011F9FF20A07010BD2C
:100FD0004C0300200D0A5365742041636343616C28
:100FE00069204572726F720D0A0000000D0A536588
:100FF00074204D616743616C69204572726F720D98
:101000000A0000002DE9F04700270425DFF8A08042
:10101000DFF8A09050383E4601F1060A102845D26C
:10102000DFE800F01108130C1517191B1D1F2144D0
:101030004444442334240325402702E03D2403256F
:101040002E27012613E0302411E037242BE03A2428
:1010500029E041240BE0452409E0492407E04D2420
:1010600005E0512403E0552401E0D8F82440032A88
:1010700019D04DB16A0009EB4400FFF734F9D8F8F4
:101080001820294620469047002E0FD0720009EB09
:1010900047005146FFF727F931463846D8F818205F
:1010A000BDE8F047104703250026E3E7BDE8F087D9
:1010B0004C030020C0600020014801F007BA000086
:1010C00018160020014801F001BA0000A410002009
:1010D000014801F0FBB9000004110020014801F0B3
:1010E000F5B9000044120020014801F0EFB90000FA
:1010F000A4120020014801F0E9B90000B815002051
:1011000001681823CAB2103AB2FBF3F2054B6FF331
:101110000901032A9B5CC36500D9091D8165084646
:1011200070470000F4C2000810B5014600208B692A
:101130008A6A4FF0C07453B1B3F5005F15D072B135
:10114000012A0CD0022A0AD0032A09D104E01AB1DC
:10115000012A06D0022A03D1C96AC90100D501209B
:1011600010BDC96AA142FAD010BD002AF7D0012AE9
:10117000F2D0022AF3D0032AF3D010BD30B50468B0
:10118000256825F480252560046863608368402B0A
:10119000036803D099600068C26030BD9A6000683F
:1011A000C16030BD204D00244FF48066002008F05F
:1011B00099FB304605F09AF8A8611CA007F016F8D4
:1011C0004FF47A7708E0042007F04AFDE0B1641C90
:1011D000A4B2384608F02BFC0A2CF4D91E4807F0BC
:1011E00005F81EA007F002F8224806F0FFFF286E5F
:1011F00008F049FC000703D50421286E08F064FCC0
:10120000286B09F06BFDD1E70821286E08F05CFC23
:10121000114806F0EBFF18A006F0E8FF154806F0AD
:10122000E5FF0A2CDAD8E2E70C0000205761697468
:1012300020666F7220436174312044545520746FCE
:101240002073746172742C2077616974203130735B
:101250002E2E2E2E200D0A00ACC8000841544B2D16
:1012600044545520496E6974204661696C202E2EC5
:101270002E0D0A005CC800084361743120445455A7
:1012800020496E69742053756363657373200D0A7A
:10129000000000007047000072B602A006F0A6FF32
:1012A000FEE700004572726F725F48616E646C65A4
:1012B000720D0A00002200F001B8000030B50E4B9C
:1012C000054601205C7A002C14D1587A1C54587AB7
:1012D00003EB800045605D7A03F108002A54587AD8
:1012E000421C5A72303008703A2048702F208870A3
:1012F000CC70002030BD0000E016002070470000D8
:1013000070B50C46054604F05FFB2146284604F004
:10131000EBFA2146284604F009FB04482146027DE9
:101320002846BDE8704004F0C5BB000090030020D3
:101330000A4C0025206E08F0A6FBC00509D5A08840
:10134000000406D5A58006490648FFF7D9FF00F03E
:1013500059F8322008F06BFBECE700000C0000208D
:10136000207D0020BC080020174FDFF86080184E59
:10137000FF244FF448754FF480790121284606F088
:10138000C1FCC0B113A006F031FF07E001223946CD
:10139000404606F0DBFC06F083FC044601212846AB
:1013A00006F0B0FC08B1002CF0D110A006F01EFF32
:1013B000012008F03CFB4946306E08F085FBB06B1D
:1013C00009F08CFCD9E70000A0860100A0BB0D004D
:1013D0000C00002057542D4750535F424420536562
:1013E0007474696E672E2E2E0D0A000057542D4717
:1013F00050535F42442053657420446F6E65212131
:101400000D0A000070B590B040216846FEF784FFD9
:10141000324C4FF47A71B4F867004134B0FBF1F00C
:1014200000EE100A2E48B8EE400A80ED000A10EED9
:10143000100AFFF7B7F841EC100B2AA053EC102B61
:1014400006F0D4FEA378627814F841192AA006F0B9
:10145000CDFE234D1C3DA87801282BD0B4F83D10BB
:10146000B1F5FD6F26D394F8410018B394F84220EB
:1014700002B394F84330EBB105F16C06A1F5FA61C3
:10148000317014F83F1F717061780830B170F070DE
:1014900032717371002420A0315D06F0A7FE641C38
:1014A000E4B2062CF7D31021686E08F00DFB14206F
:1014B00008F0BDFA0821686E08F006FB0848743091
:1014C0000178002908D190F80302002804D14022B5
:1014D0000321684604F066FE10B070BDBC08002011
:1014E0002800002053706565643A252E33666B6DC5
:1014F0002F68200D0A0000005554432054696D6583
:101500003A253032643A253032643A25303264204C
:1015100020200D0A0000000025640D0A00000000D4
:101520007047000078B50024009490F83C20012A10
:1015300019D0012280F83C200A6807230568092A8F
:1015400013D9EE680A3A02EB420293409E43EE60E2
:101550000B788A680A3B03EB43039A400368DD6813
:101560002A43DA6010E0022078BD2E6902EB4202C5
:1015700093409E432E610B788A6803EB43039A40A5
:1015800003681D692A431A614A681F23072A13D278
:1015900005686E6B521E02EB820293409E436E639F
:1015A0000B790A885B1E92B203EB83039A400368AF
:1015B0005D6B2A435A6327E005680D2A12D22E6B11
:1015C000D21F02EB820293409E432E630B790A885E
:1015D000DB1F92B203EB83039A4003681D6B2A431F
:1015E0001A6311E0EE6A0D3A02EB820293409E43C9
:1015F000EE620B790A880D3B92B203EB83039A40AB
:101600000368DD6A2A43DA62164B0568144A9D4274
:1016100006D10D68122D03D1556845F4800555603B
:1016200005689D4218D10B68102B01D0112B13D1E6
:10163000536843F400035360096810290CD10A4928
:101640000A4A0968B1FBF2F101EB8101490000E0AF
:10165000491E00910029FBD180F83C40002078BD54
:101660000023014000200140C002002040420F0042
:10167000074B026801219A4201D1064A03E0064B5A
:101680009A4203D1054A117000F0ACBA70470000CD
:10169000002001400C000020002101400D0000202E
:1016A0007047704770B5044600680668456816F0D4
:1016B000020F05F020012AD049B3216CC90603D4DA
:1016C000216C41F400712164816811F0405F17D1F1
:1016D000217EA9B9C16A11F4700F02D08168490551
:1016E0000ED4416821F020014160206C20F480700C
:1016F0002064206CC00403D4206C40F001002064FE
:101700002046FFF7B5FF21686FF01200086016F061
:10171000040F05F0800132D089B3206CC00603D4D9
:10172000206C40F4005020642068816811F4401F50
:101730001ED1816B11F4401F02D08168490517D476
:101740004168490514D4816811F0405F10D1217EB1
:1017500071B9416821F080014160206C20F4805013
:101760002064206CC00503D4206C40F0010020648C
:101770002046FFF7D5FE21686FF00C00086016F0D8
:10178000010F05F040010FD071B120680068C0075B
:101790000AD0206C40F480302064204600F043F8EA
:1017A00021686FF00100086016F0200F05F08061DD
:1017B0000ED000290CD0606C40F0020060642068FC
:1017C0006FF0200505602046FFF76BFF206805607D
:1017D00070BD70B504004FF0000503D0206C0026EA
:1017E00010B107E0012070BD204600F01DF86664CE
:1017F00084F83C60206CC00610D4206C20F4885023
:1018000040F0020020642046FFF786F96664206CF1
:1018100020F0020040F00100206400E0012584F87F
:101820003C60284670BD70472DE9F04786B00546FC
:1018300014216846FEF770FD4B484A4B14382A685D
:10184000002449490326DFF824A107154FF48058E6
:101850004FF480499A4241D10A6842F480720A608A
:10186000096801F480710591016841F0040101608B
:10187000016801F004010591016841F00201016075
:101880000068694600F0020005903720CDE90006A7
:101890000294374800F09EFF0120CDE9000669461A
:1018A0000294504600F096FF334E3248E6E80204B8
:1018B000801510C6A6E8900366E807042E487462F7
:1018C00049E0AE63002202211220B56301F054F911
:1018D000122001F043F906B0BDE8F087274B9A4289
:1018E000F9D10A6842F400720A60096801F40071D3
:1018F0000591016841F001010160016801F00101F9
:101900000591016841F0020101600068694600F03C
:10191000020005904020CDE900060294184800F02E
:1019200059FF0220CDE9000669460294504600F0B6
:1019300051FF114E0F486036303030604FF000706C
:10194000C6E9010406F10C02401282E89003C6E9E0
:1019500007403046746200F089FE0028B1D0FFF7DE
:101960009BFCAEE7002001404438024000040240E6
:101970000008024010640240A41000200021014031
:1019800000000240F8B5044600200E46009094F88E
:101990003C10012907D0012184F83C1021688B6894
:1019A000DB0702D011E00220F8BD8B6843F0010391
:1019B0008B604049404B0968B1FBF3F101EB4101F9
:1019C00000E0491E00910029FBD121688B68DB05EE
:1019D00003D58B6823F480738B6021688B68DB07E9
:1019E0005DD0236C40F20165AB4343F48073236404
:1019F0004968490505D5216C21F4005141F4805115
:101A00002164216CC90404D5616C21F00601616474
:101A100000E0606484F83C00A16B2948274DC8634E
:101A2000A16B28480864A16B2748C86421686FF03F
:101A3000220008602068416841F0806141602068B0
:101A4000816841F4807181602168134632464C31CF
:101A5000A06B00F075FE68681C49C006206806D0BF
:101A6000884224D1816811F0405F13D01FE0884282
:101A7000F8D0174A904203D1D1F80423D206F1D00E
:101A8000144A904213D1D1F8041301F01F01102918
:101A9000E8D30CE0816841F08041816007E0206C70
:101AA00040F010002064606C40F001006064002091
:101AB000F8BD0000C002002040420F00002301409A
:101AC0006D0A0008F10A0008DB0A00080020014046
:101AD000002101400022014018B50021009190F83A
:101AE0003C20012A07D0012280F83C20026893683C
:101AF000DB0702D011E0022018BD936843F0010318
:101B00009360314A314B1268B2FBF3F202EB4202AE
:101B100000E0521E0092002AFBD102689368DB07A6
:101B200047D0036C40F20164A34343F48073036421
:101B300053685B0505D5036C23F4005343F48053CD
:101B40000364036CDB0404D5436C23F00603436495
:101B500000E0416480F83C101D4B6FF022011160E1
:101B600001684A681B4C22434A6059680068CA06EB
:101B7000194906D0884224D1816811F0405F13D002
:101B80001FE08842F8D0154A904203D1D1F80423CF
:101B9000D206F1D0124A904213D1D1F8041301F0C9
:101BA0001F011029E8D30CE0816841F08041816079
:101BB00007E0016C41F010010164416C41F001014A
:101BC0004164002018BD0000C002002040420F0008
:101BD00000230140200000040020014000210140BA
:101BE0000022014010B50446002094F83C10012961
:101BF0000CD0012184F83C1021688A6822F001028F
:101C00008A6021688A68D20702D01DE0022010BDD8
:101C10008A6822F480728A60A16B91F83520022ACA
:101C200007D1084600F0F5FB18B1216C41F04001E6
:101C3000216421684A6822F080624A60216C21F4A4
:101C4000885141F001012164002184F83C1010BD4D
:101C500090F82020012A07D0022A05D0416A41F4D9
:101C60008021416201207047006842690A43426155
:101C700000207047F0B590F820500468A468012D4A
:101C800005D0022D03D0416A41F480215DE014F0BB
:101C9000406F01D1E50055D5C4F30164022C03D98E
:101CA000416A41F4000150E00125A5401D608D68A6
:101CB0004FF4C0739DB1CE6835434E6845EAC60502
:101CC000066803EB0417F5514FF4C275076805EB7E
:101CD00004150E697E51097D012905D009E00E88A1
:101CE000CD6845EA4655EBE701684E5946F48076E3
:101CF0004E511179D579567941EA056195792D04CE
:101D000045EA062529434FF4C676056806EB041616
:101D1000A9511178D57841EA0561957852782D045A
:101D200045EA022211434FF4C475026805EB04151D
:101D30005151006803EB0411425842F00102425035
:101D40000020F0BD416A41F4001141620120F0BD64
:101D500010B590F82020012A07D0022A05D0416A48
:101D600041F480214162012010BD3B48D0F800229F
:101D700042F00102C0F80022D0F8002222F47C5286
:101D8000C0F80022D0F800224B6A42EA0322C0F8D1
:101D900000220A7D02F01F0301229A40D0F81C3273
:101DA0009343C0F81C32CB69B3B9D0F80C329343DB
:101DB000C0F80C328C894B6864F31F434C6900EB0C
:101DC000C404C4F840320C890B6864F31F434C69A7
:101DD00000EBC404C4F84432CB69012B16D1D0F80F
:101DE0000C321343C0F80C320C884B6864F31F4369
:101DF0004C6900EBC404C4F840320C89CB6864F32E
:101E00001F434C6900EBC404C4F844328B69002BB7
:101E1000D0F804320ED01343C0F804320B69002B03
:101E2000D0F8143208D01343C0F81432096A0129DB
:101E300004D008E09343EFE79343F5E7D0F81C1292
:101E40001143C0F81C12D0F8001221F00101C0F8B3
:101E50000012002010BD000000640040704730B543
:101E600090F82040012C05D0022C03D0416A41F4A7
:101E700080215DE00468002955D02469A40754D06E
:101E80004FF4D874056804EB01142D5915F00405BE
:101E9000956005682D594ED0ED08556005682C59A0
:101EA00004F00204D4604FF4DA74056804EB011402
:101EB0002D5905F00F05156105682D59C5F3072546
:101EC000956105682C59240C54614FF4DC72046848
:101ED00002EB0112A4581C700468A458240A5C7018
:101EE0000468A458240C9C700468A258120EDA707E
:101EF0004FF4DE72046802EB0112A4581C710468EE
:101F0000A458240A5C710468A458240C9C710468C9
:101F1000A258120EDA71006881B1016941F0200106
:101F20000161002030BDE468A8E7416A41F4001176
:101F30004162012030BD6D0D1560AFE7C16841F011
:101F40002001C160EDE70246002092F8201001292F
:101F500001D002290CD111688A68520100D50120F4
:101F60008A68120100D5401C8968C90000D5401C50
:101F700070472DE9F05F0546006800244669D0F8F7
:101F800004908768D0F80CB0D0F810A0D0F8188072
:101F9000F10748D0F90714D001218160B80703D5B3
:101FA000284600F030FA0CE0780702D54FF40064C0
:101FB00007E0380702D54FF4805402E0284600F0CD
:101FC00021FAF80516D529684FF480708860B805A5
:101FD00003D5284600F019FA0CE0780502D544F440
:101FE000005407E0380502D544F4804402E0284656
:101FF00000F00AFAF80316D529684FF4803088609B
:10200000B80303D5284600F002FA0CE0780302D5A5
:1020100044F4004407E0380302D544F4803402E07D
:10202000284600F0F3F9300707D55FEACB6004D506
:102030002968102044F40074C86070074FF0080746
:1020400007D55FEA0B7004D52868C760284600F002
:1020500061F9B00706D52868C068800702D0284615
:1020600000F05AF9700607D55FEACA6004D52968FE
:10207000102044F480640861B00607D55FEA0A7056
:1020800004D528680761284600F08CF9F00606D5CB
:1020900028680069800702D0284600F084F9B00360
:1020A00008D55FEAC96005D5296810204860284630
:1020B00000F07AF9F00307D55FEA097004D52868C3
:1020C0004760284600F0A4F9300446D55FEA49701D
:1020D00040D5F00504D55FEAC87001D044F0010492
:1020E000B00504D55FEA887001D544F0020470059C
:1020F00004D55FEA487001D544F00404300529D5C1
:1021000018F0700F26D008F07000402815D006DCBB
:10211000102809D020280AD0302816D10AE05028EB
:102120000ED0602811D10EE044F008040DE044F018
:1021300010040AE044F0200407E044F0400404E006
:1021400044F0800401E044F480742868816921F03F
:1021500070018161296804204860002C05D0686AFC
:10216000204368622846FFF779FEBDE8F09F70B50E
:10217000040003D094F8200010B104E0012070BDE9
:10218000204600F081F82068016841F001010160FB
:1021900000F022FC0546052604E000F01DFC401B73
:1021A0000A2811D820684068C007F6D02068016866
:1021B00021F00201016000F00FFC05460BE000F089
:1021C0000BFC401B0A2806D9606A40F400306062AC
:1021D00084F82060D2E7206840688007EFD4207E32
:1021E0000128206801683DD021F080010160607EF7
:1021F00001282068016838D021F040010160A07EEC
:1022000001282068016833D021F020010160E07EC0
:102210000128206801682ED041F010010160207F64
:1022200001282068016829D021F008010160607F41
:1022300001282068016824D021F004010160D4E95C
:1022400002010843D4E90412114308436168491E9E
:1022500008432168C86100206062012084F82000E2
:10226000002070BD41F08001C0E741F04001C5E7AA
:1022700041F02001CAE721F01001CFE741F0080149
:10228000D4E741F00401D9E710B586B00446142123
:102290006846FEF741F81C492068884231D11B4846
:1022A0000021026842F000720260006800F00070D5
:1022B000059016481038026842F00102026000687A
:1022C00000F0010005904FF4C05000900220CDE9CD
:1022D0000101032003900920049069460C4800F096
:1022E00079FA00220221132000F046FC132000F0AE
:1022F00035FC00220221142000F03EFC142000F0E6
:102300002DFC06B010BD00000064004040380240C3
:10231000000002407047000070B500681D4A0021AF
:10232000904236D11C4C00201C4D20606060A060A3
:102330002061E0606061A0616854491CC9B208294D
:10234000FAD3164B144A00211548FFF788FD134EA7
:102350002068803E132802D0502815D107E0A068DD
:1023600090B9206901280FD12878B0700CE0A068DE
:1023700050B92069082807D10821084805F02CFD2C
:102380000121306E07F0A0FB706DBDE8704007F0D2
:1023900093BD70BD00640040880800208C000020C0
:1023A0008C110020704770477047000070B50446DC
:1023B00090F82000012804D0606A40F40020606298
:1023C00018E0022084F820002068016821F0010153
:1023D000016000F001FB05460EE000BF00F0FCFAD2
:1023E000401B0A2808D9606A40F40030606205206A
:1023F00084F82000012070BD20684068C007EDD13E
:10240000606270BD70477047704770477047704793
:1024100070472DE9F0410446876D00F0DDFA06466D
:1024200094F835000025022806D08020606584F8E5
:1024300034500120BDE8F0812068016821F01601C8
:1024400001602068416921F080014161206C08B978
:10245000A06C20B12068016821F0080101602068AB
:10246000016821F0010101600CE000F0B5FA801B69
:10247000052807D920206065032084F8350084F8FA
:102480003450D7E720680068C007EED194F85C109C
:102490003F208840B860012084F8350084F834502B
:1024A0000020C7E790F83510022903D0802141654C
:1024B00001207047052180F835100068016821F07F
:1024C0000101016000207047406D70472DE9F8431D
:1024D00004464FF00009CDF8009063484FF41651C0
:1024E000A56D0068B0FBF1F72E6894F85C10082029
:1024F00000FA01F131420FD021680A6852070BD56A
:102500000A6822F004020A6094F85C108840A8600F
:10251000606D40F00100606594F85C104FF00108B8
:1025200008FA01F0304208D021684969090604D54B
:10253000A860606D40F00200606594F85C100420B3
:102540008840304208D021680968890704D5A8600E
:10255000606D40F00400606594F85C1010208840C5
:10256000304218D021680968090714D5A86020688E
:102570000168490304D50068000308D5A16C07E091
:102580000168C90503D4016821F008010160216CCC
:1025900009B12046884794F85C10202088403042DA
:1025A00031D021680968C9062DD5A86094F8350096
:1025B00005282068016806D0490347D50068000354
:1025C0001DD4616C1CE021F0160101602068416996
:1025D00021F080014161206C08B9A06C20B1206815
:1025E000016821F00801016094F85C103F208840E8
:1025F000A86084F8358084F83490216D1FE0E16B89
:1026000009B120468847606D00282BD0606DC00757
:1026100014D0052084F835002068016821F00101FC
:1026200001600098401C0090B84203D82068006800
:10263000C007F6D184F8358084F83490E16C002925
:1026400010D001B02046BDE8F04308470168C90535
:10265000D5D4016821F01001016084F8358084F838
:102660003490CCE7BDE8F883C00200202DE9F041AA
:10267000044600F0B1F906465CB1022084F835004A
:10268000002584F834502068016821F001010160C0
:102690000DE00120BDE8F08100F09EF9801B0528C7
:1026A00005D920206065032084F83500F2E7206812
:1026B0000068C007F0D12268116820480140D4E9C1
:1026C00001031843D4E903363343184363691843BD
:1026D000A3691843E3691843236A18430843616AEE
:1026E000042903D1D4E90B1319430843106020686F
:1026F0004069666A20F0070130460E43012704282E
:102700000CD1A06A0643E06A40B12046FEF70CFDFA
:1027100020B14020606584F83570BAE720684661D2
:102720002046FEF7EDFC94F85C203F21914081604B
:10273000656584F835700020ACE700003F8010F03C
:102740002DE9F0410446866D90F8340000250128FB
:102750000DD0012084F8340094F835700020012F4A
:1027600007D084F8340002252846BDE8F081022015
:10277000FBE7022784F8357060652046FEF7FEFC13
:1027800094F85C103F208840B0602068016841F0F8
:1027900016010160206C20B12068016841F0080139
:1027A00001602068016841F001010160DCE7000080
:1027B00070B5044600F010F90546601C02D00448CC
:1027C0000078044400F008F9401BA042FAD370BD21
:1027D000B40200202DE9F84FDFF8BCA1002201254A
:1027E00003264FF00F090AF1040BAAF1040E00BFF3
:1027F0000B6805FA02F42340A34270D10F7907F069
:102800000307012F01D0022F16D187684FEA420833
:1028100006FA08FC27EA0C07D1F80CC00CFA08FCF1
:102820004CEA070CC0F808C04768A7430C79C4F30A
:10283000001494403C4344600C79E443A4070AD05C
:10284000C4684FEA420C06FA0CF7BC438F6807FADB
:102850000CF72743C7600C7904F00304022C12D153
:10286000D40800EB840CDCF820405707FF0E09FA6F
:1028700007F824EA0804D1F8108008FA07F848EAB3
:102880000408CCF8208004684FEA420C06FA0CF7E2
:10289000BC430F7907F0030707FA0CF727430760DB
:1028A0004C6814F4403F70D03C4C276847F4804794
:1028B0002760246822F0030704F480440094384C15
:1028C00007EB040CDCF8084897074FEA177809FA79
:1028D00008F7BC43334FB84202D1002724E054E04C
:1028E000314FB84201D101271EE0304FB84201D12B
:1028F000022719E02E4FB84201D1032714E02D4FD3
:10290000B84201D104270FE02B4FB84201D105276F
:102910000AE02A4FB84201D1062705E0284FB84205
:1029200001D1072700E0082707FA08F72743CCF86A
:102930000878DAF800405746D1F804C09C435FEAB3
:10294000CC2C00D51C433C60DBF800405F46D1F83E
:1029500004C09C435FEA8C2C00D51C433C60DEF82D
:1029600000407746D1F804C09C435FEA8C3C00D518
:102970001C433C60084F083F3C68D1F804C09C43AE
:102980005FEACC3C00D51C433C60521C102AFFF48B
:102990002FAFBDE8F88F0000083C014044380240EA
:1029A00000300140000002400004024000080240E4
:1029B000000C0240001002400014024000180240C7
:1029C000001C02400069084000D0012070470AB195
:1029D000816170470904FBE7014880687047000087
:1029E000B402002070B5040011D021684CF6CC4030
:1029F0000860216845F255500860D4E90001416043
:102A00002168A0688860FFF7E7FF05460DE0012018
:102A100070BD00BFFFF7E0FF401B312805D92068DB
:102A2000C068800701D0032070BD2068C06880079F
:102A3000F0D121684AF6AA200860002070BD00008D
:102A4000024881680278114481607047B402002016
:102A50000B4810B5016841F400710160016841F450
:102A600080610160016841F480710160032000F021
:102A7000A3F80F2000F006F800F04AF8002010BD7F
:102A8000003C024030B505461C4887B00024016870
:102A900041F001010160006806A900F0010000900A
:102AA00001A800F035F900F063F915494000B0FBCA
:102AB000F1F11548134A491E026040F2E732C0E9BD
:102AC0000324C0E90114846101F044F8040012D128
:102AD0000D4801F017F904000DD1192000F03EF85F
:102AE000102D07D200222946192000F045F807488A
:102AF000056000E0012407B0204630BD44380240A4
:102B000040420F000000014078160020B80200206B
:102B1000114808B5016841F480410160006800F483
:102B2000804000900C48001F016841F08051016016
:102B30000068002200F0805000900F21901E00F0ED
:102B40001BF800220221512000F016F8BDE80840D1
:102B5000512000F003B8000044380240002809DB8F
:102B600000F01F02012191404009800000F1E020A7
:102B7000C0F8001170470000F0B40E4B1B680C4603
:102B8000C3F30223C3F10705042D00D90425191D41
:102B9000072901D2002300E0DB1E012606FA05F119
:102BA000491E214099409E40761E16403143F0BC9C
:102BB00005F056BB0CED00E0064900F0070208687E
:102BC0004FF6FF03184040EA0220034A1043086012
:102BD000704700000CED00E00000FA052DE9F04719
:102BE0000E46050065D0DFF81481D8F80000F7B272
:102BF00000F00700B04207D288F80070D8F8000053
:102C000000F00700B04254D128683D4C810712D52E
:102C1000400703D5206840F4E05020602878000782
:102C200003D5206840F4604020602068A96820F047
:102C3000F000084320602878C0072DD0304968682C
:102C40000839012812D0022813D0032811D00968AE
:102C5000890700292DDA216821F003010143216051
:102C6000FFF7BAFE814641F2883A0EE0096889030F
:102C7000EFE709688901ECE7FFF7AEFEA0EB090179
:102C8000514502D90320BDE8F0872068696800F04B
:102C90000C00B0EB810FEFD1D8F80010404601F0E6
:102CA0000701B14207D90770006800F00700B04281
:102CB00001D00120E7E72878400705D52068E968BA
:102CC00020F4E050084320602878000706D52068EB
:102CD000296920F4604040EAC100206000F058F803
:102CE0002168084AC1F30311515CC84006490860D5
:102CF00006480068FFF7C6FE0020C4E7003C02401B
:102D000008380240FCC20008C0020020B8020020BF
:102D10000F2202600C4A136803F003034360136838
:102D200003F0F0038360136803F4E053C360126898
:102D30004FF4E05303EAD20202610448006800F055
:102D4000070008607047000008380240003C02405D
:102D50000448054900680968044AC1F38221515CAE
:102D6000C8407047C0020020083802400CC3000869
:102D70000448054900680968044AC1F34231515CBE
:102D8000C8407047C0020020083802400CC3000849
:102D9000154810B5006810F00C02144813D01449FF
:102DA000042A0FD0082A0ED10F4C241F2268236852
:102DB00002F03F025B0207D52068C0F38810A0FB39
:102DC000010106E0084610BD2168C1F38811A1FB8E
:102DD00000010023FDF756FA2168C1F30141491CA7
:102DE0004900B0FBF1F010BD083802400024F400A7
:102DF00040787D012DE9F84F04006ED02078DFF88F
:102E00004C93C007A9F104054AD009F104000168F8
:102E1000C1F38101012908D00068C0F381000228B4
:102E20000AD1D9F80000400206D52868800337D5BA
:102E300060680028E1D033E06068B0F5803F10D0D2
:102E4000B0F5A02F286810D020F4803028602868C2
:102E500020F4802028606068A8B1FFF7BDFD064619
:102E60000DE0286840F48030F4E740F480202860CA
:102E7000F7E700BFFFF7B0FD801B642873D8286810
:102E80008003F7D50CE0FFF7A7FD064605E000BF7D
:102E9000FFF7A2FD801B6428F0D828688003F7D4D0
:102EA0002078DFF8AC8280074FF0000A3ED5A748B3
:102EB000001D016811F00C0F08D00068C0F38100FC
:102EC00002280BD1D9F80000400207D428688007F7
:102ED00016D5E068012800D112E033E1E068B8B10E
:102EE0000120C8F80000FFF777FD064605E000BFA7
:102EF000FFF772FD801B0228C0D828688007F7D52D
:102F00002868216920F0F80040EAC10028600DE03F
:102F1000C8F800A0FFF760FD064604E0FFF75CFD7F
:102F2000801B02281FD828688007F7D42078000764
:102F300022D5864F87486169703771B101210160E0
:102F4000FFF74AFD064604E0FFF746FD801B022816
:102F500009D838688007F7D50EE0C0F800A0FFF761
:102F60003BFD064605E082E0FFF736FD801B0228A8
:102F70007DD838688007F7D42078400768D5DFF817
:102F8000CCB100270BF13C0BDBF80000C0000BD4E8
:102F9000DBF8001041F08051CBF80010DBF80000A6
:102FA000012700F0805000906B4E3068C00510D4AF
:102FB000306840F480703060FFF70EFD009005E04F
:102FC000FFF70AFD0099401A022850D83068C00562
:102FD000F6D55E4EA0686C3601280FD00528306803
:102FE00010D020F001003060306820F00400306024
:102FF000A068B8B1FFF7F0FC00900FE0306840F037
:103000000100F4E740F004003060F7E7FFF7E4FC6C
:103010000099411A41F28830814266D830688007B1
:10302000F4D50EE0FFF7D8FC009007E0FFF7D4FCE2
:103030000099411A41F28830814256D830688007A1
:10304000F4D42FB1DBF8001021F08051CBF8001040
:10305000A069C8B33D49091D0968C1F3810102296E
:103060004AD00228504607D0C8F8600000E03CE093
:10307000FFF7B2FC04463BE04746C8F86000FFF7A4
:10308000ABFC064605E000BFFFF7A6FC801B02284C
:103090002BD828688001F7D4D4E907010843A16A36
:1030A0002E4A490802EB0141626A41EA8211084353
:1030B00094F82C1040EA0161C9F80010012038662C
:1030C000FFF78AFC044606E03EE000BFFFF784FC01
:1030D000001B022809D828688001F7D534E000BF1A
:1030E000FFF77AFC001B022802D90320BDE8F88F05
:1030F00028688001F4D427E00128F7D0D9F800002F
:10310000E26900F4800191421CD1226A00F03F0183
:10311000914217D147F6C071626A0140B1EB821F3C
:1031200010D1A26A4FF0FF3300F4403103EB52029A
:10313000B1EB024F06D194F82C1000F07060B0EBA8
:10314000016F01D00120D1E70020CFE70438024011
:1031500000004742800E4742007000400000FFFF21
:1031600010B5FDF76DFD10BD2DE9FE4304460026A8
:1031700003200D4684F83400606C03285ED0B5F55A
:10318000805F5BD04FF4006700204FF08068BD4245
:103190001FD18146009001900021206803F08CF936
:1031A000800113D46946204603F07AFD07000DD153
:1031B0000198400334D5B4F850000104206803F0AE
:1031C000B3F9070002D10221206823E0A06B384345
:1031D00028E01DB1A06B40F0006023E08146009024
:1031E00001900021206803F067F98001EED4694660
:1031F000204603F055FD0700E8D10198C0030FD524
:10320000B4F850000104206803F08EF90700DDD106
:103210000021206803F0D5F90700D7D14F46D5E744
:103220004746D3E7A063A06B144F4FF0010848B1A5
:103230002068876384F8348001260EE0A06B40F09C
:103240008050EFE7211DD4E9050C0EC9CDE90050EF
:10325000CDF808C0206803F039F94FF400712068F8
:1032600003F096F928B121688F63A16B0143A16334
:10327000012684F834803046BDE8FE83FF05400017
:1032800070470000F0B5426E920F0A70426EC2F3B2
:1032900083624A70426EC2F301628A70426E120CFF
:1032A000CA70B0F86420120A0A7190F864204A715A
:1032B000826E120DCA80826EC2F303420A72B0F8A7
:1032C0006820C2F3C0324A72B0F86820C2F380327C
:1032D0008A72B0F86820C2F34032CA72B0F868202F
:1032E000C2F300320A7300264E73426C4FF400752D
:1032F000012462B1012A3AD0026847499163816B87
:1033000041F08051816380F834400120F0BDB0F875
:103310006820C36E9205120D42EA93720A61C26E72
:10332000C2F3C2620A75C26EC2F302624A75C26E0D
:10333000C2F342528A75C26EC2F38242CA75C26E2D
:10334000C2F3C2320A760A69521C42650B7E03F050
:1033500007039B1C9A4042650B7A03F00F0704FA9F
:1033600007F383655B0A5A43C0E917250EE090F81E
:103370006820C36E9206920A42EA13420A610A6901
:10338000521C92024265C0E91652056630F86C2F55
:10339000C2F3803201F8192F0288C2F3C6124A70B4
:1033A000027802F07F028A704268D20FCA704268C7
:1033B000C2F341720A714268C2F382624A71426882
:1033C000C2F383528A714268C2F34052CA710E72CC
:1033D0004268C2F300424A728288C2F3C0328A72E3
:1033E0008288C2F38032CA728288C2F340320A7382
:1033F0008288C2F300324A738288C2F381228A73C0
:103400008288C2F30122CA730079C0F346000874AF
:103410004C740020F0BD0000FF054000426C0A60C3
:10342000826C4A60C26C8A60026DCA60426D0A6139
:10343000826D4A61C26D8A61006EC861002070476A
:1034400070B50446B0F8500000250104206803F070
:10345000A0F918B1A16B0143A16304E00021206829
:1034600003F02AF80546C5F3432070BDF8B5056B97
:1034700004460068416B09041BD5290719D5D4E916
:103480000A56002E14D00027206803F035F805F8FE
:10349000010B010A05F8011B010C05F8021B000EC7
:1034A000361F7F1C05F8010C082FEDD3C4E90A561E
:1034B000F8BD416B4FF00006C9054FF0010744D538
:1034C000390281632068C16B4CF23A329143C16387
:1034D0002068C16A21F00101C16228071DD515F0DD
:1034E000220F09D0206803F085F928B1A16B0143B0
:1034F000A1632046FFF7C4FE216840F23A5088637A
:1035000084F834702663A80703D0204600F040FA00
:10351000F8BD204600F040FAF8BD2806FCD5A80604
:1035200009D5206803F066F928B1A16B0143A163B6
:103530002046FFF7A5FEA807EED12068C16A21F05A
:103540000801C16284F83470E3E7416B490424D573
:10355000290722D5D4E90856002EDDD05FF00007F8
:1035600015F8010B009015F8011B361F40EA0120E9
:10357000009015F8021B40EA0140009015F8011C6C
:1035800040EA016000906946206802F0C8FF7F1C95
:10359000082FE5D3C4E90856F8BD416B40F23A2242
:1035A0001142F9D0416B890703D5A16B41F00201AB
:1035B000A163416B090703D5A16B41F00801A16329
:1035C000416B890603D5A16B41F02001A163416BDA
:1035D000C90603D5A16B41F01001A163416B8905B8
:1035E00003D5A16B41F00801A16340F23A718163F8
:1035F0002068C16B40F23A329143C163206803F006
:10360000F9F8A16B0843A063280706D584F8347045
:1036100026632046FFF734FEF8BD2806FCD515F0DA
:10362000300F0CD0E16B11480865E06BFEF73AFFF4
:103630000028F1D0E06BBDE8F84003F00FBBA8070D
:103640000CD0216C0A480865206CFEF72BFF00287F
:10365000E2D0206CBDE8F84003F0D7BAA66384F846
:10366000347026632046FFF77BFDF8BD5D6C0008D3
:103670000B6C000870B504000ED094F834000025DF
:1036800018B92577204600F04FF8032084F834005D
:10369000204600F00BF808B1012070BDA56325633A
:1036A000012084F83400002070BD0000FEB5002524
:1036B000044676200095CDE9015029460B460A467E
:1036C000206802F003FF48BB154E46F8A05F206853
:1036D00002F00EFF012535600220FFF769F8204651
:1036E00003F0C2FB30B100BF84F83450A16B01433A
:1036F000A16313E0204603F040FB0028F4D14FF40F
:103700000071206802F044FF002808D022680549B3
:103710009163A16B0143A16384F834500120FEBD85
:1037200000802542FF0540002DE9F04F87B0054697
:1037300014216846FCF7F0FD4649286888427DD18F
:1037400045480068444940F400600860086800F497
:10375000006005904048143800683F4940F004007C
:1037600014390860086800F004000590086840F00B
:10377000080008600868022400F0080005904FF473
:10378000F850CDE9000402AA002003264FF00C08EF
:1037900082E8410169463148FFF71CF802AA00207F
:1037A00082E841010427CDE9007469462C48FFF7FF
:1037B00011F82D4C2B484FF00068C4E90008002098
:1037C0004FF48069A060C4E90309B8024FF4804B4C
:1037D000C4E9050BC4E909764FF0200A0020C4E9CA
:1037E00007A07E05B7102046C4E90B67FEF73EFF31
:1037F00008B1FDF751FD2C64A5631B4C19486034DA
:103800004830C4E900084020A0600020C4E9030952
:10381000C4E907A00420606204F12802032082E8C2
:10382000C1004FF48051C4E9051B2046FEF71EFF7E
:1038300008B1FDF731FDEC63002200E007E005214F
:103840003120A563FFF798F93120FFF787F907B01A
:10385000BDE8F08F002C01404438024000080240CF
:10386000000C024058640240441200202DE9F04749
:1038700086B01F460446154639B194F83400012835
:1038800007D0022006B0BDE8F087A06B40F00060D2
:1038900008E00020A063E36DEA199A4204D9A06B06
:1038A00040F00070A06369E0032284F834202268AD
:1038B0008146D0622268D36B40F22A363343D36309
:1038C000236C2F4ADA63236C2E4ADA64226C10656B
:1038D000226C9060206C0068026822F0C0020260D6
:1038E00020680A46266C4FEA472800F180014FEA1B
:1038F00098033046FEF724FFDFF88CA0012670B154
:103900002068C16B21F49571C1632168C1F838A0AA
:10391000A06B40F08040A06384F834602EE01B4828
:103920000660606C012800D06D024FF0FF30CDE9D9
:1039300000089020029002200596CDE9030969460F
:10394000206802F0A3FD012F06D9822020632946BA
:10395000206802F08FFE05E0812020632946206860
:1039600002F0A1FE00288DD02268C2F838A0A16B19
:103970000143A16384F83460C4F83090012081E7EA
:10398000C96B0008656B0008FF0540008C85254267
:1039900010B5FDF797F910BD10B5FDF7AFF910BDE3
:1039A0002DE9F04F5FEA010B87B01E460446114631
:1039B00007D094F83400012807D0022007B0BDE8F2
:1039C000F08FA06B40F0006008E00025A563E26D79
:1039D0008819904204D9A06B40F00070A06356E0B3
:1039E000032084F834002068C5622068C26B40F26E
:1039F0001A2942EA0902C263E26B2D48D063E26BE6
:103A00002C48D064E06B0565606C012800D0490249
:103A10004FF09008012E05D9A0202063206802F005
:103A200003FF04E0C4F83080206802F016FFDFF8DE
:103A300088A0012730B12268C2F838A0A16B0143E9
:103A4000A16321E01D480760E16B40208860E06BC6
:103A50000068016821F0C00141F040010160226866
:103A60007602B30859468032E06BFEF769FE80B1FA
:103A70002068C16B21EA0901C1632168C1F838A03F
:103A8000A06B40F08040A06384F83470256301206F
:103A900094E74FF0FF30CDE90006CDE90285CDE98E
:103AA00004576946206802F0F1FC002086E7000018
:103AB0004F6C0008656B0008FF0540008C852542AF
:103AC0007047704770B590F83C20012A32D001242D
:103AD00080F83C40022280F83D2003685A689D68C7
:103AE00022F070060A6832435A60134B02689A4209
:103AF00014D0B2F1804F11D0104B9A420ED0104B1F
:103B00009A420BD00F4B9A4208D00F4B9A4205D0E5
:103B10000E4B9A4202D00E4B9A4204D1496825F0CE
:103B200080031943916080F83D40002180F83C10EB
:103B3000084670BD022070BD000001400004004036
:103B400000080040000C004000040140004001401B
:103B50000018004010B5040003D094F83D0010B1E7
:103B600007E0012010BD002084F83C00204600F052
:103B70001FF8022084F83D00211D206803F094FB0B
:103B8000012084F8460084F83E0084F83F0084F861
:103B9000400084F8410084F8420084F8430084F82F
:103BA000440084F8450084F83D00002010BD00006A
:103BB000F0B587B0044614216846FCF7ADFB4B4ACC
:103BC000266800244949103A022301254848B6F1E5
:103BD000804F25D0474FBE4241D10D6845F00205C8
:103BE0000D60096801F002010591116841F00101C1
:103BF0001160116801F00101059180218DE81A0022
:103C0000CDE903436946FEF7E5FD002202211D20B0
:103C1000FEF7B2FF5FF01D00FEF7A0FF07B0F0BD9A
:103C20000E6846F001060E60096801F00101059179
:103C3000116841F001011160116801F00101059165
:103C400022218DE81A006946CDE90345FEF7C2FD41
:103C5000002202211C20FEF78FFF1C20DCE7264FEC
:103C6000BE421ED10E6846F008060E60096801F0DB
:103C700008010591116841F001011160116800957A
:103C8000CDE9013401F00101CDE904310394694625
:103C9000FEF7A0FD002202213220FEF76DFF322048
:103CA000BAE7164886420ED1086840F02000086046
:103CB0000868002200F02000059002213720FEF75E
:103CC0005BFF3720A8E70E488642A7D1086840F47A
:103CD000807008600868002200F48070059002215E
:103CE0002D20FEF749FF2D2096E7000040380240C6
:103CF0000000024000040040000C0040001400409E
:103D00000020004090F83D10012901D001207047AB
:103D1000022180F83D100168CA6842F00102CA60C1
:103D200000681149884214D0B0F1804F11D00F497A
:103D300088420ED00E4988420BD00E49884208D0E6
:103D40000D49884205D00D49884202D00C4988426D
:103D500004D1816801F00701062903D0016841F010
:103D60000101016000207047000001400004004094
:103D700000080040000C00400004014000400140E9
:103D80000018004070B5044690F83C00002501285A
:103D900017D0012684F83C60022084F83D0020689A
:103DA000826822F0770222F47F42826008685028FD
:103DB00038D00DDC20284FD005DC90B3102811D16D
:103DC0004AE0022070BD302846D040280AD13BE0AE
:103DD00060282FD070280DD0B0F5805F03D0B0F5EB
:103DE000005F12D0012584F83D60002084F83C007B
:103DF000284670BDCB68D1E90121206803F0C5FADF
:103E00002068816841F0770109E0CB68D1E90121A0
:103E1000206803F0BAFA2068816841F4804181602B
:103E2000E1E719E0CA684968206803F0C0FA502148
:103E3000206806E0CA684968206803F009FB602131
:103E4000206803F0ACFACEE7CA684968206803F03E
:103E5000AEFA40212068F4E7226801461046F0E7F8
:103E60002DE9F05F06460068DFF8F8B101257E4CC9
:103E70000027B0F1804F6ED1DFF8F08198F8010093
:103E8000012802D1A068401CA060DFF8E09109F190
:103E9000180999F80100012802D1E068401CE0608F
:103EA00002215846FEF78EFDDFF8C4A1012825D176
:103EB000A8F8067098F80000A8B10421304600F078
:103EC00025FAA168C8F808103168496AD8F81020A6
:103ED000891AC8F80C10A56088F801700121A06E3D
:103EE00005F0F2FD0AE098F80310404631B9C570BC
:103EF0004570DAF80010496A016185702021584642
:103F0000FEF760FD012826D1C846A9F8067099F889
:103F10000000A8B10021304600F0F8F9E168C8F8C7
:103F200008103168496AD8F81020891AC8F80C10AE
:103F3000E56088F801700221A06E05F0C5FD0AE079
:103F400098F80310404631B9C5704570DAF8001092
:103F5000496A0161857047493068884239D1DFF884
:103F60000C8108F1300898F80100012802D120697D
:103F7000401C206101215846FEF724FD012828D16C
:103F8000A8F8067098F80000DFF8EC90B0B10021B6
:103F9000484600F0BBF92169C8F80810D9F80010AC
:103FA000496AD8F81020891AC8F80C10256188F8D9
:103FB00001700421A06E05F087FD0AE098F8031057
:103FC000404631B9C5704570D9F80010496A0161A1
:103FD00085702A493068884242D1244E483670782C
:103FE000012802D16069401C606180215846FEF7BB
:103FF000E9FC012834D1F7803178214801B38046AB
:104000000068016A41F21112114207D1016A92104F
:10401000114203D1016821F0010101600421184817
:1040200000F074F96069B060D8F80000406AF06090
:1040300065617770A06EBDE8F05F082105F044BDB2
:10404000F17800290CD101684F6201680A6842F0DA
:1040500001020A60F57075700068406A3061B570E1
:10406000BDE8F09F000002400C000020280800205E
:1040700004130020000C00409413002000040040B2
:104080004C1300202DE9F041054690F83C00002635
:104090000C46012810D0012085F83C0072B1042A9A
:1040A0001CD0082A2CD00C2A50D00126002085F8DC
:1040B0003C003046BDE8F0810220FBE7D4E9001265
:1040C000E368286803F084F92868816921F00C010D
:1040D000816128688169A26811430FE0D4E9001268
:1040E000E368286803F0C6F92868816921F4406113
:1040F000816128688169A26841EA02218161D5E76E
:104100002868D4E9002C277B016A21F480710162C0
:10411000C169036A21F0030141EA0C0121F0F00CAE
:1041200039074FF420674CEA116123F4206307EA52
:1041300002221A43C16102622868C16921F00C01A0
:10414000C1612868C169A268114328E02868D4E9E0
:104150000027E168036A23F480530362D0F81CC08F
:10416000036A2CF4407C4CEA07274FF6FF7C27F4C7
:1041700070470CEA013139434FF4204723F42043C0
:1041800007EA02321A43C16102622868C16921F458
:104190004061C1612868C169A26841EA0221C16128
:1041A00084E710B5040003D094F83D0010B107E097
:1041B000012010BD002084F83C00204600F01EF8CD
:1041C000022084F83D00211D206803F06DF80120D5
:1041D00084F8460084F83E0084F83F0084F84000EC
:1041E00084F8410084F8420084F8430084F84400D5
:1041F00084F8450084F83D00002010BD70470000A1
:1042000030B50446002551B104290DD0082910D03D
:1042100094F8410094F84520012811D10EE094F85B
:104220003E0094F84220F7E794F83F0094F84320CA
:10423000F2E794F8400094F84420EDE7012A01D019
:10424000012030BD022059B1042912D0082919D00B
:1042500084F8410084F845000C2944D0012540E051
:1042600084F83E0084F842002068C26842F00202EE
:1042700010E084F83F0084F843002068C26842F0F0
:10428000040207E084F8400084F844002068C26813
:1042900042F00802C2600122206803F069F8144964
:1042A0002068884214D0B0F1804F11D01149884263
:1042B0000ED0114988420BD01049884208D01049CD
:1042C000884205D00F49884202D00F49884204D164
:1042D000816801F00701062903D0016841F001015E
:1042E0000160284630BD2068C26842F01002D1E764
:1042F000000001400004004000080040000C0040A5
:1043000000040140004001400018004070B50D005D
:1043100004464FF0000607D0042D0AD0082D0DD01A
:104320000C2D10D001262FE02068C16821F0020179
:104330000DE02068C16821F0040108E02068C16830
:1043400021F0080103E02068C16821F01001C1607C
:1043500000222946206803F00BF82068016A41F228
:104360001112114207D1016A9210114203D1016862
:1043700021F001010160012045B1042D09D0082D73
:104380000AD004F8410F2071304670BD04F83E0F8A
:10439000F9E704F83F0FF6E704F8400FF3E770B5CC
:1043A0000446006801694FF00005C943890715D428
:1043B000C168C943890711D4E91E01610120207732
:1043C000206880698007204602D0FFF749FD04E09D
:1043D00000F098F8204600F096F8257720680169EB
:1043E000C943490717D4C168C943490713D46FF0BB
:1043F00004010161022020772068806910F4407F69
:10440000204602D0FFF72CFD04E000F07BF82046A8
:1044100000F079F8257720680169C943090716D4A7
:10442000C168C943090712D46FF008010161042073
:1044300020772068C0698007204602D0FFF710FD72
:1044400004E000F05FF8204600F05DF82577206872
:104450000169C943C90617D4C168C943C90613D441
:104460006FF010010161082020772068C06910F406
:10447000407F204602D0FFF7F3FC04E000F042F852
:10448000204600F040F8257720680169C943C90734
:1044900008D1C168C943C90704D1891E01612046FA
:1044A00000F032F820680169C943090609D4C168DF
:1044B000C943090605D46FF0800101612046FFF76A
:1044C000FFFA20680169C943490609D4C168C94394
:1044D000490605D46FF040010161204600F0B6F8AE
:1044E00020680169C94389060BD4C168C94389069C
:1044F00007D46FF0200101612046BDE87040FFF74E
:10450000E0BA70BD7047704730B400683F498842D8
:1045100002D130BCFEF794BA3D49884257D13D499B
:104520008D7801224FF496734FF4487400204DB1FA
:104530008D886D1C8D808D889D420AD388808870FF
:104540000A7006E0CD886D1CCD80CD88A54200D3D1
:10455000888231498D784DB18D886D1C8D808D8814
:104560009D420AD3887088800A7006E0CD886D1C51
:10457000CD80CD88A54200D3888228498D784DB161
:104580008D886D1C8D808D889D420AD388708880AF
:104590000A7006E0CD886D1CCD80CD88A54200D381
:1045A00088821F498D7855B18C88641C8C808C88DA
:1045B0009C4202D3887088800A7030BC7047CA88D9
:1045C000521CCA80CA88A242F7D38882F5E71549EF
:1045D000884203D130BC14A003F008BE18498842B9
:1045E000EBD11848018841F4004101801648006869
:1045F000016A41F211121142DFD1016A9210114297
:10460000DBD1016821F001010160D6E70000014023
:104610000020004028080020400800205808002002
:10462000700800200004004074696D6572332074C6
:10463000696D656F75742121212F722F6E00000046
:104640000014004010000020DC1300207047704769
:1046500070B5044620680C3050E8001F21F49071BA
:1046600040E80012002AF5D12068143050E8001FFD
:1046700021F0010140E80012002AF5D1206B012849
:1046800009D120680C3050E8001F21F0100140E8EB
:104690000012002AF5D1206840694FF0000540065D
:1046A00015D52068143050E8001F21F0400140E883
:1046B0000012002AF5D1A06B48B10565A06BFDF78B
:1046C000A8FE20B1A06BFDF7FFFE202806D0E585EF
:1046D000202084F83E002563002070BD1020206457
:1046E000032070BD70470000F8B5016804460868F3
:1046F000CA684B6910F00F0F4FF0000559D003F056
:10470000010602F49077374365D0C10705D0D10583
:1047100003D5216C41F001012164410705D5D9077A
:1047200003D0216C41F002012164810705D5D9072E
:1047300003D0216C41F004012164010707D502F088
:104740002001314303D0216C41F008012164216C28
:1047500000293AD0800604D5900602D5204603F001
:104760007DF820684069216CC0F38010090700D4EF
:1047700060B3204603F03DF820684069400621D52B
:104780002068143050E8001F21F0400140E800127A
:10479000002AF5D1A06BA8B16C490165A06BFDF7AB
:1047A00081FE002811D0A06B016D01B0BDE8F04082
:1047B000084783060FD593060DD52046BDE8F8407F
:1047C00003F04CB82046FFF78DFFF8BD2046FFF7F9
:1047D00089FF2564F8BD266B2023012E79D1C606FA
:1047E00077D5D60675D508684868009048694006B0
:1047F00040D5A16B086840680004000CEAD0A28D87
:104800008242E7D9E085C869B0F5807F2DD0206865
:104810000C3050E8001F21F4807140E80012002A9B
:10482000F5D12068143050E8001F21F0010140E864
:104830000012002AF5D12068143050E8001F21F042
:10484000400140E80012002AF5D184F83E3025638B
:1048500020680C3050E8001F21F0100140E80012E1
:10486000002AF5D1A06BFDF7D4FDA08DE18D401A93
:1048700081B229E0A08DE18D401A81B2E08D00283F
:10488000A8D00029A6D020680C3050E8002F22F4D0
:10489000907240E80026002EF5D12068143050E8D0
:1048A000002F22F0010240E80026002EF5D184F806
:1048B0003E30256320680C3050E8002F22F01002B3
:1048C00040E80023002BF5D12046FFF7C0FEF8BDDD
:1048D000FFE705062BD5150629D594F83D002128BC
:1048E000F5D1A068B0F5805F01D12069B0B1206A30
:1048F000411C2162216800784860E08C401E000461
:10490000000CE084E3D12068C16821F08001C1601F
:104910002068C16841F04001C160D8E7206A008882
:10492000C0F308004860206A801C2062E5E740066A
:10493000CDD55006CBD5CA68204622F04002CA60C9
:1049400084F83D3000F0B5F9C1E70000FD760008BD
:1049500070B5040004D094F83D00002510B106E0C5
:10496000012070BD84F83C50204600F023F824203C
:1049700084F83D002068C16821F40051C1602046E0
:1049800002F0CCFF2068016921F4904101612068A8
:10499000416921F02A0141612068C16841F4005158
:1049A000C1602564202084F83D0084F83E0000208A
:1049B00070BD00002DE9F04786B006461421684618
:1049C000FBF7AAFC54490222D6F800C00024534841
:1049D00003230725DFF848A197064FF480698C452B
:1049E00034D14E491431D1F800C04CF0100CC1F84C
:1049F00000C0096801F010010591016841F0010152
:104A000001600068694600F00100059058028DE8D9
:104A10001500CDE903355046FDF7DCFE424D414817
:104A2000E5E802074020A5E811023F4845F814498F
:104A3000AC61EC612C626C62FDF718FE08B1FCF70A
:104A40002BFC7563AE6306B0BDE8F0873349DFF831
:104A5000DC801031C44538D1D1F800C04CF4003CA2
:104A6000C1F800C0096801F400310591016841F006
:104A7000010101600068694600F0010005900C200A
:104A80008DE81500CDE903355046FDF7A3FE264D10
:104A9000274860352860C5E90174C5E903496C61A0
:104AA0004FF44030AC61C5E9074028466C62FDF721
:104AB000DDFD08B1FCF7F0FBB563002205212620DF
:104AC000AE63FEF759F8262022E01A4EB445BAD15B
:104AD0000E6846F480260E60096801F48021059175
:104AE000016841F0020101600068694600F00200BF
:104AF00005904FF440608DE81500CDE903350E4870
:104B0000FDF768FE002205212720FEF735F8272053
:104B1000FEF724F897E7000000100140303802400B
:104B200000000240B8640240B81500200044004074
:104B300088600240004800400004024090F83E3087
:104B4000202B0ED159B152B190F83C30012B08D036
:104B5000012380F83C300023036302F065BF01208D
:104B600070470220704790F83E30202B0ED159B18B
:104B700052B190F83C30012B08D0012380F83C3032
:104B80000023036302F09ABF0120704702207047A0
:104B900000681449884224D11348818809041BD431
:104BA0008188B1F5006F13D2104900220B685A6258
:104BB000828822B909680A6842F001020A600C4939
:104BC0000A7881880B4B0B44491C81801A7003E0E2
:104BD000818841F400418180012205490648FFF7A0
:104BE000C2BF7047004800400C000020DC130020CA
:104BF000B1020020207D00207415002070470000C5
:104C00002DE9F843044690F83D001F4616460D4630
:104C100020284CD1C5B1BEB194F83C00012846D043
:104C2000012084F83C004FF00008C4F840802120A7
:104C300084F83D00FDF7D0FEA6848146E684A06896
:104C4000B0F5805F03D004E00120BDE8F88320695F
:104C500028B12E465FF0000584F83C800EE0002667
:104C6000FAE78021204602F046FFA0B9AEB116F85F
:104C7000010B21684860E08C401EE084E08C4B46CC
:104C80004FF0000200970028EBD14FF04001204682
:104C900002F031FF30B10320D7E735F8020BC0F343
:104CA0000800E6E7202084F83D000020CDE7022040
:104CB000CBE7704701A003F099FAFEE74572726FE7
:104CC000725F486172644661756C745F48616E64BE
:104CD0006C65720D0A000000044C4AF6AA25206893
:104CE0000560642004F0A3FEF9E70000B411002081
:104CF0007FB5002132480091019102912F4A039122
:104D0000026001244FF480320461C0E9012104767D
:104D100080F820102B4AC0E90A210625C561C16030
:104D200080F830404461FCF754FD08B1FCF7B4FA58
:104D30000C20CDE900040720029069462048FCF7CA
:104D4000F1FB08B1FCF7A8FA0B20009002200190BB
:104D500069461B48FCF7E6FB08B1FCF79DFA082002
:104D600000900320019069461548FCF7DBFB08B171
:104D7000FCF792FA0E20009004200190694610483A
:104D8000FCF7D0FB08B1FCF787FA0A200090052059
:104D9000019069460A48FCF7C5FB08B1FCF77CFAAC
:104DA0000F20CDE9000569460548FCF7BBFB08B1BB
:104DB000FCF772FA0248FCF78FFE7FBD002001402D
:104DC000141000200100000F7FB500211E48009143
:104DD000019102911B4A0391026001244FF4803239
:104DE0000461C0E90121047680F82010174AC0E967
:104DF0000A210225C561C16080F830404461FCF79A
:104E0000E8FC08B1FCF748FA0920CDE900040720C6
:104E1000029069460C48FCF785FB08B1FCF73CFAA8
:104E20000620CDE9000569460748FCF77BFB08B181
:104E3000FCF732FA0449142298390348FCF7A2FD22
:104E40007FBD0000002101405C1000200100000F28
:104E500070B519481749002401601821C0E90114F0
:104E60004FF40031C0E90341090141610476447601
:104E70008476C476047701254577FDF778F908B183
:104E8000FCF70AFA0C4828380146446104610460C2
:104E9000446084600562C460C0E906452830FCF7C0
:104EA00057FF02210448FCF7D3FEBDE870400248DA
:104EB000FDF77CBA006400408C110020214808B541
:104EC000016841F480010160016801F480010091F2
:104ED000016841F4001101600068002200F4001034
:104EE000009002211020FDF747FE1020FDF736FE4E
:104EF000002202213820FDF73FFE3820FDF72EFE6C
:104F0000002202213A20FDF737FE3A20FDF726FE67
:104F1000002207213B20FDF72FFE3B20FDF71EFE60
:104F2000002207214520FDF727FE4520FDF716FE4C
:104F3000002207214620FDF71FFEBDE8084046205D
:104F4000FDF70CBE3038024010B504490448FCF7A8
:104F5000B1F90249491E087010BD0000AD020020E1
:104F6000E0C2000870B501216B4A084604F057FF03
:104F70006A4C694A012160651032084604F04FFF0F
:104F8000654A0121A0652032084604F048FF624AC4
:104F9000E065183A4021042004F09EFE2065604A36
:104FA0000021604804F0B4FF5D4A206224320021F1
:104FB0005D4804F0ADFF5A4A6062483200215B4808
:104FC00004F0A6FF564AA0626C320021584804F053
:104FD0009FFF534AE06290320021564804F098FF48
:104FE0004F4A2063B4320021534804F091FF4C4AE9
:104FF0006063D8320021514804F08AFF464AA0631A
:10500000CC3A00214E4804F083FF434AE063A83ABB
:1050100000214C4804F07CFF3F4A2064843A002180
:10502000494804F075FF3C4A6064603A00214748F3
:1050300004F06EFF384AA0643C3A0021444804F072
:1050400067FF4FF0FF35E0642946A06D04F0A4FE31
:105050002946606D04F0A0FE206B08B13DA000E081
:1050600045A003F0C3F8206A08B14CA000E054A0AA
:1050700003F0BCF8606A08B15AA000E062A003F037
:10508000B5F8A06A08B169A000E071A003F0AEF81D
:10509000E06A08B177A000E080A003F0A7F8606B99
:1050A00008B188A000E090A003F0A0F8A06B08B1C0
:1050B00097A000E09FA003F099F8E06B08B1A6A0CC
:1050C00000E0AEA003F092F8206C08B1B4A000E0BC
:1050D000BBA003F08BF8606C08B1C1A000E0C9A0D0
:1050E00003F084F8D0A003F081F8E06C08B1D5A0FB
:1050F00000E0DDA003F07AF80748303004F0CEFC81
:1051000020660548403004F0C9FC60660248503013
:1051100004F0C4FCA06670BD80C200080C00002032
:10512000B8C000086D800008350D00088D630008C8
:10513000595E0008A5110008D57000086913000821
:1051400031130008D94C0008B15D0008510D00086A
:10515000AD7400084454555F496E69745F546173BF
:105160006B48616E646C65C8CECEF1B4B4BDA8B3B3
:10517000C9B9A6210D0A0000204454555F496E6943
:10518000745F5461736B48616E646C65C8CECEF118
:10519000B4B4BDA8CAA7B0DC210D0A005769745F7A
:1051A0006461745F5461736B48616E646C65C8CEF2
:1051B000CEF1B4B4BDA8B3C9B9A6210D0A00000050
:1051C000205769745F6461745F5461736B48616EEA
:1051D000646C65C8CECEF1B4B4BDA8CAA7B0DC215A
:1051E0000D0A000043616E5F52785F5461736B4833
:1051F000616E646C65C8CECEF1B4B4BDA8B3C9B954
:10520000A6210D0A000000002043616E5F52785F06
:105210005461736B48616E646C65C8CECEF1B4B4F2
:10522000BDA8CAA7B0DC210D0A00000052425F529F
:105230006561645F5461736B48616E646C65C8CE70
:10524000CEF1B4B4BDA8B3C9B9A6210D0A000000BF
:105250002052425F526561645F5461736B48616EB6
:10526000646C65C8CECEF1B4B4BDA8CAA7B0DC21C9
:105270000D0A00004F696C446973706C61795F546A
:1052800061736B48616E646C65C8CECEF1B4B4BD19
:10529000A8B3C9B9A6210D0A00000000204F696C0F
:1052A000446973706C61795F5461736B48616E64BB
:1052B0006C65C8CECEF1B4B4BDA8CAA7B0DC210DD0
:1052C0000A0000005369676E616C5F34475F546188
:1052D000736B48616E646C65C8CECEF1B4B4BDA882
:1052E000B3C9B9A6210D0A00205369676E616C5FCE
:1052F00034475F5461736B48616E646C65C8CECE91
:10530000F1B4B4BDA8CAA7B0DC210D0A00000000AA
:105310004750535F496E69745F5461736B48616EA7
:10532000646C65C8CECEF1B4B4BDA8B3C9B9A6212A
:105330000D0A0000204750535F496E69745F546145
:10534000736B48616E646C65C8CECEF1B4B4BDA811
:10535000CAA7B0DC210D0A004750535F4765745F50
:105360005461736B48616E646C65C8CECEF1B4B4A1
:10537000BDA8B3C9B9A6210D0A00000020475053AB
:105380005F4765745F5461736B48616E646C65C898
:10539000CECEF1B4B4BDA8CAA7B0DC210D0A00007E
:1053A000495744475F5461736B48616E646C65C8CC
:1053B000CECEF1B4B4BDA8B3C9B9A6210D0A000080
:1053C00020495744475F5461736B48616E646C6554
:1053D000C8CECEF1B4B4BDA8CAA7B0DC210D0A0076
:1053E0004F746865726164635F7461736B48616E6A
:1053F000646C65C8CECEF1B4B4BDA8B3C9B9A6215A
:105400000D0A0000204F746865726164635F746107
:10541000736B48616E646C65C8CECEF1B4B4BDA840
:10542000CAA7B0DC210D0A0043616E74785F486141
:105430006E646C65C8CECEF1B4B4BDA8B3C9B9A6CC
:10544000210D0A0054797265537065656454617367
:105450006B48616E646C65C8CECEF1B4B4BDA8B3C0
:10546000C9B9A6210D0A00002054797265537065F0
:1054700065645461736B48616E646C65C8CECEF12F
:10548000B4B4BDA8CAA7B0DC210D0A00154808B500
:10549000016841F080010160016801F08001009124
:1054A000016841F004010160016801F0040100910C
:1054B000016841F001010160016801F00101009102
:1054C000016841F002010160016801F002010091F0
:1054D000016841F008010160006800F008000090D8
:1054E00008BD00003038024010B50C4C0A4820605E
:1054F000032060604FF47A70A0602046FDF772FAD6
:1055000008B1FBF7C9FE21684CF6CC400860216861
:105510004AF6AA20086010BD00300040B4110020F7
:10552000074806494FF40062016000214160816034
:10553000C0E903124161022181617047002C0140E2
:10554000C01100200C4810B50A49016048F23F31F3
:10555000416000210422C0E9021201618161FEF76D
:10556000F9FA08B1FBF798FEBDE810400248FEF7D3
:10557000C9BB0000002000402414002030B58BB0CF
:1055800000252B4C049505950695079508950995DA
:105590000095019502954FF080400395206048F2F8
:1055A0003F30C4E90105681EC4E903058020A061FD
:1055B0002046FEF7CFFA08B1FBF76EFE4FF480509D
:1055C000049004A91A48FEF7DDFB08B1FBF764FE5E
:1055D0001748FEF7E6FD08B1FBF75EFE089508A93F
:1055E00013480995FEF76EFA08B1FBF755FE012046
:1055F000CDE900500295002269460D480395FEF75B
:1056000041FD08B1FBF748FE042269460848FEF751
:1056100039FD08B1FBF740FE04210548FEF7F0FD17
:105620002068016841F0010101600BB030BD00004D
:105630000413002010B58AB0002424480494059473
:1056400006940794089409940094019402941E49C6
:105650000394016048F23F31C0E901144CF250312B
:10566000C0E903148461FEF775FA08B1FBF714FE74
:105670004FF48050049004A91448FEF783FB08B14E
:10568000FBF70AFE1148FEF78CFD08B1FBF704FE9C
:10569000089408A90D480994FEF714FA08B1FBF71D
:1056A000FBFD0120CDE90040029404226946074831
:1056B0000394FEF7E7FC08B1FBF7EEFD0421034875
:1056C000FEF79EFD0AB010BD000400404C13002000
:1056D00030B58BB00025274C0495059506950795A8
:1056E000089509950095019502952148039520603C
:1056F00048F23F30C4E90105681EC4E903052046AD
:10570000A561FEF727FA08B1FBF7C6FD4FF48050FC
:10571000049004A91748FEF735FB08B1FBF7BCFD60
:105720001448FEF73EFD08B1FBF7B6FD089508A941
:1057300010480995FEF7C6F908B1FBF7ADFD012049
:10574000CDE900500295002269460A480395FEF70C
:1057500099FC08B1FBF7A0FD00210648FEF750FDBB
:105760002068016841F0010101600BB030BD00000C
:10577000000C0040941300201CB500240F48009436
:105780000D490194016044F29F11C0E901140921FF
:105790008461C160FEF7DEF908B1FBF77DFD00947E
:1057A000694606480194FEF78DF908B1FBF774FDD0
:1057B0000248FEF7A7FA1CBD00140040DC130020CD
:1057C0000C4810B50A4901604FF4E13141600021F5
:1057D00081600C22C160C0E904128161C161FFF7E0
:1057E000B7F8002803D0BDE81040FBF755BD10BD49
:1057F00000100140EC14002038B5134C11480C2166
:1058000020604FF4E13060600020A060E060C4E9F7
:105810000401A061E0612046FFF79AF808B1FBF7A8
:105820003BFD2068016841680091C16841F01001AA
:10583000C160BDE8384004498022C4390248FFF7FE
:105840007DB90000004400403015002010B5184C10
:1058500016480C2120604FF4165060600020A060B4
:10586000E060C4E90401A061E0612046FFF770F840
:1058700008B1FBF711FD2068C16841F02001C1604B
:1058800001220C490A48FFF76EF90B480068016ACB
:1058900041F21112114207D1016A9210114203D153
:1058A000016821F00101016010BD000000480040C6
:1058B00074150020B1020020DC130020FEE703462F
:1058C0000DE002782A2A03D0202A01D37A2A01D9AE
:1058D000FF2070472C2A01D1491EC9B2401C002963
:1058E000EFD1C01AC0B2704738B50A4605460EA1BE
:1058F0001046FAF71CFD04460921FFF7E0FFFF28D8
:1059000005D02044694600F0F1F9C5F8630007218D
:105910002046FFF7D4FFFF2805D02044694600F059
:10592000E5F985F84F0038BD47474100F8B50A460C
:10593000064624A11046FAF7FAFC05460221FFF7B5
:10594000BEFFFF2805D02844694600F0CFF986F84D
:105950005C000024E01CC1B22846FFF7B0FFFF281E
:105960000AD02844694600F0C1F93119641CE4B238
:1059700081F850000C2CEDD30F212846FFF79FFF34
:10598000FF2805D02844694600F0B0F9A6F85D006C
:1059900010212846FFF793FFFF2805D028446946C9
:1059A00000F0A4F9A6F85F0011212846FFF787FF51
:1059B000FF2805D02844694600F098F9A6F8610050
:1059C000F8BD0000475341002DE9F84F0C468246D0
:1059D0004FF0000835A12046FAF7A9FC0546C0792A
:1059E00003213038C7B22846FFF769FFFF2805D0EA
:1059F0002844694600F07AF98AF80000002651E050
:105A00002AA12046FAF793FC044600254FF0040B28
:105A10000BEB8500C1B22046FFF751FFFF283ED0B7
:105A20002044694600F062F908EB880202EB0A099B
:105A300089F80100052000EB8500C1B22046FFF780
:105A40003EFFFF282BD02044694600F04FF989F82B
:105A50000200062000EB8500C1B22046FFF72FFFB1
:105A6000FF281CD02044694600F040F9A9F8030043
:105A7000072000EB8500C1B22046FFF720FFFF287A
:105A80000DD02044694600F031F989F805006D1CFD
:105A900008F10100EDB200F0FF08042DB8D3761C28
:105AA000F6B2641CBE42ABD3BDE8F88F2447504722
:105AB000535600002DE9F8430A46044683A11046D8
:105AC000FAF735FC05460121FFF7F9FE42F21076A0
:105AD0004FF06408FF281ED02844694600F006F9FC
