:020000040800F2
:10000000787E002061020008F94A0008553F000888
:1000100009460008FD0C0008856500080000000086
:10002000000000000000000000000000A101000826
:100030001D11000800000000FD010008115D00080E
:100040007B0200087B0200087B0200087B0200089C
:100050007B0200087B0200087B0200087B0200088C
:100060007B0200087B0200087B0200087B0200087C
:10007000510E00087B0200087B0200087B0200088A
:100080005D0E00087B0200087B0200080D0D0008D1
:10009000010D00087B0200087B0200087B020008BB
:1000A0007B020008CD5D00087B0200087B0200088F
:1000B0007B0200087B0200087B0200087B0200082C
:1000C0007B0200087B0200087B0200087B0200081C
:1000D0007B0200087B02000815630008E16300084A
:1000E0007B0200087B0200087B0200087B020008FC
:1000F0007B0200087B0200087B0200087B020008EC
:100100007B020008555000087B0200087B020008B3
:100110007B0200087B0200087B0200087B020008CB
:10012000690E00087B0200087B020008750E0008BB
:100130007B0200087B0200087B0200087B020008AB
:100140007B0200087B0200087B0200087B0200089B
:100150007B020008810E00088D0E00087B0200085B
:100160007B0200087B0200087B0200087B0200087B
:100170007B0200087B0200087B02000800000000F0
:100180007B02000885110008DFF810D000F0BEFBEC
:1001900000480047B5730008AFF30080787E002068
:1001A0002C4B19680868B0E8F04F80F30988BFF35A
:1001B0006F8F4FF0000080F311887047000000003F
:1001C00008480068006880F308884FF0000080F35A
:1001D000148862B661B6BFF34F8FBFF36F8F00DF35
:1001E00000BF00BF08ED00E0DFF80C00016841F43B
:1001F00070010160704700BF88ED00E0EFF30980F7
:10020000BFF36F8F134B1A681EF0100F08BF20ED5D
:10021000108A20E9F04F106009B44FF0200080F3FD
:100220001188BFF34F8FBFF36F8F08F05DFC4FF065
:10023000000080F3118809BC19680868B0E8F04F25
:100240001EF0100F08BFB0EC108A80F30988BFF3CE
:100250006F8F704780000020EFF30580704700002B
:100260000648804706480047FEE7FEE7FEE7FEE750
:10027000FEE7FEE7FEE7FEE7FEE7FEE7BD5D0008FE
:10028000890100082DE9F05F0546002092469B4653
:1002900088460646814640241BE02846414647469C
:1002A000224600F048F953465A46C01A914110D3ED
:1002B00011461846224600F02FF92D1A67EB010867
:1002C0004F4622460120002100F026F917EB0009D5
:1002D0004E41201EA4F10104DFDC484631462A4687
:1002E0004346BDE8F09F40EA01039B0703D009E0C5
:1002F00008C9121F08C0042AFAD203E011F8013B12
:1003000000F8013B521EF9D27047D2B201E000F86A
:10031000012B491EFBD270470022F6E710B51346A9
:100320000A4604461946FFF7F0FF204610BD30B5D7
:1003300005462A460B4612F8010B13F8014B08B18B
:10034000A042F8D01CB1002802D06D1CF1E728466D
:1003500030BD421C10F8011B0029FBD1801A7047E8
:1003600010B5002200E0521C835C8C5CA34201D1DA
:10037000002BF8D1D8B2E1B2401A10BD70B50646D4
:1003800006F024FB046805460A220021304600F0EE
:10039000E2F82C6070BD2DE9FE4F81EA030404F001
:1003A000004421F0004100944FF0000B23F0004383
:1003B00050EA01045ED052EA03045BD0C3F30A544E
:1003C000C1F30A552C44A4F2F3340194A0FB025467
:1003D000C1F3130141F48011C3F3130343F48013F9
:1003E00001FB024400FB034E840A970A44EA81544D
:1003F00047EA8357A4FB076802958D0A05FB07852A
:100400004FEA932C04FB0C542705029D4FEA065833
:1004100047EA1637B5EB08056EEB070C870E920E10
:1004200047EA811742EA8312A7FB0201B6EB0B01F0
:1004300064EB00042B0D43EA0C335E1844EB1C50B4
:10044000DA465146E7FB0201C5F313044FEA0B33CA
:1004500043EA14534FEA0432019C43EA0603A4F131
:100460000C040294009CCDE900B400F0BBF803B08A
:10047000BDE8F08F00200146F9E70EB540F23341A8
:1004800002910021CDE900110A460B4600F0AAF8BE
:1004900003B000BDC1F30A5210B5C1F3130140F21D
:1004A000FF3341F480119A4201DA002010BD40F27E
:1004B00033439A42A2F2334203DC524200F03BF84B
:1004C00010BD904010BD00F0004230F000400AD056
:1004D000C10D01F56071C0F3160042EA0151C20876
:1004E00040071143704700200146704730B50B4666
:1004F000014600202022012409E021FA02F59D4254
:1005000005D303FA02F5491B04FA02F52844151E27
:10051000A2F10102F1DC30BD202A04DB203A00FA0E
:1005200002F1002070479140C2F1200320FA03F34A
:10053000194390407047202A04DB203A21FA02F048
:100540000021704721FA02F3D040C2F1200291400D
:100550000843194670472DE9F04791460F468046FB
:100560000446002614F8015B2DB100F0F3F9006891
:10057000405DC007F6D12B2D02D02D2D18D0641E62
:100580004A463946204600F0E9F927B13968A142C8
:1005900001D1C7F8008071054FF002040BD540422D
:1005A000002803DD06F012FA0460A007BDE8F0871A
:1005B00046F48066E4E70028F8DA06F007FA0460FB
:1005C0006FF00040F2E710B5141E73F1000408DA72
:1005D000401C41F1000192185B411A4301D120F007
:1005E000010010BD2DE9F04D92469B4611B1B1FAC4
:1005F00081F202E0B0FA80F220329046FFF78CFFE1
:1006000004460F4640EA0A0041EA0B0153465A46A7
:10061000084313D0114653EA010019D0C8F1400233
:100620005046FFF788FF05460E465046594642465B
:10063000FFF772FF084305D0012004E02046394649
:10064000BDE8F08D0020054346EAE0762C433743B1
:100650000A986305E40AA0EB08000022FD0A44EAB8
:1006600047540A3002D500200146E9E70105101978
:100670006941DDE9084500196941BDE8F04DA2E78F
:100680002DE9FE4F804681EA0300C00F0C46009022
:1006900021F0004123F00045B8EB0200A94105D24A
:1006A0004046214690461C460B46024623F0004039
:1006B000104347D0270DC7F30A00C3F30A51029035
:1006C000401A019040286BDAC3F3130040F4801BFA
:1006D0000098924620B10023D2EB030A63EB0B0B88
:1006E00001985946C0F140025046FFF715FF0646F3
:1006F0000D4650465946019A00F01AF910EB0800D1
:100700006141002487EA115284EAE7731A4340D01A
:10071000009A62B3019A012A4FEA075215DC001BC6
:1007200061EB02014FF0004202EA0752CDE90042BC
:10073000001C41F5801132462B46FFF753FF03B0F2
:10074000BDE8F08F40462146F9E7001B61EB02014E
:10075000001C41F5801300185B412018A2F500171A
:1007600047EB030140EAD570B6196D4111E06D0801
:100770004FEA360645EAC0754FEA0752001B61EBA7
:100780000201001C41F5801149084FEA30000019B0
:10079000514132462B4603B0BDE8F04FFFF713BF7F
:1007A0000098012240000023D0EB020263EBE073CB
:1007B000009821464FEAE074B8EB000061EB0401B9
:1007C000E9E783F000435BE781F0004158E72DE95A
:1007D000F04D81EA030404F0004B21F0004514467B
:1007E0004FF0000A23F0004150EA050220D054EAFD
:1007F00001021DD0C5F30A570246C5F31303C1F326
:100800001300C1F30A5640F4801543F48013A7EB9C
:100810000608101BD64608F2FD3873EB050002D31C
:1008200008F1010801E092185B41B8F1000F03DA0A
:1008300000200146BDE8F08D00204FF480110646EF
:1008400084460EE0171B73EB050705D3121B63EB01
:10085000050306434CEA010C49084FEA30009218A0
:100860005B4150EA0107EDD152EA030012D082EA5F
:10087000040083EA0501084305D0101BAB4106D2F2
:100880000122002306E000224FF0004302E06FF057
:10089000010253101AEB06004CEB085110EB0A0052
:1008A00041EB0B01BDE8F04DFFF78DBEC1F30A52DD
:1008B000C1F3130140F2FF3341F480119A4202DA8E
:1008C00000200146704740F233439A42A2F233427D
:1008D00002DC5242FFF72FBEFFF71EBE30B5041EEA
:1008E00071F1000404DB4FF00044404264EB01016D
:1008F000141E73F1000405DB1C464FF00043524206
:1009000063EB0403994208BF904230BD064C074D8B
:1009100006E0E06840F0010394E8070098471034CF
:10092000AC42F6D3FFF734FC34AC000854AC0008FA
:10093000202A06DBCB17203A41FA02F043EAE073A3
:1009400006E041FA02F3D040C2F120029140084390
:1009500019467047004870477CA200082DE9F05FF7
:1009600082460078002715468B460AF10104B946F5
:10097000302801D09DB113E014F8010B012778282D
:1009800003D0582801D045B10AE00DB1102D07D190
:100990000027102514F8010B02E0082500E00A25C5
:1009A0000026B0460EE005FB080005FB06F1012716
:1009B00001EB10461FFA80F8B6F5803F00D3B94628
:1009C00014F8010B294600F018F80028EBDABBF107
:1009D000000F05D00FB1641E00E05446CBF8004074
:1009E000B9F1000F06D005F0F1FF02210160C81E29
:1009F000BDE8F09F48EA0640FAE73A2800D23038CE
:100A000020F02002412A01D3A2F13700884201D30D
:100A10004FF0FF30704770B58C1810F8015B15F07F
:100A2000070301D110F8013B2A1106D110F8012B60
:100A300003E010F8016B01F8016B5B1EF9D12B0785
:100A400005D40023521E0DD401F8013BFAE710F83B
:100A5000013BCB1A921C03E013F8015B01F8015B28
:100A6000521EF9D5A142D8D3002070BD10B5014661
:100A7000806B026C12F0500F05D0026CD20626D5A6
:100A800000F0ACFD10BD016C41F40071016401681F
:100A90008A6812F0405F17D1027EAAB9CA6A12F4BE
:100AA000700F02D08A6852050ED44A6822F02002E4
:100AB0004A60016C21F480710164016CC90403D4A3
:100AC000016C41F00101016400F086FD10BD806BF6
:100AD000C26CBDE810400846104710B5806B40213D
:100AE0000164416C41F00401416400F077FD10BDE8
:100AF00010B5806B00F071FD10BD0000464910B5C7
:100B00004A6822F440324A604A6843681A434A609D
:100B100001684A6822F480724A6001684A68036981
:100B200042EA03224A6001684A6822F040724A6041
:100B300001684A6883681A434A6001688A6822F437
:100B400000628A6001688A68C3681A438A60816AA1
:100B50006FF07062D14201688A6822F070628A6028
:100B600001688A680CD0836A1A438A6001688A68BF
:100B700022F040528A6001688A68C36A1A4301E021
:100B800022F040528A6001688A6822F002028A607C
:100B900001688A68037E42EA43028A6090F8201066
:100BA000002901684A680FD042F400624A60016877
:100BB0004A6822F460424A6001684A68174C436AF6
:100BC00004EB43331A4301E022F400624A600168F7
:100BD000CA6A22F47002CA620168CA6A838B104C26
:100BE00004EB03531A43CA6201688A6822F4007254
:100BF0008A6001688A6890F8303042EA43228A604D
:100C000001688A6822F480628A6001688A684069A3
:100C100042EA8020886010BD0023014000E0FFFF11
:100C20000000F0FF704700000146014802F0A2B941
:100C3000DC05002010B5044802F0AEF9042801D00C
:100C4000012010BD002010BDDC05002010B500F013
:100C500015F8012801D0012010BD074802F0B6FAAE
:100C6000040006D14FF40061034802F029F800B1F6
:100C70000124204610BD0000DC05002008B501203D
:100C80008DF800009DF8000008BD0000134610B567
:100C90000A4601460024034802F094FB00B10124F7
:100CA000204610BDDC05002008B50120ADF800008D
:100CB000034800231A466946406806F017FE08BD3F
:100CC00060000020134610B50A4601460024034880
:100CD00002F012FC00B10124204610BDDC0500200A
:100CE00008B50220ADF80000034800231A46694603
:100CF000406806F0FBFD08BD60000020FEE7000034
:100D0000014800F01EBF0000B4050020014800F0BB
:100D100018BF0000B4050020054D4FF0FF342146F8
:100D2000286B06F017FE012006F05FFCF7E70000D5
:100D30000800002010B50C4CA078612806D065286A
:100D400009D06D280FD105F085FC06E005F064FCA4
:100D500038B106A003E005F09BFC10B109A005F036
:100D6000EBFDFF20A07010BD000100200D0A5365AF
:100D7000742041636343616C69204572726F720D28
:100D80000A0000000D0A536574204D616743616CD1
:100D900069204572726F720D0A0000002DE9F0475C
:100DA00000270425DFF8A080DFF8A09050383E46E9
:100DB00001F1060A102845D2DFE800F01108130CF3
:100DC0001517191B1D1F21444444442334240325B3
:100DD000402702E03D2403252E27012613E030247E
:100DE00011E037242BE03A2429E041240BE045248C
:100DF00009E0492407E04D2405E0512403E055248F
:100E000001E0D8F82440032A19D04DB16A0009EB5B
:100E10004400FFF768FAD8F8182029462046904782
:100E2000002E0FD0720009EB47005146FFF75BFA26
:100E300031463846D8F81820BDE8F047104703255A
:100E40000026E3E7BDE8F08700010020B45300204E
:100E5000014801F019B900002C090020014801F0F7
:100E600013B90000CC080020014801F00DB90000C2
:100E70002C050020014801F007B9000060060020A1
:100E8000014801F001B90000C0060020014801F04E
:100E9000FBB800006C08002001681823CAB2103AA1
:100EA000B2FBF3F2054B6FF30901032A9B5CC365A8
:100EB00000D9091D8165084670470000449D00085F
:100EC00010B5014600208B698A6A4FF0C07453B197
:100ED000B3F5005F15D072B1012A0CD0022A0AD0F6
:100EE000032A09D104E01AB1012A06D0022A03D14B
:100EF000C96AC90100D5012010BDC96AA142FAD052
:100F000010BD002AF7D0012AF2D0022AF3D0032A1A
:100F1000F3D010BD30B50468256825F48025256020
:100F2000046863608368402B036803D0996000689D
:100F3000C26030BD9A600068C16030BD2D4C002594
:100F40004FF480674FF47A76002006F0A9FA38460D
:100F500003F01AFFA06028A005F0EEFC09E00420D1
:100F600006F092F900283AD06D1CADB2304606F07A
:100F70003CFB0A2DF3D92B4805F0DEFC2AA005F036
:100F8000DBFC2FA005F0D8FC34A005F0D5FC40A078
:100F900005F0D2FC4BA005F0CFFC544805F0CCFC8A
:100FA000534805F0C9FC304606F01FFBA06B06F065
:100FB00048FB00070FD408214EA007F06FFA02216A
:100FC000A06B06F05FFB4FF4FA7006F00EFB0421F5
:100FD000A06B06F057FBE06907F008FCB4E70821B6
:100FE000A06B06F00FFB46A005F0A6FC0A2DC2D8A8
:100FF000DCE70000080000205761697420666F720A
:1010000020436174312044545520746F20737461FF
:1010100072742C2077616974203130732E2E2E2E3D
:10102000200D0A00D0A2000841544B2D44545520F5
:10103000496E6974204661696C202E2E2E0D0A00BF
:10104000C7EBB0B4D5D5D2D4CFC2B2BDD6E8BDF8C7
:10105000D0D0BCECB2E93A0D0A000000312ECAB97A
:10106000D3C3B5E7C4D4C9CFCEBBBBFAC5E4D6C39E
:10107000C8EDBCFEBCECB2E9445455C4DCB7F1B5D4
:10108000A5B6C0D5FDB3A3B9A4D7F70D0A000000DB
:10109000322EBCECB2E9445455B4AEBFDAB2CECA7B
:1010A000FDD3EB53544D3332CDA8D1B6B5C4B4AE55
:1010B000BFDAB2CECAFDCAC7B7F1D2BBD6C20D0ADB
:1010C00000000000332EBCECB2E9445455D3EB537E
:1010D000544D3332B4AEBFDAB5C4BDD3CFDFCAC7C7
:1010E000B7F1D5FDC8B70D0A0000000020A3000825
:1010F00080A2000841542B434C4B0D0A0000000015
:10110000436174312044545520496E6974205375ED
:101110006363657373200D0A0000000070470000D0
:1011200072B602A005F008FCFEE700004572726F7F
:10113000725F48616E646C65720D0A00002200F0F7
:1011400001B8000030B50E4B054601205C7A002C3A
:1011500014D1587A1C54587A03EB800045605D7AAC
:1011600003F108002A54587A421C5A723030087031
:101170003A2048702F208870CC70002030BD0000CD
:10118000D40900207047000070B50C46054603F0F6
:10119000C1FA2146284603F04DFA2146284603F0BD
:1011A0006BFA04482146027D2846BDE8704003F0F2
:1011B00027BB0000440100200B4C002540F2ED3617
:1011C000A06B06F03EFAC00509D56088000406D57C
:1011D000658006490648FFF7D7FF00F05BF8304608
:1011E00006F003FAECE70000080000202070002061
:1011F000B8030020FF25DFF86C80DFF86C901B4FF0
:1012000000244FF47A764FF4FA7A4FF4807B012170
:10121000304605F04FF960B920E0012241464846CA
:1012200005F06CF905F014F9641CE4B20546052CD0
:1012300008D80121304605F03DF908B1002DECD168
:10124000052C01D90AA000E00DA005F075FB504661
:1012500006F0CBF95946B86B06F014FA786A07F035
:10126000C5FAD4E7A086010040420F000800002024
:1012700047505320536574204661696C0D0A000085
:101280004750532053657420537563636573730D22
:101290000A00000010B5424C2DED028B82B0D4F84C
:1012A000490000EE100AF8EE400A9FED3E8A4434F1
:1012B00080EE880A10EE100AFFF705F941EC100BDA
:1012C000607A009053EC102B37A005F035FB94EDBD
:1012D000000AF8EE400A80EE880A10EE100AFFF7C6
:1012E000F2F841EC100B2079009053EC102B34A055
:1012F00005F022FBD4F81F00B2EE041A00EE100A2B
:10130000F8EEC00A80EE810A10EE100AFFF7DBF853
:1013100041EC100B30A053EC102B05F00DFBB4F892
:1013200023009FED321A00EE100AF8EE400A80EE1C
:10133000810A10EE100AFFF7C6F841EC100B2CA042
:1013400053EC102B05F0F8FA207E443C032805D816
:101350002C4951F820102CA005F0EEFA94F84F100B
:101360002DA0313405F0E8FA14F8310C6421B0FBFB
:10137000F1F201FB12012EA005F0DEFAE37BA27B65
:10138000A18932A005F0D8FAA37C627C217C02B04E
:1013900036A0BDEC028BBDE8104005F0CDBA0000D0
:1013A000B80300200050C3474C6F6E6769747564C2
:1013B000653A252E3566202531630D0A00000000B0
:1013C0004C617469747564653A252E356620253143
:1013D00063200D0A00000000416C74697475646537
:1013E0003A252E31666D200D0A00000000007A4477
:1013F00053706565643A252E33666B6D2F68200D3A
:101400000A0000004C000020466978204D6F64659A
:101410003A25730D0A00000056616C6964207361FF
:1014200074656C6C6974653A253032640D0A00008D
:1014300056697369626C6520736174656C6C69745C
:10144000653A253032640D0A0000000055544320EF
:10145000446174653A253034642F253032642F2579
:101460003032642020200D0A000000005554432033
:1014700054696D653A253032643A253032643A2534
:101480003032642020200D0A0000000078B50024CE
:10149000009490F83C20012A19D0012280F83C20C9
:1014A0000A6807230568092A13D9EE680A3A02EB8D
:1014B000420293409E43EE600B788A680A3B03EB3E
:1014C00043039A400368DD682A43DA6010E0022093
:1014D00078BD2E6902EB420293409E432E610B7849
:1014E0008A6803EB43039A4003681D692A431A6123
:1014F0004A681F23072A13D205686E6B521E02EB3F
:10150000820293409E436E630B790A885B1E92B2FF
:1015100003EB83039A4003685D6B2A435A6327E019
:1015200005680D2A12D22E6BD21F02EB8202934065
:101530009E432E630B790A88DB1F92B203EB830371
:101540009A4003681D6B2A431A6311E0EE6A0D3A54
:1015500002EB820293409E43EE620B790A880D3BB8
:1015600092B203EB83039A400368DD6A2A43DA628E
:10157000164B0568144A9D4206D10D68122D03D101
:10158000556845F48005556005689D4218D10B6883
:10159000102B01D0112B13D1536843F40003536077
:1015A000096810290CD10A490A4A0968B1FBF2F10D
:1015B00001EB8101490000E0491E00910029FBD1A7
:1015C00080F83C40002078BD00230140002001400D
:1015D0007C00002040420F0070477047704770B594
:1015E00004004FF0000503D0206C002610B107E086
:1015F000012070BD204600F01DF8666484F83C6050
:10160000206CC00610D4206C20F4885040F00200FA
:1016100020642046FFF772FA6664206C20F0020016
:1016200040F00100206400E0012584F83C60284679
:1016300070BD000070B586B0064614216846FEF7FE
:101640006BFE1D493068884233D11C480025016873
:1016500041F480710160006800F4807005901748C3
:101660001438016841F0040101600068694600F027
:1016700004000590022000900320CDE901051048E8
:1016800000F086FE104C0F48C4E900050015A56067
:10169000C4E90350400060618000C4E9060525628A
:1016A0002046656200F0C0FD08B1FFF739FDB46364
:1016B000A66306B070BD000000200140443802401F
:1016C00000080240106402402C050020F8B50446D2
:1016D00000200E46009094F83C10012907D001210B
:1016E00084F83C1021688B68DB0702D011E00220EF
:1016F000F8BD8B6843F001038B604049404B09689B
:10170000B1FBF3F101EB410100E0491E009100291A
:10171000FBD121688B68DB0503D58B6823F48073CC
:101720008B6021688B68DB075DD0236C40F201651C
:10173000AB4343F4807323644968490505D5216CA4
:1017400021F4005141F480512164216CC90404D575
:10175000616C21F00601616400E0606484F83C0083
:10176000A16B2948274DC863A16B28480864A16B69
:101770002748C86421686FF022000860206841682B
:1017800041F0806141602068816841F4807181602E
:101790002168134632464C31A06B00F0AFFD6868FB
:1017A0001C49C006206806D0884224D1816811F007
:1017B000405F13D01FE08842F8D0174A904203D10F
:1017C000D1F80423D206F1D0144A904213D1D1F8B3
:1017D000041301F01F011029E8D30CE0816841F0E7
:1017E0008041816007E0206C40F010002064606C54
:1017F00040F0010060640020F8BD00007C00002083
:1018000040420F00002301406D0A0008F10A000861
:10181000DB0A0008002001400021014000220140B5
:1018200090F82020012A07D0022A05D0416A41F40D
:101830008021416201207047006842690A43426189
:1018400000207047F0B590F820500468A468012D7E
:1018500005D0022D03D0416A41F480215DE014F0EF
:10186000406F01D1E50055D5C4F30164022C03D9C2
:10187000416A41F4000150E00125A5401D608D68DA
:101880004FF4C0739DB1CE6835434E6845EAC60536
:10189000066803EB0417F5514FF4C275076805EBB2
:1018A00004150E697E51097D012905D009E00E88D5
:1018B000CD6845EA4655EBE701684E5946F4807617
:1018C0004E511179D579567941EA056195792D0402
:1018D00045EA062529434FF4C676056806EB04164B
:1018E000A9511178D57841EA0561957852782D048F
:1018F00045EA022211434FF4C475026805EB041552
:101900005151006803EB0411425842F00102425069
:101910000020F0BD416A41F4001141620120F0BD98
:1019200010B590F82020012A07D0022A05D0416A7C
:1019300041F480214162012010BD3B48D0F80022D3
:1019400042F00102C0F80022D0F8002222F47C52BA
:10195000C0F80022D0F800224B6A42EA0322C0F805
:1019600000220A7D02F01F0301229A40D0F81C32A7
:101970009343C0F81C32CB69B3B9D0F80C3293430F
:10198000C0F80C328C894B6864F31F434C6900EB40
:10199000C404C4F840320C890B6864F31F434C69DB
:1019A00000EBC404C4F84432CB69012B16D1D0F843
:1019B0000C321343C0F80C320C884B6864F31F439D
:1019C0004C6900EBC404C4F840320C89CB6864F362
:1019D0001F434C6900EBC404C4F844328B69002BEC
:1019E000D0F804320ED01343C0F804320B69002B38
:1019F000D0F8143208D01343C0F81432096A012910
:101A000004D008E09343EFE79343F5E7D0F81C12C6
:101A10001143C0F81C12D0F8001221F00101C0F8E7
:101A20000012002010BD000000640040704730B577
:101A300090F82040012C05D0022C03D0416A41F4DB
:101A400080215DE00468002955D02469A40754D0A2
:101A50004FF4D874056804EB01142D5915F00405F2
:101A6000956005682D594ED0ED08556005682C59D4
:101A700004F00204D4604FF4DA74056804EB011436
:101A80002D5905F00F05156105682D59C5F307257A
:101A9000956105682C59240C54614FF4DC7204687C
:101AA00002EB0112A4581C700468A458240A5C704C
:101AB0000468A458240C9C700468A258120EDA70B2
:101AC0004FF4DE72046802EB0112A4581C71046822
:101AD000A458240A5C710468A458240C9C710468FE
:101AE000A258120EDA71006881B1016941F020013B
:101AF0000161002030BDE468A8E7416A41F40011AB
:101B00004162012030BD6D0D1560AFE7C16841F045
:101B10002001C160EDE70246002092F82010012963
:101B200001D002290CD111688A68520100D5012028
:101B30008A68120100D5401C8968C90000D5401C84
:101B400070472DE9F05F0546006800244669D0F82B
:101B500004908768D0F80CB0D0F810A0D0F81880A6
:101B6000F10748D0F90714D001218160B80703D5E7
:101B7000284600F026FA0CE0780702D54FF40064FE
:101B800007E0380702D54FF4805402E0284600F001
:101B900017FAF80516D529684FF480708860B805E3
:101BA00003D5284600F00FFA0CE0780502D544F47E
:101BB000005407E0380502D544F4804402E028468A
:101BC00000F000FAF80316D529684FF480308860D9
:101BD000B80303D5284600F0F8F90CE0780302D5E5
:101BE00044F4004407E0380302D544F4803402E0B2
:101BF000284600F0E9F9300707D55FEACB6004D545
:101C00002968102044F40074C86070074FF008077A
:101C100007D55FEA0B7004D52868C760284600F036
:101C200061F9B00706D52868C068800702D0284649
:101C300000F05AF9700607D55FEACA6004D5296832
:101C4000102044F480640861B00607D55FEA0A708A
:101C500004D528680761284600F082F9F00606D509
:101C600028680069800702D0284600F07AF9B0039E
:101C700008D55FEAC96005D5296810204860284664
:101C800000F070F9F00307D55FEA097004D5286801
:101C90004760284600F09AF9300446D55FEA49705B
:101CA00040D5F00504D55FEAC87001D044F00104C6
:101CB000B00504D55FEA887001D544F002047005D0
:101CC00004D55FEA487001D544F00404300529D5F5
:101CD00018F0700F26D008F07000402815D006DCF0
:101CE000102809D020280AD0302816D10AE0502820
:101CF0000ED0602811D10EE044F008040DE044F04D
:101D000010040AE044F0200407E044F0400404E03A
:101D100044F0800401E044F480742868816921F073
:101D200070018161296804204860002C05D0686A30
:101D3000204368622846FFF779FEBDE8F09F70B542
:101D4000040003D094F8200010B104E0012070BD1D
:101D5000204600F081F82068016841F0010101602F
:101D600000F014FC0546052604E000F00FFC401BC3
:101D70000A2811D820684068C007F6D0206801689A
:101D800021F00201016000F001FC05460BE000F0CB
:101D9000FDFB401B0A2806D9606A40F400306062EF
:101DA00084F82060D2E7206840688007EFD4207E66
:101DB0000128206801683DD021F080010160607E2B
:101DC00001282068016838D021F040010160A07E20
:101DD00001282068016833D021F020010160E07EF5
:101DE0000128206801682ED041F010010160207F99
:101DF00001282068016829D021F008010160607F76
:101E000001282068016824D021F004010160D4E990
:101E100002010843D4E90412114308436168491ED2
:101E200008432168C86100206062012084F8200016
:101E3000002070BD41F08001C0E741F04001C5E7DE
:101E400041F02001CAE721F01001CFE741F008017D
:101E5000D4E741F00401D9E710B586B00446142157
:101E60006846FEF759FA1C492068884231D11B4860
:101E70000021026842F000720260006800F0007009
:101E8000059016481038026842F0010202600068AE
:101E900000F0010005904FF4C05000900220CDE901
:101EA0000101032003900920049069460C4800F0CA
:101EB0006FFA00220221132000F00AFC132000F028
:101EC000F9FB00220221142000F002FC142000F093
:101ED000F1FB06B010BD0000006400404038024035
:101EE000000002407047000070B50068184A0021E9
:101EF00090422BD1174C0020174A20606060A060F0
:101F00002061E0606061A0615054491CC9B2082999
:101F1000FAD3114B0F4A00211048FFF788FD0E4DF0
:101F200020683C3D50280CD1A06850B92069082891
:101F300007D10821084804F027FB0121A86B05F010
:101F4000A1FB286BBDE8704005F07EBD70BD0000B0
:101F5000006400409C03002044000020B4050020E1
:101F6000704770477047000070B5044690F8200035
:101F7000012804D0606A40F40020606218E002206A
:101F800084F820002068016821F00101016000F060
:101F9000FDFA05460EE000BF00F0F8FA401B0A28E3
:101FA00008D9606A40F400306062052084F820009F
:101FB000012070BD20684068C007EDD1606270BD2F
:101FC00070477047704770477047704770472DE9FA
:101FD000F0410446876D00F0D9FA064694F83500C2
:101FE0000025022806D08020606584F83450012046
:101FF000BDE8F0812068016821F0160101602068C9
:10200000416921F080014161206C08B9A06C20B1C8
:102010002068016821F0080101602068016821F052
:10202000010101600CE000F0B1FA801B052807D91E
:1020300020206065032084F8350084F83450D7E709
:1020400020680068C007EED194F85C103F208840FB
:10205000B860012084F8350084F834500020C7E7C8
:1020600090F83510022903D0802141650120704786
:10207000052180F835100068016821F00101016038
:1020800000207047406D70472DE9F84304464FF03B
:102090000009CDF8009063484FF41651A56D006813
:1020A000B0FBF1F72E6894F85C10082000FA01F1FB
:1020B00031420FD021680A6852070BD50A6822F016
:1020C00004020A6094F85C108840A860606D40F0DB
:1020D0000100606594F85C104FF0010808FA01F007
:1020E000304208D021684969090604D5A860606DAE
:1020F00040F00200606594F85C1004208840304293
:1021000008D021680968890704D5A860606D40F08F
:102110000400606594F85C1010208840304218D0AC
:1021200021680968090714D5A86020680168490377
:1021300004D50068000308D5A16C07E00168C90553
:1021400003D4016821F008010160216C09B1204627
:10215000884794F85C1020208840304231D02168B4
:102160000968C9062DD5A86094F8350005282068AF
:10217000016806D0490347D5006800031DD4616C8F
:102180001CE021F0160101602068416921F0800106
:102190004161206C08B9A06C20B12068016821F071
:1021A0000801016094F85C103F208840A86084F822
:1021B000358084F83490216D1FE0E16B09B1204631
:1021C0008847606D00282BD0606DC00714D00520B3
:1021D00084F835002068016821F001010160009851
:1021E000401C0090B84203D820680068C007F6D1B0
:1021F00084F8358084F83490E16C002910D001B067
:102200002046BDE8F04308470168C905D5D40168F8
:1022100021F01001016084F8358084F83490CCE717
:10222000BDE8F8837C0000202DE9F041044600F071
:10223000ADF906465CB1022084F83500002584F82B
:1022400034502068016821F0010101600DE0012097
:10225000BDE8F08100F09AF9801B052805D92020FF
:102260006065032084F83500F2E720680068C00745
:10227000F0D12268116820480140D4E901031843D5
:10228000D4E903363343184363691843A3691843F9
:10229000E3691843236A18430843616A042903D198
:1022A000D4E90B1319430843106020684069666A3B
:1022B00020F0070130460E43012704280CD1A06A04
:1022C0000643E06A40B12046FEF7FAFD20B1402007
:1022D000606584F83570BAE7206846612046FEF7ED
:1022E000DBFD94F85C203F2191408160656584F8B6
:1022F00035700020ACE700003F8010F02DE9F04180
:102300000446866D90F83400002501280DD0012088
:1023100084F8340094F835700020012F07D084F839
:10232000340002252846BDE8F0810220FBE70227A1
:1023300084F8357060652046FEF7ECFD94F85C107B
:102340003F208840B0602068016841F016010160BC
:10235000206C20B12068016841F00801016020680C
:10236000016841F001010160DCE7000070B504463E
:1023700000F00CF90546601C02D0044800780444C3
:1023800000F004F9401BA042FAD370BD7000002099
:102390002DE9F84FDFF8BCA10022012503264FF0FC
:1023A0000F090AF1040BAAF1040E00BF0B6805FA2D
:1023B00002F42340A34270D10F7907F00307012FE5
:1023C00001D0022F16D187684FEA420806FA08FCAE
:1023D00027EA0C07D1F80CC00CFA08FC4CEA070CF1
:1023E000C0F808C04768A7430C79C4F300149440B0
:1023F0003C4344600C79E443A4070AD0C4684FEA24
:10240000420C06FA0CF7BC438F6807FA0CF7274317
:10241000C7600C7904F00304022C12D1D40800EB3D
:10242000840CDCF820405707FF0E09FA07F824EA6D
:102430000804D1F8108008FA07F848EA0408CCF834
:10244000208004684FEA420C06FA0CF7BC430F796F
:1024500007F0030707FA0CF7274307604C6814F4EA
:10246000403F70D03C4C276847F480472760246881
:1024700022F0030704F480440094384C07EB040C6A
:10248000DCF8084897074FEA177809FA08F7BC43C1
:10249000334FB84202D1002724E054E0314FB84214
:1024A00001D101271EE0304FB84201D1022719E0C7
:1024B0002E4FB84201D1032714E02D4FB84201D16D
:1024C00004270FE02B4FB84201D105270AE02A4F1D
:1024D000B84201D1062705E0284FB84201D10727AD
:1024E00000E0082707FA08F72743CCF80878DAF85D
:1024F00000405746D1F804C09C435FEACC2C00D57D
:102500001C433C60DBF800405F46D1F804C09C43AC
:102510005FEA8C2C00D51C433C60DEF80040774617
:10252000D1F804C09C435FEA8C3C00D51C433C605E
:10253000084F083F3C68D1F804C09C435FEACC3C9C
:1025400000D51C433C60521C102AFFF42FAFBDE89D
:10255000F88F0000083C0140443802400030014040
:10256000000002400004024000080240000C02404B
:10257000001002400014024000180240001C0240FB
:102580000AB1816170470904FBE7000001488068D7
:1025900070470000700000200248816802781144F2
:1025A00081607047700000200B4810B5016841F44D
:1025B00000710160016841F480610160016841F4CB
:1025C00080710160032000F0A3F80F2000F006F8EE
:1025D00000F04AF8002010BD003C024030B505462E
:1025E0001C4887B00024016841F0010101600068C7
:1025F00006A900F00100009001A800F035F900F0F4
:1026000063F915494000B0FBF1F11548134A491E22
:10261000026040F2E732C0E90324C0E9011484619A
:1026200000F0FCFF040012D10D4801F025F8040071
:102630000DD1192000F03EF8102D07D200222946B6
:10264000192000F045F80748056000E0012407B0B4
:10265000204630BD4438024040420F000000014097
:102660008C09002074000020114808B5016841F46D
:1026700080410160006800F4804000900C48001F19
:10268000016841F0805101600068002200F0805034
:1026900000900F21901E00F01BF800220221512013
:1026A00000F016F8BDE80840512000F003B8000023
:1026B00044380240002809DB00F01F02012191404C
:1026C0004009800000F1E020C0F8001170470000D0
:1026D000F0B40E4B1B680C46C3F30223C3F107058D
:1026E000042D00D90425191D072901D2002300E07B
:1026F000DB1E012606FA05F1491E214099409E4045
:10270000761E16403143F0BC04F050B90CED00E0E9
:10271000064900F0070208684FF6FF03184040EA38
:102720000220034A10430860704700000CED00E0EF
:102730000000FA052DE9F0470E46050065D0DFF8E8
:102740001481D8F80000F7B200F00700B04207D2B9
:1027500088F80070D8F8000000F00700B04254D1AB
:1027600028683D4C810712D5400703D5206840F406
:10277000E05020602878000703D5206840F46040CE
:1027800020602068A96820F0F000084320602878C5
:10279000C0072DD0304968680839012812D00228B6
:1027A00013D0032811D00968890700292DDA216880
:1027B00021F0030101432160FFF7E8FE814641F269
:1027C000883A0EE009688903EFE709688901ECE7B8
:1027D000FFF7DCFEA0EB0901514502D90320BDE85B
:1027E000F0872068696800F00C00B0EB810FEFD132
:1027F000D8F80010404601F00701B14207D9077030
:10280000006800F00700B04201D00120E7E7287817
:10281000400705D52068E96820F4E05008432060AF
:102820002878000706D52068296920F4604040EA2E
:10283000C100206000F058F82168084AC1F3031174
:10284000515CC8400649086006480068FFF7C6FEAC
:102850000020C4E7003C0240083802404C9D0008BC
:102860007C000020740000200F2202600C4A1368D4
:1028700003F003034360136803F0F00383601368FD
:1028800003F4E053C36012684FF4E05303EAD2024A
:1028900002610448006800F007000860704700000B
:1028A00008380240003C02400448054900680968B5
:1028B000044AC1F38221515CC84070477C0000206B
:1028C000083802405C9D0008044805490068096812
:1028D000044AC1F34231515CC84070477C0000207B
:1028E000083802405C9D0008154810B5006810F0DB
:1028F0000C02144813D01449042A0FD0082A0ED110
:102900000F4C241F2268236802F03F025B0207D5A8
:102910002068C0F38810A0FB010106E0084610BD46
:102920002168C1F38811A1FB00010023FDF7AAFC77
:102930002168C1F30141491C4900B0FBF1F010BD11
:10294000083802400024F40040787D012DE9F84F5A
:1029500004006ED02078DFF84C93C007A9F104057D
:102960004AD009F104000168C1F38101012908D0AE
:102970000068C0F3810002280AD1D9F800004002A3
:1029800006D52868800337D560680028E1D033E099
:102990006068B0F5803F10D0B0F5A02F286810D047
:1029A00020F480302860286820F480202860606847
:1029B000A8B1FFF7EBFD06460DE0286840F4803033
:1029C000F4E740F480202860F7E700BFFFF7DEFD62
:1029D000801B642873D828688003F7D50CE0FFF7C4
:1029E000D5FD064605E000BFFFF7D0FD801B64283B
:1029F000F0D828688003F7D42078DFF8AC8280070D
:102A00004FF0000A3ED5A748001D016811F00C0FD9
:102A100008D00068C0F3810002280BD1D9F800006B
:102A2000400207D42868800716D5E068012800D145
:102A300012E033E1E068B8B10120C8F80000FFF708
:102A4000A5FD064605E000BFFFF7A0FD801B02289C
:102A5000C0D828688007F7D52868216920F0F800D9
:102A600040EAC10028600DE0C8F800A0FFF78EFD25
:102A7000064604E0FFF78AFD801B02281FD828685D
:102A80008007F7D42078000722D5864F87486169F0
:102A9000703771B101210160FFF778FD064604E04F
:102AA000FFF774FD801B022809D838688007F7D526
:102AB0000EE0C0F800A0FFF769FD064605E082E0E1
:102AC000FFF764FD801B02287DD838688007F7D4A3
:102AD0002078400768D5DFF8CCB100270BF13C0B1C
:102AE000DBF80000C0000BD4DBF8001041F080518F
:102AF000CBF80010DBF80000012700F080500090B8
:102B00006B4E3068C00510D4306840F4807030607F
:102B1000FFF73CFD009005E0FFF738FD0099401AF3
:102B2000022850D83068C005F6D55E4EA0686C36D5
:102B300001280FD00528306810D020F00100306047
:102B4000306820F004003060A068B8B1FFF71EFDC7
:102B500000900FE0306840F00100F4E740F004001E
:102B60003060F7E7FFF712FD0099411A41F2883013
:102B7000814266D830688007F4D50EE0FFF706FD85
:102B8000009007E0FFF702FD0099411A41F28830FA
:102B9000814256D830688007F4D42FB1DBF800109A
:102BA00021F08051CBF80010A069C8B33D49091D40
:102BB0000968C1F3810102294AD00228504607D092
:102BC000C8F8600000E03CE0FFF7E0FC04463BE0B2
:102BD0004746C8F86000FFF7D9FC064605E000BF8D
:102BE000FFF7D4FC801B02282BD828688001F7D47B
:102BF000D4E907010843A16A2E4A490802EB0141C2
:102C0000626A41EA8211084394F82C1040EA01619B
:102C1000C9F8001001203866FFF7B8FC044606E04A
:102C20003EE000BFFFF7B2FC001B022809D828686D
:102C30008001F7D534E000BFFFF7A8FC001B022895
:102C400002D90320BDE8F88F28688001F4D427E07A
:102C50000128F7D0D9F80000E26900F48001914220
:102C60001CD1226A00F03F01914217D147F6C07192
:102C7000626A0140B1EB821F10D1A26A4FF0FF33AC
:102C800000F4403103EB5202B1EB024F06D194F84D
:102C90002C1000F07060B0EB016F01D00120D1E783
:102CA0000020CFE70438024000004742800E474230
:102CB000007000400000FFFF10B5FDF7B3FF10BD2E
:102CC0002DE9FE430446002603200D4684F8340017
:102CD000606C03285ED0B5F5805F5BD04FF4006771
:102CE00000204FF08068BD421FD1814600900190C6
:102CF0000021206802F0AAF9800113D46946204619
:102D000002F098FD07000DD10198400334D5B4F8C6
:102D100050000104206802F0D1F9070002D102211D
:102D2000206823E0A06B384328E01DB1A06B40F081
:102D3000006023E08146009001900021206802F0AD
:102D400085F98001EED46946204602F073FD070044
:102D5000E8D10198C0030FD5B4F8500001042068F1
:102D600002F0ACF90700DDD10021206802F0F3F990
:102D70000700D7D14F46D5E74746D3E7A063A06BFE
:102D8000144F4FF0010848B12068876384F83480FD
:102D900001260EE0A06B40F08050EFE7211DD4E942
:102DA000050C0EC9CDE90050CDF808C0206802F02E
:102DB00057F94FF40071206802F0B4F928B1216886
:102DC0008F63A16B0143A163012684F834803046F0
:102DD000BDE8FE83FF05400070470000F0B5426E7D
:102DE000920F0A70426EC2F383624A70426EC2F35F
:102DF00001628A70426E120CCA70B0F86420120A26
:102E00000A7190F864204A71826E120DCA80826E37
:102E1000C2F303420A72B0F86820C2F3C0324A72A9
:102E2000B0F86820C2F380328A72B0F86820C2F32A
:102E30004032CA72B0F86820C2F300320A7300262A
:102E40004E73426C4FF40075012462B1012A3AD0EE
:102E5000026847499163816B41F08051816380F83A
:102E600034400120F0BDB0F86820C36E9205120D09
:102E700042EA93720A61C26EC2F3C2620A75C26EFE
:102E8000C2F302624A75C26EC2F342528A75C26EC2
:102E9000C2F38242CA75C26EC2F3C2320A760A69AE
:102EA000521C42650B7E03F007039B1C9A4042654F
:102EB0000B7A03F00F0704FA07F383655B0A5A43A2
:102EC000C0E917250EE090F86820C36E9206920ABA
:102ED00042EA13420A610A69521C92024265C0E941
:102EE0001652056630F86C2FC2F3803201F8192FA4
:102EF0000288C2F3C6124A70027802F07F028A701A
:102F00004268D20FCA704268C2F341720A714268C5
:102F1000C2F382624A714268C2F383528A71426884
:102F2000C2F34052CA710E724268C2F300424A7242
:102F30008288C2F3C0328A728288C2F38032CA7237
:102F40008288C2F340320A738288C2F300324A7325
:102F50008288C2F381228A738288C2F30122CA73F3
:102F60000079C0F3460008744C740020F0BD0000E6
:102F7000FF054000426C0A60826C4A60C26C8A6045
:102F8000026DCA60426D0A61826D4A61C26D8A61DA
:102F9000006EC8610020704770B50446B0F850005C
:102FA00000250104206802F0BEF918B1A16B0143AD
:102FB000A16304E00021206802F048F80546C5F34B
:102FC000432070BDF8B5056B04460068416B0904E9
:102FD0001BD5290719D5D4E90A56002E14D000278D
:102FE000206802F053F805F8010B010A05F8011BEF
:102FF000010C05F8021B000E361F7F1C05F8010CA2
:10300000082FEDD3C4E90A56F8BD416B4FF0000616
:10301000C9054FF0010744D5390281632068C16BAF
:103020004CF23A329143C1632068C16A21F0010138
:10303000C16228071DD515F0220F09D0206802F0C3
:10304000A3F928B1A16B0143A1632046FFF7C4FE99
:10305000216840F23A50886384F834702663A807E8
:1030600003D0204600F040FAF8BD204600F040FAB8
:10307000F8BD2806FCD5A80609D5206802F084F919
:1030800028B1A16B0143A1632046FFF7A5FEA80765
:10309000EED12068C16A21F00801C16284F8347061
:1030A000E3E7416B490424D5290722D5D4E9085622
:1030B000002EDDD05FF0000715F8010B009015F829
:1030C000011B361F40EA0120009015F8021B40EA60
:1030D0000140009015F8011C40EA0160009069462B
:1030E000206801F0E6FF7F1C082FE5D3C4E90856ED
:1030F000F8BD416B40F23A221142F9D0416B890789
:1031000003D5A16B41F00201A163416B090703D50F
:10311000A16B41F00801A163416B890603D5A16B46
:1031200041F02001A163416BC90603D5A16B41F0B9
:103130001001A163416B890503D5A16B41F0080122
:10314000A16340F23A7181632068C16B40F23A3268
:103150009143C163206802F017F9A16B0843A06393
:10316000280706D584F8347026632046FFF734FE1E
:10317000F8BD2806FCD515F0300F0CD0E16B1148D6
:103180000865E06BFEF76CFF0028F1D0E06BBDE84E
:10319000F84002F02DBBA8070CD0216C0A48086546
:1031A000206CFEF75DFF0028E2D0206CBDE8F840FF
:1031B00002F0F5BAA66384F8347026632046FFF760
:1031C0007BFDF8BDF15700089F57000870B504005B
:1031D0000ED094F83400002518B92577204600F069
:1031E0004FF8032084F83400204600F00BF808B1B3
:1031F000012070BDA5632563012084F83400002000
:1032000070BD0000FEB50025044676200095CDE98E
:10321000015029460B460A46206801F021FF48BBB1
:10322000154E46F8A05F206801F02CFF012535609F
:103230000220FFF79BF8204602F0E0FB30B100BF10
:1032400084F83450A16B0143A16313E0204602F0DF
:103250005EFB0028F4D14FF40071206801F062FF9A
:10326000002808D0226805499163A16B0143A1633E
:1032700084F834500120FEBD00802542FF05400047
:103280002DE9F04F87B0054614216846FDF744F854
:103290004649286888427DD145480068444940F441
:1032A00000600860086800F4006005904048143829
:1032B00000683F4940F0040014390860086800F0D5
:1032C00004000590086840F00800086008680224BF
:1032D00000F0080005904FF4F850CDE9000402AA70
:1032E000002003264FF00C0882E84101694631486E
:1032F000FFF74EF802AA002082E841010427CDE939
:10330000007469462C48FFF743F82D4C2B484FF0CA
:103310000068C4E9000800204FF48069A060C4E997
:103320000309B8024FF4804BC4E9050BC4E90976E0
:103330004FF0200A0020C4E907A07E05B710204600
:10334000C4E90B67FEF770FF08B1FDF7E9FE2C64D6
:10335000A5631B4C194860344830C4E9000840207C
:10336000A0600020C4E90309C4E907A0042060624A
:1033700004F12802032082E8C1004FF48051C4E91F
:10338000051B2046FEF750FF08B1FDF7C9FEEC63B0
:10339000002200E007E005213120A563FFF798F93E
:1033A0003120FFF787F907B0BDE8F08F002C01400E
:1033B0004438024000080240000C024058640240B9
:1033C000600600202DE9F04786B01F4604461546EA
:1033D00039B194F83400012807D0022006B0BDE8C6
:1033E000F087A06B40F0006008E00020A063E36D70
:1033F000EA199A4204D9A06B40F00070A06369E01A
:10340000032284F8342022688146D0622268D36B7C
:1034100040F22A363343D363236C2F4ADA63236C9A
:103420002E4ADA64226C1065226C9060206C006871
:10343000026822F0C002026020680A46266C4FEA49
:10344000472800F180014FEA98033046FEF756FF07
:10345000DFF88CA0012670B12068C16B21F4957152
:10346000C1632168C1F838A0A06B40F08040A06320
:1034700084F834602EE01B480660606C012800D0A0
:103480006D024FF0FF30CDE900089020029002203D
:103490000596CDE903096946206801F0C1FD012FB9
:1034A00006D9822020632946206801F0ADFE05E0A0
:1034B000812020632946206801F0BFFE00288DD0BE
:1034C0002268C2F838A0A16B0143A16384F834607C
:1034D000C4F83090012081E75D570008F9560008D4
:1034E000FF0540008C85254210B5FDF7DDFB10BDC2
:1034F00010B5FDF7F5FB10BD2DE9F04F5FEA010BAC
:1035000087B01E460446114607D094F834000128BF
:1035100007D0022007B0BDE8F08FA06B40F000603C
:1035200008E00025A563E26D8819904204D9A06BDC
:1035300040F00070A06356E0032084F83400206857
:10354000C5622068C26B40F21A2942EA0902C263CE
:10355000E26B2D48D063E26B2C48D064E06B0565CC
:10356000606C012800D049024FF09008012E05D967
:10357000A0202063206801F021FF04E0C4F830801F
:10358000206801F034FFDFF888A0012730B12268FD
:10359000C2F838A0A16B0143A16321E01D48076078
:1035A000E16B40208860E06B0068016821F0C00199
:1035B00041F04001016022687602B308594680322A
:1035C000E06BFEF79BFE80B12068C16B21EA090128
:1035D000C1632168C1F838A0A06B40F08040A063AF
:1035E00084F834702563012094E74FF0FF30CDE973
:1035F0000006CDE90285CDE904576946206801F04F
:103600000FFD002086E70000E3570008F956000888
:10361000FF0540008C8525427047704710B50400B7
:1036200003D094F83D0010B107E0012010BD002048
:1036300084F83C00204600F01EF8022084F83D008B
:10364000211D206802F0C8FB012084F8460084F8A0
:103650003E0084F83F0084F8400084F8410084F87C
:10366000420084F8430084F8440084F8450084F85C
:103670003D00002010BD704790F83D10012901D099
:1036800001207047022180F83D100168CA6842F0AD
:103690000102CA6000681149884214D0B0F1804F1D
:1036A00011D00F4988420ED00E4988420BD00E49E6
:1036B000884208D00D49884205D00D49884202D081
:1036C0000C49884204D1816801F00701062903D022
:1036D000016841F0010101600020704700000140D5
:1036E0000004004000080040000C004000040140BD
:1036F0000040014000180040704770B50446006863
:1037000001694FF00005C943890715D4C168C94351
:10371000890711D4E91E01610120207720688069A2
:103720008007204602D0FFF7E7FF04E000F098F89A
:10373000204600F096F8257720680169C9434907BB
:1037400017D4C168C943490713D46FF0040101615C
:10375000022020772068806910F4407F204602D044
:10376000FFF7CAFF04E000F07BF8204600F079F88C
:10377000257720680169C943090716D4C168C94380
:10378000090712D46FF00801016104202077206836
:10379000C0698007204602D0FFF7AEFF04E000F0CA
:1037A0005FF8204600F05DF8257720680169C9437D
:1037B000C90617D4C168C943C90613D46FF01001F4
:1037C0000161082020772068C06910F4407F2046FE
:1037D00002D0FFF791FF04E000F042F8204600F02D
:1037E00040F8257720680169C943C90708D1C16835
:1037F000C943C90704D1891E0161204600F032F88F
:1038000020680169C943090609D4C168C94309068A
:1038100005D46FF0800101612046FFF7FDFE2068AE
:103820000169C943490609D4C168C943490605D499
:103830006FF040010161204600F01EF82068016928
:10384000C94389060BD4C168C943890607D46FF000
:10385000200101612046BDE87040FFF7DEBE70BD6B
:103860007047704700680349884201D1FEF794BE53
:1038700070470000000001407047704770B5044673
:1038800020680C3050E8001F21F4907140E80012CD
:10389000002AF5D12068143050E8001F21F0010102
:1038A00040E80012002AF5D1206B012809D12068D8
:1038B0000C3050E8001F21F0100140E80012002AEF
:1038C000F5D1206840694FF00005400615D5206805
:1038D000143050E8001F21F0400140E80012002A97
:1038E000F5D1A06B48B10565A06BFEF770FB20B168
:1038F000A06BFEF7C7FB202806D0E585202084F8C2
:103900003E002563002070BD10202064032070BDA0
:1039100070470000F8B5016804460868CA684B693A
:1039200010F00F0F4FF0000559D003F0010602F41C
:103930009077374365D0C10705D0D10503D5216CF9
:1039400041F001012164410705D5D90703D0216C5D
:1039500041F002012164810705D5D90703D0216C0C
:1039600041F004012164010707D502F02001314331
:1039700003D0216C41F008012164216C00293AD068
:10398000800604D5900602D5204602F039FB206857
:103990004069216CC0F38010090700D460B3204651
:1039A00002F0F9FA20684069400621D520681430F9
:1039B00050E8001F21F0400140E80012002AF5D134
:1039C000A06BA8B16C490165A06BFEF749FB00280C
:1039D00011D0A06B016D01B0BDE8F040084783062F
:1039E0000FD593060DD52046BDE8F84002F008BB80
:1039F0002046FFF78DFFF8BD2046FFF789FF2564BD
:103A0000F8BD266B2023012E79D1C60677D5D606C0
:103A100075D50868486800904869400640D5A16B94
:103A2000086840680004000CEAD0A28D8242E7D901
:103A3000E085C869B0F5807F2DD020680C3050E853
:103A4000001F21F4807140E80012002AF5D120689F
:103A5000143050E8001F21F0010140E80012002A54
:103A6000F5D12068143050E8001F21F0400140E8F3
:103A70000012002AF5D184F83E30256320680C300E
:103A800050E8001F21F0100140E80012002AF5D193
:103A9000A06BFEF79CFAA08DE18D401A81B229E05F
:103AA000A08DE18D401A81B2E08D0028A8D00029B8
:103AB000A6D020680C3050E8002F22F4907240E825
:103AC0000026002EF5D12068143050E8002F22F097
:103AD000010240E80026002EF5D184F83E3025632F
:103AE00020680C3050E8002F22F0100240E800233C
:103AF000002BF5D12046FFF7C0FEF8BDFFE7050615
:103B00002BD5150629D594F83D002128F5D1A068BC
:103B1000B0F5805F01D12069B0B1206A411C2162FB
:103B2000216800784860E08C401E0004000CE084AE
:103B3000E3D12068C16821F08001C1602068C168BC
:103B400041F04001C160D8E7206A0088C0F3080056
:103B50004860206A801C2062E5E74006CDD550060B
:103B6000CBD5CA68204622F04002CA6084F83D30B6
:103B700000F0EFF9C1E70000A15E000870B5040095
:103B800004D094F83D00002510B106E0012070BD7E
:103B900084F83C50204600F023F8242084F83D00AF
:103BA0002068C16821F40051C160204602F088FA03
:103BB0002068016921F4904101612068416921F088
:103BC0002A0141612068C16841F40051C160256447
:103BD000202084F83D0084F83E00002070BD0000E5
:103BE0002DE9F04786B0054614216846FCF794FBA2
:103BF0007448DFF8CC810221D5F800C000240322EC
:103C00000723DFF8C4A18E060715C4453ED1DFF8AF
:103C1000B4C10CF1140CDCF8008048F01008CCF8AA
:103C20000080DCF800C00CF0100CCDF814C0D0F807
:103C300000C04CF0010CC0F800C0006800F00100AA
:103C4000059050028DE8130069465046CDE90323E4
:103C5000FEF79EFBDFF878815C494046E0E80216FB
:103C6000402192C040F814498461C4610462404616
:103C7000C8F82440FEF7D8FA08B1FDF751FAC5F8A4
:103C80003480C8F8385006B0BDE8F087DFF84481CA
:103C9000DFF83091C44509F1100944D1D9F800800A
:103CA00048F40038C9F80080D9F800C00CF4003C92
:103CB000CDF814C0D0F800C04CF0010CC0F800C022
:103CC000006800F0010005900C208DE813006946A3
:103CD0005046CDE90323FEF75BFBDFF8F4803E4955
:103CE00008F160084046C8F80010C0E90164C0E966
:103CF0000347C8F81440C8F81840C8F81C40C8F872
:103D00002040C8F82440FEF78FFA08B1FDF708FA02
:103D1000C5F83880002205212620C8F83850FEF763
:103D2000D7FC262049E0DFF8B480C445ABD1D9F8F0
:103D3000008048F48028C9F80080D9F800C00CF44D
:103D4000802CCDF814C0D0F800C04CF0020CC0F8A4
:103D500000C0006800F0020005904FF440608DE85C
:103D6000130069461E48CDE90323FEF711FBDFF877
:103D70006080194908F1C00860394046C8F8001051
:103D8000C0E90164C0E90347C8F81440C8F8184006
:103D9000C8F81C40C8F82040C8F82440FEF744FA90
:103DA00008B1FDF7BDF9C5F83880002205212720AC
:103DB000C8F83850FEF78CFC2720FEF77BFC62E742
:103DC000001001403038024000000240B864024058
:103DD0006C08002000440040886002400048004019
:103DE0000004024090F83E30202B0ED159B152B160
:103DF00090F83C30012B08D0012380F83C300023A0
:103E0000036302F0E3B9012070470220704790F885
:103E10003E30202B0ED159B152B190F83C30012BDD
:103E200008D0012380F83C300023036302F018BA65
:103E3000012070470220704700681249884220D153
:103E400011484188090417D44188B1F5006F0FD299
:103E500042880E4909684AB141680D490A7841888B
:103E60000C4B0B44491C41801A7005E04160F4E79B
:103E7000418841F400414180012205490648FFF78D
:103E8000C6BF7047004800400800002078000020AE
:103E90006D000020207000202808002070470000DE
:103EA0002DE9F843044690F83D001F4616460D469E
:103EB00020284CD1C5B1BEB194F83C00012846D0B1
:103EC000012084F83C004FF00008C4F84080212015
:103ED00084F83D00FEF75AFBA6848146E684A0687C
:103EE000B0F5805F03D004E00120BDE8F8832069CD
:103EF00028B12E465FF0000584F83C800EE00026D5
:103F0000FAE78021204602F0C8F9A0B9AEB116F850
:103F1000010B21684860E08C401EE084E08C4B4639
:103F20004FF0000200970028EBD14FF040012046EF
:103F300002F0B3F930B10320D7E735F8020BC0F334
:103F40000800E6E7202084F83D000020CDE70220AD
:103F5000CBE7704701A002F0EFFCFEE74572726FFD
:103F6000725F486172644661756C745F48616E642B
:103F70006C65720D0A0000007FB50024174800949C
:103F8000019402941449039401604FF48031C0E914
:103F900001140461047680F820401149C0E90A1434
:103FA0000125C561C46080F830404561FDF717FB0D
:103FB00008B1FDF7B5F80B20CDE90005694602947C
:103FC0000648FDF763FA08B1FDF7AAF80122054992
:103FD0000248FDF77BFB7FBD00200140E404002088
:103FE0000100000F5C00002070B51948174900243B
:103FF00001601821C0E901144FF40031C0E9034108
:1040000009014161047644768476C47604770125FB
:104010004577FDF794FE08B1FDF782F80C48283883
:104020000146446104610460446084600562C460C8
:10403000C0E906452830FDF773FC02210448FDF76E
:10404000EFFBBDE870400248FDF78EBF0064004002
:10405000B4050020214808B5016841F480010160E1
:10406000016801F480010091016841F400110160D0
:104070000068002200F40010009002210C20FEF7DE
:1040800027FB0C20FEF716FB002202211020FEF772
:104090001FFB1020FEF70EFB002202213820FEF746
:1040A00017FB3820FEF706FB002207213B20FEF716
:1040B0000FFB3B20FEF7FEFA002207214520FEF70A
:1040C00007FB4520FEF7F6FA002207214620FEF7FF
:1040D000FFFABDE808404620FEF7ECBA303802404F
:1040E00010B504490448FDF729F80249491E087033
:1040F00010BD000069000020309D000870B501214E
:104100004C4A084603F054FC4B4C4A4A01212063B8
:104110001032084603F04CFC464A6063183A4021CE
:10412000042003F0B7FBE062444A0021444803F056
:10413000B7FC424AE06024320021424803F0B0FC60
:104140003E4A2061483200213F4803F0A9FC3B4A27
:1041500060616C3200213D4803F0A2FC374AA06147
:10416000903200213A4803F09BFC324AE061843AE5
:104170000021384803F094FC2E4A2062603A002166
:10418000354803F08DFC2B4A60623C3A00213348ED
:1041900003F086FC4FF0FF35A0622946606B03F008
:1041A000D9FB2946206B03F0D5FBE06908B12CA0B0
:1041B00000E034A002F0C0FBE06808B13AA000E0E3
:1041C00042A002F0B9FB206908B149A000E051A06B
:1041D00002F0B2FB606908B157A000E05FA002F0F6
:1041E000ABFBA06908B166A000E06FA002F0A4FBE1
:1041F000E06908B11AA000E022A002F09DFB206A4D
:1042000008B173A000E07BA002F096FB606A08B1E1
:1042100082A000E08AA002F08FFBA06A08B191A002
:1042200000E099A002F088FB0248203003F014FA65
:10423000A06370BD009D000808000020C89B000816
:104240001D680008190D0008294E0008FD4A0008E5
:104250003D0F0008695C0008F5110008B91100085D
:104260004454555F496E69745F5461736B48616E65
:10427000646C65C8CECEF1B4B4BDA8B3C9B9A621EB
:104280000D0A0000204454555F496E69745F546103
:10429000736B48616E646C65C8CECEF1B4B4BDA8D2
:1042A000CAA7B0DC210D0A005769745F6461745FAE
:1042B0005461736B48616E646C65C8CECEF1B4B462
:1042C000BDA8B3C9B9A6210D0A0000005769745FE3
:1042D0006461745F5461736B48616E646C65C8CED1
:1042E000CEF1B4B4BDA8CAA7B0DC210D0A0000000D
:1042F00043616E5F52785F5461736B48616E646CAA
:1043000065C8CECEF1B4B4BDA8B3C9B9A6210D0A13
:10431000000000002043616E5F52785F5461736B50
:1043200048616E646C65C8CECEF1B4B4BDA8CAA7AE
:10433000B0DC210D0A00000052425F526561645FEB
:104340005461736B48616E646C65C8CECEF1B4B4D1
:10435000BDA8B3C9B9A6210D0A0000002052425FD2
:10436000526561645F5461736B48616E646C65C8CB
:10437000CECEF1B4B4BDA8CAA7B0DC210D0A0000AE
:104380004F696C446973706C61795F5461736B48F9
:10439000616E646C65C8CECEF1B4B4BDA8B3C9B9C2
:1043A000A6210D0A00000000204F696C446973705B
:1043B0006C61795F5461736B48616E646C65C8CEE3
:1043C000CEF1B4B4BDA8CAA7B0DC210D0A0000002C
:1043D0005369676E616C5F34475F5461736B48610A
:1043E0006E646C65C8CECEF1B4B4BDA8B3C9B9A62D
:1043F000210D0A00205369676E616C5F34475F547A
:1044000061736B48616E646C65C8CECEF1B4B4BDA7
:10441000A8CAA7B0DC210D0A000000004750535F76
:10442000496E69745F5461736B48616E646C65C8F2
:10443000CECEF1B4B4BDA8B3C9B9A6210D0A00000F
:104440004750535F496E69745F5461736B48616E86
:10445000646C65C8CECEF1B4B4BDA8CAA7B0DC21E7
:104460000D0A00004750535F4765745F5461736BDA
:1044700048616E646C65C8CECEF1B4B4BDA8B3C952
:10448000B9A6210D0A000000204750535F4765740C
:104490005F5461736B48616E646C65C8CECEF1B4D5
:1044A000B4BDA8CAA7B0DC210D0A0000154808B5A4
:1044B000016841F080010160016801F08001009114
:1044C000016841F004010160016801F004010091FC
:1044D000016841F001010160016801F001010091F2
:1044E000016841F002010160016801F002010091E0
:1044F000016841F008010160006800F008000090C8
:1045000008BD000030380240074806494FF40062F9
:104510000160002141608160C0E903124161022114
:1045200081617047002C0140DC0500200C4810B56B
:104530000A4901604FF4E1314160002181600C22A1
:10454000C160C0E904128161C161FFF717FB002857
:1045500003D0BDE81040FCF7E3BD10BD00100140E2
:10456000A007002038B5134C11480C2120604FF4EF
:10457000E13060600020A060E060C4E90401A06157
:10458000E0612046FFF7FAFA08B1FCF7C9FD2068A0
:10459000016841680091C16841F01001C160BDE847
:1045A000384004498022C4390248FFF71BBC000090
:1045B00000440040E407002010B5114C0F480C21C6
:1045C00020604FF4165060600020A060E060C4E9F5
:1045D0000401A061E0612046FFF7D0FA08B1FCF7C2
:1045E0009FFD2068C16841F02001C160BDE8104016
:1045F000012204490248FFF70ABC000000480040BD
:10460000280800206D000020FEE703460DE0027838
:104610002A2A03D0202A01D37A2A01D9FF20704701
:104620002C2A01D1491EC9B2401C0029EFD1C01A61
:10463000C0B2704738B50A4605460EA11046FBF7D2
:1046400076FE04460921FFF7E0FFFF2805D020444D
:10465000694600F0F1F9C5F8630007212046FFF72D
:10466000D4FFFF2805D02044694600F0E5F985F81D
:104670004F0038BD47474100F8B50A46064624A119
:104680001046FBF754FE05460221FFF7BEFFFF2848
:1046900005D02844694600F0CFF986F85C00002474
:1046A000E01CC1B22846FFF7B0FFFF280AD028441B
:1046B000694600F0C1F93119641CE4B281F8500078
:1046C0000C2CEDD30F212846FFF79FFFFF2805D0C4
:1046D0002844694600F0B0F9A6F85D00102128468C
:1046E000FFF793FFFF2805D02844694600F0A4F99E
:1046F000A6F85F0011212846FFF787FFFF2805D0A5
:104700002844694600F098F9A6F86100F8BD000059
:10471000475341002DE9F84F0C4682464FF0000800
:1047200035A12046FBF703FE0546C079032130384A
:10473000C7B22846FFF769FFFF2805D0284469461D
:1047400000F07AF98AF80000002651E02AA12046FC
:10475000FBF7EDFD044600254FF0040B0BEB850045
:10476000C1B22046FFF751FFFF283ED020446946E2
:1047700000F062F908EB880202EB0A0989F80100EF
:10478000052000EB8500C1B22046FFF73EFFFF2861
:104790002BD02044694600F04FF989F8020006202A
:1047A00000EB8500C1B22046FFF72FFFFF281CD089
:1047B0002044694600F040F9A9F80300072000EB07
:1047C0008500C1B22046FFF720FFFF280DD020440E
:1047D000694600F031F989F805006D1C08F1010007
:1047E000EDB200F0FF08042DB8D3761CF6B2641CBD
:1047F000BE42ABD3BDE8F88F244750475356000064
:104800002DE9F8430A46044683A11046FBF78FFDC5
:1048100005460121FFF7F9FE42F210764FF06408D9
:10482000FF281ED02844694600F006F907469DF887
:1048300000100A2000F0F8F8B7FBF0F1B1FBF6F039
:1048400084F841004046B1FBF0F2B2FBF0F308FB04
:10485000132284F84220B1FBF8F208FB121084F80E
:10486000430003212846FFF7D0FE9FED6C0AFF2886
:104870003ED02844694600F0DFF807469DF8000066
:10488000801CC1B20A2000F0CFF8B7FBF0F06064E2
:104890009DF80000801CC1B20A2000F0C5F8B7FBEB
:1048A000F0F100FB117000EE900A05210A20F8EEED
:1048B000600A00F0B9F8616C484301EE100A9DF8F7
:1048C0000000C0F10500C1B2F8EE411A0A2000F064
:1048D000ABF801EE100AB8EE411A61EE200A80EE44
:1048E000801A71EE810AFCEEE00A10EE900A606414
:1048F00004212846FFF789FEFF2802D0285C84F8AF
:10490000480005212846FFF780FEFF2840D02844B4
:10491000694600F091F807469DF80000801CC1B27E
:104920000A2000F081F8B7FBF0F044F8490F9DF839
:104930000000801CC1B20A2000F076F8B7FBF0F14D
:1049400000FB117000EE900A05210A20F8EE600AC3
:1049500000F06AF82168484301EE100A9DF8000053
:10496000C0F10500C1B2F8EE411A0A2000F05CF86F
:1049700001EE100AB8EE411A61EE200A80EE801AAC
:1049800031EE810ABCEEC00A10EE100A44F8490963
:1049900006212846FFF739FEFF2802D0285C84F85C
:1049A0004D0007212846FFF730FEFF2812D028448B
:1049B000694600F041F84FF47A714843FBF75DFD1A
:1049C0009FED171B53EC112BFBF7E5FCFBF762FD8A
:1049D000A4F8670009212846FFF717FEFF2818D022
:1049E0002844694600F028F8B0FBF6F184F840103E
:1049F0004146B0FBF1F2B2FBF1F308FB132284F85D
:104A00003F20B0FBF8F208FB120000F5FA60A4F8B2
:104A10003D00BDE8F8830000524D430000007042A5
:104A20006F1283C0CAA1FD3F0246012000E050433F
:104A3000491EC9B2FBD270472DE9F04F4FF0000A72
:104A40008B468046D14655465446564601782D2918
:104A500002D146F00206401C01782C2908D02A29F0
:104A600006D02E290AD030390A290AD300252C462F
:104A7000B00701D508F10108002718E046F001064B
:104A8000401CF10702D0641CE4B201E06D1CEDB2E1
:104A9000401CDBE7E81B401EC1B20A20FFF7C4FF41
:104AA00018F80710303900FB01AA7F1CFFB2AF4293
:104AB000F0D3052C00D905248BF8004000270EE028
:104AC000E01B401EC1B20A20FFF7AEFFEA1902EB5D
:104AD00008014978303900FB01997F1CFFB2A742D9
:104AE000EED321460A20FFF79FFF0AFB0090B10793
:104AF00000D54042BDE8F08FFEE7000090B04021B5
:104B00006846FBF709FC0E4D0E4C0F4E286832210B
:104B10004843000B2070A06B02F093FD400606D5C1
:104B2000307820B940220221684600F0A3F8012223
:104B300003490648FCF7CAFDC82002F056FDE5E728
:104B40005C000020080000208C010020E40400200C
:104B50002DE9F04F91B00C46834602F019FE00207B
:104B6000012C06D0022C53D0032C60D0042C5ED133
:104B700054E0314CCBF80000206AFBF7A4FC074658
:104B80008846E069FBF79FFCCDE90801A069FBF7C7
:104B90009AFCCDE906016069FBF795FCCDE90401BB
:104BA0002069FBF790FCCDE90201E068FBF78BFC84
:104BB000CDE90001A068FBF786FC81468A46606863
:104BC000FBF781FC05460E462068FBF77CFCCDE92F
:104BD0000E7841EC100BDDE90801CDE90C01DDE9AF
:104BE0000601CDE90A01DDE90401CDE90801DDE9AD
:104BF0000201CDE90601DDE90001CDE904018DE8FE
:104C0000600653EC102B0D49584601F0A5FE0EE04E
:104C1000CBF800000A480BA1027805E0CBF80000B1
:104C200005480FA124308278584601F095FE11B056
:104C3000BDE8F04F02F0DEBD6801002044A400088A
:104C4000080000207B274F696C5F446973706C61BA
:104C500063656D656E74273A272564277D00000023
:104C60007B2734475F7369676E616C273A27256439
:104C7000277D00002DE9F843064623A0234D006858
:104C8000009090460F460024A86B02F0DAFC000763
:104C900034D400BF02F06EFB58B1641CE4B21CA017
:104CA00001F04AFE592002F0A0FC052CF2D3BDE829
:104CB000F8830821A86B02F0E5FC1BA001F03CFE84
:104CC00039463046FFF744FFFF23012269461B485F
:104CD000FFF7E6F86C46FF2301221848611CFFF736
:104CE000DFF8FF230122A11C1448FFF7D9F8FF23A6
:104CF000424631461148FFF7D3F8D8E739463046E7
:104D0000FFF726FFF3E7000003004600080000203D
:104D1000445455BDF8C8EBCDB8B4ABD7B4CCACCA8D
:104D2000A7B0DC0D0A000000445455BDF8C8EBCD17
:104D3000B8B4ABD7B4CCAC0D0A000000E407002037
:104D40002DE9F0410E4604464168D4E90230181AB4
:104D5000081A904200D910460746481E0340CD1A53
:104D6000BD4200D93D4620682A4618443146FBF72B
:104D7000BAFA7A1B71192068FBF7B5FAA0683844B3
:104D8000A0603846BDE8F08170B5044610210020CF
:104D900002F014FC05001BD0002601222CB1611E7C
:104DA0000C420CD0B4F1004F14D821465FF0000043
:104DB00002FA00F4A14202D9401C2028F8DB214667
:104DC000002002F0FBFB286020B1EE60C5E901463F
:104DD000284670BD2946002002F0E4FB002070BD8B
:104DE0002DE9F04104460E46D4E90201401A9042F2
:104DF00000D9104607466068421E1140451ABD4260
:104E000000D93D4620682A4601443046FBF76BFA3C
:104E10007A1B70192168FBF766FAE0683844E06095
:104E20003846BDE8F08100008EB000240194A2460F
:104E300000940B94242102A80C94FBF76DFADFF880
:104E4000C481714EE94602AF0DF10A0B4546D8F810
:104E5000380002F0F6FB800721D5242102A8FBF7D9
:104E60005BFA4FF0FF33002202A9E86A02F0E0FC8F
:104E7000664902A8FBF774FA78B1644902A8C91D13
:104E8000FBF76EFA60B162A102A8FBF750FA584531
:104E90007CD102F07DFC002572E001203070ADE095
:104EA00086F800A0AAE000BFA5F1080002280DD2F4
:104EB0007819817A09F80410641CE4B2022C5FD3DB
:104EC0006846FBF75BFAA6F8080258E0A5F10B006C
:104ED00002280DD27819817A09F80410641CE4B212
:104EE000022C4DD36846FBF749FA86F80A0246E0E1
:104EF000A5F10E0002280DD27819817A09F8041064
:104F0000641CE4B2022C3BD36846FBF737FA86F800
:104F10000B0234E0A5F1110002280DD27819817A34
:104F200009F80410641CE4B2022C29D36846FBF78C
:104F300025FA86F80C0222E0A5F1140002280DD211
:104F40007819817A09F80410641CE4B2022C17D392
:104F50006846FBF713FA86F80D0210E0A5F117007A
:104F600002280DD27819817A09F80410641CE4B281
:104F7000022C05D36846FBF701FA86F80E020024DE
:104F80006D1CEDB21A2D8FD336E0FFE722A102A8E7
:104F9000FBF7CDF9584531D102F0FAFB08250BA8F3
:104FA000795D0155641CE4B2022C21D3FBF7E6F9CC
:104FB000C0B20E2801D9052014E0A0F10A0104298D
:104FC00001D804200EE0811F032901D8032009E045
:104FD000C11E022901D8022004E0012804D90228B8
:104FE00002D80120B07002E008B986F802A00024BF
:104FF0006D1CEDB20A2DD2D302F0FCFB322003F07F
:10500000CFFB23E7080000208C010020B89B00089C
:105010002B434C4B000000002B4353510000000079
:105020000A6842624A688262D1E902231A43D1E9DE
:1050300004310B43C16A1A4321F0F7011143C162E5
:1050400000207047006800F0030070470844406982
:10505000704700000148FDF7B5BF0000DC050020E7
:1050600070B50DF1100C11439CE8700023431943F7
:1050700029434268314347F6FF639A430A4342603B
:10508000002070BD0321016000207047D0F880002F
:1050900070470A688260D1E901231A43D1E90331DC
:1050A0000B43C1681A436FF30B011143C160002029
:1050B00070470968C0F880100020704710B585B0AF
:1050C00004463720CDE900104020029000200390D4
:1050D0004FF48060049069462046FFF7DAFF41F202
:1050E00088323721204600F09BF905B010BD000042
:1050F00010B504460A4885B001432920CDE90010C7
:1051000040200290002003904FF480600490694694
:105110002046FFF7BEFF204600F03AFA05B010BD6A
:105120000000108010B585B004461020CDE90010B5
:1051300040200290002003904FF480600490694664
:105140002046FFF7A6FF41F288321021204600F0EA
:1051500067F905B010BD10B585B004460620CDE94D
:10516000001040200290002003904FF480600490D3
:1051700069462046FFF78DFF41F28832062120461E
:1051800000F04EF905B010BD30B585B000240546DD
:10519000009401944FF480600294CDE90340694685
:1051A0002846FFF776FF0B484FF4FA510068B0FB32
:1051B000F1F041F288314843401E03D24FF00040E5
:1051C00005B030BD696B0906F6D5C520A863204639
:1051D000F6E700007C00002010B585B004464FF4CF
:1051E000D57000900820019040200290002003908C
:1051F0004FF48060049069462046FFF74AFF20463E
:1052000000F02CFA05B010BD10B585B00446122090
:10521000CDE9001040200290002003904FF4806000
:10522000049069462046FFF734FF41F2883212218C
:10523000204600F0F5F805B010BD10B585B0044665
:105240001120CDE9001040200290002003904FF47F
:105250008060049069462046FFF71BFF41F28832C8
:105260001121204600F0DCF805B010BD10B585B066
:1052700004460720CDE90020402002900020039042
:105280004FF48060049069462046FFF702FF41F228
:1052900088320721204600F0C3F805B010BD10B5D4
:1052A00085B0044600210220CDE90010C020CDE9E0
:1052B00002014FF48060049069462046FFF7E9FE42
:1052C000204600F03DF905B010BD10B585B004468C
:1052D0000920CDE90010C0200290002003904FF477
:1052E0008060049069462046FFF7D3FE204600F018
:1052F00027F905B010BD10B585B004460021332054
:10530000CDE900104020CDE902010001049069467A
:105310002046FFF7BEFE41F288323321204600F0DE
:105320007FF805B010BD10B585B004460D20CDE95D
:10533000001040200290002003904FF48060049001
:1053400069462046FFF7A5FE41F288320D2120462E
:1053500000F066F805B010BD30B585B00C460546C6
:1053600000210320CDE900104020CDE90201000119
:10537000049069462846FFF78CFE22460321284602
:1053800000F028F905B030BD10B585B00446002105
:105390000C20CDE900104020CDE90201000104906D
:1053A00069462046FFF775FE034A0C21204600F0AF
:1053B00037F805B010BD000000E1F50510B585B067
:1053C00004461920CDE900104020029000200390EF
:1053D0004FF48060049069462046FFF75AFE41F280
:1053E00088321921204600F01BF805B010BD10B519
:1053F00085B004461820CDE900104020029000201E
:1054000003904FF48060049069462046FFF741FE08
:1054100041F288321821204600F002F805B010BD94
:10542000454B10B51B684FF4FA54B3FBF4F35343E8
:105430005B1E02D24FF0004010BD426B12F0450FD0
:10544000F6D01205F4D4426B520703D504218163D0
:10545000084610BD426BD20702D00121816305E0EE
:10546000C52282630269D2B28A4201D0012010BDF6
:105470000021FFF7EBFD3149084201D1002010BDAA
:10548000002802DA4FF0007010BD410001D5402025
:1054900010BD810001D5802010BDC10002D54FF4A0
:1054A000807010BD010102D54FF4007010BD4101A4
:1054B00002D54FF4806010BDC10102D54FF40060E9
:1054C00010BD010202D54FF4805010BD410202D53B
:1054D0004FF4005010BD810202D54FF4804010BD42
:1054E000C10202D54FF4004010BD410302D54FF474
:1054F000003010BD810302D54FF4802010BDC103E0
:1055000002D54FF4002010BD010402D54FF48010E5
:1055100010BD410402D54FF4001010BD810402D526
:105520004FF4800010BD000702D54FF4000010BDFD
:105530004FF4803010BD00007C00002008E0FFFD2B
:1055400012494FF4FA520968B1FBF2F141F2883284
:105550005143491E02D24FF000407047426B12F097
:10556000450FF6D01205F4D4416B490703D5042149
:10557000816308467047416BC90703D001218163ED
:1055800008467047C5218163002070477C000020D9
:105590000F494FF4FA520968B1FBF2F141F2883237
:1055A0005143491E02D24FF000407047426B12F047
:1055B000450FF6D01205F4D4416B490703D50421F9
:1055C000816308467047C521816300207047000051
:1055D0007C00002030B5204B4FF4FA541B68B3FB1D
:1055E000F4F341F2883463435B1E02D24FF0004073
:1055F00030BD446B14F0450FF6D02405F4D4436B52
:105600005B0703D504218163084630BD436BDB078C
:1056100002D00121816303E00369DBB28B4201D038
:10562000012030BDC52181630021FFF70FFD10F47B
:10563000604F04D0410406D54FF4005030BD000C3B
:105640001080002030BD000402D54FF4805030BDE2
:105650004FF4803030BD00007C00002014494FF42E
:10566000FA520968B1FBF2F141F288325143491E06
:1056700002D24FF000407047426B12F0450FF6D057
:105680001205F4D4416B490703D504218163084610
:105690007047416BC90703D00121816308467047F9
:1056A000416B490601D5402181630020704700000D
:1056B0007C00002010B5064C01202070FBF7BAFAE0
:1056C00018B9207820F001002070207810BD00006B
:1056D0006000002070B5054602F040F8044603E083
:1056E000FBF7A8FA002806D002F038F8001BA84201
:1056F000F6D34FF0FF3070BD10B5846BFCF7C2FCE1
:10570000022828D0206C416DE06B406D012901D04A
:1057100001281DD12168104888632068C16B21F4DD
:105720009D71C163A06B40F08040A0632046FDF7EF
:1057300033FC062801D0052805D12068FFF724FE98
:10574000A16B0843A063012084F83400002020638B
:105750002046FDF741FB10BDFF05400010B5846BEE
:10576000206B822809D12068FFF70EFE28B1A16BBB
:105770000143A1632046FDF72FFB2068C16A21F099
:105780000801C162216840F23A508863012084F820
:105790003400002020632046FDF7A6FE10BD10B5A2
:1057A000846B40F23A50216888632046FDF7F4FB91
:1057B000012184F8341000212163062801D0052836
:1057C00005D12068FFF7E0FDA16B0843A063A06B43
:1057D0000028204602D0FDF7FFFA10BDFDF76CFA55
:1057E00010BD806B0068C16B41F48071C16370476C
:1057F00010B5846B40F23A50216888632046FDF76B
:10580000CBFB012184F8341000212163062801D04C
:10581000052805D12068FFF7B7FDA16B0843A063F9
:10582000A06B0028204602D0FDF7D6FA10BDFDF788
:1058300043FA10BD2DE9F04788B00D460446FCF749
:10584000A5FE00268246009601963746082120686C
:10585000FFF768FC002829D1B4F850000104206843
:10586000FFF72CFC002821D1401E4FF00808CDE99D
:10587000020830204FF00209CDE904090120CDE9EA
:10588000067002A92068FFF7CBFB2068FFF733FD05
:1058900000280BD16F462068416B11F02A0F08D009
:1058A000416B09071AD5C0F83880082008B0BDE858
:1058B000F087416B890205D5FFF7E8FB47F8260022
:1058C000761C02E0416B8904EAD5FCF75FFEA0EB91
:1058D0000A00401CDFD14FF00040E7E7416B890729
:1058E00003D5C0F838900220E0E7416B890603D564
:1058F000202181630846D9E740F23A51816301983B
:1059000000BA2860009800BA68600020CEE710B5A1
:1059100090B004460120ADF838002068FFF792FBF4
:10592000002854D0606C032842D02068FFF7B7FCF1
:1059300000284AD100212068FFF788FB6067042116
:105940002068FFF783FBA06708212068FFF77EFB34
:10595000E0670C212068FFF779FBC4F88000606CD9
:10596000032825D00EA92068FFF7F6FC00282CD1CB
:10597000606C03281CD0BDF8380020650104206845
:10598000FFF7A3FC002820D100212068FFF75EFB71
:10599000606604212068FFF759FBA0660821206893
:1059A000FFF754FBE0660C212068FFF74FFB2067F0
:1059B00004212068FFF74AFB000DE06403A920469C
:1059C000FDF70CFA30B14FF0805010B010BD4FF021
:1059D0008060FAE7B4F85000002302042068FFF763
:1059E00045FC0028F1D104F1100007C88DE807003C
:1059F00094E80F00FFF734FB0020E6E72DE9F84FAD
:105A00000026044600963546B0460068FFF7BCFB0A
:105A1000002827D12068FFF7DFFB4FF0805B4FF0B5
:105A200001094FF6FF7748B1A6642068FFF7ACFB89
:105A3000002817D1A06C012802D020E0C4F84890BB
:105A400000212068FFF73AFB58B918E000212068D0
:105A5000FFF734FB002805D151462068FFF748FBCB
:105A600010B15846BDE8F88F00212068FFF7EEFA24
:105A700005464FEAD0780098401C009002E0DFF81D
:105A80002CA00098B84202D2B8F1000FDED00098E6
:105A9000B84202D34FF08070E4E7680002D5C4F842
:105AA000449000E066640020DCE70000000010C1C4
:105AB00070B5104C05460120207001F03FFE022811
:105AC00016D1FBF7C3F818B92846FFF7F3FD20708D
:105AD000207801280CD0606850B9002202210A20E9
