:020000040800F2
:100000001886002061020008355600089D47000848
:1000100045510008190D0008357300080000000064
:10002000000000000000000000000000A101000826
:10003000BD10000800000000FD0100087D690008F7
:100040007B0200087B0200087B0200087B0200089C
:100050007B0200087B0200087B0200087B0200088C
:100060007B0200087B0200087B0200087B0200087C
:10007000CD0E00087B0200087B0200087B0200080E
:10008000D90E00087B020008FD0A0008290D0008AF
:100090001D0D00087B0200087B0200087B0200089F
:1000A0007B020008416A00087B0200087B0200080E
:1000B0004D6A00087B0200087B0200087B020008F2
:1000C0007B0200087B0200087B0200087B0200081C
:1000D0007B0200087B020008D170000891710008C3
:1000E0007B0200087B0200087B0200087B020008FC
:1000F0007B0200087B0200087B0200087B020008EC
:100100007B020008A55C00087B0200087B02000857
:100110007B0200087B0200087B0200087B020008CB
:10012000E50E00087B020008F10E0008FD0E000835
:100130007B0200087B0200087B0200087B020008AB
:100140007B0200087B0200087B0200087B0200089B
:100150007B020008090F0008150F00087B02000849
:100160007B0200087B0200087B0200087B0200087B
:100170007B0200087B0200087B02000800000000F0
:100180007B02000825110008DFF810D000F0BEFB4C
:10019000004800474D8C0008AFF30080188600200F
:1001A0002C4B19680868B0E8F04F80F30988BFF35A
:1001B0006F8F4FF0000080F311887047000000003F
:1001C00008480068006880F308884FF0000080F35A
:1001D000148862B661B6BFF34F8FBFF36F8F00DF35
:1001E00000BF00BF08ED00E0DFF80C00016841F43B
:1001F00070010160704700BF88ED00E0EFF30980F7
:10020000BFF36F8F134B1A681EF0100F08BF20ED5D
:10021000108A20E9F04F106009B44FF0200080F3FD
:100220001188BFF34F8FBFF36F8F0AF0BFF94FF004
:10023000000080F3118809BC19680868B0E8F04F25
:100240001EF0100F08BFB0EC108A80F30988BFF3CE
:100250006F8F7047A4000020EFF305807047000007
:100260000648804706480047FEE7FEE7FEE7FEE750
:10027000FEE7FEE7FEE7FEE7FEE7FEE7316A00087D
:10028000890100082DE9F05F0546002092469B4653
:1002900088460646814640241BE02846414647469C
:1002A000224600F048F953465A46C01A914110D3ED
:1002B00011461846224600F02FF92D1A67EB010867
:1002C0004F4622460120002100F026F917EB0009D5
:1002D0004E41201EA4F10104DFDC484631462A4687
:1002E0004346BDE8F09F40EA01039B0703D009E0C5
:1002F00008C9121F08C0042AFAD203E011F8013B12
:1003000000F8013B521EF9D27047D2B201E000F86A
:10031000012B491EFBD270470022F6E710B51346A9
:100320000A4604461946FFF7F0FF204610BD30B5D7
:1003300005462A460B4612F8010B13F8014B08B18B
:10034000A042F8D01CB1002802D06D1CF1E728466D
:1003500030BD421C10F8011B0029FBD1801A7047E8
:1003600010B5002200E0521C835C8C5CA34201D1DA
:10037000002BF8D1D8B2E1B2401A10BD70B50646D4
:1003800007F072FA046805460A220021304600F0A0
:10039000E2F82C6070BD2DE9FE4F81EA030404F001
:1003A000004421F0004100944FF0000B23F0004383
:1003B00050EA01045ED052EA03045BD0C3F30A544E
:1003C000C1F30A552C44A4F2F3340194A0FB025467
:1003D000C1F3130141F48011C3F3130343F48013F9
:1003E00001FB024400FB034E840A970A44EA81544D
:1003F00047EA8357A4FB076802958D0A05FB07852A
:100400004FEA932C04FB0C542705029D4FEA065833
:1004100047EA1637B5EB08056EEB070C870E920E10
:1004200047EA811742EA8312A7FB0201B6EB0B01F0
:1004300064EB00042B0D43EA0C335E1844EB1C50B4
:10044000DA465146E7FB0201C5F313044FEA0B33CA
:1004500043EA14534FEA0432019C43EA0603A4F131
:100460000C040294009CCDE900B400F0BBF803B08A
:10047000BDE8F08F00200146F9E70EB540F23341A8
:1004800002910021CDE900110A460B4600F0AAF8BE
:1004900003B000BDC1F30A5210B5C1F3130140F21D
:1004A000FF3341F480119A4201DA002010BD40F27E
:1004B00033439A42A2F2334203DC524200F03BF84B
:1004C00010BD904010BD00F0004230F000400AD056
:1004D000C10D01F56071C0F3160042EA0151C20876
:1004E00040071143704700200146704730B50B4666
:1004F000014600202022012409E021FA02F59D4254
:1005000005D303FA02F5491B04FA02F52844151E27
:10051000A2F10102F1DC30BD202A04DB203A00FA0E
:1005200002F1002070479140C2F1200320FA03F34A
:10053000194390407047202A04DB203A21FA02F048
:100540000021704721FA02F3D040C2F1200291400D
:100550000843194670472DE9F04791460F468046FB
:100560000446002614F8015B2DB100F0F3F9006891
:10057000405DC007F6D12B2D02D02D2D18D0641E62
:100580004A463946204600F0E9F927B13968A142C8
:1005900001D1C7F8008071054FF002040BD540422D
:1005A000002803DD07F060F90460A007BDE8F087CC
:1005B00046F48066E4E70028F8DA07F055F90460AD
:1005C0006FF00040F2E710B5141E73F1000408DA72
:1005D000401C41F1000192185B411A4301D120F007
:1005E000010010BD2DE9F04D92469B4611B1B1FAC4
:1005F00081F202E0B0FA80F220329046FFF78CFFE1
:1006000004460F4640EA0A0041EA0B0153465A46A7
:10061000084313D0114653EA010019D0C8F1400233
:100620005046FFF788FF05460E465046594642465B
:10063000FFF772FF084305D0012004E02046394649
:10064000BDE8F08D0020054346EAE0762C433743B1
:100650000A986305E40AA0EB08000022FD0A44EAB8
:1006600047540A3002D500200146E9E70105101978
:100670006941DDE9084500196941BDE8F04DA2E78F
:100680002DE9FE4F804681EA0300C00F0C46009022
:1006900021F0004123F00045B8EB0200A94105D24A
:1006A0004046214690461C460B46024623F0004039
:1006B000104347D0270DC7F30A00C3F30A51029035
:1006C000401A019040286BDAC3F3130040F4801BFA
:1006D0000098924620B10023D2EB030A63EB0B0B88
:1006E00001985946C0F140025046FFF715FF0646F3
:1006F0000D4650465946019A00F01AF910EB0800D1
:100700006141002487EA115284EAE7731A4340D01A
:10071000009A62B3019A012A4FEA075215DC001BC6
:1007200061EB02014FF0004202EA0752CDE90042BC
:10073000001C41F5801132462B46FFF753FF03B0F2
:10074000BDE8F08F40462146F9E7001B61EB02014E
:10075000001C41F5801300185B412018A2F500171A
:1007600047EB030140EAD570B6196D4111E06D0801
:100770004FEA360645EAC0754FEA0752001B61EBA7
:100780000201001C41F5801149084FEA30000019B0
:10079000514132462B4603B0BDE8F04FFFF713BF7F
:1007A0000098012240000023D0EB020263EBE073CB
:1007B000009821464FEAE074B8EB000061EB0401B9
:1007C000E9E783F000435BE781F0004158E72DE95A
:1007D000F04D81EA030404F0004B21F0004514467B
:1007E0004FF0000A23F0004150EA050220D054EAFD
:1007F00001021DD0C5F30A570246C5F31303C1F326
:100800001300C1F30A5640F4801543F48013A7EB9C
:100810000608101BD64608F2FD3873EB050002D31C
:1008200008F1010801E092185B41B8F1000F03DA0A
:1008300000200146BDE8F08D00204FF480110646EF
:1008400084460EE0171B73EB050705D3121B63EB01
:10085000050306434CEA010C49084FEA30009218A0
:100860005B4150EA0107EDD152EA030012D082EA5F
:10087000040083EA0501084305D0101BAB4106D2F2
:100880000122002306E000224FF0004302E06FF057
:10089000010253101AEB06004CEB085110EB0A0052
:1008A00041EB0B01BDE8F04DFFF78DBEC1F30A52DD
:1008B000C1F3130140F2FF3341F480119A4202DA8E
:1008C00000200146704740F233439A42A2F233427D
:1008D00002DC5242FFF72FBEFFF71EBE30B5041EEA
:1008E00071F1000404DB4FF00044404264EB01016D
:1008F000141E73F1000405DB1C464FF00043524206
:1009000063EB0403994208BF904230BD064C074D8B
:1009100006E0E06840F0010394E8070098471034CF
:10092000AC42F6D3FFF734FC38C7000858C70008BC
:10093000202A06DBCB17203A41FA02F043EAE073A3
:1009400006E041FA02F3D040C2F120029140084390
:100950001946704700487047C4BD00082DE9F05F94
:1009600082460078002715468B460AF10104B946F5
:10097000302801D09DB113E014F8010B012778282D
:1009800003D0582801D045B10AE00DB1102D07D190
:100990000027102514F8010B02E0082500E00A25C5
:1009A0000026B0460EE005FB080005FB06F1012716
:1009B00001EB10461FFA80F8B6F5803F00D3B94628
:1009C00014F8010B294600F018F80028EBDABBF107
:1009D000000F05D00FB1641E00E05446CBF8004074
:1009E000B9F1000F06D006F03FFF02210160C81EDA
:1009F000BDE8F09F48EA0640FAE73A2800D23038CE
:100A000020F02002412A01D3A2F13700884201D30D
:100A10004FF0FF30704770B58C1810F8015B15F07F
:100A2000070301D110F8013B2A1106D110F8012B60
:100A300003E010F8016B01F8016B5B1EF9D12B0785
:100A400005D40023521E0DD401F8013BFAE710F83B
:100A5000013BCB1A921C03E013F8015B01F8015B28
:100A6000521EF9D5A142D8D3002070BD10B5014661
:100A7000806B026C12F0500F05D0026CD20626D5A6
:100A800000F00FFD10BD016C41F4007101640168BC
:100A90008A6812F0405F17D1027EAAB9CA6A12F4BE
:100AA000700F02D08A6852050ED44A6822F02002E4
:100AB0004A60016C21F480710164016CC90403D4A3
:100AC000016C41F00101016400F0D2FC10BD806BAB
:100AD000C26CBDE810400846104710B5806B40213D
:100AE0000164416C41F00401416400F0DAFC10BD86
:100AF00010B5806B00F0D4FC10BD000010B50448A8
:100B000000F0D0FCBDE81040024800F0CBBC000073
:100B1000100B0020580B0020464910B54A6822F4FB
:100B200040324A604A6843681A434A6001684A682A
:100B300022F480724A6001684A68036942EA03222B
:100B40004A6001684A6822F040724A6001684A6857
:100B500083681A434A6001688A6822F400628A60E6
:100B600001688A68C3681A438A60816A6FF070629C
:100B7000D14201688A6822F070628A6001688A68DE
:100B80000CD0836A1A438A6001688A6822F0405256
:100B90008A6001688A68C36A1A4301E022F0405201
:100BA0008A6001688A6822F002028A6001688A68A5
:100BB000037E42EA43028A6090F82010002901680F
:100BC0004A680FD042F400624A6001684A6822F421
:100BD00060424A6001684A68174C436A04EB433339
:100BE0001A4301E022F400624A600168CA6A22F4F2
:100BF0007002CA620168CA6A838B104C04EB03530B
:100C00001A43CA6201688A6822F400728A60016825
:100C10008A6890F8303042EA43228A6001688A6824
:100C200022F480628A6001688A68406942EA802012
:100C3000886010BD0023014000E0FFFF0000F0FFCE
:100C4000704700000146014802F0DEBABC0C0020EB
:100C500010B5044802F0EAFA042801D0012010BDC2
:100C6000002010BDBC0C002010B500F015F80128C4
:100C700001D0012010BD074802F0F2FB040006D1AC
:100C80004FF40061034802F065F900B101242046E9
:100C900010BD0000BC0C002008B501208DF800003C
:100CA0009DF8000008BD0000134610B50A46014635
:100CB0000024034802F0D0FC00B10124204610BDFE
:100CC000BC0C002008B50120ADF80000034800234B
:100CD0001A466946406808F015FB08BD7C000020F4
:100CE000134610B50A4601460024034802F04EFDA3
:100CF00000B10124204610BDBC0C002008B5022024
:100D0000ADF80000034800231A466946406808F021
:100D1000F9FA08BD7C000020FEE70000014801F060
:100D200028B80000880C0020014801F022B800001B
:100D3000880C0020054D4FF0FF342146286D08F047
:100D400015FB012008F05DF9F7E700000C0000201A
:100D500010B588B00024CDE900040294CDE9034227
:100D60008DF8144006A803E00B5D0355641CE4B243
:100D70009442F9D3084800F0E6FF0028FAD02B4649
:100D800006AA6946044800F075FE002802D003A0B8
:100D900006F020FD08B010BD880C0020CAFDBEDDA5
:100DA000B7A2CBCDCAA7B0DCA3A10D0A00000000FA
:100DB00010B50C4CA078612806D0652809D06D28A4
:100DC0000FD106F01FFB06E006F0FEFA38B106A0D0
:100DD00003E006F035FB10B109A006F0FBFCFF2094
:100DE000A07010BD240100200D0A536574204163DA
:100DF0006343616C69204572726F720D0A000000D6
:100E00000D0A536574204D616743616C692045721A
:100E1000726F720D0A0000002DE9F04700270425CB
:100E2000DFF8A080DFF8A09050383E4601F1060AB6
:100E3000102845D2DFE800F01108130C1517191B14
:100E40001D1F21444444442334240325402702E049
:100E50003D2403252E27012613E0302411E03724FA
:100E60002BE03A2429E041240BE0452409E0492401
:100E700007E04D2405E0512403E0552401E0D8F8B3
:100E80002440032A19D04DB16A0009EB4400FFF752
:100E90002AFAD8F81820294620469047002E0FD06D
:100EA000720009EB47005146FFF71DFA31463846FC
:100EB000D8F81820BDE8F047104703250026E3E7DF
:100EC000BDE8F08724010020445B0020014801F0C8
:100ED000F3B900009C100020014801F0EDB90000BA
:100EE0003C100020014801F0E7B90000A00B0020F1
:100EF000014801F0E1B90000000C0020014801F0B8
:100F0000DBB90000400D0020014801F0D5B9000018
:100F1000A00D0020014801F0CFB90000DC0F002037
:100F200001681823CAB2103AB2FBF3F2054B6FF313
:100F30000901032A9B5CC36500D9091D8165084628
:100F40007047000060B8000810B5014600208B69AA
:100F50008A6A4FF0C07453B1B3F5005F15D072B117
:100F6000012A0CD0022A0AD0032A09D104E01AB1BE
:100F7000012A06D0022A03D1C96AC90100D501207D
:100F800010BDC96AA142FAD010BD002AF7D0012ACB
:100F9000F2D0022AF3D0032AF3D010BD30B5046892
:100FA000256825F480252560046863608368402BEC
:100FB000036803D099600068C26030BD9A60006821
:100FC000C16030BD224C00254FF480674FF47A7623
:100FD000002007F071FF384604F06EFDE0611DA0AF
:100FE00006F0F8FB08E0042007F02EF9F8B16D1CBC
:100FF000ADB2304608F005F80A2DF4D9204806F0C5
:10100000E9FB20A006F0E6FB244806F0E3FB3046AF
:1010100007F0F7FFA06D08F020F8000703D40421C3
:10102000A06D08F03BF8606B09F042F9D0E70821A9
:10103000A06D07F0F3FF124806F0CCFB18A006F0F5
:10104000C9FB164806F0C6FB0A2DD7D8E2E7000018
:101050000C0000205761697420666F722043617430
:10106000312044545520746F2073746172742C20A5
:1010700077616974203130732E2E2E2E200D0A00D8
:1010800018BE000841544B2D44545520496E6974D4
:10109000204661696C202E2E2E0D0A00C8BD000866
:1010A000436174312044545520496E69742053754E
:1010B0006363657373200D0A000000007047000031
:1010C00072B602A006F086FBFEE700004572726F62
:1010D000725F48616E646C65720D0A00002200F058
:1010E00001B8000030B50E4B054601205C7A002C9B
:1010F00014D1587A1C54587A03EB800045605D7A0D
:1011000003F108002A54587A421C5A723030087091
:101110003A2048702F208870CC70002030BD00002D
:10112000641100207047000070B50C46054604F0BD
:101130008FF82146284604F01BF82146284604F083
:1011400039F804482146027D2846BDE8704004F085
:10115000F5B80000680100200A4C0025A06D07F0DA
:101160007CFFC00509D5A088000406D5A5800649E6
:101170000648FFF7D9FF00F05BF8642007F041FF55
:10118000ECE700000C000020C0770020840800205D
:10119000FF25DFF86C80DFF86C901B4E00244FF4C5
:1011A0007A774FF4FA7A4FF4807B0121384606F0C3
:1011B00059F860B91CE001224146484606F076F82D
:1011C00006F01EF8641CE4B20546052C08D801217F
:1011D000384606F047F808B1002DECD1052C01D9AE
:1011E0000AA000E00DA006F0F5FA504607F009FF4E
:1011F0005946B06D07F052FFF06B09F059F8D4E78B
:10120000A086010040420F000C00002047505320F0
:10121000536574204661696C0D0A000047505320E5
:1012200053657420537563636573730D0A00000082
:10123000F0B5A7B00326802102A8FFF76DF80020C3
:101240000090019031484FF47A72B0F86710B1FB0A
:10125000F2F100EE101A2E49B8EE400AA1F1200575
:1012600081ED000AA978012938D0B0F83D1040F28C
:10127000E472914232D990F841207AB390F842302A
:1012800063B390F843404CB30127AF70A1F5FA6106
:101290008DF8001010F83F1F8DF801104078D21D16
:1012A0008DF804308DF802008DF805408DF803208C
:1012B00000246F4617A0395D06F08CFA641CE4B276
:1012C000062CF7D307F070FF062269460320FFF7CC
:1012D0003FFD07F09BFF142007F093FEA86D07F079
:1012E000BCFE800507D50D48007820B98022314624
:1012F00002A804F049FB07F057FF0422044902202A
:10130000FFF726FD07F082FF27B0F0BD840800201C
:101310002C00002025640D0A00000000E8050020D4
:101320007047000078B50024009490F83C20012A12
:1013300019D0012280F83C200A6807230568092A91
:1013400013D9EE680A3A02EB420293409E43EE60E4
:101350000B788A680A3B03EB43039A400368DD6815
:101360002A43DA6010E0022078BD2E6902EB4202C7
:1013700093409E432E610B788A6803EB43039A40A7
:1013800003681D692A431A614A681F23072A13D27A
:1013900005686E6B521E02EB820293409E436E63A1
:1013A0000B790A885B1E92B203EB83039A400368B1
:1013B0005D6B2A435A6327E005680D2A12D22E6B13
:1013C000D21F02EB820293409E432E630B790A8860
:1013D000DB1F92B203EB83039A4003681D6B2A4321
:1013E0001A6311E0EE6A0D3A02EB820293409E43CB
:1013F000EE620B790A880D3B92B203EB83039A40AD
:101400000368DD6A2A43DA62164B0568144A9D4276
:1014100006D10D68122D03D1556845F4800555603D
:1014200005689D4218D10B68102B01D0112B13D1E8
:10143000536843F400035360096810290CD10A492A
:101440000A4A0968B1FBF2F101EB8101490000E0B1
:10145000491E00910029FBD180F83C40002078BD56
:1014600000230140002001409800002040420F006E
:10147000074B026801219A4203D1064A117000F01D
:10148000B1BA0548824201D104480170704700009A
:10149000002001400C000020002101400D00002030
:1014A0007047704770B5044600680668456816F0D6
:1014B000020F05F020012AD049B3216CC90603D4DC
:1014C000216C41F400712164816811F0405F17D1F3
:1014D000217EA9B9C16A11F4700F02D08168490553
:1014E0000ED4416821F020014160206C20F480700E
:1014F0002064206CC00403D4206C40F00100206400
:101500002046FFF7B5FF21686FF01200086016F063
:10151000040F05F0800132D089B3206CC00603D4DB
:10152000206C40F4005020642068816811F4401F52
:101530001ED1816B11F4401F02D08168490517D478
:101540004168490514D4816811F0405F10D1217EB3
:1015500071B9416821F080014160206C20F4805015
:101560002064206CC00503D4206C40F0010020648E
:101570002046FFF7D5FE21686FF00C00086016F0DA
:10158000010F05F040010FD071B120680068C0075D
:101590000AD0206C40F480302064204600F043F8EC
:1015A00021686FF00100086016F0200F05F08061DF
:1015B0000ED000290CD0606C40F0020060642068FE
:1015C0006FF0200505602046FFF76BFF206805607F
:1015D00070BD70B504004FF0000503D0206C0026EC
:1015E00010B107E0012070BD204600F01DF86664D0
:1015F00084F83C60206CC00610D4206C20F4885025
:1016000040F0020020642046FFF786FA6664206CF2
:1016100020F0020040F00100206400E0012584F881
:101620003C60284670BD70472DE9F04786B00546FE
:1016300014216846FEF770FE4B484A4B14382A685E
:10164000002449490326DFF824A107154FF48058E8
:101650004FF480499A4241D10A6842F480720A608C
:10166000096801F480710591016841F0040101608D
:10167000016801F004010591016841F00201016077
:101680000068694600F0020005903720CDE90006A9
:101690000294374800F094FF0120CDE90006694626
:1016A0000294504600F08CFF334E3248E6E80204C4
:1016B000801510C6A6E8900366E807042E487462F9
:1016C00049E0AE63002202211220B56301F04AF91D
:1016D000122001F039F906B0BDE8F087274B9A4295
:1016E000F9D10A6842F400720A60096801F40071D5
:1016F0000591016841F001010160016801F00101FB
:101700000591016841F0020101600068694600F03E
:10171000020005904020CDE900060294184800F030
:101720004FFF0220CDE9000669460294504600F0C2
:1017300047FF114E0F486036303030604FF0007078
:10174000C6E9010406F10C02401282E89003C6E9E2
:1017500007403046746200F07FFE0028B1D0FFF7EA
:10176000AFFCAEE7002001404438024000040240D4
:101770000008024010640240A00B0020002101403C
:1017800000000240F8B5044600200E46009094F890
:101790003C10012907D0012184F83C1021688B6896
:1017A000DB0702D011E00220F8BD8B6843F0010393
:1017B0008B604049404B0968B1FBF3F101EB4101FB
:1017C00000E0491E00910029FBD121688B68DB05F0
:1017D00003D58B6823F480738B6021688B68DB07EB
:1017E0005DD0236C40F20165AB4343F48073236406
:1017F0004968490505D5216C21F4005141F4805117
:101800002164216CC90404D5616C21F00601616476
:1018100000E0606484F83C00A16B2948274DC86350
:10182000A16B28480864A16B2748C86421686FF041
:10183000220008602068416841F0806141602068B2
:10184000816841F4807181602168134632464C31D1
:10185000A06B00F06BFE68681C49C006206806D0CB
:10186000884224D1816811F0405F13D01FE0884284
:10187000F8D0174A904203D1D1F80423D206F1D010
:10188000144A904213D1D1F8041301F01F0110291A
:10189000E8D30CE0816841F08041816007E0206C72
:1018A00040F010002064606C40F001006064002093
:1018B000F8BD00009800002040420F0000230140C6
:1018C0006D0A0008F10A0008DB0A00080020014048
:1018D000002101400022014018B50021009190F83C
:1018E0003C20012A07D0012280F83C20026893683E
:1018F000DB0702D011E0022018BD936843F001031A
:101900009360314A314B1268B2FBF3F202EB4202B0
:1019100000E0521E0092002AFBD102689368DB07A8
:1019200047D0036C40F20164A34343F48073036423
:1019300053685B0505D5036C23F4005343F48053CF
:101940000364036CDB0404D5436C23F00603436497
:1019500000E0416480F83C101D4B6FF022011160E3
:1019600001684A681B4C22434A6059680068CA06ED
:10197000194906D0884224D1816811F0405F13D004
:101980001FE08842F8D0154A904203D1D1F80423D1
:10199000D206F1D0124A904213D1D1F8041301F0CB
:1019A0001F011029E8D30CE0816841F0804181607B
:1019B00007E0016C41F010010164416C41F001014C
:1019C0004164002018BD00009800002040420F0034
:1019D00000230140200000040020014000210140BC
:1019E0000022014010B50446002094F83C10012963
:1019F0000CD0012184F83C1021688A6822F0010291
:101A00008A6021688A68D20702D01DE0022010BDDA
:101A10008A6822F480728A60A16B91F83520022ACC
:101A200007D1084600F0EBFB18B1216C41F04001F2
:101A3000216421684A6822F080624A60216C21F4A6
:101A4000885141F001012164002184F83C1010BD4F
:101A500090F82020012A07D0022A05D0416A41F4DB
:101A60008021416201207047006842690A43426157
:101A700000207047F0B590F820500468A468012D4C
:101A800005D0022D03D0416A41F480215DE014F0BD
:101A9000406F01D1E50055D5C4F30164022C03D990
:101AA000416A41F4000150E00125A5401D608D68A8
:101AB0004FF4C0739DB1CE6835434E6845EAC60504
:101AC000066803EB0417F5514FF4C275076805EB80
:101AD00004150E697E51097D012905D009E00E88A3
:101AE000CD6845EA4655EBE701684E5946F48076E5
:101AF0004E511179D579567941EA056195792D04D0
:101B000045EA062529434FF4C676056806EB041618
:101B1000A9511178D57841EA0561957852782D045C
:101B200045EA022211434FF4C475026805EB04151F
:101B30005151006803EB0411425842F00102425037
:101B40000020F0BD416A41F4001141620120F0BD66
:101B500010B590F82020012A07D0022A05D0416A4A
:101B600041F480214162012010BD3B48D0F80022A1
:101B700042F00102C0F80022D0F8002222F47C5288
:101B8000C0F80022D0F800224B6A42EA0322C0F8D3
:101B900000220A7D02F01F0301229A40D0F81C3275
:101BA0009343C0F81C32CB69B3B9D0F80C329343DD
:101BB000C0F80C328C894B6864F31F434C6900EB0E
:101BC000C404C4F840320C890B6864F31F434C69A9
:101BD00000EBC404C4F84432CB69012B16D1D0F811
:101BE0000C321343C0F80C320C884B6864F31F436B
:101BF0004C6900EBC404C4F840320C89CB6864F330
:101C00001F434C6900EBC404C4F844328B69002BB9
:101C1000D0F804320ED01343C0F804320B69002B05
:101C2000D0F8143208D01343C0F81432096A0129DD
:101C300004D008E09343EFE79343F5E7D0F81C1294
:101C40001143C0F81C12D0F8001221F00101C0F8B5
:101C50000012002010BD000000640040704730B545
:101C600090F82040012C05D0022C03D0416A41F4A9
:101C700080215DE00468002955D02469A40754D070
:101C80004FF4D874056804EB01142D5915F00405C0
:101C9000956005682D594ED0ED08556005682C59A2
:101CA00004F00204D4604FF4DA74056804EB011404
:101CB0002D5905F00F05156105682D59C5F3072548
:101CC000956105682C59240C54614FF4DC7204684A
:101CD00002EB0112A4581C700468A458240A5C701A
:101CE0000468A458240C9C700468A258120EDA7080
:101CF0004FF4DE72046802EB0112A4581C710468F0
:101D0000A458240A5C710468A458240C9C710468CB
:101D1000A258120EDA71006881B1016941F0200108
:101D20000161002030BDE468A8E7416A41F4001178
:101D30004162012030BD6D0D1560AFE7C16841F013
:101D40002001C160EDE70246002092F82010012931
:101D500001D002290CD111688A68520100D50120F6
:101D60008A68120100D5401C8968C90000D5401C52
:101D700070472DE9F05F0546006800244669D0F8F9
:101D800004908768D0F80CB0D0F810A0D0F8188074
:101D9000F10748D0F90714D001218160B80703D5B5
:101DA000284600F026FA0CE0780702D54FF40064CC
:101DB00007E0380702D54FF4805402E0284600F0CF
:101DC00017FAF80516D529684FF480708860B805B1
:101DD00003D5284600F00FFA0CE0780502D544F44C
:101DE000005407E0380502D544F4804402E0284658
:101DF00000F000FAF80316D529684FF480308860A7
:101E0000B80303D5284600F0F8F90CE0780302D5B2
:101E100044F4004407E0380302D544F4803402E07F
:101E2000284600F0E9F9300707D55FEACB6004D512
:101E30002968102044F40074C86070074FF0080748
:101E400007D55FEA0B7004D52868C760284600F004
:101E500061F9B00706D52868C068800702D0284617
:101E600000F05AF9700607D55FEACA6004D5296800
:101E7000102044F480640861B00607D55FEA0A7058
:101E800004D528680761284600F082F9F00606D5D7
:101E900028680069800702D0284600F07AF9B0036C
:101EA00008D55FEAC96005D5296810204860284632
:101EB00000F070F9F00307D55FEA097004D52868CF
:101EC0004760284600F09AF9300446D55FEA497029
:101ED00040D5F00504D55FEAC87001D044F0010494
:101EE000B00504D55FEA887001D544F0020470059E
:101EF00004D55FEA487001D544F00404300529D5C3
:101F000018F0700F26D008F07000402815D006DCBD
:101F1000102809D020280AD0302816D10AE05028ED
:101F20000ED0602811D10EE044F008040DE044F01A
:101F300010040AE044F0200407E044F0400404E008
:101F400044F0800401E044F480742868816921F041
:101F500070018161296804204860002C05D0686AFE
:101F6000204368622846FFF779FEBDE8F09F70B510
:101F7000040003D094F8200010B104E0012070BDEB
:101F8000204600F081F82068016841F001010160FD
:101F900000F018FC0546052604E000F013FC401B89
:101FA0000A2811D820684068C007F6D02068016868
:101FB00021F00201016000F005FC05460BE000F095
:101FC00001FC401B0A2806D9606A40F400306062B8
:101FD00084F82060D2E7206840688007EFD4207E34
:101FE0000128206801683DD021F080010160607EF9
:101FF00001282068016838D021F040010160A07EEE
:1020000001282068016833D021F020010160E07EC2
:102010000128206801682ED041F010010160207F66
:1020200001282068016829D021F008010160607F43
:1020300001282068016824D021F004010160D4E95E
:1020400002010843D4E90412114308436168491EA0
:1020500008432168C86100206062012084F82000E4
:10206000002070BD41F08001C0E741F04001C5E7AC
:1020700041F02001CAE721F01001CFE741F008014B
:10208000D4E741F00401D9E710B586B00446142125
:102090006846FEF741F91C492068884231D11B4847
:1020A0000021026842F000720260006800F00070D7
:1020B000059016481038026842F00102026000687C
:1020C00000F0010005904FF4C05000900220CDE9CF
:1020D0000101032003900920049069460C4800F098
:1020E0006FFA00220221132000F03CFC132000F0C4
:1020F0002BFC00220221142000F034FC142000F0FC
:1021000023FC06B010BD00000064004040380240CF
:10211000000002407047000070B50068184A0021B6
:1021200090422BD1174C0020174A20606060A060BD
:102130002061E0606061A0615054491CC9B2082967
:10214000FAD3114B0F4A00211048FFF788FD0E4DBE
:102150002068673D50280CD1A06850B92069082834
:1021600007D10821084805F0E7F80121A86D06F01D
:1021700095FF286DBDE8704007F088B970BD00007C
:10218000006400405008002073000020880C0020EC
:10219000704770477047000070B5044690F8200003
:1021A000012804D0606A40F40020606218E0022038
:1021B00084F820002068016821F00101016000F02E
:1021C00001FB05460EE000BF00F0FCFA401B0A28A8
:1021D00008D9606A40F400306062052084F820006D
:1021E000012070BD20684068C007EDD1606270BDFD
:1021F00070477047704770477047704770472DE9C8
:10220000F0410446876D00F0DDFA064694F835008B
:102210000025022806D08020606584F83450012013
:10222000BDE8F0812068016821F016010160206896
:10223000416921F080014161206C08B9A06C20B196
:102240002068016821F0080101602068016821F020
:10225000010101600CE000F0B5FA801B052807D9E8
:1022600020206065032084F8350084F83450D7E7D7
:1022700020680068C007EED194F85C103F208840C9
:10228000B860012084F8350084F834500020C7E796
:1022900090F83510022903D0802141650120704754
:1022A000052180F835100068016821F00101016006
:1022B00000207047406D70472DE9F84304464FF009
:1022C0000009CDF8009063484FF41651A56D0068E1
:1022D000B0FBF1F72E6894F85C10082000FA01F1C9
:1022E00031420FD021680A6852070BD50A6822F0E4
:1022F00004020A6094F85C108840A860606D40F0A9
:102300000100606594F85C104FF0010808FA01F0D4
:10231000304208D021684969090604D5A860606D7B
:1023200040F00200606594F85C1004208840304260
:1023300008D021680968890704D5A860606D40F05D
:102340000400606594F85C1010208840304218D07A
:1023500021680968090714D5A86020680168490345
:1023600004D50068000308D5A16C07E00168C90521
:1023700003D4016821F008010160216C09B12046F5
:10238000884794F85C1020208840304231D0216882
:102390000968C9062DD5A86094F83500052820687D
:1023A000016806D0490347D5006800031DD4616C5D
:1023B0001CE021F0160101602068416921F08001D4
:1023C0004161206C08B9A06C20B12068016821F03F
:1023D0000801016094F85C103F208840A86084F8F0
:1023E000358084F83490216D1FE0E16B09B12046FF
:1023F0008847606D00282BD0606DC00714D0052081
:1024000084F835002068016821F00101016000981E
:10241000401C0090B84203D820680068C007F6D17D
:1024200084F8358084F83490E16C002910D001B034
:102430002046BDE8F04308470168C905D5D40168C6
:1024400021F01001016084F8358084F83490CCE7E5
:10245000BDE8F883980000202DE9F041044600F023
:10246000B1F906465CB1022084F83500002584F8F5
:1024700034502068016821F0010101600DE0012065
:10248000BDE8F08100F09EF9801B052805D92020C9
:102490006065032084F83500F2E720680068C00713
:1024A000F0D12268116820480140D4E901031843A3
:1024B000D4E903363343184363691843A3691843C7
:1024C000E3691843236A18430843616A042903D166
:1024D000D4E90B1319430843106020684069666A09
:1024E00020F0070130460E43012704280CD1A06AD2
:1024F0000643E06A40B12046FEF726FD20B14020A9
:10250000606584F83570BAE7206846612046FEF7BA
:1025100007FD94F85C203F2191408160656584F857
:1025200035700020ACE700003F8010F02DE9F0414D
:102530000446866D90F83400002501280DD0012056
:1025400084F8340094F835700020012F07D084F807
:10255000340002252846BDE8F0810220FBE702276F
:1025600084F8357060652046FEF718FD94F85C101D
:102570003F208840B0602068016841F0160101608A
:10258000206C20B12068016841F0080101602068DA
:10259000016841F001010160DCE7000070B504460C
:1025A00000F010F90546601C02D00448007804448D
:1025B00000F008F9401BA042FAD370BD8C00002047
:1025C0002DE9F84FDFF8BCA10022012503264FF0CA
:1025D0000F090AF1040BAAF1040E00BF0B6805FAFB
:1025E00002F42340A34270D10F7907F00307012FB3
:1025F00001D0022F16D187684FEA420806FA08FC7C
:1026000027EA0C07D1F80CC00CFA08FC4CEA070CBE
:10261000C0F808C04768A7430C79C4F3001494407D
:102620003C4344600C79E443A4070AD0C4684FEAF1
:10263000420C06FA0CF7BC438F6807FA0CF72743E5
:10264000C7600C7904F00304022C12D1D40800EB0B
:10265000840CDCF820405707FF0E09FA07F824EA3B
:102660000804D1F8108008FA07F848EA0408CCF802
:10267000208004684FEA420C06FA0CF7BC430F793D
:1026800007F0030707FA0CF7274307604C6814F4B8
:10269000403F70D03C4C276847F48047276024684F
:1026A00022F0030704F480440094384C07EB040C38
:1026B000DCF8084897074FEA177809FA08F7BC438F
:1026C000334FB84202D1002724E054E0314FB842E2
:1026D00001D101271EE0304FB84201D1022719E095
:1026E0002E4FB84201D1032714E02D4FB84201D13B
:1026F00004270FE02B4FB84201D105270AE02A4FEB
:10270000B84201D1062705E0284FB84201D107277A
:1027100000E0082707FA08F72743CCF80878DAF82A
:1027200000405746D1F804C09C435FEACC2C00D54A
:102730001C433C60DBF800405F46D1F804C09C437A
:102740005FEA8C2C00D51C433C60DEF800407746E5
:10275000D1F804C09C435FEA8C3C00D51C433C602C
:10276000084F083F3C68D1F804C09C435FEACC3C6A
:1027700000D51C433C60521C102AFFF42FAFBDE86B
:10278000F88F0000083C014044380240003001400E
:10279000000002400004024000080240000C024019
:1027A000001002400014024000180240001C0240C9
:1027B0000069084000D0012070470AB1816170476C
:1027C0000904FBE701488068704700008C00002086
:1027D00070B5040011D021684CF6CC400860216827
:1027E00045F255500860D4E9000141602168A068B5
:1027F0008860FFF7E7FF05460DE0012070BD00BFD0
:10280000FFF7E0FF401B312805D92068C06880072A
:1028100001D0032070BD2068C0688007F0D1216816
:102820004AF6AA200860002070BD000002488168B6
:1028300002781144816070478C0000200B4810B56D
:10284000016841F400710160016841F48061016038
:10285000016841F480710160032000F0A3F80F20AB
:1028600000F006F800F04AF8002010BD003C0240DD
:1028700030B505461C4887B00024016841F00101CD
:102880000160006806A900F00100009001A800F0B6
:1028900035F900F063F915494000B0FBF1F1154836
:1028A000134A491E026040F2E732C0E90324C0E93E
:1028B0000114846101F044F8040012D10D4801F0C4
:1028C000B5F804000DD1192000F03EF8102D07D204
:1028D00000222946192000F045F80748056000E06D
:1028E000012407B0204630BD4438024040420F006A
:1028F00000000140FC10002090000020114808B5A5
:10290000016841F480410160006800F4804000905B
:102910000C48001F016841F08051016000680022EE
:1029200000F0805000900F21901E00F01BF8002254
:102930000221512000F016F8BDE80840512000F0B7
:1029400003B8000044380240002809DB00F01F02F1
:10295000012191404009800000F1E020C0F8001101
:1029600070470000F0B40E4B1B680C46C3F3022303
:10297000C3F10705042D00D90425191D072901D22B
:10298000002300E0DB1E012606FA05F1491E214066
:1029900099409E40761E16403143F0BC04F054BF6F
:1029A0000CED00E0064900F0070208684FF6FF034F
:1029B000184040EA0220034A1043086070470000B4
:1029C0000CED00E00000FA052DE9F0470E46050089
:1029D00065D0DFF81481D8F80000F7B200F00700E6
:1029E000B04207D288F80070D8F8000000F0070065
:1029F000B04254D128683D4C810712D5400703D519
:102A0000206840F4E05020602878000703D5206853
:102A100040F4604020602068A96820F0F00008437E
:102A200020602878C0072DD030496868083901280F
:102A300012D0022813D0032811D009688907002971
:102A40002DDA216821F0030101432160FFF7BAFE6E
:102A5000814641F2883A0EE009688903EFE7096888
:102A60008901ECE7FFF7AEFEA0EB0901514502D961
:102A70000320BDE8F0872068696800F00C00B0EB27
:102A8000810FEFD1D8F80010404601F00701B142A4
:102A900007D90770006800F00700B04201D001209C
:102AA000E7E72878400705D52068E96820F4E0507A
:102AB000084320602878000706D52068296920F49B
:102AC000604040EAC100206000F058F82168084AE0
:102AD000C1F30311515CC84006490860064800680C
:102AE000FFF7C6FE0020C4E7003C02400838024061
:102AF00068B8000898000020900000200F220260B3
:102B00000C4A136803F003034360136803F0F003F7
:102B10008360136803F4E053C36012684FF4E0531A
:102B200003EAD20202610448006800F0070008606E
:102B30007047000008380240003C02400448054944
:102B400000680968044AC1F38221515CC84070479B
:102B5000980000200838024078B800080448054969
:102B600000680968044AC1F34231515CC8407047AB
:102B7000980000200838024078B80008154810B5C1
:102B8000006810F00C02144813D01449042A0FD026
:102B9000082A0ED10F4C241F2268236802F03F023E
:102BA0005B0207D52068C0F38810A0FB010106E096
:102BB000084610BD2168C1F38811A1FB0001002364
:102BC000FDF760FB2168C1F30141491C4900B0FBDE
:102BD000F1F010BD083802400024F40040787D0177
:102BE0002DE9F84F04006ED02078DFF84C93C00731
:102BF000A9F104054AD009F104000168C1F381017B
:102C0000012908D00068C0F3810002280AD1D9F850
:102C10000000400206D52868800337D56068002888
:102C2000E1D033E06068B0F5803F10D0B0F5A02F60
:102C3000286810D020F480302860286820F4802094
:102C400028606068A8B1FFF7BDFD06460DE0286862
:102C500040F48030F4E740F480202860F7E700BFBC
:102C6000FFF7B0FD801B642873D828688003F7D570
:102C70000CE0FFF7A7FD064605E000BFFFF7A2FD49
:102C8000801B6428F0D828688003F7D42078DFF808
:102C9000AC8280074FF0000A3ED5A748001D0168AE
:102CA00011F00C0F08D00068C0F3810002280BD18E
:102CB000D9F80000400207D42868800716D5E068DC
:102CC000012800D112E033E1E068B8B10120C8F872
:102CD0000000FFF777FD064605E000BFFFF772FD35
:102CE000801B0228C0D828688007F7D5286821698A
:102CF00020F0F80040EAC10028600DE0C8F800A00C
:102D0000FFF760FD064604E0FFF75CFD801B02282C
:102D10001FD828688007F7D42078000722D5864F6F
:102D200087486169703771B101210160FFF74AFD81
:102D3000064604E0FFF746FD801B022809D83868E4
:102D40008007F7D50EE0C0F800A0FFF73BFD064670
:102D500005E082E0FFF736FD801B02287DD8386849
:102D60008007F7D42078400768D5DFF8CCB100277A
:102D70000BF13C0BDBF80000C0000BD4DBF80010BB
:102D800041F08051CBF80010DBF80000012700F083
:102D9000805000906B4E3068C00510D4306840F40D
:102DA00080703060FFF70EFD009005E0FFF70AFD30
:102DB0000099401A022850D83068C005F6D55E4EFA
:102DC000A0686C3601280FD00528306810D020F09C
:102DD00001003060306820F004003060A068B8B1B5
:102DE000FFF7F0FC00900FE0306840F00100F4E7DE
:102DF00040F004003060F7E7FFF7E4FC0099411A67
:102E000041F28830814266D830688007F4D50EE000
:102E1000FFF7D8FC009007E0FFF7D4FC0099411AB7
:102E200041F28830814256D830688007F4D42FB1FF
:102E3000DBF8001021F08051CBF80010A069C8B376
:102E40003D49091D0968C1F3810102294AD00228C0
:102E5000504607D0C8F8600000E03CE0FFF7B2FC45
:102E600004463BE04746C8F86000FFF7ABFC064667
:102E700005E000BFFFF7A6FC801B02282BD82868BE
:102E80008001F7D4D4E907010843A16A2E4A490812
:102E900002EB0141626A41EA8211084394F82C1066
:102EA00040EA0161C9F8001001203866FFF78AFC8A
:102EB000044606E03EE000BFFFF784FC001B02284A
:102EC00009D828688001F7D534E000BFFFF77AFC05
:102ED000001B022802D90320BDE8F88F2868800172
:102EE000F4D427E00128F7D0D9F80000E26900F413
:102EF000800191421CD1226A00F03F01914217D11A
:102F000047F6C071626A0140B1EB821F10D1A26A1C
:102F10004FF0FF3300F4403103EB5202B1EB024FAC
:102F200006D194F82C1000F07060B0EB016F01D066
:102F30000120D1E70020CFE70438024000004742DB
:102F4000800E4742007000400000FFFF10B5FDF703
:102F500077FE10BD2DE9FE430446002603200D46F2
:102F600084F83400606C03285ED0B5F5805F5BD0D8
:102F70004FF4006700204FF08068BD421FD18146AA
:102F8000009001900021206802F088FE800113D497
:102F90006946204603F076FA07000DD101984003F8
:102FA00034D5B4F850000104206802F0AFFE0700E9
:102FB00002D10221206823E0A06B384328E01DB134
:102FC000A06B40F0006023E081460090019000215A
:102FD000206802F063FE8001EED46946204603F0CB
:102FE00051FA0700E8D10198C0030FD5B4F850009A
:102FF0000104206802F08AFE0700DDD1002120686C
:1030000002F0D1FE0700D7D14F46D5E74746D3E7B8
:10301000A063A06B144F4FF0010848B1206887638C
:1030200084F8348001260EE0A06B40F08050EFE77A
:10303000211DD4E9050C0EC9CDE90050CDF808C01A
:10304000206802F035FE4FF40071206802F092FE15
:1030500028B121688F63A16B0143A163012684F825
:1030600034803046BDE8FE83FF0540007047000015
:10307000F0B5426E920F0A70426EC2F383624A70DC
:10308000426EC2F301628A70426E120CCA70B0F8CE
:103090006420120A0A7190F864204A71826E120D3F
:1030A000CA80826EC2F303420A72B0F86820C2F38B
:1030B000C0324A72B0F86820C2F380328A72B0F827
:1030C0006820C2F34032CA72B0F86820C2F30032FE
:1030D0000A7300264E73426C4FF40075012462B1EE
:1030E000012A3AD0026847499163816B41F08051CF
:1030F000816380F834400120F0BDB0F86820C36ED1
:103100009205120D42EA93720A61C26EC2F3C26264
:103110000A75C26EC2F302624A75C26EC2F34252AF
:103120008A75C26EC2F38242CA75C26EC2F3C232DF
:103130000A760A69521C42650B7E03F007039B1C4A
:103140009A4042650B7A03F00F0704FA07F3836590
:103150005B0A5A43C0E917250EE090F86820C36E59
:103160009206920A42EA13420A610A69521C9202CA
:103170004265C0E91652056630F86C2FC2F3803202
:1031800001F8192F0288C2F3C6124A70027802F0C1
:103190007F028A704268D20FCA704268C2F34172DD
:1031A0000A714268C2F382624A714268C2F3835272
:1031B0008A714268C2F34052CA710E724268C2F309
:1031C00000424A728288C2F3C0328A728288C2F395
:1031D0008032CA728288C2F340320A738288C2F394
:1031E00000324A738288C2F381228A738288C2F3D2
:1031F0000122CA730079C0F3460008744C740020A1
:10320000F0BD0000FF054000426C0A60826C4A601D
:10321000C26C8A60026DCA60426D0A61826D4A6149
:10322000C26D8A61006EC8610020704770B50446A7
:10323000B0F8500000250104206802F09CFE18B18F
:10324000A16B0143A16304E00021206802F026FD88
:103250000546C5F3432070BDF8B5056B044600680C
:10326000416B09041BD5290719D5D4E90A56002E4C
:1032700014D00027206802F031FD05F8010B010A87
:1032800005F8011B010C05F8021B000E361F7F1C00
:1032900005F8010C082FEDD3C4E90A56F8BD416BBF
:1032A0004FF00006C9054FF0010744D5390281638C
:1032B0002068C16B4CF23A329143C1632068C16A05
:1032C00021F00101C16228071DD515F0220F09D098
:1032D000206802F081FE28B1A16B0143A163204662
:1032E000FFF7C4FE216840F23A50886384F83470D6
:1032F0002663A80703D0204600F040FAF8BD204618
:1033000000F040FAF8BD2806FCD5A80609D52068CB
:1033100002F062FE28B1A16B0143A1632046FFF7D2
:10332000A5FEA807EED12068C16A21F00801C1629C
:1033300084F83470E3E7416B490424D5290722D58A
:10334000D4E90856002EDDD05FF0000715F8010B18
:10335000009015F8011B361F40EA0120009015F877
:10336000021B40EA0140009015F8011C40EA016090
:1033700000906946206802F0C4FC7F1C082FE5D34A
:10338000C4E90856F8BD416B40F23A221142F9D027
:10339000416B890703D5A16B41F00201A163416B29
:1033A000090703D5A16B41F00801A163416B8906B0
:1033B00003D5A16B41F02001A163416BC90603D580
:1033C000A16B41F01001A163416B890503D5A16B8D
:1033D00041F00801A16340F23A7181632068C16B3A
:1033E00040F23A329143C163206802F0F5FDA16BCF
:1033F0000843A063280706D584F834702663204666
:10340000FFF734FEF8BD2806FCD515F0300F0CD0C0
:10341000E16B11480865E06BFEF73AFF0028F1D038
:10342000E06BBDE8F84003F00BB8A8070CD0216CA6
:103430000A480865206CFEF72BFF0028E2D0206CBC
:10344000BDE8F84002F0D3BFA66384F83470266369
:103450002046FFF77BFDF8BD41640008EF630008DC
:1034600070B504000ED094F83400002518B9257703
:10347000204600F04FF8032084F83400204600F086
:103480000BF808B1012070BDA5632563012084F805
:103490003400002070BD0000FEB5002504467620F3
:1034A0000095CDE9015029460B460A46206802F0F6
:1034B000FFFB48BB154E46F8A05F206802F00AFCEF
:1034C000012535600220FFF769F8204603F0BEF8B9
:1034D00030B100BF84F83450A16B0143A16313E005
:1034E000204603F03CF80028F4D14FF40071206826
:1034F00002F040FC002808D0226805499163A16BC6
:103500000143A16384F834500120FEBD00802542B0
:10351000FF0540002DE9F04F87B0054614216846AD
:10352000FCF7FAFE4649286888427DD14548006884
:10353000444940F400600860086800F400600590A9
:103540004048143800683F4940F0040014390860CE
:10355000086800F004000590086840F00800086062
:103560000868022400F0080005904FF4F850CDE9F7
:10357000000402AA002003264FF00C0882E8410153
:1035800069463148FFF71CF802AA002082E8410191
:103590000427CDE9007469462C48FFF711F82D4C3B
:1035A0002B484FF00068C4E9000800204FF4806900
:1035B000A060C4E90309B8024FF4804BC4E9050BCD
:1035C000C4E909764FF0200A0020C4E907A07E056F
:1035D000B7102046C4E90B67FEF73EFF08B1FDF7C0
:1035E0006FFD2C64A5631B4C194860344830C4E956
:1035F00000084020A0600020C4E90309C4E907A036
:103600000420606204F12802032082E8C1004FF424
:103610008051C4E9051B2046FEF71EFF08B1FDF7E7
:103620004FFDEC63002200E007E005213120A56397
:10363000FFF798F93120FFF787F907B0BDE8F08F61
:10364000002C01404438024000080240000C0240B7
:1036500058640240400D00202DE9F04786B01F4617
:103660000446154639B194F83400012807D00220E9
:1036700006B0BDE8F087A06B40F0006008E00020D5
:10368000A063E36DEA199A4204D9A06B40F0007080
:10369000A06369E0032284F8342022688146D06266
:1036A0002268D36B40F22A363343D363236C2F4A0C
:1036B000DA63236C2E4ADA64226C1065226C906007
:1036C000206C0068026822F0C002026020680A468E
:1036D000266C4FEA472800F180014FEA98033046F4
:1036E000FEF724FFDFF88CA0012670B12068C16BC3
:1036F00021F49571C1632168C1F838A0A06B40F036
:103700008040A06384F834602EE01B480660606C43
:10371000012800D06D024FF0FF30CDE90008902065
:10372000029002200596CDE903096946206802F05F
:103730009FFA012F06D9822020632946206802F0D3
:103740008BFB05E0812020632946206802F09DFB69
:1037500000288DD02268C2F838A0A16B0143A16374
:1037600084F83460C4F83090012081E7AD6300082C
:1037700049630008FF0540008C85254210B5FDF720
:10378000A1FA10BD10B5FDF7B9FA10BD2DE9F04F43
:103790005FEA010B87B01E460446114607D094F835
:1037A0003400012807D0022007B0BDE8F08FA06BDD
:1037B00040F0006008E00025A563E26D88199042A2
:1037C00004D9A06B40F00070A06356E0032084F899
:1037D00034002068C5622068C26B40F21A2942EAB0
:1037E0000902C263E26B2D48D063E26B2C48D064BF
:1037F000E06B0565606C012800D049024FF090082D
:10380000012E05D9A0202063206802F0FFFB04E010
:10381000C4F83080206802F012FCDFF888A001278D
:1038200030B12268C2F838A0A16B0143A16321E046
:103830001D480760E16B40208860E06B006801680C
:1038400021F0C00141F04001016022687602B30816
:1038500059468032E06BFEF769FE80B12068C16B8B
:1038600021EA0901C1632168C1F838A0A06B40F0CA
:103870008040A06384F834702563012094E74FF002
:10388000FF30CDE90006CDE90285CDE90457694650
:10389000206802F0EDF9002086E70000336400089C
:1038A00049630008FF0540008C852542704770473A
:1038B00070B590F83C20012A32D0012480F83C40B9
:1038C000022280F83D2003685A689D6822F0700645
:1038D0000A6832435A60134B02689A4214D0B2F11C
:1038E000804F11D0104B9A420ED0104B9A420BD001
:1038F0000F4B9A4208D00F4B9A4205D00E4B9A427A
:1039000002D00E4B9A4204D1496825F08003194336
:10391000916080F83D40002180F83C10084670BD61
:10392000022070BD0000014000040040000800407B
:10393000000C00400004014000400140001800401D
:1039400010B5040003D094F83D0010B107E0012049
:1039500010BD002084F83C00204600F01FF8022033
:1039600084F83D00211D206803F076F8012084F8DA
:10397000460084F83E0084F83F0084F8400084F854
:10398000410084F8420084F8430084F8440084F83D
:10399000450084F83D00002010BD000010B586B041
:1039A000044614216846FCF7B7FC226800211C4835
:1039B000B2F1804F0CD01B498A4207D1016841F413
:1039C00080710160006800F48070059006B010BD41
:1039D000026842F001020260006800F001000590F8
:1039E0000F481038026842F001020260006800F0DF
:1039F00001000590222000900220CDE90101012064
:103A0000CDE9031069460848FEF7DAFD00220221DD
:103A10001C20FEF7A7FF1C20FEF796FFD6E700004C
:103A200040380240002000400000024090F83D1065
:103A3000012901D001207047022180F83D10016862
:103A4000CA6842F00102CA6000681149884214D075
:103A5000B0F1804F11D00F4988420ED00E498842F4
:103A60000BD00E49884208D00D49884205D00D4937
:103A7000884202D00C49884204D1816801F00701D4
:103A8000062903D0016841F0010101600020704760
:103A9000000001400004004000080040000C00400D
:103AA00000040140004001400018004070B5044689
:103AB00090F83C000025012817D0012684F83C60CE
:103AC000022084F83D002068826822F0770222F408
:103AD0007F4282600868502838D00DDC20284FD003
:103AE00005DC90B3102811D14AE0022070BD3028C7
:103AF00046D040280AD13BE060282FD070280DD056
:103B0000B0F5805F03D0B0F5005F12D0012584F8D6
:103B10003D60002084F83C00284670BDCB68D1E9A8
:103B20000121206803F009F82068816841F07701DD
:103B300009E0CB68D1E90121206802F0FEFF20688E
:103B4000816841F480418160E1E719E0CA68496811
:103B5000206803F004F85021206806E0CA6849682C
:103B6000206803F04DF86021206802F0F0FFCEE7F6
:103B7000CA684968206802F0F2FF40212068F4E733
:103B8000226801461046F0E72DE9F041074600683B
:103B9000B0F1804F40D1214D6878214C012802D1ED
:103BA000E068401CE0601D4818304078012802D1D0
:103BB0002069401C2061194830304078012802D12A
:103BC0006069401C6061154848304078012802D186
:103BD000A069401CA06102211248FEF7E9FD0128FE
:103BE0001AD1A8780126A8B10021384600F060F962
:103BF000E06868603868406A6969401AA860002017
:103C0000E66068702E70A870E06DBDE8F04101219B
:103C100005F044BA6E702E74BDE8F081F007002004
:103C20000C000020000002402DE9F041054690F80C
:103C30003C0000260C46012810D0012085F83C00ED
:103C400072B1042A1CD0082A2CD00C2A50D001268C
:103C5000002085F83C003046BDE8F0810220FBE7FB
:103C6000D4E90012E368286802F08AFF28688169B5
:103C700021F00C01816128688169A26811430FE07D
:103C8000D4E90012E368286802F0CCFF2868816953
:103C900021F44061816128688169A26841EA0221BA
:103CA0008161D5E72868D4E9002C277B016A21F4DB
:103CB00080710162C169036A21F0030141EA0C01CC
:103CC00021F0F00C39074FF420674CEA116123F41E
:103CD000206307EA02221A43C16102622868C169AF
:103CE00021F00C01C1612868C169A268114328E074
:103CF0002868D4E90027E168036A23F4805303624B
:103D0000D0F81CC0036A2CF4407C4CEA07274FF61D
:103D1000FF7C27F470470CEA013139434FF4204708
:103D200023F4204307EA02321A43C1610262286881
:103D3000C16921F44061C1612868C169A26841EA92
:103D40000221C16184E710B5040003D094F83D005E
:103D500010B107E0012010BD002084F83C0020468F
:103D600000F01EF8022084F83D00211D206802F0BA
:103D700073FE012084F8460084F83E0084F83F007A
:103D800084F8400084F8410084F8420084F843003D
:103D900084F8440084F8450084F83D00002010BDFC
:103DA0007047000030B50446002551B104290DD0FC
:103DB000082910D094F8410094F84520012811D129
:103DC0000EE094F83E0094F84220F7E794F83F00A4
:103DD00094F84320F2E794F8400094F84420EDE78B
:103DE000012A01D0012030BD022059B1042912D08E
:103DF000082919D084F8410084F845000C2944D0E2
:103E0000012540E084F83E0084F842002068C26842
:103E100042F0020210E084F83F0084F8430020687A
:103E2000C26842F0040207E084F8400084F84400CD
:103E30002068C26842F00802C2600122206802F0D5
:103E40006FFE14492068884214D0B0F1804F11D021
:103E5000114988420ED0114988420BD0104988423E
:103E600008D01049884205D00F49884202D00F4936
:103E7000884204D1816801F00701062903D0016856
:103E800041F001010160284630BD2068C26842F05F
:103E90001002D1E70000014000040040000800408B
:103EA000000C0040000401400040014000180040A8
:103EB00070B50D0004464FF0000607D0042D0AD05F
:103EC000082D0DD00C2D10D001262FE02068C168E0
:103ED00021F002010DE02068C16821F0040108E032
:103EE0002068C16821F0080103E02068C16821F062
:103EF0001001C16000222946206802F011FE2068EE
:103F0000016A41F21112114207D1016A9210114265
:103F100003D1016821F001010160012045B1042DA8
:103F200009D0082D0AD004F8410F2071304670BD29
:103F300004F83E0FF9E704F83F0FF6E704F8400FE6
:103F4000F3E770B50446006801694FF00005C94306
:103F5000890715D4C168C943890711D4E91E0161D5
:103F600001202077206880698007204602D0FFF773
:103F70000BFE04E000F098F8204600F096F8257754
:103F800020680169C943490717D4C168C943490773
:103F900013D46FF00401016102202077206880694A
:103FA00010F4407F204602D0FFF7EEFD04E000F061
:103FB0007BF8204600F079F8257720680169C9432D
:103FC000090716D4C168C943090712D46FF0080164
:103FD0000161042020772068C0698007204602D054
:103FE000FFF7D2FD04E000F05FF8204600F05DF836
:103FF000257720680169C943C90617D4C168C94338
:10400000C90613D46FF010010161082020772068E1
:10401000C06910F4407F204602D0FFF7B5FD04E0F0
:1040200000F042F8204600F040F82577206801694A
:10403000C943C90708D1C168C943C90704D1891E4A
:104040000161204600F032F820680169C943090681
:1040500009D4C168C943090605D46FF08001016124
:104060002046FFF723FC20680169C943490609D4AB
:10407000C168C943490605D46FF04001016120467B
:1040800000F01EF820680169C94389060BD4C16895
:10409000C943890607D46FF0200101612046BDE8BD
:1040A0007040FFF704BC70BD70477047006803495B
:1040B000884201D1FEF7BABB704700000000014002
:1040C0007047704770B5044620680C3050E8001FF8
:1040D00021F4907140E80012002AF5D120681430D4
:1040E00050E8001F21F0010140E80012002AF5D13C
:1040F000206B012809D120680C3050E8001F21F006
:10410000100140E80012002AF5D1206840694FF004
:104110000005400615D52068143050E8001F21F036
:10412000400140E80012002AF5D1A06B48B10565B6
:10413000A06BFEF764F820B1A06BFEF7BBF8202857
:1041400006D0E585202084F83E002563002070BD60
:1041500010202064032070BD70470000F8B501688E
:1041600004460868CA684B6910F00F0F4FF000054D
:1041700059D003F0010602F49077374365D0C107A8
:1041800005D0D10503D5216C41F00101216441071F
:1041900005D5D90703D0216C41F0020121648107C4
:1041A00005D5D90703D0216C41F004012164010732
:1041B00007D502F02001314303D0216C41F0080102
:1041C0002164216C00293AD0800604D5900602D5DE
:1041D000204602F0F2FD20684069216CC0F3801097
:1041E000090700D460B3204602F0B2FD20684069A0
:1041F000400621D52068143050E8001F21F040010E
:1042000040E80012002AF5D1A06BA8B16C49016505
:10421000A06BFEF73DF8002811D0A06B016D01B036
:10422000BDE8F040084783060FD593060DD520461C
:10423000BDE8F84002F0C1BD2046FFF78DFFF8BD94
:104240002046FFF789FF2564F8BD266B2023012E49
:1042500079D1C60677D5D60675D508684868009026
:104260004869400640D5A16B086840680004000C0E
:10427000EAD0A28D8242E7D9E085C869B0F5807F97
:104280002DD020680C3050E8001F21F4807140E8E8
:104290000012002AF5D12068143050E8001F21F0E8
:1042A000010140E80012002AF5D12068143050E8DE
:1042B000001F21F0400140E80012002AF5D184F8E7
:1042C0003E30256320680C3050E8001F21F01001BB
:1042D00040E80012002AF5D1A06BFDF790FFA08DF9
:1042E000E18D401A81B229E0A08DE18D401A81B2A2
:1042F000E08D0028A8D00029A6D020680C3050E816
:10430000002F22F4907240E80026002EF5D120689C
:10431000143050E8002F22F0010240E80026002E61
:10432000F5D184F83E30256320680C3050E8002F2A
:1043300022F0100240E80023002BF5D12046FFF7C1
:10434000C0FEF8BDFFE705062BD5150629D594F864
:104350003D002128F5D1A068B0F5805F01D120692A
:10436000B0B1206A411C2162216800784860E08C6D
:10437000401E0004000CE084E3D12068C16821F0F5
:104380008001C1602068C16841F04001C160D8E788
:10439000206A0088C0F308004860206A801C206200
:1043A000E5E74006CDD55006CBD5CA68204622F0B9
:1043B0004002CA6084F83D3000F0EFF9C1E7000028
:1043C0005B6C000870B5040004D094F83D00002533
:1043D00010B106E0012070BD84F83C50204600F08A
:1043E00023F8242084F83D002068C16821F400519E
:1043F000C160204602F042FD2068016921F490412D
:1044000001612068416921F02A0141612068C16889
:1044100041F40051C1602564202084F83D0084F8F7
:104420003E00002070BD00002DE9F04786B0054633
:1044300014216846FBF770FF7448DFF8CC81022135
:10444000D5F800C0002403220723DFF8C4A18E069C
:104450000715C4453ED1DFF8B4C10CF1140CDCF8EB
:10446000008048F01008CCF80080DCF800C00CF0A8
:10447000100CCDF814C0D0F800C04CF0010CC0F8FE
:1044800000C0006800F00100059050028DE81300A4
:1044900069465046CDE90323FEF792F8DFF87881AC
:1044A0005C494046E0E80216402192C040F81449B9
:1044B0008461C46104624046C8F82440FDF7CCFF23
:1044C00008B1FCF7FDFDC5F83480C8F8385006B0D7
:1044D000BDE8F087DFF84481DFF83091C44509F189
:1044E000100944D1D9F8008048F40038C9F8008098
:1044F000D9F800C00CF4003CCDF814C0D0F800C0CE
:104500004CF0010CC0F800C0006800F001000590FC
:104510000C208DE8130069465046CDE90323FEF7D1
:104520004FF8DFF8F4803E4908F160084046C8F8CB
:104530000010C0E90164C0E90347C8F814404FF413
:104540004031C8F81840C8E90741C8F82440FDF7D1
:1045500083FF08B1FCF7B4FDC5F8388000220521BF
:104560002620C8F83850FEF7FDF9262049E0DFF88C
:10457000B480C445ABD1D9F8008048F48028C9F88C
:104580000080D9F800C00CF4802CCDF814C0D0F80D
:1045900000C04CF0020CC0F800C0006800F002003F
:1045A00005904FF440608DE8130069461E48CDE940
:1045B0000323FEF705F8DFF86080194908F1C00809
:1045C00060394046C8F80010C0E90164C0E90347FB
:1045D000C8F81440C8F81840C8F81C40C8F8204073
:1045E000C8F82440FDF738FF08B1FCF769FDC5F8AD
:1045F0003880002205212720C8F83850FEF7B2F98C
:104600002720FEF7A1F962E7001001403038024090
:1046100000000240B8640240DC0F0020004400406B
:1046200088600240004800400004024090F83E309C
:10463000202B0ED159B152B190F83C30012B08D04B
:10464000012380F83C300023036302F09DBC01206D
:1046500070470220704790F83E30202B0ED159B1A0
:1046600052B190F83C30012B08D0012380F83C3047
:104670000023036302F0D2BC012070470220704780
:1046800000681249884220D111488188090417D452
:104690008188B1F5006F0FD282880E4909684AB14E
:1046A00081680D490A7881880C4B0B44491C818034
:1046B0001A7005E08160F4E7818841F4004181804F
:1046C000012205490648FFF7C6BF70470048004071
:1046D0000C0000209400002089000020C0770020FA
:1046E000980F0020704700002DE9F843044690F829
:1046F0003D001F4616460D4620284CD1C5B1BEB11F
:1047000094F83C00012846D0012084F83C004FF08A
:104710000008C4F84080212084F83D00FEF752F8DC
:10472000A6848146E684A068B0F5805F03D004E0EB
:104730000120BDE8F883206928B12E465FF000050E
:1047400084F83C800EE00026FAE78021204602F043
:1047500082FCA0B9AEB116F8010B21684860E08C6C
:10476000401EE084E08C4B464FF00002009700288A
:10477000EBD14FF04001204602F06DFC30B1032038
:10478000D7E735F8020BC0F30800E6E7202084F8ED
:104790003D000020CDE70220CBE7704701A003F0E9
:1047A00019F8FEE74572726F725F48617264466184
:1047B000756C745F48616E646C65720D0A00000070
:1047C000044C4AF6AA2520680560642004F019FC10
:1047D000F9E70000B00C00207FB5002132480091BD
:1047E000019102912F4A0391026001244FF480321B
:1047F0000461C0E90121047680F820102B4AC0E949
:104800000A210625C561C16080F830404461FCF78B
:10481000E0FE08B1FCF754FC0C20CDE900040720B1
:10482000029069462048FCF77DFD08B1FCF748FC82
:104830000B2000900220019069461B48FCF772FD96
:1048400008B1FCF73DFC0820009003200190694668
:104850001548FCF767FD08B1FCF732FC0E2000900C
:104860000420019069461048FCF75CFD08B1FCF794
:1048700027FC0A2000900520019069460A48FCF7B1
:1048800051FD08B1FCF71CFC0F20CDE9000569467D
:104890000548FCF747FD08B1FCF712FC0248FDF79C
:1048A0001BF87FBD00200140100B00200100000F0D
:1048B0007FB500211E480091019102911B4A03918E
:1048C000026001244FF480320461C0E901210476C2
:1048D00080F82010174AC0E90A210225C561C1608D
:1048E00080F830404461FCF774FE08B1FCF7E8FB47
:1048F0000920CDE900040720029069460C48FCF726
:1049000011FD08B1FCF7DCFB0620CDE90005694686
:104910000748FCF707FD08B1FCF7D2FB0449142255
:1049200098390348FCF72EFF7FBD000000210140AD
:10493000580B00200100000F70B5194817490024DA
:1049400001601821C0E901144FF40031C0E90341AE
:1049500009014161047644768476C47604770125A2
:104960004577FDF704FB08B1FCF7AAFB0C48283893
:104970000146446104610460446084600562C4606F
:10498000C0E906452830FDF7E3F802210448FDF7A9
:104990005FF8BDE870400248FDF7FEBB00640040D0
:1049A000880C0020254808B5016841F480010160A9
:1049B000016801F480010091016841F40011016077
:1049C0000068002200F40010009002210C20FDF786
:1049D000C9FF0C20FDF7B8FF002202211020FDF7CF
:1049E000C1FF1020FDF7B0FF002202213820FDF7A3
:1049F000B9FF3820FDF7A8FF002202213A20FDF779
:104A0000B1FF3A20FDF7A0FF002207213B20FDF770
:104A1000A9FF3B20FDF798FF002207214520FDF765
:104A2000A1FF4520FDF790FF002207214620FDF75A
:104A300099FFBDE808404620FDF786BF30380240A8
:104A400010B504490448FCF749FB0249491E0870A7
:104A500010BD0000850000204CB8000870B5012191
:104A6000594A084604F0C5FC584C574A01212065B4
:104A70001032084604F0BDFC534A6065183A4021E4
:104A8000042004F013FCE064514A0021514804F072
:104A900029FD4F4A6062243200214F4804F022FD74
:104AA0004B4AA062483200214C4804F01BFD484AA2
:104AB000E0626C3200214A4804F014FD444A20634D
:104AC00090320021474804F00DFD414A6063B43242
:104AD0000021454804F006FD3B4AA063A83A0021A6
:104AE000424804F0FFFC384AE063843A0021404821
:104AF00004F0F8FC344A2064603A00213D4804F098
:104B0000F1FC314A60643C3A00213B4804F0EAFC85
:104B10004FF0FF35A0642946606D04F027FC29465C
:104B2000206D04F023FC606B08B134A000E03CA0D1
:104B300002F050FE606A08B142A000E04AA002F014
:104B400049FEA06A08B151A000E059A002F042FE5F
:104B5000E06A08B15FA000E067A002F03BFE206BB6
:104B600008B16EA000E077A002F034FEA06B08B19F
:104B70007EA000E086A002F02DFEE06B08B18EA0C2
:104B800000E096A002F026FE206C08B19CA000E098
:104B9000A4A002F01FFE606C08B1ABA000E0B2A0C0
:104BA00002F018FEA06C08B1B7A000E0BFA002F0B0
:104BB00011FE0548203004F05BFAA0650248303051
:104BC00004F056FAE06570BD0CB800080C00002037
:104BD0008CB60008CD750008350D0008595B00083B
:104BE000F5560008C50F0008B968000891110008C3
:104BF00059110008C1470008395600084454555F50
:104C0000496E69745F5461736B48616E646C65C80A
:104C1000CECEF1B4B4BDA8B3C9B9A6210D0A000027
:104C2000204454555F496E69745F5461736B4861E9
:104C30006E646C65C8CECEF1B4B4BDA8CAA7B0DCB2
:104C4000210D0A005769745F6461745F5461736B6E
:104C500048616E646C65C8CECEF1B4B4BDA8B3C96A
:104C6000B9A6210D0A000000205769745F646174C1
:104C70005F5461736B48616E646C65C8CECEF1B4ED
:104C8000B4BDA8CAA7B0DC210D0A000043616E5F65
:104C900052785F5461736B48616E646C65C8CECEA8
:104CA000F1B4B4BDA8B3C9B9A6210D0A0000000033
:104CB0002043616E5F52785F5461736B48616E642C
:104CC0006C65C8CECEF1B4B4BDA8CAA7B0DC210DC6
:104CD0000A00000052425F526561645F5461736B69
:104CE00048616E646C65C8CECEF1B4B4BDA8B3C9DA
:104CF000B9A6210D0A0000002052425F526561648E
:104D00005F5461736B48616E646C65C8CECEF1B45C
:104D1000B4BDA8CAA7B0DC210D0A00004F696C44DD
:104D20006973706C61795F5461736B48616E646C18
:104D300065C8CECEF1B4B4BDA8B3C9B9A6210D0AD9
:104D400000000000204F696C446973706C61795FEA
:104D50005461736B48616E646C65C8CECEF1B4B4B7
:104D6000BDA8CAA7B0DC210D0A0000005369676E18
:104D7000616C5F34475F5461736B48616E646C654E
:104D8000C8CECEF1B4B4BDA8B3C9B9A6210D0A00EE
:104D9000205369676E616C5F34475F5461736B4881
:104DA000616E646C65C8CECEF1B4B4BDA8CAA7B0BC
:104DB000DC210D0A000000004750535F496E697402
:104DC0005F5461736B48616E646C65C8CECEF1B49C
:104DD000B4BDA8B3C9B9A6210D0A0000204750539D
:104DE0005F496E69745F5461736B48616E646C6592
:104DF000C8CECEF1B4B4BDA8CAA7B0DC210D0A005C
:104E00004750535F4765745F5461736B48616E64CC
:104E10006C65C8CECEF1B4B4BDA8B3C9B9A6210D96
:104E20000A000000204750535F4765745F54617368
:104E30006B48616E646C65C8CECEF1B4B4BDA8CACF
:104E4000A7B0DC210D0A0000495744475F54617345
:104E50006B48616E646C65C8CECEF1B4B4BDA8B3C6
:104E6000C9B9A6210D0A000020495744475F546183
:104E7000736B48616E646C65C8CECEF1B4B4BDA8E6
:104E8000CAA7B0DC210D0A004F74686572616463C3
:104E90005F7461736B48616E646C65C8CECEF1B4AB
:104EA000B4BDA8B3C9B9A6210D0A0000204F74688B
:104EB00065726164635F7461736B48616E646C6595
:104EC000C8CECEF1B4B4BDA8CAA7B0DC210D0A008B
:104ED000154808B5016841F080010160016801F0E2
:104EE00080010091016841F004010160016801F056
:104EF00004010091016841F001010160016801F0C5
:104F000001010091016841F002010160016801F0B6
:104F100002010091016841F008010160006800F0A1
:104F20000800009008BD00003038024010B50C4C5D
:104F30000A482060032060604FF47A70A060204629
:104F4000FDF746FC08B1FCF7BBF821684CF6CC40F5
:104F5000086021684AF6AA20086010BD00300040B1
:104F6000B00C0020074806494FF4006201600021A0
:104F700041608160C0E90312416102218161704793
:104F8000002C0140BC0C00200B4810B50949016001
:104F900000214FF6FF724160C0E902120161816198
:104FA000FEF7CEFC002803D0BDE81040FCF788B81F
:104FB00010BD000000200040480E002010B58AB04F
:104FC00000242848049405940694079408940994AE
:104FD0000094019402944FF080410394016048F2E0
:104FE0004031C0E90114611EC0E9031480218161D0
:104FF000FEF7A6FC08B1FCF763F84FF4805004906C
:1050000004A91848FEF752FD08B1FCF759F81548F5
:10501000FEF799FE08B1FCF753F8089408A9114867
:105020000994FEF745FC08B1FCF74AF80120CDE9E8
:1050300000400294002269460A480394FEF7F4FDFA
:1050400008B1FCF73DF8042269460648FEF7ECFD7E
:1050500008B1FCF735F80C210248FEF7A3FE0AB0B0
:1050600010BD0000000E00200C4810B50A49016078
:105070004FF4E1314160002181600C22C160C0E940
:1050800004128161C161FFF79DF9002803D0BDE8DA
:105090001040FCF715B810BD00100140100F0020A3
:1050A00038B5134C11480C2120604FF4E13060609A
:1050B0000020A060E060C4E90401A061E061204636
:1050C000FFF780F908B1FBF7FBFF20680168416832
:1050D0000091C16841F01001C160BDE83840044949
:1050E0008022C4390248FFF7A1BA00000044004002
:1050F000540F002010B5114C0F480C2120604FF4C4
:10510000165060600020A060E060C4E90401A06166
:10511000E0612046FFF756F908B1FBF7D1FF2068A0
:10512000C16841F02001C160BDE81040012204497E
:105130000248FFF790BA000000480040980F002096
:1051400089000020FEE703460DE002782A2A03D0FA
:10515000202A01D37A2A01D9FF2070472C2A01D1B5
:10516000491EC9B2401C0029EFD1C01AC0B2704715
:1051700038B50A4605460EA11046FBF7D8F8044696
:105180000921FFF7E0FFFF2805D02044694600F021
:10519000F1F9C5F8630007212046FFF7D4FFFF2887
:1051A00005D02044694600F0E5F985F84F0038BD88
:1051B00047474100F8B50A46064624A11046FBF7CA
:1051C000B6F805460221FFF7BEFFFF2805D02844A8
:1051D000694600F0CFF986F85C000024E01CC1B2FB
:1051E0002846FFF7B0FFFF280AD02844694600F0A0
:1051F000C1F93119641CE4B281F850000C2CEDD3D4
:105200000F212846FFF79FFFFF2805D02844694655
:1052100000F0B0F9A6F85D0010212846FFF793FFD3
:10522000FF2805D02844694600F0A4F9A6F85F00DD
:1052300011212846FFF787FFFF2805D0284469463B
:1052400000F098F9A6F86100F8BD0000475341004E
:105250002DE9F84F0C4682464FF0000835A1204654
:10526000FBF765F80546C07903213038C7B22846F8
:10527000FFF769FFFF2805D02844694600F07AF956
:105280008AF80000002651E02AA12046FBF74FF8DB
:10529000044600254FF0040B0BEB8500C1B22046FD
:1052A000FFF751FFFF283ED02044694600F062F925
:1052B00008EB880202EB0A0989F80100052000EBDF
:1052C0008500C1B22046FFF73EFFFF282BD02044C7
:1052D000694600F04FF989F80200062000EB8500CE
:1052E000C1B22046FFF72FFFFF281CD0204469469B
:1052F00000F040F9A9F80300072000EB8500C1B2D7
:105300002046FFF720FFFF280DD02044694600F01B
:1053100031F989F805006D1C08F10100EDB200F0CB
:10532000FF08042DB8D3761CF6B2641CBE42ABD382
:10533000BDE8F88F24475047535600002DE9F84345
:105340000A46044683A11046FAF7F1FF05460121FB
:10535000FFF7F9FE42F210764FF06408FF281ED0E6
:105360002844694600F006F907469DF800100A2017
:1053700000F0F8F8B7FBF0F1B1FBF6F084F841006B
:105380004046B1FBF0F2B2FBF0F308FB132284F8C5
:105390004220B1FBF8F208FB121084F8430003210D
:1053A0002846FFF7D0FE9FED6C0AFF283ED0284428
:1053B000694600F0DFF807469DF80000801CC1B286
:1053C0000A2000F0CFF8B7FBF0F060649DF8000011
:1053D000801CC1B20A2000F0C5F8B7FBF0F100FB59
:1053E000117000EE900A05210A20F8EE600A00F024
:1053F000B9F8616C484301EE100A9DF80000C0F155
:105400000500C1B2F8EE411A0A2000F0ABF801EE37
:10541000100AB8EE411A61EE200A80EE801A71EE91
:10542000810AFCEEE00A10EE900A6064042128462E
:10543000FFF789FEFF2802D0285C84F84800052188
:105440002846FFF780FEFF2840D02844694600F038
:1054500091F807469DF80000801CC1B20A2000F0B8
:1054600081F8B7FBF0F044F8490F9DF80000801C6C
:10547000C1B20A2000F076F8B7FBF0F100FB117022
:1054800000EE900A05210A20F8EE600A00F06AF8A2
:105490002168484301EE100A9DF80000C0F10500A4
:1054A000C1B2F8EE411A0A2000F05CF801EE100AD1
:1054B000B8EE411A61EE200A80EE801A31EE810AC0
:1054C000BCEEC00A10EE100A44F84909062128462D
:1054D000FFF739FEFF2802D0285C84F84D00072131
:1054E0002846FFF730FEFF2812D02844694600F016
:1054F00041F84FF47A714843FAF7BFFF9FED171B4D
:1055000053EC112BFAF747FFFAF7C4FFA4F8670032
:1055100009212846FFF717FEFF2818D028446946BE
:1055200000F028F8B0FBF6F184F840104146B0FBDB
:10553000F1F2B2FBF1F308FB132284F83F20B0FB39
:10554000F8F208FB120000F5FA60A4F83D00BDE88F
:10555000F8830000524D4300000070426F1283C078
:10556000CAA1FD3F0246012000E05043491EC9B2D6
:10557000FBD270472DE9F04F4FF0000A8B46804672
:10558000D14655465446564601782D2902D146F05B
:105590000206401C01782C2908D02A2906D02E2981
:1055A0000AD030390A290AD300252C46B00701D584
:1055B00008F10108002718E046F00106401CF10739
:1055C00002D0641CE4B201E06D1CEDB2401CDBE7CC
:1055D000E81B401EC1B20A20FFF7C4FF18F80710ED
:1055E000303900FB01AA7F1CFFB2AF42F0D3052C7B
:1055F00000D905248BF8004000270EE0E01B401E78
:10560000C1B20A20FFF7AEFFEA1902EB08014978A0
:10561000303900FB01997F1CFFB2A742EED321462F
:105620000A20FFF79FFF0AFB0090B10700D5404218
:10563000BDE8F08FFEE7000008B500252A4E2C4695
:105640000095707801284AD175702849002000BF64
:1056500051F82020801CC0B214441428F8D34FF411
:10566000A5704443240B40F6A340844201D9062090
:105670001CE0A4F659404A2801D2052016E0A4F601
:1056800009404F2801D2042010E0A4F6AF30592879
:1056900001D203200AE0A4F65F304F2801D2022095
:1056A00004E0A4F61930452803D201208DF800004B
:1056B00005E040F6FA20844201D28DF800508DF8C2
:1056C000015003F071FD022269460520FBF740FB03
:1056D00003F09CFD142205490548FCF753F844F6F5
:1056E000206003F08EFCACE70C000020C00A002014
:1056F000580B00209AB0402103A8FAF70DFE4FF096
:10570000000ADFF810914FF0010BCDF804A0CDF89E
:1057100008A099F800104846012977D180F800A028
:1057200000263D48374634463346324631463546F4
:1057300050F825C06D1CEDB2674450F825C06D1CB3
:10574000EDB2644450F825C06D1CEDB2634450F8CE
:1057500025C06D1CEDB2624450F825C06D1CEDB241
:10576000614450F825C06D1CEDB266443C2DDFD37A
:10577000C7EB07154FF4FA6779430F0B4FF0640C32
:1057800006EB8600060B2348B7FBFCF16030B7FB45
:10579000FCF806702D0BC4EB04144570240BC3EB0E
:1057A000031384701B0BC2EB0212C370120B027145
:1057B0000CFB1877417187718DF804608DF80550E6
:1057C0008DF808208DF806408DF809108DF8073007
:1057D0008DF80A70D9F8580003F03FFC400607D551
:1057E0000E48007820B94022022103A800F0CCF82E
:1057F00003F0DAFC072201A95846FBF7A9FA03F0E7
:1058000005FD3C2204490648FBF7BCFFC82003F015
:10581000F8FB7EE70C000020D0090020E8050020FE
:10582000100B00202DE9F04F91B00C46054603F017
:10583000BBFC0020012C06D0022C52D0032C55D0EA
:10584000042C6FD166E03A4C2860206AFAF73BFEE0
:1058500006460F46E069FAF736FECDE90801A06971
:10586000FAF731FECDE906016069FAF72CFECDE9C1
:1058700004012069FAF727FECDE90201E068FAF792
:1058800022FECDE90001A068FAF71DFE82468B4694
:105890006068FAF718FE804689462068FAF713FE1A
:1058A00041EC100BCDE90E67DDE90801CDE90C01F3
:1058B000DDE90601CDE90A01DDE90401CDE90801D0
:1058C000DDE90201CDE90601DDE90001CDE90401D0
:1058D0008DE8000F53EC102B1649284601F08AFF83
:1058E00020E02860144815A1027818E01A492860C1
:1058F0004FF47A7231F8670FB0FBF2F00880FAF7D4
:10590000BCFD41EC100B15A153EC102B284601F007
:1059100071FF07E02860064816A1243082782846E7
:1059200001F068FF11B0BDE8F04F03F06FBC00005C
:10593000C405002048BF00086C0000207B274F6989
:105940006C5F446973706C6163656D656E74273A52
:10595000272564277D000000840800207B275370E2
:105960006565645F646174273A27252E31666D276B
:105970007D0000007B2734475F7369676E616C2789
:105980003A272564277D00002DE9F843064623A029
:10599000234D0068009090460F460024A86D03F048
:1059A0005CFB000734D400BF02F0C4FC58B1641C97
:1059B000E4B21CA001F00EFF592003F022FB052CDD
:1059C000F2D3BDE8F8830821A86D03F067FB1FA0A0
:1059D00001F000FF39463046FFF724FFFF23012284
:1059E00069462248FEF780FE6C46FF2301221F48CD
:1059F000611CFEF779FEFF230122A11C1B48FEF764
:105A000073FEFF23424631461848FEF76DFED8E785
:105A100039463046FFF706FFF3E700000300460073
:105A20000C00002044545520656E74657220747219
:105A3000616E73706172656E74206D6F646520664F
:105A400061696C656420210D0A00000044545520F2
:105A5000656E746572207472616E73706172656ECA
:105A600074206D6F646520210D0A0000540F002022
:105A70002DE9F0410E4604464168D4E90230181A77
:105A8000081A904200D910460746481E0340CD1A16
:105A9000BD4200D93D4620682A4618443146FAF7EF
:105AA00022FC7A1B71192068FAF71DFCA0683844A3
:105AB000A0603846BDE8F08170B504461021002092
:105AC00003F088FA05001BD0002601222CB1611ECC
:105AD0000C420CD0B4F1004F14D821465FF0000006
