:020000040800F2
:10000000F8B600206102000879650008D95100089F
:1000100089600008050D00084993000800000000F1
:10002000000000000000000000000000A101000826
:100030008112000800000000FD010008A57D0008F5
:100040007B0200087B0200087B0200087B0200089C
:100050007B0200087B0200087B0200087B0200088C
:100060007B0200087B0200087B0200087B0200087C
:100070007B0200087B0200087B0200087B0200086C
:10008000A51000087B020008FD0A0008150D0008F5
:10009000090D00087B0200087B0200087B020008B3
:1000A0007B020008697E00087B0200087B020008D2
:1000B000757E0008817E00087B0200087B02000834
:1000C0007B0200087B0200087B0200087B0200081C
:1000D0007B0200087B020008819000084191000823
:1000E0007B0200087B0200087B0200087B020008FC
:1000F000B17E0008A57E00087B0200087B02000894
:100100007B020008857100088D7E00087B020008D4
:100110007B0200087B0200087B020008997E000831
:10012000B11000087B020008BD100008C9100008CB
:100130007B0200087B0200087B0200087B020008AB
:100140007B0200087B0200087B0200087B0200089B
:100150007B020008D5100008E11000087B020008AF
:100160007B0200087B0200087B0200087B0200087B
:100170007B0200087B0200087B02000800000000F0
:100180007B020008E9120008DFF810D000F0BEFB87
:1001900000480047FDB90008AFF30080F8B6002022
:1001A0002C4B19680868B0E8F04F80F30988BFF35A
:1001B0006F8F4FF0000080F311887047000000003F
:1001C00008480068006880F308884FF0000080F35A
:1001D000148862B661B6BFF34F8FBFF36F8F00DF35
:1001E00000BF00BF08ED00E0DFF80C00016841F43B
:1001F00070010160704700BF88ED00E0EFF30980F7
:10020000BFF36F8F134B1A681EF0100F08BF20ED5D
:10021000108A20E9F04F106009B44FF0200080F3FD
:100220001188BFF34F8FBFF36F8F0DF05BFA4FF064
:10023000000080F3118809BC19680868B0E8F04F25
:100240001EF0100F08BFB0EC108A80F30988BFF3CE
:100250006F8F7047F4020020EFF3058070470000B5
:100260000648804706480047FEE7FEE7FEE7FEE750
:10027000FEE7FEE7FEE7FEE7FEE7FEE7597E000841
:10028000890100082DE9F05F0546002092469B4653
:1002900088460646814640241BE02846414647469C
:1002A000224600F0B7F953465A46C01A914110D37E
:1002B00011461846224600F09EF92D1A67EB0108F8
:1002C0004F4622460120002100F095F917EB000966
:1002D0004E41201EA4F10104DFDC484631462A4687
:1002E0004346BDE8F09F40EA01039B0703D009E0C5
:1002F00008C9121F08C0042AFAD203E011F8013B12
:1003000000F8013B521EF9D27047D2B201E000F86A
:10031000012B491EFBD270470022F6E710B51346A9
:100320000A4604461946FFF7F0FF204610BD30B5D7
:1003300005462A460B4612F8010B13F8014B08B18B
:10034000A042F8D01CB1002802D06D1CF1E728466D
:1003500030BD421C10F8011B0029FBD1801A7047E8
:1003600010B5002200E0521C835C8C5CA34201D1DA
:10037000002BF8D1D8B2E1B2401A10BD70B50646D4
:1003800009F06AFB046805460A220021304600F0A5
:1003900051F92C6070BD2DE9FE4F81EA030404F091
:1003A000004421F0004100944FF0000B23F0004383
:1003B00050EA01045ED052EA03045BD0C3F30A544E
:1003C000C1F30A552C44A4F2F3340194A0FB025467
:1003D000C1F3130141F48011C3F3130343F48013F9
:1003E00001FB024400FB034E840A970A44EA81544D
:1003F00047EA8357A4FB076802958D0A05FB07852A
:100400004FEA932C04FB0C542705029D4FEA065833
:1004100047EA1637B5EB08056EEB070C870E920E10
:1004200047EA811742EA8312A7FB0201B6EB0B01F0
:1004300064EB00042B0D43EA0C335E1844EB1C50B4
:10044000DA465146E7FB0201C5F313044FEA0B33CA
:1004500043EA14534FEA0432019C43EA0603A4F131
:100460000C040294009CCDE900B400F02AF903B01A
:10047000BDE8F08F00200146F9E72DE9F04D81EA53
:10048000030404F0004B21F0004514464FF0000A2D
:1004900023F0004150EA050220D054EA01021DD0A9
:1004A000C5F30A570246C5F31303C1F31300C1F3A2
:1004B0000A5640F4801543F48013A7EB0608101B7E
:1004C000D64608F2FD3873EB050002D308F10108A7
:1004D00001E092185B41B8F1000F03DA00200146F9
:1004E000BDE8F08D00204FF48011064684460EE0F2
:1004F000171B73EB050705D3121B63EB05030643BC
:100500004CEA010C49084FEA300092185B4150EA6E
:100510000107EDD152EA030012D082EA040083EA17
:100520000501084305D0101BAB4106D20122002370
:1005300006E000224FF0004302E06FF0010253108A
:100540001AEB06004CEB085110EB0A0041EB0B01D3
:10055000BDE8F04D00F0A6B80EB540F2334102916F
:100560000021CDE900110A460B4600F0AAF803B0BD
:1005700000BDC1F30A5210B5C1F3130140F2FF33BD
:1005800041F480119A4201DA002010BD40F2334359
:100590009A42A2F2334203DC524200F03BF810BD13
:1005A000904010BD00F0004230F000400AD0C10D74
:1005B00001F56071C0F3160042EA0151C20840071C
:1005C0001143704700200146704730B50B46014685
:1005D00000202022012409E021FA02F59D4205D3E2
:1005E00003FA02F5491B04FA02F52844151EA2F18C
:1005F0000102F1DC30BD202A04DB203A00FA02F1CE
:10060000002070479140C2F1200320FA03F3194300
:1006100090407047202A04DB203A21FA02F00021A2
:10062000704721FA02F3D040C2F120029140084302
:10063000194670472DE9F04791460F46804604461B
:10064000002614F8015B2DB100F084F90068405DCC
:10065000C007F6D12B2D02D02D2D18D0641E4A468E
:100660003946204600F07AF927B13968A14201D114
:10067000C7F8008071054FF002040BD540420028F6
:1006800003DD09F0E9F90460A007BDE8F08746F44E
:100690008066E4E70028F8DA09F0DEF904606FF01C
:1006A0000040F2E710B5141E73F1000408DA401C94
:1006B00041F1000192185B411A4301D120F0010081
:1006C00010BD2DE9F04D92469B4611B1B1FA81F271
:1006D00002E0B0FA80F220329046FFF78CFF044629
:1006E0000F4640EA0A0041EA0B0153465A460843C6
:1006F00013D0114653EA010019D0C8F14002504608
:10070000FFF788FF05460E46504659464246FFF71A
:1007100072FF084305D0012004E020463946BDE8B9
:10072000F08D0020054346EAE0762C4337430A98D3
:100730006305E40AA0EB08000022FD0A44EA4754DE
:100740000A3002D500200146E9E701051019694188
:10075000DDE9084500196941BDE8F04DA2E72DE942
:10076000FE4F804681EA0300C00F0C46009021F046
:10077000004123F00045B8EB0200A94105D24046F4
:10078000214690461C460B46024623F0004010438B
:1007900047D0270DC7F30A00C3F30A510290401A4D
:1007A000019040286BDAC3F3130040F4801B0098DB
:1007B000924620B10023D2EB030A63EB0B0B0198A6
:1007C0005946C0F140025046FFF715FF06460D4658
:1007D00050465946019A00F0ABF810EB0800614111
:1007E000002487EA115284EAE7731A4340D0009A42
:1007F00062B3019A012A4FEA075215DC001B61EB34
:1008000002014FF0004202EA0752CDE90042001C0B
:1008100041F5801132462B46FFF753FF03B0BDE888
:10082000F08F40462146F9E7001B61EB0201001CF6
:1008300041F5801300185B412018A2F5001747EB23
:10084000030140EAD570B6196D4111E06D084FEA19
:10085000360645EAC0754FEA0752001B61EB0201FC
:10086000001C41F5801149084FEA30000019514140
:1008700032462B4603B0BDE8F04FFFF713BF009898
:10088000012240000023D0EB020263EBE0730098EA
:1008900021464FEAE074B8EB000061EB0401E9E7A0
:1008A00083F000435BE781F0004158E7C1F30A524F
:1008B000C1F3130140F2FF3341F480119A4202DA8E
:1008C00000200146704740F233439A42A2F233427D
:1008D00002DC5242FFF79EBEFFF78DBE30B5041E0C
:1008E00071F1000404DB4FF00044404264EB01016D
:1008F000141E73F1000405DB1C464FF00043524206
:1009000063EB0403994208BF904230BD064C074D8B
:1009100006E0E06840F0010394E8070098471034CF
:10092000AC42F6D3FFF734FCB0A60308D0A6030808
:10093000202A06DBCB17203A41FA02F043EAE073A3
:1009400006E041FA02F3D040C2F120029140084390
:100950001946704700487047B89B03082DE9F05FBF
:1009600082460078002715468B460AF10104B946F5
:10097000302801D09DB113E014F8010B012778282D
:1009800003D0582801D045B10AE00DB1102D07D190
:100990000027102514F8010B02E0082500E00A25C5
:1009A0000026B0460EE005FB080005FB06F1012716
:1009B00001EB10461FFA80F8B6F5803F00D3B94628
:1009C00014F8010B294600F018F80028EBDABBF107
:1009D000000F05D00FB1641E00E05446CBF8004074
:1009E000B9F1000F06D009F037F802210160C81EE6
:1009F000BDE8F09F48EA0640FAE73A2800D23038CE
:100A000020F02002412A01D3A2F13700884201D30D
:100A10004FF0FF30704770B58C1810F8015B15F07F
:100A2000070301D110F8013B2A1106D110F8012B60
:100A300003E010F8016B01F8016B5B1EF9D12B0785
:100A400005D40023521E0DD401F8013BFAE710F83B
:100A5000013BCB1A921C03E013F8015B01F8015B28
:100A6000521EF9D5A142D8D3002070BD10B5014661
:100A7000806B026C12F0500F05D0026CD20626D5A6
:100A800000F0CFFE10BD016C41F4007101640168FB
:100A90008A6812F0405F17D1027EAAB9CA6A12F4BE
:100AA000700F02D08A6852050ED44A6822F02002E4
:100AB0004A60016C21F480710164016CC90403D4A3
:100AC000016C41F00101016400F092FE10BD806BE9
:100AD000C26CBDE810400846104710B5806B40213D
:100AE0000164416C41F00401416400F09AFE10BDC4
:100AF00010B5806B00F094FE10BD000010B50448E6
:100B000000F090FEBDE81040024800F08BBE0000EF
:100B1000B80E0020000F0020464910B54A6822F4A4
:100B200040324A604A6843681A434A6001684A682A
:100B300022F480724A6001684A68036942EA03222B
:100B40004A6001684A6822F040724A6001684A6857
:100B500083681A434A6001688A6822F400628A60E6
:100B600001688A68C3681A438A60816A6FF070629C
:100B7000D14201688A6822F070628A6001688A68DE
:100B80000CD0836A1A438A6001688A6822F0405256
:100B90008A6001688A68C36A1A4301E022F0405201
:100BA0008A6001688A6822F002028A6001688A68A5
:100BB000037E42EA43028A6090F82010002901680F
:100BC0004A680FD042F400624A6001684A6822F421
:100BD00060424A6001684A68174C436A04EB433339
:100BE0001A4301E022F400624A600168CA6A22F4F2
:100BF0007002CA620168CA6A838B104C04EB03530B
:100C00001A43CA6201688A6822F400728A60016825
:100C10008A6890F8303042EA43228A6001688A6824
:100C200022F480628A6001688A68406942EA802012
:100C3000886010BD0023014000E0FFFF0000F0FFCE
:100C4000704700000146014802F016BEF030002057
:100C500010B5044802F022FE042801D0012010BD86
:100C6000002010BDF030002010B500F00BF8012876
:100C700001D0012010BDBDE81040014802F028BF9E
:100C8000F030002008B501208DF800009DF800002C
:100C900008BD0000134610B50A460146002403486B
:100CA00003F012F800B10124204610BDF0300020FE
:100CB00008B50120ADF80000034800231A46694634
:100CC00040680BF075F908BDCC020020134610B542
:100CD0000A4601460024034803F090F800B10124BD
:100CE000204610BDF030002008B50220ADF800000D
:100CF000034800231A46694640680BF059F908BDBD
:100D0000CC020020FEE70000014801F0FEB900001F
:100D100030100020014801F0F8B900003010002028
:100D2000054D4FF0FF342146286F0BF075F9012077
:100D30000AF0BDFFF7E700000C00002088B000209B
:100D400008250226884C0190029003908DF814002B
:100D500001274FF0040820680AF0D5FFC00744D0EF
:100D6000012120680AF0B0FF5120049500907F48CF
:100D700001F0B5F90028FAD006AB7D4A69467B48F8
:100D800001F044F810B17BA008F01CFE05200AF029
:100D90008EFF522004950090744801F0A0F90028BD
:100DA000FAD0734A06AB08326946704801F02EF853
:100DB00010B170A008F006FE05200AF078FF53205D
:100DC00004950090694801F08AF90028FAD0684A31
:100DD00006AB10326946654801F018F810B165A0FD
:100DE00008F0F0FD05200AF062FF20680AF08BFF92
:100DF000800718D5022120680AF066FF0095049547
:100E00005A4801F06CF90028FAD0574A06AB2D3247
:100E10006946564800F0FAFF10B156A008F0D2FD1E
:100E200005200AF044FF20680AF06DFF000719D57D
:100E3000082120680AF048FFCDF8108000964B4842
:100E400001F04DF90028FAD0474A06AB503A6946FE
:100E5000464800F0DBFF10B146A008F0B3FD0520C6
:100E60000AF025FF20680AF04EFFC0061AD51021AF
:100E700020680AF029FF03200090062004903B48D8
:100E800001F02DF90028FAD0374A06AB1132694635
:100E9000364800F0BBFF10B136A008F093FD0520E6
:100EA0000AF005FF20680AF02EFF800619D52021E0
:100EB00020680AF009FF0720009704902B4801F0F2
:100EC0000EF90028FAD0284A06AB1732694627489F
:100ED00000F09CFF10B127A008F074FD05200AF077
:100EE000E6FE20680AF00FFF400619D54021206871
:100EF0000AF0EAFE0520049600901C4801F0EFF885
:100F00000028FAD0184A06AB703A6946174800F034
:100F10007DFF10B117A008F055FD05200AF0C7FEAF
:100F200020680AF0F0FE000619D5802120680AF03A
:100F3000CBFECDF8008004970C4801F0D0F80028D3
:100F4000FAD0094A06AB3A326946084800F05EFF1B
:100F500010B108A008F036FD05200AF0A8FE012017
:100F60000AF0A5FEF7E600008C00002030100020FB
:100F700000040020CAFDBEDDB7A2CBCDCAA7B0DCFD
:100F8000A3A10D0A0000000010B50C4CA078612848
:100F900006D0652809D06D280FD108F03DFA06E08B
:100FA00008F01CFA38B106A003E008F053FA10B1BB
:100FB00009A008F007FDFF20A07010BD74030020F9
:100FC0000D0A5365742041636343616C6920457267
:100FD000726F720D0A0000000D0A536574204D6196
:100FE0006743616C69204572726F720D0A000000E0
:100FF0002DE9F04700270425DFF8A080DFF8A09056
:1010000050383E4601F1060A102845D2DFE800F0CC
:101010001108130C1517191B1D1F214444444423A8
:1010200034240325402702E03D2403252E270126F2
:1010300013E0302411E037242BE03A2429E0412446
:101040000BE0452409E0492407E04D2405E0512444
:1010500003E0552401E0D8F82440032A19D04DB10B
:101060006A0009EB4400FFF73EF9D8F8182029463A
:1010700020469047002E0FD0720009EB47005146E2
:10108000FFF731F931463846D8F81820BDE8F04767
:10109000104703250026E3E7BDE8F087740300202E
:1010A00038800020014801F0DDBA000090350020B2
:1010B000014801F0D7BA0000480F0020014801F0B4
:1010C000D1BA0000A80F0020014801F0CBBA0000FF
:1010D00074310020014801F0C5BA0000D43100206D
:1010E000014801F0BFBA0000303500200168182324
:1010F000CAB2103AB2FBF3F2054B6FF30901032AAF
:101100009B5CC36500D9091D8165084670470000D6
:10111000A0EA000810B5014600208B698A6A4FF0EA
:10112000C07453B1B3F5005F15D072B1012A0CD071
:10113000022A0AD0032A09D104E01AB1012A06D0F2
:10114000022A03D1C96AC90100D5012010BDC96AAC
:10115000A142FAD010BD002AF7D0012AF2D0022A0B
:10116000F3D0032AF3D010BD30B50468256825F408
:1011700080252560046863608368402B036803D082
:1011800099600068C26030BD9A600068C16030BD7F
:10119000204D00244FF4806600200AF0E3FC304626
:1011A00005F004FFE8621CA008F00CFC4FF47A770D
:1011B00008E0042009F088FDE0B1641CA4B23846C0
:1011C0000AF075FD0A2CF4D91E4808F0FBFB1EA09E
:1011D00008F0F8FB224808F0F5FBE86F0AF093FDF1
:1011E000000703D50421E86F0AF0AEFD686C0CF02F
:1011F000FBF8D1E70821E86F0AF0A6FD114808F0D6
:10120000E1FB18A008F0DEFB154808F0DBFB0A2C18
:10121000DAD8E2E70C0000205761697420666F722B
:1012200020436174312044545520746F20737461DD
:1012300072742C2077616974203130732E2E2E2E1B
:10124000200D0A000C9C030841544B2D445455209A
:10125000496E6974204661696C202E2E2E0D0A009D
:10126000BC9B0308436174312044545520496E6986
:10127000742053756363657373200D0A00000000CA
:101280007047000072B602A008F09CFBFEE7000069
:101290004572726F725F48616E646C65720D0A0010
:1012A000002200F001B8000030B50E4B05460120C9
:1012B0005C7A002C14D1587A1C54587A03EB8000C5
:1012C00045605D7A03F108002A54587A421C5A722C
:1012D000303008703A2048702F208870CC70002081
:1012E00030BD0000583600207047000070B50C4635
:1012F000054604F04FFF2146284604F0DBFE214658
:10130000284604F0F9FE04482146027D2846BDE83F
:10131000704004F0B5BF0000B80300200A4C00255F
:10132000E06F0AF0F0FCC00509D5E089000406D59D
:10133000E58106490648FFF7D9FF00F05DF8642013
:101340000AF0B5FCECE700000C000020A09C002097
:10135000C4040020194FDFF868801A4EFF244FF4B0
:10136000E1394FF4C8754FF4807A0121284607F01F
:1013700083FFD8B114A008F025FB0AE0012239460A
:10138000404607F09DFF484607F044FF07F010FF76
:1013900004460121284607F06FFF08B1002CEDD16B
:1013A0000FA008F00FFB01200AF081FC5146F06FFE
:1013B0000AF0CAFCF06C0CF017F8D6E7A086010022
:1013C00020A107000C00002057542D4750535F42C6
:1013D000442053657474696E672E2E2E0D0A00002A
:1013E00057542D4750535F42442053657420446F37
:1013F0006E6521210D0A00002DE9F04FDFB040217C
:101400004EA8FEF789FFC82112A8FEF785FF282104
:1014100044A8FEF781FF7D487D4C808A00EE100ACB
:10142000B8EE400A84ED000A10EE100AFFF7BAF891
:1014300041EC100B77A053EC102B08F0C3FAA4F189
:10144000300644A8317B94ED000A00EB8100DFF800
:10145000BC8180ED000AB07808F14C0804F1500717
:1014600001282ED0B8F83D2040F2E67140468A426D
:1014700027D990F8411021B390F842300BB390F87F
:101480004340F4B106F19105A2F5FA622A7090F892
:101490003F206A7098F84000A8700831E9702B71FD
:1014A0006C71002460A0295D08F08CFA641CE4B221
:1014B000062CF7D3102138680AF046FC14200AF0F5
:1014C000F6FB082138680AF03FFC51488830017863
:1014D00039B990F8030220B9402203214EA805F043
:1014E00075FC307B411C31730A2813D30020307304
:1014F000B8680AF008FC00070CD532224CA152480B
:1015000009F0C6FC010008D050A008F05BFA4E4874
:1015100009F068FC5FB0BDE8F08FC82112A8FEF7A3
:10152000FBFE98F8401098F8434098F8423098F83D
:1015300041208DE81E0098F83F30B8F83D204FA1BB
:1015400012A808F04FFA5EABC82212A93E4809F073
:1015500006FEC82112A8FEF7DFFE4D98FFF722F81D
:1015600006460F464C98FFF71DF804460D464B986B
:10157000FFF718F8CDE908014A98FFF713F8CDE90D
:1015800006014998FFF70EF8CDE904014898FFF7E6
:1015900009F8CDE902014798FFF704F8CDE9000109
:1015A0004698FEF7FFFF82468B464598FEF7FAFF06
:1015B000804689464498FEF7F5FF41EC100B0EA8D3
:1015C00053EC102B80E8F000DDE90801CDE90C01B7
:1015D000DDE90601CDE90A01DDE90401CDE90801F3
:1015E000DDE90201CDE90601DDE90001CDE90401F3
:1015F0008DE8000F294912A808F0F4F95EABC82263
:1016000012A9114809F0ABFD81E700007804002021
:101610003C00002053706565643A252E33666B6D7F
:101620002F68200D0A00000025640D0A000000004C
:10163000303A2F4657545F6461742F67707373702C
:101640006565642E74787400942000204657545FBA
:101650006461742F7479726573706565642F747931
:1016600072657370656564342E747874206F70656C
:101670006E206661696C2128256429000D0A2530D9
:1016800034642F253032642F2530326420253032E7
:10169000643A253032643A2530326400B89C03083D
:1016A0007047000078B50024009490F83C20012A8F
:1016B00019D0012280F83C200A6807230568092A0E
:1016C00013D9EE680A3A02EB420293409E43EE6061
:1016D0000B788A680A3B03EB43039A400368DD6892
:1016E0002A43DA6010E0022078BD2E6902EB420244
:1016F00093409E432E610B788A6803EB43039A4024
:1017000003681D692A431A614A681F23072A13D2F6
:1017100005686E6B521E02EB820293409E436E631D
:101720000B790A885B1E92B203EB83039A4003682D
:101730005D6B2A435A6327E005680D2A12D22E6B8F
:10174000D21F02EB820293409E432E630B790A88DC
:10175000DB1F92B203EB83039A4003681D6B2A439D
:101760001A6311E0EE6A0D3A02EB820293409E4347
:10177000EE620B790A880D3B92B203EB83039A4029
:101780000368DD6A2A43DA62164B0568144A9D42F3
:1017900006D10D68122D03D1556845F480055560BA
:1017A00005689D4218D10B68102B01D0112B13D165
:1017B000536843F400035360096810290CD10A49A7
:1017C0000A4A0968B1FBF2F101EB8101490000E02E
:1017D000491E00910029FBD180F83C40002078BDD3
:1017E0000023014000200140E802002040420F0099
:1017F000074B026801219A4201D1064A03E0064BD9
:101800009A4203D1054A117000F0B8BA704700003F
:10181000002001400C000020002101400D000020AC
:101820007047704770B5044600680668456816F052
:10183000020F05F020012AD049B3216CC90603D458
:10184000216C41F400712164816811F0405F17D16F
:10185000217EA9B9C16A11F4700F02D081684905CF
:101860000ED4416821F020014160206C20F480708A
:101870002064206CC00403D4206C40F0010020647C
:101880002046FFF7B5FF21686FF01200086016F0E0
:10189000040F05F0800132D089B3206CC00603D458
:1018A000206C40F4005020642068816811F4401FCF
:1018B0001ED1816B11F4401F02D08168490517D4F5
:1018C0004168490514D4816811F0405F10D1217E30
:1018D00071B9416821F080014160206C20F4805092
:1018E0002064206CC00503D4206C40F0010020640B
:1018F0002046FFF7D5FE21686FF00C00086016F057
:10190000010F05F040010FD071B120680068C007D9
:101910000AD0206C40F480302064204600F043F868
:1019200021686FF00100086016F0200F05F080615B
:101930000ED000290CD0606C40F00200606420687A
:101940006FF0200505602046FFF76BFF20680560FB
:1019500070BD70B504004FF0000503D0206C002668
:1019600010B107E0012070BD204600F01DF866644C
:1019700084F83C60206CC00610D4206C20F48850A1
:1019800040F0020020642046FFF7C6F86664206C31
:1019900020F0020040F00100206400E0012584F8FE
:1019A0003C60284670BD70472DE9F04F87B0064671
:1019B00014216846FEF7B0FC5148504B32680024B1
:1019C0004F49143803254F4F4FF480684FF4805926
:1019D0004FF4804A4FF4807B9A423BD10A6842F42C
:1019E00080720A60096801F480710591016841F014
:1019F00004010160016801F004010591016841F0F2
:101A0000020101600068694600F00200059037207D
:101A1000CDE9000502943C4800F0A8FF0120CDE983
:101A2000000569460294384600F0A0FF384D37485B
:101A3000E5E802044FF4803010C5A5E8100F65E812
:101A40000804334800F0DEFE08B1FFF71BFCB56365
:101A5000AE6347E02F4B9A424CD10A6842F40072C1
:101A60000A60096801F400710591016841F0010103
:101A70000160016801F001010591016841F0020176
:101A800001600068694600F0020005901020CDE971
:101A900000050294204800F069FF0220CDE900050E
:101AA00069460294384600F061FF194F17486037C5
:101AB000303038604FF00070C7E901044012C7E9C8
:101AC00007B0042007F10C02786282E81007C7E92A
:101AD0000A5438463C6300F095FE08B1FFF7D2FB8C
:101AE000B763BE6300220221122001F011F9122017
:101AF00001F000F907B0BDE8F08F000000200140C0
:101B000044380240000402400008024010640240D1
:101B1000480F00200021014000000240F8B50446B3
:101B200000200E46009094F83C10012907D00121B6
:101B300084F83C1021688B68DB0702D011E002209A
:101B4000F8BD8B6843F001038B604049404B096846
:101B5000B1FBF3F101EB410100E0491E00910029C6
:101B6000FBD121688B68DB0503D58B6823F4807378
:101B70008B6021688B68DB075DD0236C40F20165C8
:101B8000AB4343F4807323644968490505D5216C50
:101B900021F4005141F480512164216CC90404D521
:101BA000616C21F00601616400E0606484F83C002F
:101BB000A16B2948274DC863A16B28480864A16B15
:101BC0002748C86421686FF02200086020684168D7
:101BD00041F0806141602068816841F480718160DA
:101BE0002168134632464C31A06B00F075FE6868E0
:101BF0001C49C006206806D0884224D1816811F0B3
:101C0000405F13D01FE08842F8D0174A904203D1BA
:101C1000D1F80423D206F1D0144A904213D1D1F85E
:101C2000041301F01F011029E8D30CE0816841F092
:101C30008041816007E0206C40F010002064606CFF
:101C400040F0010060640020F8BD0000E8020020C0
:101C500040420F00002301406D0A0008F10A00080D
:101C6000DB0A000800200140002101400022014061
:101C700018B50021009190F83C20012A07D00122DC
:101C800080F83C2002689368DB0702D011E0022054
:101C900018BD936843F001039360314A314B1268D9
:101CA000B2FBF3F202EB420200E0521E0092002A65
:101CB000FBD102689368DB0747D0036C40F20164F4
:101CC000A34343F48073036453685B0505D5036C39
:101CD00023F4005343F480530364036CDB0404D502
:101CE000436C23F00603436400E0416480F83C1039
:101CF0001D4B6FF02201116001684A681B4C2243A2
:101D00004A6059680068CA06194906D0884224D139
:101D1000816811F0405F13D01FE08842F8D0154A67
:101D2000904203D1D1F80423D206F1D0124A904256
:101D300013D1D1F8041301F01F011029E8D30CE0EE
:101D4000816841F08041816007E0016C41F0100141
:101D50000164416C41F001014164002018BD0000A4
:101D6000E802002040420F00002301402000000450
:101D700000200140002101400022014010B504462E
:101D8000002094F83C1001290CD0012184F83C106B
:101D900021688A6822F001028A6021688A68D20775
:101DA00002D01DE0022010BD8A6822F480728A6091
:101DB000A16B91F83520022A07D1084600F0F5FB07
:101DC00018B1216C41F04001216421684A6822F079
:101DD00080624A60216C21F4885141F00101216444
:101DE000002184F83C1010BD90F82020012A07D073
:101DF000022A05D0416A41F48021416201207047E6
:101E0000006842690A43426100207047F0B590F8CB
:101E100020500468A468012D05D0022D03D0416A2A
:101E200041F480215DE014F0406F01D1E50055D50B
:101E3000C4F30164022C03D9416A41F4000150E06B
:101E40000125A5401D608D684FF4C0739DB1CE681B
:101E500035434E6845EAC605066803EB0417F5519D
:101E60004FF4C275076805EB04150E697E51097DB4
:101E7000012905D009E00E88CD6845EA4655EBE713
:101E800001684E5946F480764E511179D5795679CC
:101E900041EA056195792D0445EA062529434FF469
:101EA000C676056806EB0416A9511178D57841EA83
:101EB0000561957852782D0445EA022211434FF4CA
:101EC000C475026805EB04155151006803EB041159
:101ED000425842F0010242500020F0BD416A41F4F4
:101EE000001141620120F0BD10B590F82020012AB8
:101EF00007D0022A05D0416A41F4802141620120C5
:101F000010BD3B48D0F8002242F00102C0F8002288
:101F1000D0F8002222F47C52C0F80022D0F800222F
:101F20004B6A42EA0322C0F800220A7D02F01F0336
:101F300001229A40D0F81C329343C0F81C32CB697E
:101F4000B3B9D0F80C329343C0F80C328C894B688B
:101F500064F31F434C6900EBC404C4F840320C899D
:101F60000B6864F31F434C6900EBC404C4F84432AB
:101F7000CB69012B16D1D0F80C321343C0F80C32C8
:101F80000C884B6864F31F434C6900EBC404C4F82D
:101F900040320C89CB6864F31F434C6900EBC404E6
:101FA000C4F844328B69002BD0F804320ED01343AE
:101FB000C0F804320B69002BD0F8143208D0134358
:101FC000C0F81432096A012904D008E09343EFE70E
:101FD0009343F5E7D0F81C121143C0F81C12D0F857
:101FE000001221F00101C0F80012002010BD000015
:101FF00000640040704730B590F82040012C05D0B7
:10200000022C03D0416A41F480215DE0046800297C
:1020100055D02469A40754D04FF4D874056804EB54
:1020200001142D5915F00405956005682D594ED001
:10203000ED08556005682C5904F00204D4604FF493
:10204000DA74056804EB01142D5905F00F051561CC
:1020500005682D59C5F30725956105682C59240C91
:1020600054614FF4DC72046802EB0112A4581C7036
:102070000468A458240A5C700468A458240C9C705A
:102080000468A258120EDA704FF4DE72046802EB94
:102090000112A4581C710468A458240A5C710468D5
:1020A000A458240C9C710468A258120EDA710068BE
:1020B00081B1016941F020010161002030BDE46877
:1020C000A8E7416A41F400114162012030BD6D0D65
:1020D0001560AFE7C16841F02001C160EDE702463D
:1020E000002092F82010012901D002290CD111689A
:1020F0008A68520100D501208A68120100D5401C6F
:102100008968C90000D5401C70472DE9F05F05467D
:10211000006800244669D0F804908768D0F80CB0B5
:10212000D0F810A0D0F81880F10748D0F90714D0E3
:1021300001218160B80703D5284600F030FA0CE091
:10214000780702D54FF4006407E0380702D54FF452
:10215000805402E0284600F021FAF80516D52968D7
:102160004FF480708860B80503D5284600F019FA4E
:102170000CE0780502D544F4005407E0380502D598
:1021800044F4804402E0284600F00AFAF80316D529
:1021900029684FF480308860B80303D5284600F0E2
:1021A00002FA0CE0780302D544F4004407E0380357
:1021B00002D544F4803402E0284600F0F3F93007F9
:1021C00007D55FEACB6004D52968102044F4007479
:1021D000C86070074FF0080707D55FEA0B7004D599
:1021E0002868C760284600F061F9B00706D528685E
:1021F000C068800702D0284600F05AF9700607D55B
:102200005FEACA6004D52968102044F4806408613C
:10221000B00607D55FEA0A7004D52868076128462A
:1022200000F08CF9F00606D528680069800702D016
:10223000284600F084F9B00308D55FEAC96005D5E7
:10224000296810204860284600F07AF9F00307D585
:102250005FEA097004D528684760284600F0A4F9B1
:10226000300446D55FEA497040D5F00504D55FEAF1
:10227000C87001D044F00104B00504D55FEA88704D
:1022800001D544F00204700504D55FEA487001D519
:1022900044F00404300529D518F0700F26D008F05A
:1022A0007000402815D006DC102809D020280AD05C
:1022B000302816D10AE050280ED0602811D10EE047
:1022C00044F008040DE044F010040AE044F0200457
:1022D00007E044F0400404E044F0800401E044F4EA
:1022E00080742868816921F0700181612968042067
:1022F0004860002C05D0686A204368622846FFF7D2
:1023000079FEBDE8F09F70B5040003D094F820007A
:1023100010B104E0012070BD204600F081F8206873
:10232000016841F00101016000F022FC054605262C
:1023300004E000F01DFC401B0A2811D8206840680A
:10234000C007F6D02068016821F00201016000F0AA
:102350000FFC05460BE000F00BFC401B0A2806D9D9
:10236000606A40F40030606284F82060D2E7206840
:1023700040688007EFD4207E0128206801683DD0A6
:1023800021F080010160607E01282068016838D05A
:1023900021F040010160A07E01282068016833D04F
:1023A00021F020010160E07E0128206801682ED024
:1023B00041F010010160207F01282068016829D0C8
:1023C00021F008010160607F01282068016824D0A5
:1023D00021F004010160D4E902010843D4E90412A8
:1023E000114308436168491E08432168C861002001
:1023F0006062012084F82000002070BD41F080015F
:10240000C0E741F04001C5E741F02001CAE721F0F3
:102410001001CFE741F00801D4E741F00401D9E70A
:1024200010B586B0044614216846FDF775FF1C49B7
:102430002068884231D11B480021026842F00072B6
:102440000260006800F000700590164810380268BD
:1024500042F001020260006800F0010005904FF4B4
:10246000C05000900220CDE9010103200390092013
:10247000049069460C4800F079FA002202211320EA
:1024800000F046FC132000F035FC0022022114204D
:1024900000F03EFC142000F02DFC06B010BD000042
:1024A00000640040403802400000024070470000D5
:1024B00070B500681D4A0021904236D11C4C0020A6
:1024C0001C4D20606060A0602061E0606061A061E0
:1024D0006854491CC9B20829FAD3164B144A002182
:1024E0001548FFF788FD134E2068A53E132802D03B
:1024F000502815D107E0A06890B9206901280FD1B4
:102500002878B0700CE0A06850B92069082807D17D
:102510000821084806F01AFF0121F06F09F014FCA9
:10252000306FBDE8704009F007BE70BD0064004028
:1025300090040020B1000020301000207047704748
:102540007047000070B5044690F82000012804D0C0
:10255000606A40F40020606218E0022084F82000E5
:102560002068016821F00101016000F001FB0546CF
:102570000EE000BF00F0FCFA401B0A2808D9606A90
:1025800040F400306062052084F82000012070BD16
:1025900020684068C007EDD1606270BD7047704729
:1025A000704770477047704770472DE9F041044607
:1025B000876D00F0DDFA064694F835000025022804
:1025C00006D08020606584F834500120BDE8F08199
:1025D0002068016821F0160101602068416921F03E
:1025E00080014161206C08B9A06C20B120680168AD
:1025F00021F0080101602068016821F001010160FB
:102600000CE000F0B5FA801B052807D92020606592
:10261000032084F8350084F83450D7E72068006838
:10262000C007EED194F85C103F208840B8600120CC
:1026300084F8350084F834500020C7E790F835104E
:10264000022903D08021416501207047052180F8CF
:1026500035100068016821F0010101600020704719
:10266000406D70472DE9F84304464FF00009CDF85E
:10267000009063484FF41651A56D0068B0FBF1F768
:102680002E6894F85C10082000FA01F131420FD056
:1026900021680A6852070BD50A6822F004020A6012
:1026A00094F85C108840A860606D40F0010060659F
:1026B00094F85C104FF0010808FA01F0304208D09D
:1026C00021684969090604D5A860606D40F00200E0
:1026D000606594F85C1004208840304208D021687E
:1026E0000968890704D5A860606D40F00400606542
:1026F00094F85C1010208840304218D02168096896
:10270000090714D5A86020680168490304D500684A
:10271000000308D5A16C07E00168C90503D401686E
:1027200021F008010160216C09B12046884794F826
:102730005C1020208840304231D021680968C906E9
:102740002DD5A86094F8350005282068016806D0CA
:10275000490347D5006800031DD4616C1CE021F0DB
:10276000160101602068416921F080014161206CFF
:1027700008B9A06C20B12068016821F0080101604F
:1027800094F85C103F208840A86084F8358084F875
:102790003490216D1FE0E16B09B120468847606DE0
:1027A00000282BD0606DC00714D0052084F83500B8
:1027B0002068016821F0010101600098401C009030
:1027C000B84203D820680068C007F6D184F8358085
:1027D00084F83490E16C002910D001B02046BDE8A7
:1027E000F04308470168C905D5D4016821F01001FC
:1027F000016084F8358084F83490CCE7BDE8F88334
:10280000E80200202DE9F041044600F0B1F9064647
:102810005CB1022084F83500002584F8345020682B
:10282000016821F0010101600DE00120BDE8F081A7
:1028300000F09EF9801B052805D920206065032043
:1028400084F83500F2E720680068C007F0D12268FC
:10285000116820480140D4E901031843D4E9033644
:102860003343184363691843A3691843E369184362
:10287000236A18430843616A042903D1D4E90B137E
:1028800019430843106020684069666A20F0070118
:1028900030460E43012704280CD1A06A0643E06AA3
:1028A00040B12046FEF736FC20B14020606584F838
:1028B0003570BAE7206846612046FEF717FC94F8A9
:1028C0005C203F2191408160656584F8357000206F
:1028D000ACE700003F8010F02DE9F0410446866D22
:1028E00090F83400002501280DD0012084F8340030
:1028F00094F835700020012F07D084F834000225A9
:102900002846BDE8F0810220FBE7022784F83570F5
:1029100060652046FEF728FC94F85C103F20884054
:10292000B0602068016841F016010160206C20B1A0
:102930002068016841F0080101602068016841F0E9
:1029400001010160DCE7000070B5044600F010F9F9
:102950000546601C02D004480078044400F008F9E1
:10296000401BA042FAD370BDDC0200202DE9F84FD5
:10297000DFF8BCA10022012503264FF00F090AF160
:10298000040BAAF1040E00BF0B6805FA02F4234001
:10299000A34270D10F7907F00307012F01D0022F56
:1029A00016D187684FEA420806FA08FC27EA0C07A6
:1029B000D1F80CC00CFA08FC4CEA070CC0F808C0AF
:1029C0004768A7430C79C4F3001494403C43446027
:1029D0000C79E443A4070AD0C4684FEA420C06FA13
:1029E0000CF7BC438F6807FA0CF72743C7600C79D4
:1029F00004F00304022C12D1D40800EB840CDCF8A0
:102A000020405707FF0E09FA07F824EA0804D1F816
:102A1000108008FA07F848EA0408CCF82080046817
:102A20004FEA420C06FA0CF7BC430F7907F0030794
:102A300007FA0CF7274307604C6814F4403F70D046
:102A40003C4C276847F480472760246822F003073E
:102A500004F480440094384C07EB040CDCF808487C
:102A600097074FEA177809FA08F7BC43334FB84283
:102A700002D1002724E054E0314FB84201D10127B0
:102A80001EE0304FB84201D1022719E02E4FB84264
:102A900001D1032714E02D4FB84201D104270FE0E4
:102AA0002B4FB84201D105270AE02A4FB84201D185
:102AB000062705E0284FB84201D1072700E0082784
:102AC00007FA08F72743CCF80878DAF800405746A9
:102AD000D1F804C09C435FEACC2C00D51C433C6079
:102AE000DBF800405F46D1F804C09C435FEA8C2CC1
:102AF00000D51C433C60DEF800407746D1F804C0A6
:102B00009C435FEA8C3C00D51C433C60084F083F67
:102B10003C68D1F804C09C435FEACC3C00D51C4320
:102B20003C60521C102AFFF42FAFBDE8F88F000064
:102B3000083C01404438024000300140000002409F
:102B40000004024000080240000C02400010024055
:102B50000014024000180240001C024000690840B6
:102B600000D0012070470AB1816170470904FBE77A
:102B70000148806870470000DC02002070B5040046
:102B800011D021684CF6CC400860216845F25550C0
:102B90000860D4E9000141602168A0688860FFF7FF
:102BA000E7FF05460DE0012070BD00BFFFF7E0FF25
:102BB000401B312805D92068C068800701D0032058
:102BC00070BD2068C0688007F0D121684AF6AA204D
:102BD0000860002070BD000002488168027811443E
:102BE00081607047DC0200200B4810B5016841F499
:102BF00000710160016841F480610160016841F485
:102C000080710160032000F0A3F80F2000F006F8A7
:102C100000F04AF8002010BD003C024030B50546E7
:102C20001C4887B00024016841F001010160006880
:102C300006A900F00100009001A800F0D3F900F00F
:102C400001FA15494000B0FBF1F11548134A491E3D
:102C5000026040F2E732C0E90324C0E90114846154
:102C600001F0A6F9040012D10D4801F08DFA04001C
:102C70000DD1192000F03EF8102D07D20022294670
:102C8000192000F045F80748056000E0012407B06E
:102C9000204630BD4438024040420F000000014051
:102CA000F0350020E0020020114808B5016841F429
:102CB00080410160006800F4804000900C48001FD3
:102CC000016841F0805101600068002200F08050EE
:102CD00000900F21901E00F01BF8002202215120CD
:102CE00000F016F8BDE80840512000F003B80000DD
:102CF00044380240002809DB00F01F020121914006
:102D00004009800000F1E020C0F800117047000089
:102D1000F0B40E4B1B680C46C3F30223C3F1070546
:102D2000042D00D90425191D072901D2002300E034
:102D3000DB1E012606FA05F1491E214099409E40FE
:102D4000761E16403143F0BC06F076BE0CED00E076
:102D5000064900F0070208684FF6FF03184040EAF2
:102D60000220034A10430860704700000CED00E0A9
:102D70000000FA052DE9F843054600684FF0010907
:102D8000C1074FF0000601D1400727D5DFF80C81BD
:102D9000C8F86860FFF7ECFE0746414C05E000BF4D
:102DA000FFF7E6FEC01B022857D820680001F7D4C1
:102DB00068688101287A41EA0070394984310860E5
:102DC000C8F86890FFF7D4FE074604E0FFF7D0FE8E
:102DD000C01B022841D820680001F7D52878800759
:102DE00052D52F484030016841F0805101600068A1
:102DF0002C4C00F080500090206840F480702060DF
:102E0000FFF7B6FE074604E0FFF7B2FEC01B02283C
:102E100023D82068C005F7D5214C7034206810F401
:102E2000407020D0A98901F4407181421BD02068F4
:102E30001D4920F44070C1F800900E6020602068A9
:102E4000C00710D0FFF794FE064641F2883707E02E
:102E5000FFF78EFE801BB84202D90320BDE8F8833D
:102E600020688007F4D5E9680D48C1F301220830D5
:102E7000032A0BD0016821F4F81101602068A989A8
:102E8000C1F30B01084320600020E7E70268074B0D
:102E900022F4F81219400A430260EFE700004742AB
:102EA0000038024000700040400E4742FFFCFF0F18
:102EB0002DE9F0470E46050065D0DFF81481D8F8FB
:102EC0000000F7B200F00700B04207D288F80070A7
:102ED000D8F8000000F00700B04254D128683D4CFB
:102EE000810712D5400703D5206840F4E0502060E8
:102EF0002878000703D5206840F4604020602068EF
:102F0000A96820F0F000084320602878C0072DD081
:102F1000304968680839012812D0022813D00328E4
:102F200011D00968890700292DDA216821F00301F1
:102F300001432160FFF71CFE814641F2883A0EE012
:102F400009688903EFE709688901ECE7FFF710FEDC
:102F5000A0EB0901514502D90320BDE8F0872068A4
:102F6000696800F00C00B0EB810FEFD1D8F80010C9
:102F7000404601F00701B14207D90770006800F030
:102F80000700B04201D00120E7E72878400705D5C7
:102F90002068E96820F4E0500843206028780007A2
:102FA00006D52068296920F4604040EAC10020600D
:102FB00000F058F82168084AC1F30311515CC84079
:102FC0000649086006480068FFF728FE0020C4E7AD
:102FD000003C024008380240A8EA0008E80200204D
:102FE000E00200200F2202600C4A136803F0030382
:102FF0004360136803F0F0038360136803F4E05345
:10300000C36012684FF4E05303EAD202026104483D
:10301000006800F0070008607047000008380240B0
:10302000003C02400448054900680968044AC1F3AD
:103030008221515CC8407047E802002008380240F5
:10304000B8EA00080448054900680968044AC1F361
:103050004231515CC8407047E80200200838024005
:10306000B8EA0008154810B5006810F00C021448C2
:1030700013D01449042A0FD0082A0ED10F4C241F54
:103080002268236802F03F025B0207D52068C0F384
:103090008810A0FB010106E0084610BD2168C1F3BD
:1030A0008811A1FB00010023FDF7ECF82168C1F3B2
:1030B0000141491C4900B0FBF1F010BD0838024045
:1030C0000024F40040787D012DE9F84F04006ED013
:1030D0002078DFF84C93C007A9F104054AD009F124
:1030E00004000168C1F38101012908D00068C0F320
:1030F000810002280AD1D9F80000400206D52868CC
:10310000800337D560680028E1D033E06068B0F50F
:10311000803F10D0B0F5A02F286810D020F4803068
:103120002860286820F4802028606068A8B1FFF734
:103130001FFD06460DE0286840F48030F4E740F4B7
:1031400080202860F7E700BFFFF712FD801B64288E
:1031500073D828688003F7D50CE0FFF709FD064611
:1031600005E000BFFFF704FD801B6428F0D8286845
:103170008003F7D42078DFF8AC8280074FF0000A94
:103180003ED5A748001D016811F00C0F08D000685B
:10319000C0F3810002280BD1D9F80000400207D407
:1031A0002868800716D5E068012800D112E033E1D5
:1031B000E068B8B10120C8F80000FFF7D9FC064666
:1031C00005E000BFFFF7D4FC801B0228C0D82868A8
:1031D0008007F7D52868216920F0F80040EAC1008F
:1031E00028600DE0C8F800A0FFF7C2FC064604E026
:1031F000FFF7BEFC801B02281FD828688007F7D481
:103200002078000722D5864F87486169703771B1F1
:1032100001210160FFF7ACFC064604E0FFF7A8FCC3
:10322000801B022809D838688007F7D50EE0C0F85F
:1032300000A0FFF79DFC064605E082E0FFF798FC42
:10324000801B02287DD838688007F7D42078400793
:1032500068D5DFF8CCB100270BF13C0BDBF80000A0
:10326000C0000BD4DBF8001041F08051CBF8001007
:10327000DBF80000012700F0805000906B4E3068B2
:10328000C00510D4306840F480703060FFF770FCE7
:10329000009005E0FFF76CFC0099401A022850D816
:1032A0003068C005F6D55E4EA0686C3601280FD098
:1032B0000528306810D020F001003060306820F020
:1032C00004003060A068B8B1FFF752FC00900FE036
:1032D000306840F00100F4E740F004003060F7E7A8
:1032E000FFF746FC0099411A41F28830814266D8C6
:1032F00030688007F4D50EE0FFF73AFC009007E055
:10330000FFF736FC0099411A41F28830814256D8C5
:1033100030688007F4D42FB1DBF8001021F0805121
:10332000CBF80010A069C8B33D49091D0968C1F375
:10333000810102294AD00228504607D0C8F860000F
:1033400000E03CE0FFF714FC04463BE04746C8F8C9
:103350006000FFF70DFC064605E000BFFFF708FC24
:10336000801B02282BD828688001F7D4D4E90701F4
:103370000843A16A2E4A490802EB0141626A41EA08
:103380008211084394F82C1040EA0161C9F800103A
:1033900001203866FFF7ECFB044606E03EE000BF84
:1033A000FFF7E6FB001B022809D828688001F7D543
:1033B00034E000BFFFF7DCFB001B022802D903202A
:1033C000BDE8F88F28688001F4D427E00128F7D001
:1033D000D9F80000E26900F4800191421CD1226A10
:1033E00000F03F01914217D147F6C071626A014077
:1033F000B1EB821F10D1A26A4FF0FF3300F44031CD
:1034000003EB5202B1EB024F06D194F82C1000F0FE
:103410007060B0EB016F01D00120D1E70020CFE751
:103420000438024000004742800E474200700040CE
:103430000000FFFF10B5040002D0607F10B106E06D
:10344000012010BD00202077204600F039F802202E
:1034500060772168CA20486221685320486220466C
:1034600003F040FD30BB20688168144A1140816040
:103470002168886862681043D4E904231A43104322
:1034800088602168E068086120680169228941EA52
:1034900002410161204603F049FD58B921680A6CD8
:1034A00022F480220A6421680A6CA3691A430A6420
:1034B000012161772268FF21516210BDBFFF8FFF9C
:1034C0001FB5002100910191029103910068084904
:1034D00088420CD102200090000203906846FFF75A
:1034E00049FC08B1FDF7CEFE0249012008601FBD6E
:1034F000002800403C0E474270B50446007F0B4652
:10350000012819D00126267702206077B2B1987879
:10351000D97840EA014558781978000240EA4130EC
:1035200005432168CA20486221685320486220462A
:1035300003F0D8FCD0B122E0022070BD5878C1065B
:1035400003D500F0EF000A305870D87803F0BEFCC5
:103550000204587803F0BAFC42EA0022987803F09B
:10356000B5FC0243187842EA4035DAE707480540DF
:1035700020684560204603F0D9FC00B966772268D0
:10358000FF2151620021217770BD00003FFFFF0045
:103590002DE9F0410446007F0D46012823D04FF06D
:1035A000010884F81C80022060772068002780686A
:1035B0004FEA4060D2B1002800DBEF70A87829788C
:1035C00040EA01466878E978000240EA8150064303
:1035D0002168CA204862216853204862204603F0CF
:1035E00081FCB8B12CE00220BDE8F081002800DBAE
:1035F000EF70287803F06AFC0204687803F066FC38
:1036000042EA0022A87803F061FC0243E87842EA2B
:103610008056DDE70D480640206806602068816816
:1036200021F480218160D5E90301084321688A687B
:1036300010438860204603F079FC08B984F81D80A7
:103640002268FF2151622777CEE700007F7F7F004D
:1036500070B504460068C16821F0A001C160FFF7A1
:1036600087FA05464FF47A7607E000BFFFF780FA45
:10367000401BB04201D9032070BD2068C06880069D
:10368000F4D5002070BD10B5FDF7DAFA10BD704713
:1036900050F8742F120E0A700268120A4A800278DB
:1036A0004368120642EA13224A6002790A7282686B
:1036B000120E4A728268C368120242EA1362CA603A
:1036C000C268C2F303520A74C268C2F30B224A8270
:1036D000007BC0F346000875012048750020704744
:1036E000F0B5426E920F0A70426EC2F383624A7066
:1036F000426EC2F301628A70426E120CCA70B0F858
:103700006420120A0A7190F864204A71826E120DC8
:10371000CA80826EC2F303420A72B0F86820C2F314
:10372000C0324A72B0F86820C2F380328A72B0F8B0
:103730006820C2F34032CA72B0F86820C2F3003287
:103740000A7300264E73426C4FF40075012462B177
:10375000012A3AD0026847499163816B41F0805158
:10376000816380F834400120F0BDB0F86820C36E5A
:103770009205120D42EA93720A61C26EC2F3C262EE
:103780000A75C26EC2F302624A75C26EC2F3425239
:103790008A75C26EC2F38242CA75C26EC2F3C23269
:1037A0000A760A69521C42650B7E03F007039B1CD4
:1037B0009A4042650B7A03F00F0704FA07F383651A
:1037C0005B0A5A43C0E917250EE090F86820C36EE3
:1037D0009206920A42EA13420A610A69521C920254
:1037E0004265C0E91652056630F86C2FC2F380328C
:1037F00001F8192F0288C2F3C6124A70027802F04B
:103800007F028A704268D20FCA704268C2F3417266
:103810000A714268C2F382624A714268C2F38352FB
:103820008A714268C2F34052CA710E724268C2F392
:1038300000424A728288C2F3C0328A728288C2F31E
:103840008032CA728288C2F340320A738288C2F31D
:1038500000324A738288C2F381228A738288C2F35B
:103860000122CA730079C0F3460008744C7400202A
:10387000F0BD0000FF054000426C0A60826C4A60A7
:10388000C26C8A60026DCA60426D0A61826D4A61D3
:10389000C26D8A61006EC8610020704770B5044631
:1038A000B0F8500000250104206803F0A4FD18B111
:1038B000A16B0143A16304E00021206803F05EFCDA
:1038C0000546C5F3432070BDF8B5056B0446006896
:1038D000416B09041BD5290719D5D4E90A56002ED6
:1038E00014D00027206803F069FC05F8010B010AD9
:1038F00005F8011B010C05F8021B000E361F7F1C8A
:1039000005F8010C082FEDD3C4E90A56F8BD416B48
:103910004FF00006C9054FF0010744D53902816315
:103920002068C16B4CF23A329143C1632068C16A8E
:1039300021F00101C16228071DD515F0220F09D021
:10394000206803F089FD28B1A16B0143A1632046E3
:10395000FFF79DFE216840F23A50886384F8347086
:103960002663A80703D0204600F040FAF8BD2046A1
:1039700000F040FAF8BD2806FCD5A80609D5206855
:1039800003F06AFD28B1A16B0143A1632046FFF754
:103990007EFEA807EED12068C16A21F00801C1624D
:1039A00084F83470E3E7416B490424D5290722D514
:1039B000D4E90856002EDDD05FF0000715F8010BA2
:1039C000009015F8011B361F40EA0120009015F801
:1039D000021B40EA0140009015F8011C40EA01601A
:1039E00000906946206803F0FCFB7F1C082FE5D39C
:1039F000C4E90856F8BD416B40F23A221142F9D0B1
:103A0000416B890703D5A16B41F00201A163416BB2
:103A1000090703D5A16B41F00801A163416B890639
:103A200003D5A16B41F02001A163416BC90603D509
:103A3000A16B41F01001A163416B890503D5A16B16
:103A400041F00801A16340F23A7181632068C16BC3
:103A500040F23A329143C163206803F0FDFCA16B50
:103A60000843A063280706D584F8347026632046EF
:103A7000FFF70DFEF8BD2806FCD515F0300F0CD071
:103A8000E16B11480865E06BFEF7D8FD0028F1D026
:103A9000E06BBDE8F84003F013BFA8070CD0216C21
:103AA0000A480865206CFEF7C9FD0028E2D0206CAA
:103AB000BDE8F84003F0DBBEA66384F834702663EB
:103AC0002046FFF7E0FDF8BDC17800086F780008D8
:103AD00070B504000ED094F83400002518B925778D
:103AE000204600F04FF8032084F83400204600F010
:103AF0000BF808B1012070BDA5632563012084F88F
:103B00003400002070BD0000FEB50025044676207C
:103B10000095CDE9015029460B460A46206803F07E
:103B200037FB48BB154E46F8A05F206803F042FB08
:103B3000012535600220FEF707FF204603F098FFBD
:103B400030B100BF84F83450A16B0143A16313E08E
:103B5000204603F0D7FE0028F4D14FF4007120680E
:103B600003F078FB002808D0226805499163A16B17
:103B70000143A16384F834500120FEBD008025423A
:103B8000FF0540002DE9F04F87B005461421684637
:103B9000FCF7C2FB4649286888427DD14548006849
:103BA000444940F400600860086800F40060059033
:103BB0004048143800683F4940F004001439086058
:103BC000086800F004000590086840F008000860EC
:103BD0000868032600F0080005904FF48850009014
:103BE000022001900120CDE902060C2469460494CC
:103BF0003148FEF7BBFE04270220CDE9007001200A
:103C0000CDE90206694604942C48FEF7AFFE2D4C20
:103C10002B484FF00068C4E900080020A060E06075
:103C200038022061C4E90976800004F114014FF4E0
:103C300080494FF0200A4FF4803B81E8010EC60214
:103C400047022046C4E90B67FEF7DCFD08B1FDF72B
:103C500019FB2C64A5631B4C194860344830C4E937
:103C600000084020A0600020E0604FF480602061E8
:103C700004F11401800081E8010E04206062143117
:103C8000032081E8C1002046FEF7BCFD08B1FDF726
:103C9000F9FAEC63002200E007E002213120A5637D
:103CA000FFF736F83120FFF725F807B0BDE8F08FB1
:103CB000002C01404438024000080240000C024041
:103CC00058640240743100202DE9F04786B01F4649
:103CD0000446154639B194F83400012807D0022073
:103CE00006B0BDE8F087A06B40F0006008E000205F
:103CF000A063E36DEA199A4204D9A06B40F000700A
:103D0000A06369E0032284F8342022688146D062EF
:103D10002268D36B40F22A363343D363236C2F4A95
:103D2000DA63236C2E4ADA64226C1065226C906090
:103D3000206C0068026822F0C002026020680A4617
:103D4000266C4FEA472800F180014FEA980330467D
:103D5000FEF7C2FDDFF88CA0012670B12068C16BB0
:103D600021F49571C1632168C1F838A0A06B40F0BF
:103D70008040A06384F834602EE01B480660606CCD
:103D8000012800D06D024FF0FF30CDE900089020EF
:103D9000029002200596CDE903096946206803F0E8
:103DA000D7F9012F06D9822020632946206803F025
:103DB000ABFA05E0812020632946206803F0BDFAB4
:103DC00000288DD02268C2F838A0A16B0143A163FE
:103DD00084F83460C4F83090012081E72D78000821
:103DE000C9770008FF0540008C85254210B5FCF717
:103DF0005FFF10BD10B5FCF777FF10BD2DE9F04F48
:103E00005FEA010B87B01E460446114607D094F8BE
:103E10003400012807D0022007B0BDE8F08FA06B66
:103E200040F0006008E00025A563E26D881990422B
:103E300004D9A06B40F00070A06356E0032084F822
:103E400034002068C5622068C26B40F21A2942EA39
:103E50000902C263E26B2D48D063E26B2C48D06448
:103E6000E06B0565606C012800D049024FF09008B6
:103E7000012E05D9A0202063206803F007FB04E091
:103E8000C4F83080206803F01AFBDFF888A001270F
:103E900030B12268C2F838A0A16B0143A16321E0D0
:103EA0001D480760E16B40208860E06B0068016896
:103EB00021F0C00141F04001016022687602B308A0
:103EC00059468032E06BFEF707FD80B12068C16B78
:103ED00021EA0901C1632168C1F838A0A06B40F054
:103EE0008040A06384F834702563012094E74FF08C
:103EF000FF30CDE90006CDE90285CDE904576946DA
:103F0000206803F025F9002086E70000B378000858
:103F1000C9770008FF0540008C852542704770472F
:103F200070B590F83C20012A32D0012480F83C4042
:103F3000022280F83D2003685A689D6822F07006CE
:103F40000A6832435A60134B02689A4214D0B2F1A5
:103F5000804F11D0104B9A420ED0104B9A420BD08A
:103F60000F4B9A4208D00F4B9A4205D00E4B9A4203
:103F700002D00E4B9A4204D1496825F080031943C0
:103F8000916080F83D40002180F83C10084670BDEB
:103F9000022070BD00000140000400400008004005
:103FA000000C0040000401400040014000180040A7
:103FB00010B5040003D094F83D0010B107E00120D3
:103FC00010BD002084F83C00204600F01FF80220BD
:103FD00084F83D00211D206803F070FF012084F863
:103FE000460084F83E0084F83F0084F8400084F8DE
:103FF000410084F8420084F8430084F8440084F8C7
:10400000450084F83D00002010BD0000F0B587B0E9
:10401000044614216846FCF77FF9544A25680024B9
:104020005249103A022301265148B5F1804F25D05C
:10403000504FBD4241D10D6845F002050D60096841
:1040400001F002010591116841F001011160116850
:1040500001F001010591C0218DE81A00CDE903436B
:104060006946FEF783FC002202211D20FEF750FE68
:104070005FF01D00FEF73EFE07B0F0BD0D6845F095
:1040800001050D60096801F001010591116841F019
:1040900001011160116801F00101059122218DE8F3
:1040A0001A00CDE903466946FEF760FC00220221B2
:1040B0001C20FEF72DFE1C20DCE72F4FBD421ED139
:1040C0000D6845F008050D60096801F008010591CB
:1040D000116841F00101116011680096CDE90134C9
:1040E00001F00101CDE9043103946946FEF73EFC7D
:1040F000002202213220FEF70BFE3220BAE71F48D1
:1041000085420ED1086840F020000860086800224F
:1041100000F02000059002213720FEF7F9FD37203E
:10412000A8E7174885420ED1086840F08000086073
:104130000868002200F08000059002212C20FEF784
:10414000E7FD2C2096E70F48854295D1086840F49A
:10415000807008600868002200F4807005900221D9
:104160002D20FEF7D5FD2D2084E7000040380240C9
:104170000000024000040040000C00400014004019
:10418000001C00400020004090F83D10012901D0A3
:1041900001207047022180F83D100168CA6842F092
:1041A0000102CA6000681149884214D0B0F1804F02
:1041B00011D00F4988420ED00E4988420BD00E49CB
:1041C000884208D00D49884205D00D49884202D066
:1041D0000C49884204D1816801F00701062903D007
:1041E000016841F0010101600020704700000140BA
:1041F0000004004000080040000C004000040140A2
:10420000004001400018004070B5044690F83C00A2
:104210000025012817D0012684F83C60022084F88C
:104220003D002068826822F0770222F47F4282609B
:104230000868502838D00DDC20284FD005DC90B31A
:10424000102811D14AE0022070BD302846D0402805
:104250000AD13BE060282FD070280DD0B0F5805FE8
:1042600003D0B0F5005F12D0012584F83D60002036
:1042700084F83C00284670BDCB68D1E90121206854
:1042800003F08DFE2068816841F0770109E0CB687A
:10429000D1E90121206803F082FE2068816841F4A1
:1042A00080418160E1E719E0CA684968206803F04D
:1042B00088FE5021206806E0CA684968206803F03B
:1042C000D1FE6021206803F074FECEE7CA68496819
:1042D000206803F076FE40212068F4E7226801465A
:1042E0001046F0E72DE9F05F07460068974CDFF8CD
:1042F00058A20125002604F18008B0F1804F6ED14C
:10430000DFF84C9299F80100012802D1A069401C05
:10431000A061DFF83CB20BF1180B9BF801000128FB
:1043200002D1E069401CE06102215046FEF716FC14
:10433000012826D1A9F8066099F80000B0B104213F
:10434000384600F055FAA169C9F808103968496A79
:10435000D9F81020891AC9F80C10A56189F80160F4
:104360000121D8F8040007F0EFFC0AE099F80310E7
:10437000484631B9C570457076490968496A016196
:10438000857020215046FEF7E9FB012827D1D94648
:10439000ABF806609BF80000B0B10021384600F091
:1043A00027FAE169C9F808103968496AD9F8102074
:1043B000891AC9F80C10E56189F801600221D8F862
:1043C000040007F0C1FC0AE099F80310484631B92F
:1043D000C57045705F490968496A016185705E4929
:1043E000386888423AD1DFF8689109F1300999F8C4
:1043F0000100012802D1206A401C206201215046A0
:10440000FEF7ACFB012829D1A9F8066099F8000055
:10441000DFF848B1B8B10021584600F0E9F9216A47
:10442000C9F80810DBF80010496AD9F81020891A79
:10443000C9F80C10256289F801600421D8F804003D
:1044400007F082FC0AE099F80310484631B9C570BC
:104450004570DBF80010496A016185704049386891
:1044600088426ED1DFF8E89009F1480999F8010017
:10447000012802D1606A401C6062DFF8D4B00BF101
:10448000600B9BF80100012802D1A06A401CA062C9
:1044900080215046FEF762FB324F012825D1A9F852
:1044A000066099F80000B0B10421384600F0A0F988
:1044B000616AC9F808103968496AD9F81020891A60
:1044C000C9F80C10656289F801600821D8F8040069
:1044D00007F03AFC09E099F80310484629B9C5707D
:1044E00045703968496A0161857040215046FEF780
:1044F00035FB012825D13046B1465E46ABF80600B3
:104500009BF80000A0B10021164800F071F9A06AE4
:10451000B0603868406A3169401AF060A56286F878
:104520000190D8F80400BDE8F05F102107F00CBC42
:10453000F078002805D1F57075703868406A3061F0
:10454000B570BDE8F09F0000000002400C000020A4
:104550001804002034320020000C0040C432002037
:10456000000400407C3200202DE9F041054690F81F
:104570003C0000260C46012810D0012085F83C00A4
:1045800072B1042A1CD0082A2CD00C2A50D0012643
:10459000002085F83C003046BDE8F0810220FBE7B2
:1045A000D4E90012E368286803F01CFD28688169DB
:1045B00021F00C01816128688169A26811430FE034
:1045C000D4E90012E368286803F05EFD2868816979
:1045D00021F44061816128688169A26841EA022171
:1045E0008161D5E72868D4E9002C277B016A21F492
:1045F00080710162C169036A21F0030141EA0C0183
:1046000021F0F00C39074FF420674CEA116123F4D4
:10461000206307EA02221A43C16102622868C16965
:1046200021F00C01C1612868C169A268114328E02A
:104630002868D4E90027E168036A23F48053036201
:10464000D0F81CC0036A2CF4407C4CEA07274FF6D4
:10465000FF7C27F470470CEA013139434FF42047BF
:1046600023F4204307EA02321A43C1610262286838
:10467000C16921F44061C1612868C169A26841EA49
:104680000221C16184E710B5040003D094F83D0015
:1046900010B107E0012010BD002084F83C00204646
:1046A00000F01EF8022084F83D00211D206803F070
:1046B00005FC012084F8460084F83E0084F83F00A1
:1046C00084F8400084F8410084F8420084F84300F4
:1046D00084F8440084F8450084F83D00002010BDB3
:1046E0007047000030B50446002551B104290DD0B3
:1046F000082910D094F8410094F84520012811D1E0
:104700000EE094F83E0094F84220F7E794F83F005A
:1047100094F84320F2E794F8400094F84420EDE741
:10472000012A01D0012030BD022059B1042912D044
:10473000082919D084F8410084F845000C2944D098
:10474000012540E084F83E0084F842002068C268F9
:1047500042F0020210E084F83F0084F84300206831
:10476000C26842F0040207E084F8400084F8440084
:104770002068C26842F00802C2600122206803F08B
:1047800001FC14492068884214D0B0F1804F11D048
:10479000114988420ED0114988420BD010498842F5
:1047A00008D01049884205D00F49884202D00F49ED
:1047B000884204D1816801F00701062903D001680D
:1047C00041F001010160284630BD2068C26842F016
:1047D0001002D1E700000140000400400008004042
:1047E000000C00400004014000400140001800405F
:1047F00070B50D0004464FF0000607D0042D0AD016
:10480000082D0DD00C2D10D001262FE02068C16896
:1048100021F002010DE02068C16821F0040108E0E8
:104820002068C16821F0080103E02068C16821F018
:104830001001C16000222946206803F0A3FB206814
:10484000016A41F21112114207D1016A921011421C
:1048500003D1016821F001010160012045B1042D5F
:1048600009D0082D0AD004F8410F2071304670BDE0
:1048700004F83E0FF9E704F83F0FF6E704F8400F9D
:10488000F3E770B50446006801694FF00005C943BD
:10489000890715D4C168C943890711D4E91E01618C
:1048A00001202077206880698007204602D0FFF72A
:1048B00019FD04E000F098F8204600F096F82577FE
:1048C00020680169C943490717D4C168C94349072A
:1048D00013D46FF004010161022020772068806901
:1048E00010F4407F204602D0FFF7FCFC04E000F00B
:1048F0007BF8204600F079F8257720680169C943E4
:10490000090716D4C168C943090712D46FF008011A
:104910000161042020772068C0698007204602D00A
:10492000FFF7E0FC04E000F05FF8204600F05DF8DF
:10493000257720680169C943C90617D4C168C943EE
:10494000C90613D46FF01001016108202077206898
:10495000C06910F4407F204602D0FFF7C3FC04E09A
:1049600000F042F8204600F040F825772068016901
:10497000C943C90708D1C168C943C90704D1891E01
:104980000161204600F032F820680169C943090638
:1049900009D4C168C943090605D46FF080010161DB
:1049A0002046FFF7BBFA20680169C943490609D4CC
:1049B000C168C943490605D46FF040010161204632
:1049C00000F0D6F820680169C94389060BD4C16894
:1049D000C943890607D46FF0200101612046BDE874
:1049E0007040FFF79CBA70BD7047704770B50446C1
:1049F00000685149884201D1FEF7EEF84F4A20681D
:104A000001230021904267D14D4882784FF496757A
:104A10004FF448764AB18288521C82808288AA422A
:104A20000AD381808170037006E0C288521CC28064
:104A3000C288B24200D38182424A907848B19088BD
:104A4000401C90809088A8420AD391709180137086
:104A500006E0D088401CD080D088B04200D391823C
:104A6000394882784AB18288521C82808288AA4260
:104A70000AD381708180037006E0C288521CC28014
:104A8000C288B24200D38182304A907848B190887F
:104A9000401C90809088A8420AD391709180137036
:104AA00006E0D088401CD080D088B04200D39182EC
:104AB000274882784AB18288521C82808288AA4222
:104AC0000AD381708180037006E0C288521CC280C4
:104AD000C288B24200D381821E4D22681E48AA427B
:104AE00001D1037043701D4B9A4213D11C4A1388A5
:104AF00043F4004313801B4A1268136A41F21115F4
:104B00002B4207D1136AAD102B4203D1136823F057
:104B100001031360144B22689A420BD18278521C15
:104B2000D2B282700A2A05D3104B1A780AB1521EEB
:104B30001A70817070BD000000000140002000402C
:104B400018040020300400204804002060040020E5
:104B50007804002000040040000000200014004001
:104B60001A0000200C330020001C00400F00002021
:104B70007047704770B5044620680C3050E8001F3D
:104B800021F4907140E80012002AF5D12068143019
:104B900050E8001F21F0010140E80012002AF5D181
:104BA000206B012809D120680C3050E8001F21F04B
:104BB000100140E80012002AF5D1206840694FF04A
:104BC0000005400615D52068143050E8001F21F07C
:104BD000400140E80012002AF5D1A06B48B10565FC
:104BE000A06BFDF7E2FC20B1A06BFDF739FD20289A
:104BF00006D0E585202084F83E002563002070BDA6
:104C000010202064032070BD70470000F8B50168D3
:104C100004460868CA684B6910F00F0F4FF0000592
:104C200059D003F0010602F49077374365D0C107ED
:104C300005D0D10503D5216C41F001012164410764
:104C400005D5D90703D0216C41F002012164810709
:104C500005D5D90703D0216C41F004012164010777
:104C600007D502F02001314303D0216C41F0080147
:104C70002164216C00293AD0800604D5900602D523
:104C8000204604F072F820684069216CC0F380105F
:104C9000090700D460B3204604F032F82068406968
:104CA000400621D52068143050E8001F21F0400153
:104CB00040E80012002AF5D1A06BA8B16C4901654B
:104CC000A06BFDF7BBFC002811D0A06B016D01B0FB
:104CD000BDE8F040084783060FD593060DD5204662
:104CE000BDE8F84004F041B82046FFF78DFFF8BD5D
:104CF0002046FFF789FF2564F8BD266B2023012E8F
:104D000079D1C60677D5D60675D50868486800906B
:104D10004869400640D5A16B086840680004000C53
:104D2000EAD0A28D8242E7D9E085C869B0F5807FDC
:104D30002DD020680C3050E8001F21F4807140E82D
:104D40000012002AF5D12068143050E8001F21F02D
:104D5000010140E80012002AF5D12068143050E823
:104D6000001F21F0400140E80012002AF5D184F82C
:104D70003E30256320680C3050E8001F21F0100100
:104D800040E80012002AF5D1A06BFDF70EFCA08DC3
:104D9000E18D401A81B229E0A08DE18D401A81B2E7
:104DA000E08D0028A8D00029A6D020680C3050E85B
:104DB000002F22F4907240E80026002EF5D12068E2
:104DC000143050E8002F22F0010240E80026002EA7
:104DD000F5D184F83E30256320680C3050E8002F70
:104DE00022F0100240E80023002BF5D12046FFF707
:104DF000C0FEF8BDFFE705062BD5150629D594F8AA
:104E00003D002128F5D1A068B0F5805F01D120696F
:104E1000B0B1206A411C2162216800784860E08CB2
:104E2000401E0004000CE084E3D12068C16821F03A
:104E30008001C1602068C16841F04001C160D8E7CD
:104E4000206A0088C0F308004860206A801C206245
:104E5000E5E74006CDD55006CBD5CA68204622F0FE
:104E60004002CA6084F83D3000F0B5F9C1E70000A7
:104E70000B8C000870B5040004D094F83D000025A8
:104E800010B106E0012070BD84F83C50204600F0CF
:104E900023F8242084F83D002068C16821F40051E3
:104EA000C160204603F0C2FF2068016921F49041EF
:104EB00001612068416921F02A0141612068C168CF
:104EC00041F40051C1602564202084F83D0084F83D
:104ED0003E00002070BD00002DE9F04786B0064678
:104EE00014216846FBF718FA54490222D6F800C08C
:104EF0000024534803230725DFF848A197064FF401
:104F000080698C4534D14E491431D1F800C04CF041
:104F1000100CC1F800C0096801F01001059101688A
:104F200041F0010101600068694600F00100059050
:104F300058028DE81500CDE903355046FDF716FD02
:104F4000424D4148E5E802074020A5E811023F48EC
:104F500045F81449AC61EC612C626C62FDF752FCBF
:104F600008B1FCF78FF97563AE6306B0BDE8F08752
:104F70003349DFF8DC801031C44538D1D1F800C0A6
:104F80004CF4003CC1F800C0096801F400310591FF
:104F9000016841F0010101600068694600F001000C
:104FA00005900C208DE81500CDE903355046FDF73E
:104FB000DDFC264D274860352860C5E90174C5E948
:104FC00003496C614FF44030AC61C5E907402846A5
:104FD0006C62FDF717FC08B1FCF754F9B5630022C9
:104FE00005212620AE63FDF793FE262022E01A4E0F
:104FF000B445BAD10E6846F480260E60096801F403
:1050000080210591016841F0020101600068694654
:1050100000F0020005904FF440608DE81500CDE9E6
:1050200003350E48FDF7A2FC002205212720FDF7DD
:105030006FFE2720FDF75EFE97E70000001001409D
:105040003038024000000240B86402403035002091
:1050500000440040886002400048004000040240D4
:1050600090F83E30202B0ED159B152B190F83C301F
:10507000012B08D0012380F83C300023036303F0A8
:105080005BBF012070470220704790F83E30202B14
:105090000ED159B152B190F83C30012B08D0012308
:1050A00080F83C300023036303F090BF0120704779
:1050B0000220704700681449884224D11348C189EE
:1050C00009041BD4C189B1F5006F13D21049002225
:1050D0000B685A62C28922B909680A6842F0010263
:1050E0000A600C490A78C1890B4B0B44491CC181E9
:1050F0001A7003E0C18941F40041C18101220549D0
:105100000648FFF7C2BF7047004800400C0000206F
:105110000C330020D9020020A09C0020EC34002099
:10512000704700002DE9F843044690F83D001F4603
:1051300016460D4620284CD1C5B1BEB194F83C00AE
:10514000012846D0012084F83C004FF00008C4F844
:105150004080212084F83D00FDF70AFDA6848146A9
:10516000E684A068B0F5805F03D004E00120BDE8CC
:10517000F883206928B12E465FF0000584F83C8052
:105180000EE00026FAE78021204603F03CFFA0B99C
:10519000AEB116F8010B21684860E08C401EE08437
:1051A000E08C4B464FF0000200970028EBD14FF007
:1051B0004001204603F027FF30B10320D7E735F840
:1051C000020BC0F30800E6E7202084F83D00002031
:1051D000CDE70220CBE77047A6B0802104A8FBF7FB
:1051E0009BF81EA004F0EEFB322223A12D4805F00F
:1051F0004FFE010003D02CA004F0E4FBFEE7802169
:1052000004A8FBF789F8374890F8401090F843401D
:1052100090F8423090F841208DE81E0090F83F3021
:10522000B0F83D2030A104A804F0DCFB24AB8022C0
:1052300004A91C4805F093FF802104A8FBF76CF833
:105240003148026831A104A804F0CCFB24AB8022D1
:1052500004A9144805F083FFD0E700004572726F7F
:10526000725F486172644661756C745F48616E6418
:105270006C65720D0A000000303A2F4657545F6487
:1052800061742F73797374656D5F72756E6E696E7C
:10529000675F6661756C745F7265636F7264652EBB
:1052A00074787400942000206F70656E2046575407
:1052B0005F6461742F73797374656D5F72756E6E60
:1052C000696E675F6661756C745F7265636F726447
:1052D000652E747874206661696C20282564292104
:1052E00021000000C40400200D0A253034642F255D
:1052F0003032642F2530326420253032643A253034
:1053000032643A2530326400E40200200D0A45720E
:10531000726F725F486172644661756C745F486158
:105320006E646C65723A202564000000044C4AF6F5
:10533000AA2520680560642006F0B9FCF9E70000A2
:10534000C43000207FB500213248009101910291C4
:105350002F4A0391026001244FF480320461C0E9B6
:105360000121047680F820102B4AC0E90A21062585
:10537000C561C16080F830404461FCF7EAFA08B1C9
:10538000FBF780FF0C20CDE900040720029069465E
:105390002048FCF787F908B1FBF774FF0B20009059
:1053A0000220019069461B48FCF77CF908B1FBF725
:1053B00069FF082000900320019069461548FCF71A
:1053C00071F908B1FBF75EFF0E20009004200190F8
:1053D00069461048FCF766F908B1FBF753FF0A204D
:1053E00000900520019069460A48FCF75BF908B176
:1053F000FBF748FF0F20CDE9000569460548FCF79B
:1054000051F908B1FBF73EFF0248FCF731FC7FBDC4
:1054100000200140B80E00200100000F7FB50021E0
:105420001E480091019102911B4A039102600124E0
:105430004FF480320461C0E90121047680F8201025
:10544000174AC0E90A210225C561C16080F83040D1
:105450004461FCF77EFA08B1FBF714FF0420CDE9A4
:1054600000040720029069460C48FCF71BF908B1BC
:10547000FBF708FF0920CDE9000569460748FCF75E
:1054800011F908B1FBF7FEFE0449142298390348CC
:10549000FCF744FB7FBD000000210140000F00200D
:1054A0000100000F70B51948174900240160182148
:1054B000C0E901144FF40031C0E903410901416121
:1054C000047644768476C476047701254577FCF724
:1054D0001AFF08B1FBF7D6FE0C4828380146446194
:1054E00004610460446084600562C460C0E90645EC
:1054F0002830FCF7F9FC02210448FCF775FCBDE8F4
:1055000070400248FDF71EB80064004030100020D3
:10551000214808B5016841F480010160016801F487
:1055200080010091016841F40011016000680022CF
:1055300000F40010009002211020FDF7E9FB10207C
:10554000FDF7D8FB002202213820FDF7E1FB3820CF
:10555000FDF7D0FB002202213A20FDF7D9FB3A20CB
:10556000FDF7C8FB00220A213B20FDF7D1FB3B20C1
:10557000FDF7C0FB00220A214520FDF7C9FB4520AD
:10558000FDF7B8FB002207214620FDF7C1FBBDE86F
:1055900008404620FDF7AEBB3038024010B5044944
:1055A0000448FBF77DFE0249491E087010BD00004B
:1055B000D50200208CEA000870B50121794A08461E
:1055C00006F06DFD784C774A0121206710320846BD
:1055D00006F065FD734A012160672032084606F037
:1055E0005EFD704AA067183A4021042006F0B4FC22
:1055F000E0666E4A00216E4806F0CAFD6B4A6063A1
:10560000243200216B4806F0C3FD684AA06348328B
:105610000021694806F0BCFD644AE0636C32002159
:10562000664806F0B5FD614A206490320021644866
:1056300006F0AEFD5D4A6064B4320021614806F0B8
:10564000A7FD5A4AA064D83200215F4806F0A0FDA9
:10565000564AE064FC3200215C4806F099FD514A4C
:105660002065F03A00215A4806F092FD4D4A6065E7
:10567000CC3A0021574806F08BFD4A4AA065A83A6B
:105680000021554806F084FD464AE065843A002131
:10569000524806F07DFD434A2066603A002150489A
:1056A00006F076FD3F4A60663C3A00214D4806F020
:1056B0006FFD4FF0FF35A0662946606F06F0ACFC29
:1056C0002946206F06F0A8FC606C08B146A000E0F7
:1056D0004EA004F077F9606B08B155A000E05DA022
:1056E00004F070F9A06B08B163A000E06BA004F0B7
:1056F00069F9E06B08B172A000E07AA004F062F9E9
:10570000206C08B180A000E089A004F05BF9A06CD7
:1057100008B191A000E099A004F054F9E06C08B140
:10572000A0A000E0A8A004F04DF9206D08B1AFA042
:1057300000E0B7A004F046F9606D08B1BDA000E03C
:10574000C4A004F03FF9A06D08B1CAA000E0D2A047
:1057500004F038F9D9A004F035F9206E08B1DEA0C4
:1057600000E0E6A004F02EF9606E08B1ECA000E0C5
:10577000F4A004F027F90B48303006F0CFFAE067C8
:105780000848403006F0CAFA074C803420600548CB
:10579000503006F0C3FA60600248603006F0BEFA8E
:1057A000A06070BD1CEA00080C0000200CE8000896
:1057B000E1950008210D00084D700008FD68000803
:1057C00091110008DD7C0008551300081D13000826
:1057D0002D5300087D6500083D0D0008C1800008BC
:1057E000F5790008576F00084454555F496E697495
:1057F0005F5461736B48616E646C65C8CECEF1B462
:10580000B4BDA8B3C9B9A6210D0A0000204454555F
:105810005F496E69745F5461736B48616E646C6557
:10582000C8CECEF1B4B4BDA8CAA7B0DC210D0A0021
:105830005769745F6461745F5461736B48616E642F
:105840006C65C8CECEF1B4B4BDA8B3C9B9A6210D5C
:105850000A000000205769745F6461745F546173CB
:105860006B48616E646C65C8CECEF1B4B4BDA8CA95
:10587000A7B0DC210D0A000043616E5F52785F54CF
:1058800061736B48616E646C65C8CECEF1B4B4BD13
:10589000A8B3C9B9A6210D0A000000002043616E1B
:1058A0005F52785F5461736B48616E646C65C8CEFB
:1058B000CEF1B4B4BDA8CAA7B0DC210D0A00000027
:1058C00052425F526561645F5461736B48616E64FC
:1058D0006C65C8CECEF1B4B4BDA8B3C9B9A6210DCC
:1058E0000A0000002052425F526561645F54617398
:1058F0006B48616E646C65C8CECEF1B4B4BDA8CA05
:10590000A7B0DC210D0A00004F696C446973706C0C
:1059100061795F5461736B48616E646C65C8CECE0B
:10592000F1B4B4BDA8B3C9B9A6210D0A00000000A6
:10593000204F696C446973706C61795F5461736B5B
:1059400048616E646C65C8CECEF1B4B4BDA8CAA778
:10595000B0DC210D0A0000005369676E616C5F3492
:10596000475F5461736B48616E646C65C8CECEF15D
:10597000B4B4BDA8B3C9B9A6210D0A002053696704
:105980006E616C5F34475F5461736B48616E646C29
:1059900065C8CECEF1B4B4BDA8CAA7B0DC210D0A4B
:1059A000000000004750535F496E69745F54617393
:1059B0006B48616E646C65C8CECEF1B4B4BDA8B35B
:1059C000C9B9A6210D0A0000204750535F496E69EE
:1059D000745F5461736B48616E646C65C8CECEF1C0
:1059E000B4B4BDA8CAA7B0DC210D0A004750535F6C
:1059F0004765745F5461736B48616E646C65C8CEB3
:105A0000CEF1B4B4BDA8B3C9B9A6210D0A000000F7
:105A1000204750535F4765745F5461736B48616EF4
:105A2000646C65C8CECEF1B4B4BDA8CAA7B0DC2101
:105A30000D0A0000495744475F5461736B48616E1B
:105A4000646C65C8CECEF1B4B4BDA8B3C9B9A62103
:105A50000D0A000020495744475F5461736B486149
:105A60006E646C65C8CECEF1B4B4BDA8CAA7B0DC74
:105A7000210D0A004F746865726164635F7461731D
:105A80006B48616E646C65C8CECEF1B4B4BDA8B38A
:105A9000C9B9A6210D0A0000204F746865726164BF
:105AA000635F7461736B48616E646C65C8CECEF1E0
:105AB000B4B4BDA8CAA7B0DC210D0A0043616E745E
:105AC000785F48616E646C65C8CECEF1B4B4BDA891
:105AD000B3C9B9A6210D0A00547972655370656582
