:020000040800F2
:10000000C0730020610200089B420008E93C000820
:1000100099420008090D0008415A0008000000003C
:10002000000000000000000000000000A101000826
:100030004112000800000000FD010008F353000811
:100040007B0200087B0200087B0200087B0200089C
:100050007B0200087B0200087B0200087B0200088C
:100060007B0200087B0200087B0200087B0200087C
:100070005D0E00087B0200087B0200087B0200087E
:10008000690E00087B0200087B020008190D0008B9
:100090000D0D00087B0200087B0200087B020008AF
:1000A0007B020008AD5400087B0200087B020008B8
:1000B0007B0200087B0200087B0200087B0200082C
:1000C0007B0200087B0200087B0200087B0200081C
:1000D0007B0200087B020008B9590008355A000865
:1000E0007B0200087B0200087B0200087B020008FC
:1000F0007B0200087B0200087B0200087B020008EC
:100100007B020008C94700087B0200087B02000848
:100110007B0200087B0200087B0200087B020008CB
:10012000750E00087B0200087B020008810E0008A3
:100130007B0200087B0200087B0200087B020008AB
:100140007B0200087B0200087B0200087B0200089B
:100150007B0200088D0E0008990E00087B02000843
:100160007B0200087B0200087B0200087B0200087B
:100170007B0200087B0200087B02000800000000F0
:100180007B020008A9120008DFF810D000F068FB1D
:100190000048004739690008AFF30080C0730020B1
:1001A0002C4B19680868B0E8F04F80F30988BFF35A
:1001B0006F8F4FF0000080F311887047000000003F
:1001C00008480068006880F308884FF0000080F35A
:1001D000148862B661B6BFF34F8FBFF36F8F00DF35
:1001E00000BF00BF08ED00E0DFF80C00016841F43B
:1001F00070010160704700BF88ED00E0EFF30980F7
:10020000BFF36F8F134B1A681EF0100F08BF20ED5D
:10021000108A20E9F04F106009B44FF0200080F3FD
:100220001188BFF34F8FBFF36F8F07F0F3FE4FF0CE
:10023000000080F3118809BC19680868B0E8F04F25
:100240001EF0100F08BFB0EC108A80F30988BFF3CE
:100250006F8F704760000020EFF30580704700004B
:100260000648804706480047FEE7FEE7FEE7FEE750
:10027000FEE7FEE7FEE7FEE7FEE7FEE79D54000827
:10028000890100082DE9F05F0546002092469B4653
:1002900088460646814640241BE02846414647469C
:1002A000224600F0DCF853465A46C01A914110D35A
:1002B00011461846224600F0C3F82D1A67EB0108D4
:1002C0004F4622460120002100F0BAF817EB000942
:1002D0004E41201EA4F10104DFDC484631462A4687
:1002E0004346BDE8F09F40EA01039B0703D009E0C5
:1002F00008C9121F08C0042AFAD203E011F8013B12
:1003000000F8013B521EF9D27047D2B201E000F86A
:10031000012B491EFBD270470022F6E710B51346A9
:100320000A4604461946FFF7F0FF204610BD30B5D7
:1003300005462A460B4612F8010B13F8014B08B18B
:10034000A042F8D01CB1002802D06D1CF1E728466D
:1003500030BD421C10F8011B0029FBD1801A7047E8
:1003600010B5002200E0521C835C8C5CA34201D1DA
:10037000002BF8D1D8B2E1B2401A10BD034611F8F3
:10038000012B00F8012B002AF9D118467047000014
:1003900070B50F4D00B92868002412E00A4602E04B
:1003A0009E4203D0521C1378002BF9D1DAB22243BB
:1003B00005D02BB124B1002100F8011B04E0044654
:1003C000401C0678002EE9D12860204670BD000050
:1003D0005C01002070B5064605F056FD0468054630
:1003E0000A220021304600F04AF82C6070BD00F06F
:1003F000004230F000400AD0C10D01F56071C0F339
:10040000160042EA0151C20840071143704700201C
:100410000146704730B50B460146002020220124DA
:1004200009E021FA02F59D4205D303FA02F5491BC2
:1004300004FA02F52844151EA2F10102F1DC30BDD8
:10044000202A04DB203A00FA02F100207047914094
:10045000C2F1200320FA03F3194390407047202A89
:1004600004DB203A21FA02F00021704721FA02F35E
:10047000D040C2F1200291400843194670472DE94F
:10048000F04791460F4680460446002614F8015B6B
:100490002DB100F009FA0068405DC007F6D12B2DA0
:1004A00002D02D2D18D0641E4A463946204600F051
:1004B000FFF927B13968A14201D1C7F80080710561
:1004C0004FF002040BD54042002803DD05F0DCFCB0
:1004D0000460A007BDE8F08746F48066E4E70028E2
:1004E000F8DA05F0D1FC04606FF00040F2E72DE986
:1004F000FE4F804681EA0300C00F0C46009021F0B9
:10050000004123F00045B8EB0200A94105D2404666
:10051000214690461C460B46024623F000401043FD
:1005200047D0270DC7F30A00C3F30A510290401ABF
:10053000019040286BDAC3F3130040F4801B00984D
:10054000924620B10023D2EB030A63EB0B0B019818
:100550005946C0F140025046FFF772FF06460D466D
:1005600050465946019A00F08DF910EB08006141A0
:10057000002487EA115284EAE7731A4340D0009AB4
:1005800062B3019A012A4FEA075215DC001B61EBA6
:1005900002014FF0004202EA0752CDE90042001C7E
:1005A00041F5801132462B4600F0E0F903B0BDE87A
:1005B000F08F40462146F9E7001B61EB0201001C69
:1005C00041F5801300185B412018A2F5001747EB96
:1005D000030140EAD570B6196D4111E06D084FEA8C
:1005E000360645EAC0754FEA0752001B61EB02016F
:1005F000001C41F5801149084FEA300000195141B3
:1006000032462B4603B0BDE8F04F00F0A0B9009889
:10061000012240000023D0EB020263EBE07300985C
:1006200021464FEAE074B8EB000061EB0401E9E712
:1006300083F000435BE781F0004158E72DE9FE4F6E
:1006400081EA030404F0004421F0004100944FF0DB
:10065000000B23F0004350EA01045ED052EA030489
:100660005BD0C3F30A54C1F30A552C44A4F2F3340B
:100670000194A0FB0254C1F3130141F48011C3F3B0
:10068000130343F4801301FB024400FB034E840A6E
:10069000970A44EA815447EA8357A4FB0768029506
:1006A0008D0A05FB07854FEA932C04FB0C542705A4
:1006B000029D4FEA065847EA1637B5EB08056EEB80
:1006C000070C870E920E47EA811742EA8312A7FBB6
:1006D0000201B6EB0B0164EB00042B0D43EA0C3373
:1006E0005E1844EB1C50DA465146E7FB0201C5F3A5
:1006F00013044FEA0B3343EA14534FEA0432019CCC
:1007000043EA0603A4F10C040294009CCDE900B472
:1007100000F02CF903B0BDE8F08F00200146F9E7A6
:100720002DE9F04D81EA030404F0004B21F000456F
:1007300014464FF0000A23F0004150EA050220D091
:1007400054EA01021DD0C5F30A570246C5F313034C
:10075000C1F31300C1F30A5640F4801543F480132B
:10076000A7EB0608101BD64608F2FD3873EB050010
:1007700002D308F1010801E092185B41B8F1000FC3
:1007800003DA00200146BDE8F08D00204FF480110F
:10079000064684460EE0171B73EB050705D3121BB4
:1007A00063EB050306434CEA010C49084FEA3000AD
:1007B00092185B4150EA0107EDD152EA030012D0D2
:1007C00082EA040083EA0501084305D0101BAB410F
:1007D00006D20122002306E000224FF0004302E08F
:1007E0006FF0010253101AEB06004CEB085110EBAE
:1007F0000A0041EB0B01BDE8F04D00F0A8B8C1F3D1
:100800000A52C1F3130140F2FF3341F480119A42BE
:1008100002DA00200146704740F233439A42A2F2C6
:10082000334202DC5242FFF71ABEFFF709BE000056
:1008300030B5041E71F1000404DB4FF00044404267
:1008400064EB0101141E73F1000405DB1C464FF03C
:100850000043524263EB0403994208BF904230BD0B
:10086000064C074D06E0E06840F0010394E80700FD
:1008700098471034AC42F6D3FFF78AFCDCA000089E
:10088000FCA00008202A06DBCB17203A41FA02F030
:1008900043EAE07306E041FA02F3D040C2F12002DD
:1008A000914008431946704700487047EC9600088D
:1008B0002DE9F05F82460078002715468B460AF145
:1008C0000104B946302801D09DB113E014F8010BA2
:1008D0000127782803D0582801D045B10AE00DB18E
:1008E000102D07D10027102514F8010B02E0082570
:1008F00000E00A250026B0460EE005FB080005FBD7
:1009000006F1012701EB10461FFA80F8B6F5803F8B
:1009100000D3B94614F8010B294600F075F80028F9
:10092000EBDABBF1000F05D00FB1641E00E05446B6
:10093000CBF80040B9F1000F06D005F0A5FA02216E
:100940000160C81EBDE8F09F48EA0640FAE710B50E
:10095000141E73F1000408DA401C41F100019218E2
:100960005B411A4301D120F0010010BD2DE9F04D8B
:1009700092469B4611B1B1FA81F202E0B0FA80F2E0
:1009800020329046FFF75CFD04460F4640EA0A001D
:1009900041EA0B0153465A46084313D0114653EA25
:1009A000010019D0C8F140025046FFF758FD054636
:1009B0000E46504659464246FFF742FD084305D0D1
:1009C000012004E020463946BDE8F08D00200543B3
:1009D00046EAE0762C4337430A986305E40AA0EB25
:1009E00008000022FD0A44EA47540A3002D50020DC
:1009F0000146E9E7010510196941DDE908450019DB
:100A00006941BDE8F04DA2E73A2800D2303820F025
:100A10002002412A01D3A2F13700884201D34FF0CE
:100A2000FF30704770B58C1810F8015B15F00703A4
:100A300001D110F8013B2A1106D110F8012B03E077
:100A400010F8016B01F8016B5B1EF9D12B0705D47F
:100A50000023521E0DD401F8013BFAE710F8013BC8
:100A6000CB1A921C03E013F8015B01F8015B521EE4
:100A7000F9D5A142D8D3002070BD10B50146806BD6
:100A8000026C12F0500F05D0026CD20626D500F091
:100A9000B5FC10BD016C41F40071016401688A6805
:100AA00012F0405F17D1027EAAB9CA6A12F4700F21
:100AB00002D08A6852050ED44A6822F020024A60A9
:100AC000016C21F480710164016CC90403D4016CD0
:100AD00041F00101016400F08FFC10BD806BC26C1D
:100AE000BDE810400846104710B5806B40210164F6
:100AF000416C41F00401416400F080FC10BD10B570
:100B0000806B00F07AFC10BD464910B54A6822F4AB
:100B100040324A604A6843681A434A6001684A683A
:100B200022F480724A6001684A68036942EA03223B
:100B30004A6001684A6822F040724A6001684A6867
:100B400083681A434A6001688A6822F400628A60F6
:100B500001688A68C3681A438A60816A6FF07062AC
:100B6000D14201688A6822F070628A6001688A68EE
:100B70000CD0836A1A438A6001688A6822F0405266
:100B80008A6001688A68C36A1A4301E022F0405211
:100B90008A6001688A6822F002028A6001688A68B5
:100BA000037E42EA43028A6090F82010002901681F
:100BB0004A680FD042F400624A6001684A6822F431
:100BC00060424A6001684A68174C436A04EB433349
:100BD0001A4301E022F400624A600168CA6A22F402
:100BE0007002CA620168CA6A838B104C04EB03531B
:100BF0001A43CA6201688A6822F400728A60016836
:100C00008A6890F8303042EA43228A6001688A6834
:100C100022F480628A6001688A68406942EA802022
:100C2000886010BD0023014000E0FFFF0000F0FFDE
:100C3000704700000146014802F0ACB8740500207E
:100C400010B5044802F0B8F8042801D0012010BD06
:100C5000002010BD7405002010B500F015F8012823
:100C600001D0012010BD074802F0C0F9040006D1F0
:100C70004FF40061034801F033FF00B10124204626
:100C800010BD00007405002008B501208DF800009B
:100C90009DF8000008BD0000134610B50A46014645
:100CA0000024034802F09EFA00B10124204610BD42
:100CB0007405002008B50120ADF8000003480023AA
:100CC0001A466946406806F0A9F808BD40000020B1
:100CD000134610B50A4601460024034802F01CFBE7
:100CE00000B10124204610BD7405002008B5022083
:100CF000ADF80000034800231A466946406806F034
:100D00008DF808BD40000020FEE70000014800F01B
:100D100028BE00004C050020014800F022BE000063
:100D20004C050020054D4FF0FF342146286A06F09F
:100D3000A9F8012005F01BFFF7E7000008000020DC
:100D400010B50C4CA078612806D0652809D06D2814
:100D50000FD104F0DDFE06E004F0BCFE38B106A0C1
:100D600003E004F0F3FE10B109A005F043F8FF2002
:100D7000A07010BDE00000200D0A5365742041638F
:100D80006343616C69204572726F720D0A00000046
:100D90000D0A536574204D616743616C692045728B
:100DA000726F720D0A0000002DE9F047002704253C
:100DB000DFF8A080DFF8A09050383E4601F1060A27
:100DC000102845D2DFE800F01108130C1517191B85
:100DD0001D1F21444444442334240325402702E0BA
:100DE0003D2403252E27012613E0302411E037246B
:100DF0002BE03A2429E041240BE0452409E0492472
:100E000007E04D2405E0512403E0552401E0D8F823
:100E10002440032A19D04DB16A0009EB4400FFF7C2
:100E200062FAD8F81820294620469047002E0FD0A5
:100E3000720009EB47005146FFF755FA3146384634
:100E4000D8F81820BDE8F047104703250026E3E74F
:100E5000BDE8F087E00000204C530020014801F07D
:100E600023B80000C4080020014801F01DB80000AC
:100E700064080020014801F017B80000C4040020F5
:100E8000014801F011B80000F8050020014801F008
:100E90000BB8000058060020014801F005B800001A
:100EA0000408002001681823CAB2103AB2FBF3F21A
:100EB000054B6FF30901032A9B5CC36500D9091D2B
:100EC0008165084670470000A491000810B50146EE
:100ED00000208B698A6A4FF0C07453B1B3F5005F8C
:100EE00015D072B1012A0CD0022A0AD0032A09D1E6
:100EF00004E01AB1012A06D0022A03D1C96AC90145
:100F000000D5012010BDC96AA142FAD010BD002A47
:100F1000F7D0012AF2D0022AF3D0032AF3D010BD71
:100F200030B50468256825F4802525600468636071
:100F30008368402B036803D099600068C26030BDAD
:100F40009A600068C16030BD70B590B00446402121
:100F50006846FFF7E1F90425002104F1800000E074
:100F6000401C0278322AFBD14FEA0D0210F8013BF7
:100F70005354491C0378C9B2222BF7D12F4E104687
:100F8000311D07E06D1CEDB204EB8510FFF7F6F99B
:100F9000311D0020FFF7FCF90100F3D1274904F5CA
:100FA000E07008310E46FFF7F3F9014607250AE025
:100FB0006D1CEDB204EB8510FFF7E0F9314600201F
:100FC000FFF7E6F901460029F2D11C4904F510703B
:100FD0000C310E46FFF7DCF9014609250AE06D1CCD
:100FE000EDB204EB8510FFF7C9F931460020FFF799
:100FF000CFF901460029F2D104F5A070FFF7EAF914
:101000000F4D288004F5C070FFF7E4F9A87004F5CF
:101010000070FFF7DFF9E87004F52070FFF7DAF9E8
:10102000287104F53070FFF7D5F9687104F5407048
:10103000FFF7D0F9A87110B070BD0000DC93000874
:101040002C01002010F8861F3039407801EB810117
:10105000D02202EB41010844C0B270472D4F2E4D03
:1010600000244FF480684FF47A76002005F0DAFC13
:10107000404603F05FFA686028A004F0BBFE09E078
:10108000042005F05FFB002827D0641CA4B2304682
:1010900005F06DFD0A2CF3D92B4804F0ABFE2BA014
:1010A00004F0A8FE2FA004F0A5FE35A004F0A2FED7
:1010B00040A004F09FFE4CA004F09CFE544804F0B5
:1010C00099FE544804F096FE304605F050FD00BFEE
:1010D00097F80802012809D018E0012087F80802D3
:1010E0004DA004F087FE0A2CD6D8F1E7082151A0C4
:1010F00006F06CFC0221A86A05F05CFD4FF4FA7062
:1011000005F035FD0221A86A05F054FDA86906F036
:1011100003FEAAE78C0100200800002057616974D3
:1011200020666F7220436174312044545520746FDF
:101130002073746172742C2077616974203130736C
:101140002E2E2E2E200D0A004097000841544B2DC4
:1011500044545520496E6974204661696C202E2ED6
:101160002E0D0A00C7EBB0B4D5D5D2D4CFC2B2BDD4
:10117000D6E8BDF8D0D0BCECB2E93A0D0A000000C8
:10118000312ECAB9D3C3B5E7C4D4C9CFCEBBBBFADD
:10119000C5E4D6C3C8EDBCFEBCECB2E9445455C4AA
:1011A000DCB7F1B5A5B6C0D5FDB3A3B9A4D7F70D8B
:1011B0000A000000322EBCECB2E9445455B4AEBF74
:1011C000DAB2CECAFDD3EB53544D3332CDA8D1B6EB
:1011D000B5C4B4AEBFDAB2CECAFDCAC7B7F1D2BB8E
:1011E000D6C20D0A00000000332EBCECB2E9445414
:1011F00055D3EB53544D3332B4AEBFDAB5C4BDD37F
:10120000CFDFCAC7B7F1D5FDC8B70D0A000000008F
:1012100090970008F09600084361743120445455BB
:1012200020496E69742053756363657373200D0ADA
:101230000000000041542B434C4B0D0A00000000FD
:101240007047000072B602A004F0D4FDFEE7000073
:101250004572726F725F48616E646C65720D0A0050
:10126000002200F001B8000030B50E4B0546012009
:101270005C7A002C14D1587A1C54587A03EB800005
:1012800045605D7A03F108002A54587A421C5A726C
:10129000303008703A2048702F208870CC700020C1
:1012A00030BD00006C0900207047000078B50024B4
:1012B000009490F83C20012A19D0012280F83C20AB
:1012C0000A6807230568092A13D9EE680A3A02EB6F
:1012D000420293409E43EE600B788A680A3B03EB20
:1012E00043039A400368DD682A43DA6010E0022075
:1012F00078BD2E6902EB420293409E432E610B782B
:101300008A6803EB43039A4003681D692A431A6104
:101310004A681F23072A13D205686E6B521E02EB20
:10132000820293409E436E630B790A885B1E92B2E1
:1013300003EB83039A4003685D6B2A435A6327E0FB
:1013400005680D2A12D22E6BD21F02EB8202934047
:101350009E432E630B790A88DB1F92B203EB830353
:101360009A4003681D6B2A431A6311E0EE6A0D3A36
:1013700002EB820293409E43EE620B790A880D3B9A
:1013800092B203EB83039A400368DD6A2A43DA6270
:10139000164B0568144A9D4206D10D68122D03D1E3
:1013A000556845F48005556005689D4218D10B6865
:1013B000102B01D0112B13D1536843F40003536059
:1013C000096810290CD10A490A4A0968B1FBF2F1EF
:1013D00001EB8101490000E0491E00910029FBD189
:1013E00080F83C40002078BD0023014000200140EF
:1013F0005C00002040420F0070477047704770B596
:1014000004004FF0000503D0206C002610B107E067
:10141000012070BD204600F01DF8666484F83C6031
:10142000206CC00610D4206C20F4885040F00200DC
:1014300020642046FFF768FB6664206C20F0020001
:1014400040F00100206400E0012584F83C6028465B
:1014500070BD000070B586B0064614216846FEF7E0
:101460005BFF1D493068884233D11C480025016864
:1014700041F480710160006800F4807005901748A5
:101480001438016841F0040101600068694600F009
:1014900004000590022000900320CDE901051048CA
:1014A00000F086FE104C0F48C4E900050015A56049
:1014B000C4E90350400060618000C4E9060525626C
:1014C0002046656200F0C0FD08B1FFF7BBFEB463C3
:1014D000A66306B070BD0000002001404438024001
:1014E0000008024010640240C4040020F8B504461D
:1014F00000200E46009094F83C10012907D00121ED
:1015000084F83C1021688B68DB0702D011E00220D0
:10151000F8BD8B6843F001038B604049404B09687C
:10152000B1FBF3F101EB410100E0491E00910029FC
:10153000FBD121688B68DB0503D58B6823F48073AE
:101540008B6021688B68DB075DD0236C40F20165FE
:10155000AB4343F4807323644968490505D5216C86
:1015600021F4005141F480512164216CC90404D557
:10157000616C21F00601616400E0606484F83C0065
:10158000A16B2948274DC863A16B28480864A16B4B
:101590002748C86421686FF022000860206841680D
:1015A00041F0806141602068816841F48071816010
:1015B0002168134632464C31A06B00F0AFFD6868DD
:1015C0001C49C006206806D0884224D1816811F0E9
:1015D000405F13D01FE08842F8D0174A904203D1F1
:1015E000D1F80423D206F1D0144A904213D1D1F895
:1015F000041301F01F011029E8D30CE0816841F0C9
:101600008041816007E0206C40F010002064606C35
:1016100040F0010060640020F8BD00005C00002084
:1016200040420F00002301407B0A0008FF0A000827
:10163000E90A000800200140002101400022014089
:1016400090F82020012A07D0022A05D0416A41F4EF
:101650008021416201207047006842690A4342616B
:1016600000207047F0B590F820500468A468012D60
:1016700005D0022D03D0416A41F480215DE014F0D1
:10168000406F01D1E50055D5C4F30164022C03D9A4
:10169000416A41F4000150E00125A5401D608D68BC
:1016A0004FF4C0739DB1CE6835434E6845EAC60518
:1016B000066803EB0417F5514FF4C275076805EB94
:1016C00004150E697E51097D012905D009E00E88B7
:1016D000CD6845EA4655EBE701684E5946F48076F9
:1016E0004E511179D579567941EA056195792D04E4
:1016F00045EA062529434FF4C676056806EB04162D
:10170000A9511178D57841EA0561957852782D0470
:1017100045EA022211434FF4C475026805EB041533
:101720005151006803EB0411425842F0010242504B
:101730000020F0BD416A41F4001141620120F0BD7A
:1017400010B590F82020012A07D0022A05D0416A5E
:1017500041F480214162012010BD3B48D0F80022B5
:1017600042F00102C0F80022D0F8002222F47C529C
:10177000C0F80022D0F800224B6A42EA0322C0F8E7
:1017800000220A7D02F01F0301229A40D0F81C3289
:101790009343C0F81C32CB69B3B9D0F80C329343F1
:1017A000C0F80C328C894B6864F31F434C6900EB22
:1017B000C404C4F840320C890B6864F31F434C69BD
:1017C00000EBC404C4F84432CB69012B16D1D0F825
:1017D0000C321343C0F80C320C884B6864F31F437F
:1017E0004C6900EBC404C4F840320C89CB6864F344
:1017F0001F434C6900EBC404C4F844328B69002BCE
:10180000D0F804320ED01343C0F804320B69002B19
:10181000D0F8143208D01343C0F81432096A0129F1
:1018200004D008E09343EFE79343F5E7D0F81C12A8
:101830001143C0F81C12D0F8001221F00101C0F8C9
:101840000012002010BD000000640040704730B559
:1018500090F82040012C05D0022C03D0416A41F4BD
:1018600080215DE00468002955D02469A40754D084
:101870004FF4D874056804EB01142D5915F00405D4
:10188000956005682D594ED0ED08556005682C59B6
:1018900004F00204D4604FF4DA74056804EB011418
:1018A0002D5905F00F05156105682D59C5F307255C
:1018B000956105682C59240C54614FF4DC7204685E
:1018C00002EB0112A4581C700468A458240A5C702E
:1018D0000468A458240C9C700468A258120EDA7094
:1018E0004FF4DE72046802EB0112A4581C71046804
:1018F000A458240A5C710468A458240C9C710468E0
:10190000A258120EDA71006881B1016941F020011C
:101910000161002030BDE468A8E7416A41F400118C
:101920004162012030BD6D0D1560AFE7C16841F027
:101930002001C160EDE70246002092F82010012945
:1019400001D002290CD111688A68520100D501200A
:101950008A68120100D5401C8968C90000D5401C66
:1019600070472DE9F05F0546006800244669D0F80D
:1019700004908768D0F80CB0D0F810A0D0F8188088
:10198000F10748D0F90714D001218160B80703D5C9
:10199000284600F026FA0CE0780702D54FF40064E0
:1019A00007E0380702D54FF4805402E0284600F0E3
:1019B00017FAF80516D529684FF480708860B805C5
:1019C00003D5284600F00FFA0CE0780502D544F460
:1019D000005407E0380502D544F4804402E028466C
:1019E00000F000FAF80316D529684FF480308860BB
:1019F000B80303D5284600F0F8F90CE0780302D5C7
:101A000044F4004407E0380302D544F4803402E093
:101A1000284600F0E9F9300707D55FEACB6004D526
:101A20002968102044F40074C86070074FF008075C
:101A300007D55FEA0B7004D52868C760284600F018
:101A400061F9B00706D52868C068800702D028462B
:101A500000F05AF9700607D55FEACA6004D5296814
:101A6000102044F480640861B00607D55FEA0A706C
:101A700004D528680761284600F082F9F00606D5EB
:101A800028680069800702D0284600F07AF9B00380
:101A900008D55FEAC96005D5296810204860284646
:101AA00000F070F9F00307D55FEA097004D52868E3
:101AB0004760284600F09AF9300446D55FEA49703D
:101AC00040D5F00504D55FEAC87001D044F00104A8
:101AD000B00504D55FEA887001D544F002047005B2
:101AE00004D55FEA487001D544F00404300529D5D7
:101AF00018F0700F26D008F07000402815D006DCD2
:101B0000102809D020280AD0302816D10AE0502801
:101B10000ED0602811D10EE044F008040DE044F02E
:101B200010040AE044F0200407E044F0400404E01C
:101B300044F0800401E044F480742868816921F055
:101B400070018161296804204860002C05D0686A12
:101B5000204368622846FFF779FEBDE8F09F70B524
:101B6000040003D094F8200010B104E0012070BDFF
:101B7000204600F081F82068016841F00101016011
:101B800000F014FC0546052604E000F00FFC401BA5
:101B90000A2811D820684068C007F6D0206801687C
:101BA00021F00201016000F001FC05460BE000F0AD
:101BB000FDFB401B0A2806D9606A40F400306062D1
:101BC00084F82060D2E7206840688007EFD4207E48
:101BD0000128206801683DD021F080010160607E0D
:101BE00001282068016838D021F040010160A07E02
:101BF00001282068016833D021F020010160E07ED7
:101C00000128206801682ED041F010010160207F7A
:101C100001282068016829D021F008010160607F57
:101C200001282068016824D021F004010160D4E972
:101C300002010843D4E90412114308436168491EB4
:101C400008432168C86100206062012084F82000F8
:101C5000002070BD41F08001C0E741F04001C5E7C0
:101C600041F02001CAE721F01001CFE741F008015F
:101C7000D4E741F00401D9E710B586B00446142139
:101C80006846FEF749FB1C492068884231D11B4851
:101C90000021026842F000720260006800F00070EB
:101CA000059016481038026842F001020260006890
:101CB00000F0010005904FF4C05000900220CDE9E3
:101CC0000101032003900920049069460C4800F0AC
:101CD0006FFA00220221132000F00AFC132000F00A
:101CE000F9FB00220221142000F002FC142000F075
:101CF000F1FB06B010BD0000006400404038024017
:101D0000000002407047000070B50068184A0021CA
:101D100090422BD1174C0020174A20606060A060D1
:101D20002061E0606061A0615054491CC9B208297B
:101D3000FAD3114B0F4A00211048FFF788FD0E4DD2
:101D400020682C3D50280CD1A06850B92069082883
:101D500007D10821084803F075FE0121A86A04F0A4
:101D600029FF286ABDE8704005F006B970BD000083
:101D700000640040A0030020340000204C05002037
:101D8000704770477047000070B5044690F8200017
:101D9000012804D0606A40F40020606218E002204C
:101DA00084F820002068016821F00101016000F042
:101DB000FDFA05460EE000BF00F0F8FA401B0A28C5
:101DC00008D9606A40F400306062052084F8200081
:101DD000012070BD20684068C007EDD1606270BD11
:101DE00070477047704770477047704770472DE9DC
:101DF000F0410446876D00F0D9FA064694F83500A4
:101E00000025022806D08020606584F83450012027
:101E1000BDE8F0812068016821F0160101602068AA
:101E2000416921F080014161206C08B9A06C20B1AA
:101E30002068016821F0080101602068016821F034
:101E4000010101600CE000F0B1FA801B052807D900
:101E500020206065032084F8350084F83450D7E7EB
:101E600020680068C007EED194F85C103F208840DD
:101E7000B860012084F8350084F834500020C7E7AA
:101E800090F83510022903D0802141650120704768
:101E9000052180F835100068016821F0010101601A
:101EA00000207047406D70472DE9F84304464FF01D
:101EB0000009CDF8009063484FF41651A56D0068F5
:101EC000B0FBF1F72E6894F85C10082000FA01F1DD
:101ED00031420FD021680A6852070BD50A6822F0F8
:101EE00004020A6094F85C108840A860606D40F0BD
:101EF0000100606594F85C104FF0010808FA01F0E9
:101F0000304208D021684969090604D5A860606D8F
:101F100040F00200606594F85C1004208840304274
:101F200008D021680968890704D5A860606D40F071
:101F30000400606594F85C1010208840304218D08E
:101F400021680968090714D5A86020680168490359
:101F500004D50068000308D5A16C07E00168C90535
:101F600003D4016821F008010160216C09B1204609
:101F7000884794F85C1020208840304231D0216896
:101F80000968C9062DD5A86094F835000528206891
:101F9000016806D0490347D5006800031DD4616C71
:101FA0001CE021F0160101602068416921F08001E8
:101FB0004161206C08B9A06C20B12068016821F053
:101FC0000801016094F85C103F208840A86084F804
:101FD000358084F83490216D1FE0E16B09B1204613
:101FE0008847606D00282BD0606DC00714D0052095
:101FF00084F835002068016821F001010160009833
:10200000401C0090B84203D820680068C007F6D191
:1020100084F8358084F83490E16C002910D001B048
:102020002046BDE8F04308470168C905D5D40168DA
:1020300021F01001016084F8358084F83490CCE7F9
:10204000BDE8F8835C0000202DE9F041044600F073
:10205000ADF906465CB1022084F83500002584F80D
:1020600034502068016821F0010101600DE0012079
:10207000BDE8F08100F09AF9801B052805D92020E1
:102080006065032084F83500F2E720680068C00727
:10209000F0D12268116820480140D4E901031843B7
:1020A000D4E903363343184363691843A3691843DB
:1020B000E3691843236A18430843616A042903D17A
:1020C000D4E90B1319430843106020684069666A1D
:1020D00020F0070130460E43012704280CD1A06AE6
:1020E0000643E06A40B12046FEF7F0FE20B14020F2
:1020F000606584F83570BAE7206846612046FEF7CF
:10210000D1FE94F85C203F2191408160656584F8A0
:1021100035700020ACE700003F8010F02DE9F04161
:102120000446866D90F83400002501280DD001206A
:1021300084F8340094F835700020012F07D084F81B
:10214000340002252846BDE8F0810220FBE7022783
:1021500084F8357060652046FEF7E2FE94F85C1066
:102160003F208840B0602068016841F0160101609E
:10217000206C20B12068016841F0080101602068EE
:10218000016841F001010160DCE7000070B5044620
:1021900000F00CF90546601C02D0044800780444A5
:1021A00000F004F9401BA042FAD370BD500000209B
:1021B0002DE9F84FDFF8BCA10022012503264FF0DE
:1021C0000F090AF1040BAAF1040E00BF0B6805FA0F
:1021D00002F42340A34270D10F7907F00307012FC7
:1021E00001D0022F16D187684FEA420806FA08FC90
:1021F00027EA0C07D1F80CC00CFA08FC4CEA070CD3
:10220000C0F808C04768A7430C79C4F30014944091
:102210003C4344600C79E443A4070AD0C4684FEA05
:10222000420C06FA0CF7BC438F6807FA0CF72743F9
:10223000C7600C7904F00304022C12D1D40800EB1F
:10224000840CDCF820405707FF0E09FA07F824EA4F
:102250000804D1F8108008FA07F848EA0408CCF816
:10226000208004684FEA420C06FA0CF7BC430F7951
:1022700007F0030707FA0CF7274307604C6814F4CC
:10228000403F70D03C4C276847F480472760246863
:1022900022F0030704F480440094384C07EB040C4C
:1022A000DCF8084897074FEA177809FA08F7BC43A3
:1022B000334FB84202D1002724E054E0314FB842F6
:1022C00001D101271EE0304FB84201D1022719E0A9
:1022D0002E4FB84201D1032714E02D4FB84201D14F
:1022E00004270FE02B4FB84201D105270AE02A4FFF
:1022F000B84201D1062705E0284FB84201D107278F
:1023000000E0082707FA08F72743CCF80878DAF83E
:1023100000405746D1F804C09C435FEACC2C00D55E
:102320001C433C60DBF800405F46D1F804C09C438E
:102330005FEA8C2C00D51C433C60DEF800407746F9
:10234000D1F804C09C435FEA8C3C00D51C433C6040
:10235000084F083F3C68D1F804C09C435FEACC3C7E
:1023600000D51C433C60521C102AFFF42FAFBDE87F
:10237000F88F0000083C0140443802400030014022
:10238000000002400004024000080240000C02402D
:10239000001002400014024000180240001C0240DD
:1023A0000AB1816170470904FBE7000001488068B9
:1023B00070470000500000200248816802781144F4
:1023C00081607047500000200B4810B5016841F44F
:1023D00000710160016841F480610160016841F4AD
:1023E00080710160032000F0A3F80F2000F006F8D0
:1023F00000F04AF8002010BD003C024030B5054610
:102400001C4887B00024016841F0010101600068A8
:1024100006A900F00100009001A800F035F900F0D5
:1024200063F915494000B0FBF1F11548134A491E04
:10243000026040F2E732C0E90324C0E9011484617C
:1024400000F0FCFF040012D10D4801F025F8040053
:102450000DD1192000F03EF8102D07D20022294698
:10246000192000F045F80748056000E0012407B096
:10247000204630BD4438024040420F000000014079
:102480002409002054000020114808B5016841F4D7
:1024900080410160006800F4804000900C48001FFB
:1024A000016841F0805101600068002200F0805016
:1024B00000900F21901E00F01BF8002202215120F5
:1024C00000F016F8BDE80840512000F003B8000005
:1024D00044380240002809DB00F01F02012191402E
:1024E0004009800000F1E020C0F8001170470000B2
:1024F000F0B40E4B1B680C46C3F30223C3F107056F
:10250000042D00D90425191D072901D2002300E05C
:10251000DB1E012606FA05F1491E214099409E4026
:10252000761E16403143F0BC03F09EBC0CED00E07B
:10253000064900F0070208684FF6FF03184040EA1A
:102540000220034A10430860704700000CED00E0D1
:102550000000FA052DE9F0470E46050065D0DFF8CA
:102560001481D8F80000F7B200F00700B04207D29B
:1025700088F80070D8F8000000F00700B04254D18D
:1025800028683D4C810712D5400703D5206840F4E8
:10259000E05020602878000703D5206840F46040B0
:1025A00020602068A96820F0F000084320602878A7
:1025B000C0072DD0304968680839012812D0022898
:1025C00013D0032811D00968890700292DDA216862
:1025D00021F0030101432160FFF7E8FE814641F24B
:1025E000883A0EE009688903EFE709688901ECE79A
:1025F000FFF7DCFEA0EB0901514502D90320BDE83D
:10260000F0872068696800F00C00B0EB810FEFD113
:10261000D8F80010404601F00701B14207D9077011
:10262000006800F00700B04201D00120E7E72878F9
:10263000400705D52068E96820F4E0500843206091
:102640002878000706D52068296920F4604040EA10
:10265000C100206000F058F82168084AC1F3031156
:10266000515CC8400649086006480068FFF7C6FE8E
:102670000020C4E7003C024008380240AC9100084A
:102680005C000020540000200F2202600C4A1368F6
:1026900003F003034360136803F0F00383601368DF
:1026A00003F4E053C36012684FF4E05303EAD2022C
:1026B00002610448006800F00700086070470000ED
:1026C00008380240003C0240044805490068096897
:1026D000044AC1F38221515CC84070475C0000206D
:1026E00008380240BC9100080448054900680968A0
:1026F000044AC1F34231515CC84070475C0000207D
:1027000008380240BC910008154810B5006810F068
:102710000C02144813D01449042A0FD0082A0ED1F1
:102720000F4C241F2268236802F03F025B0207D58A
:102730002068C0F38810A0FB010106E0084610BD28
:102740002168C1F38811A1FB00010023FDF79AFD68
:102750002168C1F30141491C4900B0FBF1F010BDF3
:10276000083802400024F40040787D012DE9F84F3C
:1027700004006ED02078DFF84C93C007A9F104055F
:102780004AD009F104000168C1F38101012908D090
:102790000068C0F3810002280AD1D9F80000400285
:1027A00006D52868800337D560680028E1D033E07B
:1027B0006068B0F5803F10D0B0F5A02F286810D029
:1027C00020F480302860286820F480202860606829
:1027D000A8B1FFF7EBFD06460DE0286840F4803015
:1027E000F4E740F480202860F7E700BFFFF7DEFD44
:1027F000801B642873D828688003F7D50CE0FFF7A6
:10280000D5FD064605E000BFFFF7D0FD801B64281C
:10281000F0D828688003F7D42078DFF8AC828007EE
:102820004FF0000A3ED5A748001D016811F00C0FBB
:1028300008D00068C0F3810002280BD1D9F800004D
:10284000400207D42868800716D5E068012800D127
:1028500012E033E1E068B8B10120C8F80000FFF7EA
:10286000A5FD064605E000BFFFF7A0FD801B02287E
:10287000C0D828688007F7D52868216920F0F800BB
:1028800040EAC10028600DE0C8F800A0FFF78EFD07
:10289000064604E0FFF78AFD801B02281FD828683F
:1028A0008007F7D42078000722D5864F87486169D2
:1028B000703771B101210160FFF778FD064604E031
:1028C000FFF774FD801B022809D838688007F7D508
:1028D0000EE0C0F800A0FFF769FD064605E082E0C3
:1028E000FFF764FD801B02287DD838688007F7D485
:1028F0002078400768D5DFF8CCB100270BF13C0BFE
:10290000DBF80000C0000BD4DBF8001041F0805170
:10291000CBF80010DBF80000012700F08050009099
:102920006B4E3068C00510D4306840F48070306061
:10293000FFF73CFD009005E0FFF738FD0099401AD5
:10294000022850D83068C005F6D55E4EA0686C36B7
:1029500001280FD00528306810D020F00100306029
:10296000306820F004003060A068B8B1FFF71EFDA9
:1029700000900FE0306840F00100F4E740F0040000
:102980003060F7E7FFF712FD0099411A41F28830F5
:10299000814266D830688007F4D50EE0FFF706FD67
:1029A000009007E0FFF702FD0099411A41F28830DC
:1029B000814256D830688007F4D42FB1DBF800107C
:1029C00021F08051CBF80010A069C8B33D49091D22
:1029D0000968C1F3810102294AD00228504607D074
:1029E000C8F8600000E03CE0FFF7E0FC04463BE094
:1029F0004746C8F86000FFF7D9FC064605E000BF6F
:102A0000FFF7D4FC801B02282BD828688001F7D45C
:102A1000D4E907010843A16A2E4A490802EB0141A3
:102A2000626A41EA8211084394F82C1040EA01617D
:102A3000C9F8001001203866FFF7B8FC044606E02C
:102A40003EE000BFFFF7B2FC001B022809D828684F
:102A50008001F7D534E000BFFFF7A8FC001B022877
:102A600002D90320BDE8F88F28688001F4D427E05C
:102A70000128F7D0D9F80000E26900F48001914202
:102A80001CD1226A00F03F01914217D147F6C07174
:102A9000626A0140B1EB821F10D1A26A4FF0FF338E
:102AA00000F4403103EB5202B1EB024F06D194F82F
:102AB0002C1000F07060B0EB016F01D00120D1E765
:102AC0000020CFE70438024000004742800E474212
:102AD000007000400000FFFF10B5FEF7A9F810BD20
:102AE0002DE9FE430446002603200D4684F83400F9
:102AF000606C03285ED0B5F5805F5BD04FF4006753
:102B000000204FF08068BD421FD1814600900190A7
:102B10000021206801F054FE800113D4694620464C
:102B200002F042FA07000DD10198400334D5B4F801
:102B300050000104206801F07BFE070002D1022151
:102B4000206823E0A06B384328E01DB1A06B40F063
:102B5000006023E08146009001900021206801F090
:102B60002FFE8001EED46946204602F01DFA0700D0
:102B7000E8D10198C0030FD5B4F8500001042068D3
:102B800001F056FE0700DDD10021206801F09DFE16
:102B90000700D7D14F46D5E74746D3E7A063A06BE0
:102BA000144F4FF0010848B12068876384F83480DF
:102BB00001260EE0A06B40F08050EFE7211DD4E924
:102BC000050C0EC9CDE90050CDF808C0206801F011
:102BD00001FE4FF40071206801F05EFE28B121680B
:102BE0008F63A16B0143A163012684F834803046D2
:102BF000BDE8FE83FF05400070470000F0B5426E5F
:102C0000920F0A70426EC2F383624A70426EC2F340
:102C100001628A70426E120CCA70B0F86420120A07
:102C20000A7190F864204A71826E120DCA80826E19
:102C3000C2F303420A72B0F86820C2F3C0324A728B
:102C4000B0F86820C2F380328A72B0F86820C2F30C
:102C50004032CA72B0F86820C2F300320A7300260C
:102C60004E73426C4FF40075012462B1012A3AD0D0
:102C7000026847499163816B41F08051816380F81C
:102C800034400120F0BDB0F86820C36E9205120DEB
:102C900042EA93720A61C26EC2F3C2620A75C26EE0
:102CA000C2F302624A75C26EC2F342528A75C26EA4
:102CB000C2F38242CA75C26EC2F3C2320A760A6990
:102CC000521C42650B7E03F007039B1C9A40426531
:102CD0000B7A03F00F0704FA07F383655B0A5A4384
:102CE000C0E917250EE090F86820C36E9206920A9C
:102CF00042EA13420A610A69521C92024265C0E923
:102D00001652056630F86C2FC2F3803201F8192F85
:102D10000288C2F3C6124A70027802F07F028A70FB
:102D20004268D20FCA704268C2F341720A714268A7
:102D3000C2F382624A714268C2F383528A71426866
:102D4000C2F34052CA710E724268C2F300424A7224
:102D50008288C2F3C0328A728288C2F38032CA7219
:102D60008288C2F340320A738288C2F300324A7307
:102D70008288C2F381228A738288C2F30122CA73D5
:102D80000079C0F3460008744C740020F0BD0000C8
:102D9000FF054000426C0A60826C4A60C26C8A6027
:102DA000026DCA60426D0A61826D4A61C26D8A61BC
:102DB000006EC8610020704770B50446B0F850003E
:102DC00000250104206801F068FE18B1A16B0143E1
:102DD000A16304E00021206801F0F2FC0546C5F380
:102DE000432070BDF8B5056B04460068416B0904CB
:102DF0001BD5290719D5D4E90A56002E14D000276F
:102E0000206801F0FDFC05F8010B010A05F8011B23
:102E1000010C05F8021B000E361F7F1C05F8010C83
:102E2000082FEDD3C4E90A56F8BD416B4FF00006F8
:102E3000C9054FF0010744D5390281632068C16B91
:102E40004CF23A329143C1632068C16A21F001011A
:102E5000C16228071DD515F0220F09D0206801F0A6
:102E60004DFE28B1A16B0143A1632046FFF7C4FECC
:102E7000216840F23A50886384F834702663A807CA
:102E800003D0204600F040FAF8BD204600F040FA9A
:102E9000F8BD2806FCD5A80609D5206801F02EFE4D
:102EA00028B1A16B0143A1632046FFF7A5FEA80747
:102EB000EED12068C16A21F00801C16284F8347043
:102EC000E3E7416B490424D5290722D5D4E9085604
:102ED000002EDDD05FF0000715F8010B009015F80B
:102EE000011B361F40EA0120009015F8021B40EA42
:102EF0000140009015F8011C40EA0160009069460D
:102F0000206801F090FC7F1C082FE5D3C4E9085627
:102F1000F8BD416B40F23A221142F9D0416B89076A
:102F200003D5A16B41F00201A163416B090703D5F1
:102F3000A16B41F00801A163416B890603D5A16B28
:102F400041F02001A163416BC90603D5A16B41F09B
:102F50001001A163416B890503D5A16B41F0080104
:102F6000A16340F23A7181632068C16B40F23A324A
:102F70009143C163206801F0C1FDA16B0843A063C8
:102F8000280706D584F8347026632046FFF734FE00
:102F9000F8BD2806FCD515F0300F0CD0E16B1148B8
:102FA0000865E06BFEF76CFF0028F1D0E06BBDE830
:102FB000F84001F0D7BFA8070CD0216C0A4808657B
:102FC000206CFEF75DFF0028E2D0206CBDE8F840E1
:102FD00001F09FBFA66384F8347026632046FFF794
:102FE0007BFDF8BD654F0008134F000870B5040065
:102FF0000ED094F83400002518B92577204600F04B
:103000004FF8032084F83400204600F00BF808B194
:10301000012070BDA5632563012084F834000020E1
:1030200070BD0000FEB50025044676200095CDE970
:10303000015029460B460A46206801F0CBFB48BBED
:10304000154E46F8A05F206801F0D6FB01253560DB
:103050000220FFF79BF8204602F08AF830B100BF4B
:1030600084F83450A16B0143A16313E0204602F0C1
:1030700008F80028F4D14FF40071206801F00CFC2E
:10308000002808D0226805499163A16B0143A16320
:1030900084F834500120FEBD00802542FF05400029
:1030A0002DE9F04F87B0054614216846FDF734F945
:1030B0004649286888427DD145480068444940F423
:1030C00000600860086800F400600590404814380B
:1030D00000683F4940F0040014390860086800F0B7
:1030E00004000590086840F00800086008680224A1
:1030F00000F0080005904FF4F850CDE9000402AA52
:10310000002003264FF00C0882E84101694631484F
:10311000FFF74EF802AA002082E841010427CDE91A
:10312000007469462C48FFF743F82D4C2B484FF0AC
:103130000068C4E9000800204FF48069A060C4E979
:103140000309B8024FF4804BC4E9050BC4E90976C2
:103150004FF0200A0020C4E907A07E05B7102046E2
:10316000C4E90B67FEF770FF08B1FEF76BF82C643B
:10317000A5631B4C194860344830C4E9000840205E
:10318000A0600020C4E90309C4E907A0042060622C
:1031900004F12802032082E8C1004FF48051C4E901
:1031A000051B2046FEF750FF08B1FEF74BF8EC6315
:1031B000002200E007E005213120A563FFF798F920
:1031C0003120FFF787F907B0BDE8F08F002C0140F0
:1031D0004438024000080240000C0240586402409B
:1031E000F80500202DE9F04786B01F460446154635
:1031F00039B194F83400012807D0022006B0BDE8A8
:10320000F087A06B40F0006008E00020A063E36D51
:10321000EA199A4204D9A06B40F00070A06369E0FB
:10322000032284F8342022688146D0622268D36B5E
:1032300040F22A363343D363236C2F4ADA63236C7C
:103240002E4ADA64226C1065226C9060206C006853
:10325000026822F0C002026020680A46266C4FEA2B
:10326000472800F180014FEA98033046FEF756FFE9
:10327000DFF88CA0012670B12068C16B21F4957134
:10328000C1632168C1F838A0A06B40F08040A06302
:1032900084F834602EE01B480660606C012800D082
:1032A0006D024FF0FF30CDE900089020029002201F
:1032B0000596CDE903096946206801F06BFA012FF4
:1032C00006D9822020632946206801F057FB05E0DB
:1032D000812020632946206801F069FB00288DD0F9
:1032E0002268C2F838A0A16B0143A16384F834605E
:1032F000C4F83090012081E7D14E00086D4E0008DF
:10330000FF0540008C85254210B5FDF7D3FC10BDAC
:1033100010B5FDF7EBFC10BD2DE9F04F5FEA010B96
:1033200087B01E460446114607D094F834000128A1
:1033300007D0022007B0BDE8F08FA06B40F000601E
:1033400008E00025A563E26D8819904204D9A06BBE
:1033500040F00070A06356E0032084F83400206839
:10336000C5622068C26B40F21A2942EA0902C263B0
:10337000E26B2D48D063E26B2C48D064E06B0565AE
:10338000606C012800D049024FF09008012E05D949
:10339000A0202063206801F0CBFB04E0C4F830805B
:1033A000206801F0DEFBDFF888A0012730B1226839
:1033B000C2F838A0A16B0143A16321E01D4807605A
:1033C000E16B40208860E06B0068016821F0C0017B
:1033D00041F04001016022687602B308594680320C
:1033E000E06BFEF79BFE80B12068C16B21EA09010A
:1033F000C1632168C1F838A0A06B40F08040A06391
:1034000084F834702563012094E74FF0FF30CDE954
:103410000006CDE90285CDE904576946206801F030
:10342000B9F9002086E70000574F00086D4E0008EC
:10343000FF0540008C8525427047704710B5040099
:1034400003D094F83D0010B107E0012010BD00202A
:1034500084F83C00204600F01EF8022084F83D006D
:10346000211D206802F028F8012084F8460084F825
:103470003E0084F83F0084F8400084F8410084F85E
:10348000420084F8430084F8440084F8450084F83E
:103490003D00002010BD704790F83D10012901D07B
:1034A00001207047022180F83D100168CA6842F08F
:1034B0000102CA6000681149884214D0B0F1804FFF
:1034C00011D00F4988420ED00E4988420BD00E49C8
:1034D000884208D00D49884205D00D49884202D063
:1034E0000C49884204D1816801F00701062903D004
:1034F000016841F0010101600020704700000140B7
:103500000004004000080040000C0040000401409E
:103510000040014000180040704770B50446006844
:1035200001694FF00005C943890715D4C168C94333
:10353000890711D4E91E0161012020772068806984
:103540008007204602D0FFF7E7FF04E000F098F87C
:10355000204600F096F8257720680169C94349079D
:1035600017D4C168C943490713D46FF0040101613E
:10357000022020772068806910F4407F204602D026
:10358000FFF7CAFF04E000F07BF8204600F079F86E
:10359000257720680169C943090716D4C168C94362
:1035A000090712D46FF00801016104202077206818
:1035B000C0698007204602D0FFF7AEFF04E000F0AC
:1035C0005FF8204600F05DF8257720680169C9435F
:1035D000C90617D4C168C943C90613D46FF01001D6
:1035E0000161082020772068C06910F4407F2046E0
:1035F00002D0FFF791FF04E000F042F8204600F00F
:1036000040F8257720680169C943C90708D1C16816
:10361000C943C90704D1891E0161204600F032F870
:1036200020680169C943090609D4C168C94309066C
:1036300005D46FF0800101612046FFF7FDFE206890
:103640000169C943490609D4C168C943490605D47B
:103650006FF040010161204600F01EF8206801690A
:10366000C94389060BD4C168C943890607D46FF0E2
:10367000200101612046BDE87040FFF7DEBE70BD4D
:103680007047704700680349884201D1FEF794BE35
:1036900070470000000001407047704770B5044655
:1036A00020680C3050E8001F21F4907140E80012AF
:1036B000002AF5D12068143050E8001F21F00101E4
:1036C00040E80012002AF5D1206B012809D12068BA
:1036D0000C3050E8001F21F0100140E80012002AD1
:1036E000F5D1206840694FF00005400615D52068E7
:1036F000143050E8001F21F0400140E80012002A79
:10370000F5D1A06B48B10565A06BFEF770FB20B149
:10371000A06BFEF7C7FB202806D0E585202084F8A3
:103720003E002563002070BD10202064032070BD82
:1037300070470000F8B5016804460868CA684B691C
:1037400010F00F0F4FF0000559D003F0010602F4FE
:103750009077374365D0C10705D0D10503D5216CDB
:1037600041F001012164410705D5D90703D0216C3F
:1037700041F002012164810705D5D90703D0216CEE
:1037800041F004012164010707D502F02001314313
:1037900003D0216C41F008012164216C00293AD04A
:1037A000800604D5900602D5204601F099FF2068D6
:1037B0004069216CC0F38010090700D460B3204633
:1037C00001F059FF20684069400621D52068143077
:1037D00050E8001F21F0400140E80012002AF5D116
:1037E000A06BA8B16C490165A06BFEF749FB0028EE
:1037F00011D0A06B016D01B0BDE8F0400847830611
:103800000FD593060DD52046BDE8F84001F068BFFE
:103810002046FFF78DFFF8BD2046FFF789FF25649E
:10382000F8BD266B2023012E79D1C60677D5D606A2
:1038300075D50868486800904869400640D5A16B76
:10384000086840680004000CEAD0A28D8242E7D9E3
:10385000E085C869B0F5807F2DD020680C3050E835
:10386000001F21F4807140E80012002AF5D1206881
:10387000143050E8001F21F0010140E80012002A36
:10388000F5D12068143050E8001F21F0400140E8D5
:103890000012002AF5D184F83E30256320680C30F0
:1038A00050E8001F21F0100140E80012002AF5D175
:1038B000A06BFEF79CFAA08DE18D401A81B229E041
:1038C000A08DE18D401A81B2E08D0028A8D000299A
:1038D000A6D020680C3050E8002F22F4907240E807
:1038E0000026002EF5D12068143050E8002F22F079
:1038F000010240E80026002EF5D184F83E30256311
:1039000020680C3050E8002F22F0100240E800231D
:10391000002BF5D12046FFF7C0FEF8BDFFE70506F6
:103920002BD5150629D594F83D002128F5D1A0689E
:10393000B0F5805F01D12069B0B1206A411C2162DD
:10394000216800784860E08C401E0004000CE08490
:10395000E3D12068C16821F08001C1602068C1689E
:1039600041F04001C160D8E7206A0088C0F3080038
:103970004860206A801C2062E5E74006CDD55006ED
:10398000CBD5CA68204622F04002CA6084F83D3098
:1039900000F0A9F9C1E700008155000870B50400E6
:1039A00004D094F83D00002510B106E0012070BD60
:1039B00084F83C50204600F023F8242084F83D0091
:1039C0002068C16821F40051C160204601F0E8FE82
:1039D0002068016921F4904101612068416921F06A
:1039E0002A0141612068C16841F40051C160256429
:1039F000202084F83D0084F83E00002070BD0000C7
:103A00002DE9F04786B0054614216846FCF784FC92
:103A10007448DFF8CC810221D5F800C000240322CD
:103A20000723DFF8C4A18E060715C4453ED1DFF891
:103A3000B4C10CF1140CDCF8008048F01008CCF88C
:103A40000080DCF800C00CF0100CCDF814C0D0F8E9
:103A500000C04CF0010CC0F800C0006800F001008C
:103A6000059050028DE8130069465046CDE90323C6
:103A7000FEF79EFBDFF878815C494046E0E80216DD
:103A8000402192C040F814498461C46104624046F8
:103A9000C8F82440FEF7D8FA08B1FDF7D3FBC5F803
:103AA0003480C8F8385006B0BDE8F087DFF84481AC
:103AB000DFF83091C44509F1100944D1D9F80080EC
:103AC00048F40038C9F80080D9F800C00CF4003C74
:103AD000CDF814C0D0F800C04CF0010CC0F800C004
:103AE000006800F0010005900C208DE81300694685
:103AF0005046CDE90323FEF75BFBDFF8F4803E4937
:103B000008F160084046C8F80010C0E90164C0E947
:103B10000347C8F81440C8F81840C8F81C40C8F853
:103B20002040C8F82440FEF78FFA08B1FDF78AFB61
:103B3000C5F83880002205212620C8F83850FEF745
:103B4000D7FC262049E0DFF8B480C445ABD1D9F8D2
:103B5000008048F48028C9F80080D9F800C00CF42F
:103B6000802CCDF814C0D0F800C04CF0020CC0F886
:103B700000C0006800F0020005904FF440608DE83E
:103B8000130069461E48CDE90323FEF711FBDFF859
:103B90006080194908F1C00860394046C8F8001033
:103BA000C0E90164C0E90347C8F81440C8F81840E8
:103BB000C8F81C40C8F82040C8F82440FEF744FA72
:103BC00008B1FDF73FFBC5F838800022052127200A
:103BD000C8F83850FEF78CFC2720FEF77BFC62E724
:103BE000001001403038024000000240B86402403A
:103BF0000408002000440040886002400048004063
:103C00000004024090F83E30202B0ED159B152B141
:103C100090F83C30012B08D0012380F83C30002381
:103C2000036301F043BE01207047022070477047D4
:103C3000704700002DE9F843044690F83D001F4608
:103C400016460D4620284CD1C5B1BEB194F83C00B3
:103C5000012846D0012084F83C004FF00008C4F849
:103C60004080212084F83D00FEF7A0FBA684814619
:103C7000E684A068B0F5805F03D004E00120BDE8D1
:103C8000F883206928B12E465FF0000584F83C8057
:103C90000EE00026FAE78021204601F051FEA0B98F
:103CA000AEB116F8010B21684860E08C401EE0843C
:103CB000E08C4B464FF0000200970028EBD14FF00C
:103CC0004001204601F03CFE30B10320D7E735F833
:103CD000020BC0F30800E6E7202084F83D00002036
:103CE000CDE70220CBE7704701A002F083F8FEE7A2
:103CF0004572726F725F486172644661756C745F81
:103D000048616E646C65720D0A0000007FB5002486
:103D100017480094019402941449039401604FF4ED
:103D20008031C0E901140461047680F82040114913
:103D3000C0E90A140125C561C46080F830404561BE
:103D4000FDF75DFB08B1FDF77DFA0B20CDE900051D
:103D5000694602940648FDF7A9FA08B1FDF772FA20
:103D6000012205490248FDF7C1FB7FBD002001404B
:103D70007C0400200100000F3C00002070B51948B1
:103D80001749002401601821C0E901144FF40031E3
:103D9000C0E9034109014161047644768476C47622
:103DA000047701254577FDF7DAFE08B1FDF74AFAF9
:103DB0000C48283801464461046104604460846012
:103DC0000562C460C0E906452830FDF7B9FC022150
:103DD0000448FDF735FCBDE870400248FDF7D4BF4C
:103DE000006400404C050020214808B5016841F4FA
:103DF00080010160016801F480010091016841F4D3
:103E0000001101600068002200F4001000900221FF
:103E10000C20FEF76DFB0C20FEF75CFB002202215C
:103E20001020FEF765FB1020FEF754FB0022022154
:103E30003820FEF75DFB3820FEF74CFB00220721FF
:103E40003B20FEF755FB3B20FEF744FB00220721F9
:103E50004520FEF74DFB4520FEF73CFB00220721E5
:103E60004620FEF745FBBDE808404620FEF732BB82
:103E70003038024010B504490448FDF7F1F9024911
:103E8000491E087010BD00004900002090910008F4
:103E900070B50121384A084603F022F8374C364AFB
:103EA000012120621032084603F01AF8324A60629B
:103EB000D83A0021324803F08BF82F4AA060B43A78
:103EC0000021304803F084F82B4AE060903A00214A
:103ED0002D4803F07DF8284A20616C3A00212B48D8
:103EE00003F076F8244A6061483A0021284803F03C
:103EF0006FF8214AA061243A0021264803F068F8AF
:103F00004FF0FF35E0612946606A02F0BBFF2946A9
:103F1000206A02F0B7FFA06908B11FA000E027A047
:103F200001F068FFA06808B12DA000E035A001F005
:103F300061FFE06808B13CA000E044A001F05AFF36
:103F4000206908B14AA000E052A001F053FF606967
:103F500008B159A000E062A001F04CFFE06908B18F
:103F600069A000E071A001F045FF0348203002F095
:103F70000BFEA06270BD00006091000808000020E8
:103F8000D95C0008250D0008D54500089D420008B1
:103F90005D100008DD5300084454555F496E697494
:103FA0005F5461736B48616E646C65C8CECEF1B4CA
:103FB000B4BDA8B3C9B9A6210D0A000020445455C8
:103FC0005F496E69745F5461736B48616E646C65C0
:103FD000C8CECEF1B4B4BDA8CAA7B0DC210D0A008A
:103FE0005769745F6461745F5461736B48616E6498
:103FF0006C65C8CECEF1B4B4BDA8B3C9B9A6210DC5
:104000000A0000005769745F6461745F5461736BE8
:1040100048616E646C65C8CECEF1B4B4BDA8CAA7C1
:10402000B0DC210D0A00000043616E5F52785F54DE
:1040300061736B48616E646C65C8CECEF1B4B4BD7B
:10404000A8B3C9B9A6210D0A000000002043616E83
:104050005F52785F5461736B48616E646C65C8CE63
:10406000CEF1B4B4BDA8CAA7B0DC210D0A0000008F
:1040700052425F526561645F5461736B48616E6464
:104080006C65C8CECEF1B4B4BDA8B3C9B9A6210D34
:104090000A0000002052425F526561645F54617300
:1040A0006B48616E646C65C8CECEF1B4B4BDA8CA6D
:1040B000A7B0DC210D0A00004F696C446973706C75
:1040C00061795F5461736B48616E646C65C8CECE74
:1040D000F1B4B4BDA8B3C9B9A6210D0A000000000F
:1040E000204F696C446973706C61795F5461736BC4
:1040F00048616E646C65C8CECEF1B4B4BDA8CAA7E1
:10410000B0DC210D0A0000005369676E616C5F34FA
:10411000475F5461736B48616E646C65C8CECEF1C5
:10412000B4B4BDA8B3C9B9A6210D0A00205369676C
:104130006E616C5F34475F5461736B48616E646C91
:1041400065C8CECEF1B4B4BDA8CAA7B0DC210D0AB3
:1041500000000000154808B5016841F080010160C9
:10416000016801F080010091016841F004010160E3
:10417000016801F004010091016841F00101016052
:10418000016801F001010091016841F00201016044
:10419000016801F002010091016841F0080101602D
:1041A000006800F00800009008BD000030380240B0
:1041B000074806494FF400620160002141608160B8
:1041C000C0E903124161022181617047002C014066
:1041D000740500200C4810B50A4901604FF4E13124
:1041E0004160002181600C22C160C0E9041281613C
:1041F000C161FFF7D3FB002803D0BDE81040FDF7F5
:1042000021B810BD001001403807002038B5134C0C
:1042100011480C2120604FF4E13060600020A06064
:10422000E060C4E90401A061E0612046FFF7B6FB4D
:1042300008B1FDF707F82068016841680091C1687E
:1042400041F01001C160BDE8384004498022C43902
:104250000248FFF7D7BC0000004400407C07002064
:104260000C4810B50A4901604FF4E131416000216A
:1042700081600C22C160C0E904128161C161FFF755
:104280008DFB002803D0BDE81040FCF7DBBF10BD5C
:1042900000480040C0070020FEE7FEE790B0402144
:1042A0006846FCF739F8104E104D114C3068322139
:1042B0004843C0F3073129700EA001F09BFD94F82C
:1042C0000902012806D1607820B9402202216846FF
:1042D00000F0A2F8012204490848FDF707F9C820B8
:1042E00002F045FCE2E700003C000020080000204E
:1042F0008C01002025640D0A000000007C040020D1
:104300002DE9F04F0546002091B001290FD0022978
:104310005ED0032959D0042957D128602F4830A1F5
:10432000C27811B02846BDE8F04F01F073BD2B4CA8
:104330002860243C206AFCF75AF806460F46E069DC
:10434000FCF755F8CDE90801A069FCF750F8CDE974
:1043500006016069FCF74BF8CDE904012069FCF720
:1043600046F8CDE90201E068FCF741F8CDE900012B
:10437000A068FCF73CF882468B466068FCF737F88B
:10438000804689462068FCF732F841EC100BCDE9F5
:104390000E67DDE90801CDE90C01DDE90601CDE993
:1043A0000A01DDE90401CDE90801DDE90201CDE9F9
:1043B0000601DDE90001CDE904018DE8000F53ECB1
:1043C000102B0C49284601F025FD11B0BDE8F08FF7
:1043D0002860094809A10278A3E700008C010020A9
:1043E0007B2734475F7369676E616C273A272564C2
:1043F000277D000070980008080000207B274F6987
:104400006C5F446973706C6163656D656E74273AA7
:10441000272564277D0000002DE9F843054625A0E7
:10442000254E00680090307891468846002430B1CF
:1044300002F046FC41462846FFF762FF31E002F0F9
:104440003FFC02F0F5F9074602F06CFC5FB1641C1A
:10445000E4B21AA001F0CEFC0A2002F088FB052C81
:10446000EDD3BDE8F883012030701AA001F0C2FC42
:1044700002F026FC41462846FFF742FFFF230122B7
:1044800069461948FFF7D6FB6C46FF230122164800
:10449000611CFFF7CFFBFF230122A11C1248FFF78D
:1044A000C9FBFF234A4629460F48FFF7C3FB02F02A
:1044B00039FCD6E7030046008C010020445455BD6A
:1044C000F8C8EBCDB8B4ABD7B4CCACCAA7B0DC0D50
:1044D0000A000000445455BDF8C8EBCDB8B4ABD7C2
:1044E000B4CCAC0D0A0000007C0700202DE9F0419F
:1044F0000E4604464168D4E90230181A081A904260
:1045000000D910460746481E0340CD1ABD4200D9C7
:104510003D4620682A4618443146FBF7E4FE7A1BE4
:1045200071192068FBF7DFFEA0683844A0603846A8
:10453000BDE8F08170B504461021002002F000FBB8
:1045400005001BD0002601222CB1611E0C420CD0AC
:10455000B4F1004F14D821465FF0000002FA00F4D5
:10456000A14202D9401C2028F8DB2146002002F09D
:10457000E7FA286020B1EE60C5E90146284670BD23
:104580002946002002F0D0FA002070BD2DE9F0414C
:1045900004460E46D4E90201401A904200D9104662
:1045A00007466068421E1140451ABD4200D93D468B
:1045B00020682A4601443046FBF795FE7A1B7019A5
:1045C0002168FBF790FEE0683844E0603846BDE8BB
:1045D000F0810000E6B04FF4C0716846FBF79CFE26
:1045E00053A0584CD0E90010CDE9611052A100252C
:1045F000D1E90001CDE96301514F10A8DFF84881EE
:1046000004F1080B4FF0010AA94660900222012331
:104610001146B86A02F0F8FA80077CD598F80000D5
:10462000002878D049495846FBF79AFE30B14749EF
:104630005846C91DFBF794FE38B108E0594644A01E
:1046400001F0D8FB84F801A001E084F8019043490F
:1046500058460DE06D1CEDB2684600EB85163046FD
:10466000FBF78CFE31463EA001F0C4FB3B49002025
:10467000FBF78EFE0100EDD163A96098FBF770FE99
:1046800028B161A96098FBF76BFE28B348E0684643
:10469000FCF7D8FC01460E2801D905200EE0A1F157
:1046A0000A00042801D8042008E0881F032801D844
:1046B000032003E0C81E022802D80220E07009E0AF
:1046C000012904D9022902D884F803A002E009B91B
:1046D00084F8039024A021E06846FCF735FC264DC1
:1046E00084F802A025A0298801F084FBA97823A0E2
:1046F00001F080FBE97821A001F07CFB29791FA063
:1047000001F078FB69791DA001F074FBA9791BA069
:1047100001F070FB00E006E01AA0609901F06AFB6E
:10472000002588F80090032003F0D0FA6EE700001F
:1047300041542B434C4B000041542B435351000038
:10474000080000208C0100204D0000207890000817
:1047500064617461203D2025730D0A00DC9300081C
:1047600025730D0A0000000043535176616C756596
:10477000203D2025640D0A002C0100202564200D19
:104780000A000000434C4B76616C7565203D202586
:10479000730D0A000A6842624A688262D1E9022304
:1047A0001A43D1E904310B43C16A1A4321F0F701DE
:1047B0001143C16200207047006800F00300704799
:1047C00008444069704700000148FEF70BBB000039
:1047D0007405002070B50DF1100C11439CE87000B9
:1047E0002343194329434268314347F6FF639A4301
:1047F0000A434260002070BD032101600020704721
:10480000D0F8800070470A688260D1E901231A431A
:10481000D1E903310B43C1681A436FF30B01114314
:10482000C160002070470968C0F880100020704700
:1048300010B585B004463720CDE900104020029025
:10484000002003904FF48060049069462046FFF7F3
:10485000DAFF41F288323721204600F09BF905B09B
:1048600010BD000010B504460A4885B00143292058
:10487000CDE9001040200290002003904FF48060AA
:10488000049069462046FFF7BEFF204600F03AFA42
:1048900005B010BD0000108010B585B00446102092
:1048A000CDE9001040200290002003904FF480607A
:1048B000049069462046FFF7A6FF41F28832102196
:1048C000204600F067F905B010BD10B585B004466C
:1048D0000620CDE9001040200290002003904FF404
:1048E0008060049069462046FFF78DFF41F28832D0
:1048F0000621204600F04EF905B010BD30B585B058
:1049000000240546009401944FF480600294CDE9A0
:10491000034069462846FFF776FF0B484FF4FA51EB
:104920000068B0FBF1F041F288314843401E03D2E9
:104930004FF0004005B030BD696B0906F6D5C520C3
:10494000A8632046F6E700005C00002010B585B0A3
:1049500004464FF4D570009008200190402002904A
:10496000002003904FF48060049069462046FFF7D2
:104970004AFF204600F02CFA05B010BD10B585B0F6
:1049800004461220CDE90010402002900020039040
:104990004FF48060049069462046FFF734FF41F2EF
:1049A00088321221204600F0F5F805B010BD10B590
:1049B00085B004461120CDE900104020029000206F
:1049C00003904FF48060049069462046FFF71BFF78
:1049D00041F288321121204600F0DCF805B010BD0C
:1049E00010B585B004460720CDE900204020029094
:1049F000002003904FF48060049069462046FFF742
:104A000002FF41F288320721204600F0C3F805B0CA
:104A100010BD10B585B0044600210220CDE900107C
:104A2000C020CDE902014FF4806004906946204621
:104A3000FFF7E9FE204600F03DF905B010BD10B5C6
:104A400085B004460920CDE90010C0200290002066
:104A500003904FF48060049069462046FFF7D3FE30
:104A6000204600F027F905B010BD10B585B004460A
:104A700000213320CDE900104020CDE902010001E2
:104A8000049069462046FFF7BEFE41F2883233218A
:104A9000204600F07FF805B010BD10B585B0044683
:104AA0000D20CDE9001040200290002003904FF42B
:104AB0008060049069462046FFF7A5FE41F28832E7
:104AC0000D21204600F066F805B010BD30B585B068
:104AD0000C46054600210320CDE900104020CDE919
:104AE00002010001049069462846FFF78CFE224629
:104AF0000321284600F028F905B030BD10B585B077
:104B0000044600210C20CDE900104020CDE902012F
:104B10000001049069462046FFF775FE034A0C2108
:104B2000204600F037F805B010BD000000E1F505A3
:104B300010B585B004461920CDE900104020029040
:104B4000002003904FF48060049069462046FFF7F0
:104B50005AFE41F288321921204600F01BF805B0B8
:104B600010BD10B585B004461820CDE900104020D6
:104B70000290002003904FF4806004906946204624
:104B8000FFF741FE41F288321821204600F002F87A
:104B900005B010BD454B10B51B684FF4FA54B3FB7C
:104BA000F4F353435B1E02D24FF0004010BD426B42
:104BB00012F0450FF6D01205F4D4426B520703D51C
:104BC00004218163084610BD426BD20702D0012147
:104BD000816305E0C52282630269D2B28A4201D0B4
:104BE000012010BD0021FFF7EBFD3149084201D142
:104BF000002010BD002802DA4FF0007010BD410007
:104C000001D5402010BD810001D5802010BDC1001C
:104C100002D54FF4807010BD010102D54FF4007031
:104C200010BD410102D54FF4806010BDC10102D515
:104C30004FF4006010BD010202D54FF4805010BD4A
:104C4000410202D54FF4005010BD810202D54FF44D
:104C5000804010BDC10202D54FF4004010BD410399
:104C600002D54FF4003010BD810302D54FF48020EF
:104C700010BDC10302D54FF4002010BD010402D5C0
:104C80004FF4801010BD410402D54FF4001010BD48
:104C9000810402D54FF4800010BD000702D54FF407
:104CA000000010BD4FF4803010BD00005C000020FB
:104CB00008E0FFFD12494FF4FA520968B1FBF2F126
:104CC00041F288325143491E02D24FF000407047F2
:104CD000426B12F0450FF6D01205F4D4416B490730
:104CE00003D50421816308467047416BC90703D08F
:104CF0000121816308467047C52181630020704708
:104D00005C0000200F494FF4FA520968B1FBF2F140
:104D100041F288325143491E02D24FF000407047A1
:104D2000426B12F0450FF6D01205F4D4416B4907DF
:104D300003D50421816308467047C52181630020A3
:104D4000704700005C00002030B5204B4FF4FA544F
:104D50001B68B3FBF4F341F2883463435B1E02D259
:104D60004FF0004030BD446B14F0450FF6D02405E1
:104D7000F4D4436B5B0703D504218163084630BD3F
:104D8000436BDB0702D00121816303E00369DBB2DF
:104D90008B4201D0012030BDC52181630021FFF786
:104DA0000FFD10F4604F04D0410406D54FF40050BD
:104DB00030BD000C1080002030BD000402D54FF43F
:104DC000805030BD4FF4803030BD00005C000020CA
:104DD00014494FF4FA520968B1FBF2F141F28832FA
:104DE0005143491E02D24FF000407047426B12F00F
:104DF000450FF6D01205F4D4416B490703D50421C1
:104E0000816308467047416BC90703D00121816364
:104E100008467047416B490601D540218163002057
:104E2000704700005C00002010B5064C0120207087
:104E3000FBF706FF18B9207820F0010020702078D9
:104E400010BD00004000002070B5054601F01EFFB7
:104E5000044603E0FBF7F4FE002806D001F016FF3D
:104E6000001BA842F6D34FF0FF3070BD10B5846B25
:104E7000FDF718F8022828D0206C416DE06B406DDA
:104E8000012901D001281DD12168104888632068BC
:104E9000C16B21F49D71C163A06B40F08040A063A1
:104EA0002046FDF789FF062801D0052805D1206896
:104EB000FFF724FEA16B0843A063012084F83400AF
:104EC000002020632046FDF797FE10BDFF0540003F
:104ED00010B5846B206B822809D12068FFF70EFE85
:104EE00028B1A16B0143A1632046FDF785FE206830
:104EF000C16A21F00801C162216840F23A5088631A
:104F0000012084F83400002020632046FEF7FCF9DD
:104F100010BD10B5846B40F23A502168886320467A
:104F2000FDF74AFF012184F834100021216306288F
:104F300001D0052805D12068FFF7E0FDA16B0843EB
:104F4000A063A06B0028204602D0FDF755FE10BDDF
:104F5000FDF7C2FD10BD806B0068C16B41F480712C
:104F6000C163704710B5846B40F23A502168886382
:104F70002046FDF721FF012184F834100021216330
:104F8000062801D0052805D12068FFF7B7FDA16BE1
:104F90000843A063A06B0028204602D0FDF72CFE3A
:104FA00010BDFDF799FD10BD2DE9F04788B00D4605
:104FB0000446FDF7FBF90026824600960196374627
:104FC00008212068FFF768FC002829D1B4F85000B8
:104FD00001042068FFF72CFC002821D1401E4FF06F
:104FE0000808CDE9020830204FF00209CDE9040994
:104FF0000120CDE9067002A92068FFF7CBFB2068ED
:10500000FFF733FD00280BD16F462068416B11F08C
:105010002A0F08D0416B09071AD5C0F8388008203C
:1050200008B0BDE8F087416B890205D5FFF7E8FBC2
:1050300047F82600761C02E0416B8904EAD5FDF7AB
:10504000B5F9A0EB0A00401CDFD14FF00040E7E7C4
:10505000416B890703D5C0F838900220E0E7416B27
:10506000890603D5202181630846D9E740F23A51E9
:105070008163019800BA2860009800BA6860002037
:10508000CEE710B590B004460120ADF83800206896
:10509000FFF792FB002854D0606C032842D02068B0
:1050A000FFF7B7FC00284AD100212068FFF788FBF2
:1050B000606704212068FFF783FBA0670821206850
:1050C000FFF77EFBE0670C212068FFF779FBC4F84F
:1050D0008000606C032825D00EA92068FFF7F6FC3D
:1050E00000282CD1606C03281CD0BDF83800206546
:1050F00001042068FFF7A3FC002820D100212068CC
:10510000FFF75EFB606604212068FFF759FBA0668D
:1051100008212068FFF754FBE0660C212068FFF7A8
:105120004FFB206704212068FFF74AFB000DE06475
:1051300003A92046FDF762FD30B14FF0805010B05A
:1051400010BD4FF08060FAE7B4F85000002302046D
:105150002068FFF745FC0028F1D104F1100007C8D2
:105160008DE8070094E80F00FFF734FB0020E6E726
:105170002DE9F84F0026044600963546B0460068F3
:10518000FFF7BCFB002827D12068FFF7DFFB4FF0BB
:10519000805B4FF001094FF6FF7748B1A6642068A5
:1051A000FFF7ACFB002817D1A06C012802D020E04B
:1051B000C4F8489000212068FFF73AFB58B918E07E
:1051C00000212068FFF734FB002805D151462068F4
:1051D000FFF748FB10B15846BDE8F88F0021206862
:1051E000FFF7EEFA05464FEAD0780098401C009091
:1051F00002E0DFF82CA00098B84202D2B8F1000F0C
:10520000DED00098B84202D34FF08070E4E7680027
:1052100002D5C4F8449000E066640020DCE700009A
:10522000000010C170B5104C05460120207001F03F
:105230001DFD022816D1FBF70FFD18B92846FFF710
:10524000F3FD2070207801280CD0606850B900224E
:1052500002210A2001F0B6FD606018B9207840F004
:1052600001002070207870BD4000002010B5124869
:1052700088B014460078C00702D0032008B010BDE3
:10528000C1B1012905D0022908D003290CD004207E
:10529000F4E76846FBF7CEFC06980AE06846FBF7A1
:1052A000C9FC0798208005E06846FBF7C3FC079817
:1052B000400A20600020E1E7400000202DE9F8438B
:1052C00047F230541E461746884601252046FFF710
:1052D000BBFD00281EDB324639464046FBF7DCFCAE
:1052E000C0B90F48234600226946406801F038FDE6
:1052F00080B9BDF8000001280CD101F0C7FC0646BA
:1053000003E000BFFBF79CFC38B101F0BFFC801B41
:10531000A042F7D32846BDE8F8830025FAE700004D
:1053200040000020FFF780BD2DE9F84347F23054DC
:105330001E461746884601252046FFF785FD0028B2
:105340001EDB324639464046FBF7C2FCC0B90F4867
:10535000234600226946406801F002FD80B9BDF88D
:10536000000002280CD101F091FC064603E000BFCA
:10537000FBF766FC38B101F089FC801BA042F7D333
:105380002846BDE8F8830025FAE700004000002029
:1053900010B50023104A15E0362809D039280BD063
:1053A0003C2812D054783F2813D044F0800406E003
:1053B000547844F0010402E0547844F0020454703C
:1053C000401C5B1C8B42E7D310BD547844F00804AA
:1053D000F5E744F00404F2E7E000002090B040213B
:1053E0006846FAF799FF4FF47A74204601F0BFFB44
:1053F000FBE710B54FF0E020006903F02FFC012817
:1054000003D0BDE8104002F0A7BF10BD30B593B087
:1054100030216846FAF780FF14210CA8FAF77CFFC8
:105420001C480025016841F080510160006800F0CF
:10543000805011901848016841F480410160006873
:10544000022400F48040119001200090000401909B
:105450008001CDE90640192008904FF4A870CDE9ED
:10546000090408200B906846FDF780F970B90CA973
:105470000F2081E831004FF4A0500F90E00210900F
:1054800005210CA8FDF766F8002801D0FBF7DAFE2D
:1054900013B030BD4038024000700040024801683F
:1054A00041F470010160704788ED00E00148FEF7AB
:1054B00034B8000024090020F0B50268254C264DC0
:1054C000264E274F274B4FF0804CA04209D0604515
:1054D00007D0A84205D0B04203D0B84201D09842CC
:1054E00004D122F0700E4A6842EA0E02A0421BD09C
:1054F000604519D0A84217D0B04215D0B84213D099
:10550000984211D0184DA8420ED0184DA8420BD089
:10551000174DA84208D0174DA84205D0164DA842F5
:1055200002D0164DA84203D122F44075CA682A431E
:105530004D6922F080022A4302608A68C2620A68CA
:105540008262A04201D0984201D109690163012120
:105550004161F0BD0000014000040040000800402F
:10556000000C0040000401400040014000440140A4
:105570000048014000180040001C0040002000408E
:1055800010B5806B0021C185C184FEF7D1F810BD34
:1055900070B5846B2068406994F83D10C0F3C0106A
:1055A0000025212904D118B1E584204600F08AF8AD
:1055B0002068406994F83E10C0F38010222904D17D
:1055C00018B1E585204600F056F8206C40F0100038
:1055D00020642046FEF7ACF870BD10B50146806B24
:1055E00009680968C9052FD40021C18501680C31FB
:1055F00051E8002F22F4807241E80023002BF5D1FE
:105600000168143151E8002F22F0010241E8002323
:10561000002BF5D10168143151E8002F22F040022F
:1056200041E80023002BF5D1202180F83E10016BCA
:10563000012909D101680C3151E8002F22F0100234
:1056400041E80023002BF5D1016B012902D0FEF7C0
:10565000EEFA10BD818DFEF720F810BD10B5806BFD
:10566000016B012902D0FEF7E3FA10BD818D4908D4
:10567000FEF713F810BD01680C3151E8002F22F439
:10568000907241E80023002BF5D10168143151E8F4
:10569000002F22F0010241E80023002BF5D1016B1D
:1056A000012909D101680C3151E8002F22F01002C4
:1056B00041E80023002BF5D1202180F83E10002185
:1056C0000163704701680C3151E8002F22F0C002DD
:1056D00041E80023002BF5D1202180F83D107047D0
:1056E00008B590F83E10222901D0022008BD82683A
:1056F0004FF480539A4201D1016921B1816A9A42E3
:105700001BD04AB10AE00268816A5268C2F30802FB
:105710000A80816A891C08E0026972B102685268D5
:1057200002F07F020A70816A491C8162C18D491EA4
:105730000904090CC18503D019E002685268F1E739
:105740000168CA6822F02002CA600168CA6822F4AF
:105750008072CA6001684A6922F001024A61202110
:1057600080F83E10016B012903D0FEF760FA00209B
:1057700008BD0021016301680C3151E8002F22F0BF
:10578000100241E80023002BF5D101680A68D20617
:1057900002D50A6849680091818DFDF77EFFE6E732
:1057A00070B5044600680169E26821F44051114374
:1057B00001612169A068E2690843616911430843F6
:1057C0002168CA6849F20C639A430243CA602068A0
:1057D0004169A26921F44071114341613149206856
:1057E000884202D03049884202D1FCF77DFF01E0B7
:1057F000FCF76AFFE2690023192164253226B2F51D
:10580000004F626828D0A0FB0101930F9200FAF7C5
:1058100039FD0146B0FBF5F06FF01802504301EB83
:10582000800006EB0010B0FBF5F000F0F002B1FBD9
:10583000F5F002EB0012B1FBF5F06FF018035843DE
:1058400001EB800006EB0010B0FBF5F000F00F005C
:1058500021681044886070BDA0FB010192185B4173
:10586000FAF710FD0146B0FBF5F00201B1FBF5F0CF
:105870006FF01803584301EB800006EBC000B0FB4B
:10588000F5F000F0F80002EB4002B1FBF5F05843F0
:1058900001EB800006EBC000B0FBF5F000F0070064
:1058A000D6E70000001001400014014038B58162C5
:1058B00082850025134604460564222084F83E00B4
:1058C000A26B1C48D063A26B1B481064A26B1B48E0
:1058D000D064A06B0A4605652168A06B091DFCF722
:1058E0001DFC206801684068009084F83C502069E5
:1058F00048B120680C3050E8001F41F4807140E846
:105900000012002AF5D12068143050E8001F41F041
:10591000010140E80012002AF5D12068143050E857
:10592000001F41F0400140E80012002AF5D100209C
:1059300038BD0000DB5500085D5600089155000891
:105940002DE9F041984617460E460446069D27E08D
:10595000681C25D02DB1FCF729FDA0EB0800A8425A
:105960001ED920680C3050E8001F21F4D07140E8A7
:105970000012002AF5D12068143050E8001F21F0F1
:10598000010140E80012002AF5D1202084F83D00F2
:1059900084F83E00002084F83C000320BDE8F0813C
:1059A0002068006836EA000004D00020B842CFD05A
:1059B0000020F3E70120F9E7174808B500680168FF
:1059C000C943C90623D401684068009013480068A1
:1059D0001248001D00681048FDF760FE104800687E
:1059E00040681049C0F18000802208700E490A48C2
:1059F000FEF708F90C48FAF7ACFC02460B480A49D6
:105A00000068FEF773FD0A48006801F0B5FABDE8CA
:105A100008400148FDF78EBE7C070020004400408E
:105A2000640800204D000020B80600200C00002073
:105A30002C0000200148FDF77DBE0000C0070020BB
:105A4000FEE700001CB50C498A69002A13D0096AD8
:105A5000022910D1017855290DD14188ADF80010E7
:105A60008188ADF80210C188ADF804104078032297
:105A70006946FBF799F91CBDE000002018B1034905
:105A80000861002070476FF005007047E0000020BB
:105A900018B103494861002070476FF00500704756
:105AA000E0000020032802D96FF005007047034A88
:105AB000106211700020D06170470000E0000020EB
:105AC00018B103498861002070476FF005007047E6
:105AD000E000002010B54BF28851692000F054F826
