:020000040800F2
:10000000988B002061020008615D0008C14C000867
:1000100071580008190D00087D7D000800000000DF
:10002000000000000000000000000000A101000826
:10003000A112000800000000FD0100085171000835
:100040007B0200087B0200087B0200087B0200089C
:100050007B0200087B0200087B0200087B0200088C
:100060007B0200087B0200087B0200087B0200087C
:10007000B91000087B0200087B0200087B02000820
:10008000C51000087B020008FD0A0008290D0008C1
:100090001D0D00087B0200087B0200087B0200089F
:1000A0007B020008157200087B0200087B02000832
:1000B000217200082D7200087B0200087B020008F4
:1000C0007B0200087B0200087B0200087B0200081C
:1000D0007B0200087B020008197B0008D97B00081E
:1000E0007B0200087B0200087B0200087B020008FC
:1000F0007B020008457200087B0200087B020008B2
:100100007B02000875640008397200087B02000851
:100110007B0200087B0200087B0200087B020008CB
:10012000D11000087B020008DD100008E91000086B
:100130007B0200087B0200087B0200087B020008AB
:100140007B0200087B0200087B0200087B0200089B
:100150007B020008F5100008011100087B0200086E
:100160007B0200087B0200087B0200087B0200087B
:100170007B0200087B0200087B02000800000000F0
:100180007B02000809130008DFF810D000F0BEFB66
:100190000048004715960008AFF30080988B0020B8
:1001A0002C4B19680868B0E8F04F80F30988BFF35A
:1001B0006F8F4FF0000080F311887047000000003F
:1001C00008480068006880F308884FF0000080F35A
:1001D000148862B661B6BFF34F8FBFF36F8F00DF35
:1001E00000BF00BF08ED00E0DFF80C00016841F43B
:1001F00070010160704700BF88ED00E0EFF30980F7
:10020000BFF36F8F134B1A681EF0100F08BF20ED5D
:10021000108A20E9F04F106009B44FF0200080F3FD
:100220001188BFF34F8FBFF36F8F0AF0A7FE4FF017
:10023000000080F3118809BC19680868B0E8F04F25
:100240001EF0100F08BFB0EC108A80F30988BFF3CE
:100250006F8F7047D0020020EFF3058070470000D9
:100260000648804706480047FEE7FEE7FEE7FEE750
:10027000FEE7FEE7FEE7FEE7FEE7FEE705720008A1
:10028000890100082DE9F05F0546002092469B4653
:1002900088460646814640241BE02846414647469C
:1002A000224600F0B7F953465A46C01A914110D37E
:1002B00011461846224600F09EF92D1A67EB0108F8
:1002C0004F4622460120002100F095F917EB000966
:1002D0004E41201EA4F10104DFDC484631462A4687
:1002E0004346BDE8F09F40EA01039B0703D009E0C5
:1002F00008C9121F08C0042AFAD203E011F8013B12
:1003000000F8013B521EF9D27047D2B201E000F86A
:10031000012B491EFBD270470022F6E710B51346A9
:100320000A4604461946FFF7F0FF204610BD30B5D7
:1003300005462A460B4612F8010B13F8014B08B18B
:10034000A042F8D01CB1002802D06D1CF1E728466D
:1003500030BD421C10F8011B0029FBD1801A7047E8
:1003600010B5002200E0521C835C8C5CA34201D1DA
:10037000002BF8D1D8B2E1B2401A10BD70B50646D4
:1003800007F052FF046805460A220021304600F0BB
:1003900051F92C6070BD2DE9FE4F81EA030404F091
:1003A000004421F0004100944FF0000B23F0004383
:1003B00050EA01045ED052EA03045BD0C3F30A544E
:1003C000C1F30A552C44A4F2F3340194A0FB025467
:1003D000C1F3130141F48011C3F3130343F48013F9
:1003E00001FB024400FB034E840A970A44EA81544D
:1003F00047EA8357A4FB076802958D0A05FB07852A
:100400004FEA932C04FB0C542705029D4FEA065833
:1004100047EA1637B5EB08056EEB070C870E920E10
:1004200047EA811742EA8312A7FB0201B6EB0B01F0
:1004300064EB00042B0D43EA0C335E1844EB1C50B4
:10044000DA465146E7FB0201C5F313044FEA0B33CA
:1004500043EA14534FEA0432019C43EA0603A4F131
:100460000C040294009CCDE900B400F02AF903B01A
:10047000BDE8F08F00200146F9E72DE9F04D81EA53
:10048000030404F0004B21F0004514464FF0000A2D
:1004900023F0004150EA050220D054EA01021DD0A9
:1004A000C5F30A570246C5F31303C1F31300C1F3A2
:1004B0000A5640F4801543F48013A7EB0608101B7E
:1004C000D64608F2FD3873EB050002D308F10108A7
:1004D00001E092185B41B8F1000F03DA00200146F9
:1004E000BDE8F08D00204FF48011064684460EE0F2
:1004F000171B73EB050705D3121B63EB05030643BC
:100500004CEA010C49084FEA300092185B4150EA6E
:100510000107EDD152EA030012D082EA040083EA17
:100520000501084305D0101BAB4106D20122002370
:1005300006E000224FF0004302E06FF0010253108A
:100540001AEB06004CEB085110EB0A0041EB0B01D3
:10055000BDE8F04D00F0A6B80EB540F2334102916F
:100560000021CDE900110A460B4600F0AAF803B0BD
:1005700000BDC1F30A5210B5C1F3130140F2FF33BD
:1005800041F480119A4201DA002010BD40F2334359
:100590009A42A2F2334203DC524200F03BF810BD13
:1005A000904010BD00F0004230F000400AD0C10D74
:1005B00001F56071C0F3160042EA0151C20840071C
:1005C0001143704700200146704730B50B46014685
:1005D00000202022012409E021FA02F59D4205D3E2
:1005E00003FA02F5491B04FA02F52844151EA2F18C
:1005F0000102F1DC30BD202A04DB203A00FA02F1CE
:10060000002070479140C2F1200320FA03F3194300
:1006100090407047202A04DB203A21FA02F00021A2
:10062000704721FA02F3D040C2F120029140084302
:10063000194670472DE9F04791460F46804604461B
:10064000002614F8015B2DB100F084F90068405DCC
:10065000C007F6D12B2D02D02D2D18D0641E4A468E
:100660003946204600F07AF927B13968A14201D114
:10067000C7F8008071054FF002040BD540420028F6
:1006800003DD07F0D1FD0460A007BDE8F08746F464
:100690008066E4E70028F8DA07F0C6FD04606FF032
:1006A0000040F2E710B5141E73F1000408DA401C94
:1006B00041F1000192185B411A4301D120F0010081
:1006C00010BD2DE9F04D92469B4611B1B1FA81F271
:1006D00002E0B0FA80F220329046FFF78CFF044629
:1006E0000F4640EA0A0041EA0B0153465A460843C6
:1006F00013D0114653EA010019D0C8F14002504608
:10070000FFF788FF05460E46504659464246FFF71A
:1007100072FF084305D0012004E020463946BDE8B9
:10072000F08D0020054346EAE0762C4337430A98D3
:100730006305E40AA0EB08000022FD0A44EA4754DE
:100740000A3002D500200146E9E701051019694188
:10075000DDE9084500196941BDE8F04DA2E72DE942
:10076000FE4F804681EA0300C00F0C46009021F046
:10077000004123F00045B8EB0200A94105D24046F4
:10078000214690461C460B46024623F0004010438B
:1007900047D0270DC7F30A00C3F30A510290401A4D
:1007A000019040286BDAC3F3130040F4801B0098DB
:1007B000924620B10023D2EB030A63EB0B0B0198A6
:1007C0005946C0F140025046FFF715FF06460D4658
:1007D00050465946019A00F0ABF810EB0800614111
:1007E000002487EA115284EAE7731A4340D0009A42
:1007F00062B3019A012A4FEA075215DC001B61EB34
:1008000002014FF0004202EA0752CDE90042001C0B
:1008100041F5801132462B46FFF753FF03B0BDE888
:10082000F08F40462146F9E7001B61EB0201001CF6
:1008300041F5801300185B412018A2F5001747EB23
:10084000030140EAD570B6196D4111E06D084FEA19
:10085000360645EAC0754FEA0752001B61EB0201FC
:10086000001C41F5801149084FEA30000019514140
:1008700032462B4603B0BDE8F04FFFF713BF009898
:10088000012240000023D0EB020263EBE0730098EA
:1008900021464FEAE074B8EB000061EB0401E9E7A0
:1008A00083F000435BE781F0004158E7C1F30A524F
:1008B000C1F3130140F2FF3341F480119A4202DA8E
:1008C00000200146704740F233439A42A2F233427D
:1008D00002DC5242FFF79EBEFFF78DBE30B5041E0C
:1008E00071F1000404DB4FF00044404264EB01016D
:1008F000141E73F1000405DB1C464FF00043524206
:1009000063EB0403994208BF904230BD064C074D8B
:1009100006E0E06840F0010394E8070098471034CF
:10092000AC42F6D3FFF734FCA8D10008C8D10008C8
:10093000202A06DBCB17203A41FA02F043EAE073A3
:1009400006E041FA02F3D040C2F120029140084390
:100950001946704700487047FCC700082DE9F05F52
:1009600082460078002715468B460AF10104B946F5
:10097000302801D09DB113E014F8010B012778282D
:1009800003D0582801D045B10AE00DB1102D07D190
:100990000027102514F8010B02E0082500E00A25C5
:1009A0000026B0460EE005FB080005FB06F1012716
:1009B00001EB10461FFA80F8B6F5803F00D3B94628
:1009C00014F8010B294600F018F80028EBDABBF107
:1009D000000F05D00FB1641E00E05446CBF8004074
:1009E000B9F1000F06D007F01FFC02210160C81EFC
:1009F000BDE8F09F48EA0640FAE73A2800D23038CE
:100A000020F02002412A01D3A2F13700884201D30D
:100A10004FF0FF30704770B58C1810F8015B15F07F
:100A2000070301D110F8013B2A1106D110F8012B60
:100A300003E010F8016B01F8016B5B1EF9D12B0785
:100A400005D40023521E0DD401F8013BFAE710F83B
:100A5000013BCB1A921C03E013F8015B01F8015B28
:100A6000521EF9D5A142D8D3002070BD10B5014661
:100A7000806B026C12F0500F05D0026CD20626D5A6
:100A800000F00DFE10BD016C41F4007101640168BD
:100A90008A6812F0405F17D1027EAAB9CA6A12F4BE
:100AA000700F02D08A6852050ED44A6822F02002E4
:100AB0004A60016C21F480710164016CC90403D4A3
:100AC000016C41F00101016400F0D0FD10BD806BAC
:100AD000C26CBDE810400846104710B5806B40213D
:100AE0000164416C41F00401416400F0D8FD10BD87
:100AF00010B5806B00F0D2FD10BD000010B50448A9
:100B000000F0CEFDBDE81040024800F0C9BD000075
:100B10001810002060100020464910B54A6822F4E1
:100B200040324A604A6843681A434A6001684A682A
:100B300022F480724A6001684A68036942EA03222B
:100B40004A6001684A6822F040724A6001684A6857
:100B500083681A434A6001688A6822F400628A60E6
:100B600001688A68C3681A438A60816A6FF070629C
:100B7000D14201688A6822F070628A6001688A68DE
:100B80000CD0836A1A438A6001688A6822F0405256
:100B90008A6001688A68C36A1A4301E022F0405201
:100BA0008A6001688A6822F002028A6001688A68A5
:100BB000037E42EA43028A6090F82010002901680F
:100BC0004A680FD042F400624A6001684A6822F421
:100BD00060424A6001684A68174C436A04EB433339
:100BE0001A4301E022F400624A600168CA6A22F4F2
:100BF0007002CA620168CA6A838B104C04EB03530B
:100C00001A43CA6201688A6822F400728A60016825
:100C10008A6890F8303042EA43228A6001688A6824
:100C200022F480628A6001688A68406942EA802012
:100C3000886010BD0023014000E0FFFF0000F0FFCE
:100C4000704700000146014802F0E6BBC4110020D5
:100C500010B5044802F0F2FB042801D0012010BDB9
:100C6000002010BDC411002010B500F015F80128B7
:100C700001D0012010BD074802F0FAFC040006D1A3
:100C80004FF40061034802F06DFA00B101242046E0
:100C900010BD0000C411002008B501208DF800002F
:100CA0009DF8000008BD0000134610B50A46014635
:100CB0000024034802F0D8FD00B10124204610BDF5
:100CC000C411002008B50120ADF80000034800233E
:100CD0001A466946406808F0FDFF08BDA8020020DA
:100CE000134610B50A4601460024034802F056FE9A
:100CF00000B10124204610BDC411002008B5022017
:100D0000ADF80000034800231A466946406808F021
:100D1000E1FF08BDA8020020FEE70000014801F045
:100D200026B9000090110020014801F020B9000010
:100D300090110020054D4FF0FF342146A86D08F0BA
:100D4000FDFF012008F045FEF7E700000C00002041
:100D500088B0002008250226884C0190029003905C
:100D60008DF8140001274FF00408A06E08F05DFE16
:100D7000C00744D00121A06E08F038FE5120049530
:100D800000907F4801F0DDF80028FAD006AB7D4ADC
:100D900069467B4800F06CFF10B17BA007F0FAF9C0
:100DA000052008F016FE522004950090744801F0CA
:100DB000C8F80028FAD0734A06AB08326946704872
:100DC00000F056FF10B170A007F0E4F9052008F01C
:100DD00000FE532004950090694801F0B2F8002805
:100DE000FAD0684A06AB10326946654800F040FF09
:100DF00010B165A007F0CEF9052008F0EAFDA06E5D
:100E000008F013FE800718D50221A06E08F0EEFD51
:100E1000009504955A4801F094F80028FAD0574AF2
:100E200006AB8C326946564800F022FF10B156A03E
:100E300007F0B0F9052008F0CCFDA06E08F0F5FD34
:100E4000000719D50821A06E08F0D0FDCDF810805C
:100E500000964B4801F075F80028FAD0474A06ABD7
:100E600020326946464800F003FF10B146A007F063
:100E700091F9052008F0ADFDA06E08F0D6FDC00682
:100E80001AD51021A06E08F0B1FD032000900620B5
:100E900004903B4801F055F80028FAD0374A06ABD9
:100EA00070326946364800F0E3FE10B136A007F014
:100EB00071F9052008F08DFDA06E08F0B6FD8006E2
:100EC00019D52021A06E08F091FD0720009704900D
:100ED0002B4801F036F80028FAD0284A06AB7632C3
:100EE0006946274800F0C4FE10B127A007F052F968
:100EF000052008F06EFDA06E08F097FD400619D59C
:100F00004021A06E08F072FD0520049600901C4858
:100F100001F017F80028FAD0184A06AB921D69466E
:100F2000174800F0A5FE10B117A007F033F905200F
:100F300008F04FFDA06E08F078FD000619D580215D
:100F4000A06E08F053FDCDF8008004970C4800F027
:100F5000F8FF0028FAD0094A06AB963269460848DD
:100F600000F086FE10B108A007F014F9052008F083
:100F700030FD012008F02DFDF7E600000C000020F8
:100F80009011002014080020CAFDBEDDB7A2CBCD11
:100F9000CAA7B0DCA3A10D0A0000000010B50C4CDC
:100FA000A078612806D0652809D06D280FD106F0F9
:100FB0004DFF06E006F02CFF38B106A003E006F076
:100FC00063FF10B109A007F0E5F8FF20A07010BD85
:100FD000500300200D0A5365742041636343616C24
:100FE00069204572726F720D0A0000000D0A536588
:100FF00074204D616743616C69204572726F720D98
:101000000A0000002DE9F04700270425DFF8A08042
:10101000DFF8A09050383E4601F1060A102845D26C
:10102000DFE800F01108130C1517191B1D1F2144D0
:101030004444442334240325402702E03D2403256F
:101040002E27012613E0302411E037242BE03A2428
:1010500029E041240BE0452409E0492407E04D2420
:1010600005E0512403E0552401E0D8F82440032A88
:1010700019D04DB16A0009EB4400FFF734F9D8F8F4
:101080001820294620469047002E0FD0720009EB09
:1010900047005146FFF727F931463846D8F818205F
:1010A000BDE8F047104703250026E3E7BDE8F087D9
:1010B00050030020DC600020014801F005BA000068
:1010C00034160020014801F0FFB90000D4150020BB
:1010D000014801F0F9B90000A8100020014801F012
:1010E000F3B9000008110020014801F0EDB900003B
:1010F00048120020014801F0E7B90000A8120020C2
:10110000014801F0E1B900007415002001681823BE
:10111000CAB2103AB2FBF3F2054B6FF30901032A8E
:101120009B5CC36500D9091D8165084670470000B6
:1011300098C2000810B5014600208B698A6A4FF0FA
:10114000C07453B1B3F5005F15D072B1012A0CD051
:10115000022A0AD0032A09D104E01AB1012A06D0D2
:10116000022A03D1C96AC90100D5012010BDC96A8C
:10117000A142FAD010BD002AF7D0012AF2D0022AEB
:10118000F3D0032AF3D010BD30B50468256825F4E8
:1011900080252560046863608368402B036803D062
:1011A00099600068C26030BD9A600068C16030BD5F
:1011B000204D00244FF48066002008F065FB304687
:1011C00005F06EF8E8611CA006F0E4FF4FF47A77B2
:1011D00008E0042007F018FDE0B1641CA4B2384612
:1011E00008F0F7FB0A2CF4D91E4806F0D3FF1EA026
:1011F00006F0D0FF224806F0CDFF686E08F015FC1F
:10120000000703D50421686E08F030FC686B09F014
:1012100037FDD1E70821686E08F028FC114806F078
:10122000B9FF18A006F0B6FF154806F0B3FF0A2C68
:10123000DAD8E2E70C0000205761697420666F720B
:1012400020436174312044545520746F20737461BD
:1012500072742C2077616974203130732E2E2E2EFB
:10126000200D0A0050C8000841544B2D445455200D
:10127000496E6974204661696C202E2E2E0D0A007D
:1012800000C80008436174312044545520496E69F8
:10129000742053756363657373200D0A00000000AA
:1012A0007047000072B602A006F074FFFEE700006F
:1012B0004572726F725F48616E646C65720D0A00F0
:1012C000002200F001B8000030B50E4B05460120A9
:1012D0005C7A002C14D1587A1C54587A03EB8000A5
:1012E00045605D7A03F108002A54587A421C5A720C
:1012F000303008703A2048702F208870CC70002061
:1013000030BD0000FC1600207047000070B50C4690
:10131000054604F033FB2146284604F0BFFA214677
:10132000284604F0DDFA04482146027D2846BDE83F
:10133000704004F099BB0000940300200A4C002583
:10134000606E08F072FBC00509D5A088000406D5C0
:10135000A58006490648FFF7D9FF00F05BF8322068
:1013600008F037FBECE700000C000020407D002077
:10137000C0080020FF25DFF86C80DFF86C901B4E62
:1013800000244FF47A774FF4FA7A4FF4807B0121EE
:10139000384606F08BFC60B91CE001224146484605
:1013A00006F0A8FC06F050FC641CE4B20546052CCF
:1013B00008D80121384606F079FC08B1002DECD19F
:1013C000052C01D90AA000E00DA006F0E3FE50466E
:1013D00008F0FFFA5946706E08F048FBF06B09F010
:1013E0004FFCD4E7A086010040420F000C00002013
:1013F00047505320536574204661696C0D0A000004
:101400004750532053657420537563636573730DA0
:101410000A00000070B590B040216846FEF77CFFDE
:101420002A4C2BA094F8403094F83F2034F83D1F0C
:1014300006F0B0FEA379627921792DA03D3C06F03B
:10144000A9FE334EB07801282CD0B4F83D0040F20C
:10145000E471884226D994F8411019B394F84220D7
:1014600002B394F84330EBB106F17005A0F5FA60D1
:10147000287014F83F0F68706078C91DA870E97073
:101480002A716B71002423A0295D06F083FE641C81
:10149000E4B2062CF7D31021B06E08F0E7FA14205E
:1014A00008F097FA0821B06E08F0E0FA1848943076
:1014B0000178002908D190F80302002804D14022C5
:1014C0000321684604F048FE10B070BDC00800203B
:1014D00055544320446174653A253034642F2530D7
:1014E00032642F253032642020200D0A00000000D5
:1014F0005554432054696D653A253032643A25309D
:1015000032643A253032642020200D0A00000000A9
:101510000C00002025640D0A000000007047000048
:1015200078B50024009490F83C20012A19D00122BB
:1015300080F83C200A6807230568092A13D9EE6859
:101540000A3A02EB420293409E43EE600B788A68AF
:101550000A3B03EB43039A400368DD682A43DA60E1
:1015600010E0022078BD2E6902EB420293409E43B8
:101570002E610B788A6803EB43039A4003681D6968
:101580002A431A614A681F23072A13D205686E6B23
:10159000521E02EB820293409E436E630B790A88CF
:1015A0005B1E92B203EB83039A4003685D6B2A4390
:1015B0005A6327E005680D2A12D22E6BD21F02EB68
:1015C000820293409E432E630B790A88DB1F92B2FE
:1015D00003EB83039A4003681D6B2A431A6311E0EF
:1015E000EE6A0D3A02EB820293409E43EE620B7963
:1015F0000A880D3B92B203EB83039A400368DD6ACD
:101600002A43DA62164B0568144A9D4206D10D68DA
:10161000122D03D1556845F48005556005689D423B
:1016200018D10B68102B01D0112B13D1536843F440
:1016300000035360096810290CD10A490A4A096855
:10164000B1FBF2F101EB8101490000E0491E00917C
:101650000029FBD180F83C40002078BD00230140E8
:1016600000200140C402002040420F00074B0268E6
:1016700001219A4201D1064A03E0064B9A4203D166
:10168000054A117000F0ACBA70470000002001401C
:101690000C000020002101400D0000207047704721
:1016A00070B5044600680668456816F0020F05F03C
:1016B00020012AD049B3216CC90603D4216C41F41E
:1016C00000712164816811F0405F17D1217EA9B9B2
:1016D000C16A11F4700F02D0816849050ED44168C7
:1016E00021F020014160206C20F480702064206C87
:1016F000C00403D4206C40F0010020642046FFF7B2
:10170000B5FF21686FF01200086016F0040F05F0B5
:10171000800132D089B3206CC00603D4206C40F421
:10172000005020642068816811F4401F1ED1816B35
:1017300011F4401F02D08168490517D4416849055A
:1017400014D4816811F0405F10D1217E71B94168D5
:1017500021F080014160206C20F480502064206CD6
:10176000C00503D4206C40F0010020642046FFF740
:10177000D5FE21686FF00C00086016F0010F05F02F
:1017800040010FD071B120680068C0070AD0206CFA
:1017900040F480302064204600F043F821686FF068
:1017A0000100086016F0200F05F080610ED00029BE
:1017B0000CD0606C40F00200606420686FF020057F
:1017C00005602046FFF76BFF2068056070BD70B5AF
:1017D00004004FF0000503D0206C002610B107E094
:1017E000012070BD204600F01DF8666484F83C605E
:1017F000206CC00610D4206C20F4885040F0020009
:1018000020642046FFF788F96664206C20F002000F
:1018100040F00100206400E0012584F83C60284687
:1018200070BD70472DE9F04786B005461421684623
:10183000FEF772FD4B484A4B14382A680024494988
:101840000326DFF824A107154FF480584FF4804990
:101850009A4241D10A6842F480720A60096801F430
:1018600080710591016841F004010160016801F097
:1018700004010591016841F00201016000686946B8
:1018800000F0020005903720CDE9000602943748A9
:1018900000F09EFF0120CDE9000669460294504603
:1018A00000F096FF334E3248E6E80204801510C679
:1018B000A6E8900366E807042E48746249E0AE6328
:1018C000002202211220B56301F054F9122001F028
:1018D00043F906B0BDE8F087274B9A42F9D10A6870
:1018E00042F400720A60096801F400710591016810
:1018F00041F001010160016801F0010105910168F9
:1019000041F0020101600068694600F002000590A4
:101910004020CDE900060294184800F059FF02204B
:10192000CDE9000669460294504600F051FF114E81
:101930000F486036303030604FF00070C6E9010467
:1019400006F10C02401282E89003C6E907403046D7
:10195000746200F089FE0028B1D0FFF7A3FCAEE767
:1019600000200140443802400004024000080240C8
:1019700010640240A8100020002101400000024035
:10198000F8B5044600200E46009094F83C1001295A
:1019900007D0012184F83C1021688B68DB0702D056
:1019A00011E00220F8BD8B6843F001038B604049D1
:1019B000404B0968B1FBF3F101EB410100E0491E26
:1019C00000910029FBD121688B68DB0503D58B686A
:1019D00023F480738B6021688B68DB075DD0236CF8
:1019E00040F20165AB4343F48073236449684905C1
:1019F00005D5216C21F4005141F480512164216C02
:101A0000C90404D5616C21F00601616400E06064E2
:101A100084F83C00A16B2948274DC863A16B284876
:101A20000864A16B2748C86421686FF02200086031
:101A30002068416841F0806141602068816841F41C
:101A4000807181602168134632464C31A06B00F0F2
:101A500075FE68681C49C006206806D0884224D1FB
:101A6000816811F0405F13D01FE08842F8D0174A18
:101A7000904203D1D1F80423D206F1D0144A904207
:101A800013D1D1F8041301F01F011029E8D30CE0A1
:101A9000816841F08041816007E0206C40F01000D7
:101AA0002064606C40F0010060640020F8BD00001C
:101AB000C402002040420F00002301406D0A0008CC
:101AC000F10A0008DB0A0008002001400021014063
:101AD0000022014018B50021009190F83C20012A15
:101AE00007D0012280F83C2002689368DB0702D00F
:101AF00011E0022018BD936843F001039360314A5E
:101B0000314B1268B2FBF3F202EB420200E0521ECC
:101B10000092002AFBD102689368DB0747D0036C70
:101B200040F20164A34343F48073036453685B058C
:101B300005D5036C23F4005343F480530364036C12
:101B4000DB0404D5436C23F00603436400E04164E6
:101B500080F83C101D4B6FF02201116001684A684B
:101B60001B4C22434A6059680068CA06194906D0CE
:101B7000884224D1816811F0405F13D01FE0884271
:101B8000F8D0154A904203D1D1F80423D206F1D0FF
:101B9000124A904213D1D1F8041301F01F01102909
:101BA000E8D30CE0816841F08041816007E0016C7E
:101BB00041F010010164416C41F0010141640020D9
:101BC00018BD0000C402002040420F000023014065
:101BD00020000004002001400021014000220140BB
:101BE00010B50446002094F83C1001290CD00121C6
:101BF00084F83C1021688A6822F001028A6021681A
:101C00008A68D20702D01DE0022010BD8A6822F443
:101C100080728A60A16B91F83520022A07D10846AC
:101C200000F0F5FB18B1216C41F0400121642168FE
:101C30004A6822F080624A60216C21F4885141F0A8
:101C400001012164002184F83C1010BD90F820208F
:101C5000012A07D0022A05D0416A41F4802141625D
:101C600001207047006842690A43426100207047C2
:101C7000F0B590F820500468A468012D05D0022D1D
:101C800003D0416A41F480215DE014F0406F01D13E
:101C9000E50055D5C4F30164022C03D9416A41F42F
:101CA000000150E00125A5401D608D684FF4C07310
:101CB0009DB1CE6835434E6845EAC605066803EB1C
:101CC0000417F5514FF4C275076805EB04150E694A
:101CD0007E51097D012905D009E00E88CD6845EACD
:101CE0004655EBE701684E5946F480764E5111791E
:101CF000D579567941EA056195792D0445EA06259D
:101D000029434FF4C676056806EB0416A9511178ED
:101D1000D57841EA0561957852782D0445EA02228A
:101D200011434FF4C475026805EB04155151006866
:101D300003EB0411425842F0010242500020F0BD72
:101D4000416A41F4001141620120F0BD10B590F8E4
:101D50002020012A07D0022A05D0416A41F48021BF
:101D60004162012010BD3B48D0F8002242F0010240
:101D7000C0F80022D0F8002222F47C52C0F80022E1
:101D8000D0F800224B6A42EA0322C0F800220A7D02
:101D900002F01F0301229A40D0F81C329343C0F88E
:101DA0001C32CB69B3B9D0F80C329343C0F80C3273
:101DB0008C894B6864F31F434C6900EBC404C4F87E
:101DC00040320C890B6864F31F434C6900EBC40478
:101DD000C4F84432CB69012B16D1D0F80C3213432E
:101DE000C0F80C320C884B6864F31F434C6900EB5D
:101DF000C404C4F840320C89CB6864F31F434C69B7
:101E000000EBC404C4F844328B69002BD0F80432D0
:101E10000ED01343C0F804320B69002BD0F81432F3
:101E200008D01343C0F81432096A012904D008E02D
:101E30009343EFE79343F5E7D0F81C121143C0F842
:101E40001C12D0F8001221F00101C0F8001200208D
:101E500010BD000000640040704730B590F820408D
:101E6000012C05D0022C03D0416A41F480215DE0B1
:101E70000468002955D02469A40754D04FF4D874BD
:101E8000056804EB01142D5915F0040595600568EB
:101E90002D594ED0ED08556005682C5904F0020408
:101EA000D4604FF4DA74056804EB01142D5905F081
:101EB0000F05156105682D59C5F30725956105685E
:101EC0002C59240C54614FF4DC72046802EB0112AB
:101ED000A4581C700468A458240A5C700468A458B0
:101EE000240C9C700468A258120EDA704FF4DE7253
:101EF000046802EB0112A4581C710468A458240A57
:101F00005C710468A458240C9C710468A258120ED9
:101F1000DA71006881B1016941F02001016100209E
:101F200030BDE468A8E7416A41F400114162012034
:101F300030BD6D0D1560AFE7C16841F02001C16093
:101F4000EDE70246002092F82010012901D0022975
:101F50000CD111688A68520100D501208A681201EB
:101F600000D5401C8968C90000D5401C70472DE988
:101F7000F05F0546006800244669D0F80490876841
:101F8000D0F80CB0D0F810A0D0F81880F10748D0E5
:101F9000F90714D001218160B80703D5284600F065
:101FA00030FA0CE0780702D54FF4006407E03807F8
:101FB00002D54FF4805402E0284600F021FAF805DB
:101FC00016D529684FF480708860B80503D5284677
:101FD00000F019FA0CE0780502D544F4005407E04B
:101FE000380502D544F4804402E0284600F00AFA9D
:101FF000F80316D529684FF480308860B80303D5FC
:10200000284600F002FA0CE0780302D544F40044BC
:1020100007E0380302D544F4803402E0284600F09B
:10202000F3F9300707D55FEACB6004D529681020A3
:1020300044F40074C86070074FF0080707D55FEAE2
:102040000B7004D52868C760284600F061F9B00716
:1020500006D52868C068800702D0284600F05AF9E3
:10206000700607D55FEACA6004D52968102044F4D9
:1020700080640861B00607D55FEA0A7004D5286855
:102080000761284600F08CF9F00606D5286800693B
:10209000800702D0284600F084F9B00308D55FEA33
:1020A000C96005D5296810204860284600F07AF9F3
:1020B000F00307D55FEA097004D528684760284611
:1020C00000F0A4F9300446D55FEA497040D5F00528
:1020D00004D55FEAC87001D044F00104B00504D50E
:1020E0005FEA887001D544F00204700504D55FEA08
:1020F000487001D544F00404300529D518F0700F5C
:1021000026D008F07000402815D006DC102809D031
:1021100020280AD0302816D10AE050280ED0602896
:1021200011D10EE044F008040DE044F010040AE080
:1021300044F0200407E044F0400404E044F080044C
:1021400001E044F480742868816921F070018161A4
:10215000296804204860002C05D0686A2043686222
:102160002846FFF779FEBDE8F09F70B5040003D064
:1021700094F8200010B104E0012070BD204600F06A
:1021800081F82068016841F00101016000F022FC43
:102190000546052604E000F01DFC401B0A2811D866
:1021A00020684068C007F6D02068016821F002016D
:1021B000016000F00FFC05460BE000F00BFC401B3B
:1021C0000A2806D9606A40F40030606284F8206012
:1021D000D2E7206840688007EFD4207E012820687D
:1021E00001683DD021F080010160607E01282068F7
:1021F000016838D021F040010160A07E01282068EC
:10220000016833D021F020010160E07E01282068C0
:1022100001682ED041F010010160207F0128206864
:10222000016829D021F008010160607F0128206841
:10223000016824D021F004010160D4E902010843BF
:10224000D4E90412114308436168491E0843216818
:10225000C86100206062012084F82000002070BD69
:1022600041F08001C0E741F04001C5E741F02001A5
:10227000CAE721F01001CFE741F00801D4E741F0AF
:102280000401D9E710B586B0044614216846FEF76C
:1022900043F81C492068884231D11B48002102685C
:1022A00042F000720260006800F00070059016486D
:1022B0001038026842F001020260006800F001007C
:1022C00005904FF4C05000900220CDE90101032099
:1022D00003900920049069460C4800F079FA002226
:1022E0000221132000F046FC132000F035FC0022F0
:1022F0000221142000F03EFC142000F02DFC06B05A
:1023000010BD000000640040403802400000024060
:102310007047000070B500681D4A0021904236D118
:102320001C4C00201C4D20606060A0602061E060BB
:102330006061A0616854491CC9B20829FAD3164BE0
:10234000144A00211548FFF788FD134E2068843E8B
:10235000132802D0502815D107E0A06890B9206951
:1023600001280FD12878B0700CE0A06850B920691E
:10237000082807D10821084805F002FD0121706EE8
:1023800007F074FBB06DBDE8704007F067BD70BD2D
:10239000006400408C080020900000209011002074
:1023A000704770477047000070B5044690F82000F1
:1023B000012804D0606A40F40020606218E0022026
:1023C00084F820002068016821F00101016000F01C
:1023D00001FB05460EE000BF00F0FCFA401B0A2896
:1023E00008D9606A40F400306062052084F820005B
:1023F000012070BD20684068C007EDD1606270BDEB
:1024000070477047704770477047704770472DE9B5
:10241000F0410446876D00F0DDFA064694F8350079
:102420000025022806D08020606584F83450012001
:10243000BDE8F0812068016821F016010160206884
:10244000416921F080014161206C08B9A06C20B184
:102450002068016821F0080101602068016821F00E
:10246000010101600CE000F0B5FA801B052807D9D6
:1024700020206065032084F8350084F83450D7E7C5
:1024800020680068C007EED194F85C103F208840B7
:10249000B860012084F8350084F834500020C7E784
:1024A00090F83510022903D0802141650120704742
:1024B000052180F835100068016821F001010160F4
:1024C00000207047406D70472DE9F84304464FF0F7
:1024D0000009CDF8009063484FF41651A56D0068CF
:1024E000B0FBF1F72E6894F85C10082000FA01F1B7
:1024F00031420FD021680A6852070BD50A6822F0D2
:1025000004020A6094F85C108840A860606D40F096
:102510000100606594F85C104FF0010808FA01F0C2
:10252000304208D021684969090604D5A860606D69
:1025300040F00200606594F85C100420884030424E
:1025400008D021680968890704D5A860606D40F04B
:102550000400606594F85C1010208840304218D068
:1025600021680968090714D5A86020680168490333
:1025700004D50068000308D5A16C07E00168C9050F
:1025800003D4016821F008010160216C09B12046E3
:10259000884794F85C1020208840304231D0216870
:1025A0000968C9062DD5A86094F83500052820686B
:1025B000016806D0490347D5006800031DD4616C4B
:1025C0001CE021F0160101602068416921F08001C2
:1025D0004161206C08B9A06C20B12068016821F02D
:1025E0000801016094F85C103F208840A86084F8DE
:1025F000358084F83490216D1FE0E16B09B12046ED
:102600008847606D00282BD0606DC00714D005206E
:1026100084F835002068016821F00101016000980C
:10262000401C0090B84203D820680068C007F6D16B
:1026300084F8358084F83490E16C002910D001B022
:102640002046BDE8F04308470168C905D5D40168B4
:1026500021F01001016084F8358084F83490CCE7D3
:10266000BDE8F883C40200202DE9F041044600F0E3
:10267000B1F906465CB1022084F83500002584F8E3
:1026800034502068016821F0010101600DE0012053
:10269000BDE8F08100F09EF9801B052805D92020B7
:1026A0006065032084F83500F2E720680068C00701
:1026B000F0D12268116820480140D4E90103184391
:1026C000D4E903363343184363691843A3691843B5
:1026D000E3691843236A18430843616A042903D154
:1026E000D4E90B1319430843106020684069666AF7
:1026F00020F0070130460E43012704280CD1A06AC0
:102700000643E06A40B12046FEF714FD20B14020A8
:10271000606584F83570BAE7206846612046FEF7A8
:10272000F5FC94F85C203F2191408160656584F858
:1027300035700020ACE700003F8010F02DE9F0413B
:102740000446866D90F83400002501280DD0012044
:1027500084F8340094F835700020012F07D084F8F5
:10276000340002252846BDE8F0810220FBE702275D
:1027700084F8357060652046FEF706FD94F85C101D
:102780003F208840B0602068016841F01601016078
:10279000206C20B12068016841F0080101602068C8
:1027A000016841F001010160DCE7000070B50446FA
:1027B00000F010F90546601C02D00448007804447B
:1027C00000F008F9401BA042FAD370BDB802002007
:1027D0002DE9F84FDFF8BCA10022012503264FF0B8
:1027E0000F090AF1040BAAF1040E00BF0B6805FAE9
:1027F00002F42340A34270D10F7907F00307012FA1
:1028000001D0022F16D187684FEA420806FA08FC69
:1028100027EA0C07D1F80CC00CFA08FC4CEA070CAC
:10282000C0F808C04768A7430C79C4F3001494406B
:102830003C4344600C79E443A4070AD0C4684FEADF
:10284000420C06FA0CF7BC438F6807FA0CF72743D3
:10285000C7600C7904F00304022C12D1D40800EBF9
:10286000840CDCF820405707FF0E09FA07F824EA29
:102870000804D1F8108008FA07F848EA0408CCF8F0
:10288000208004684FEA420C06FA0CF7BC430F792B
:1028900007F0030707FA0CF7274307604C6814F4A6
:1028A000403F70D03C4C276847F48047276024683D
:1028B00022F0030704F480440094384C07EB040C26
:1028C000DCF8084897074FEA177809FA08F7BC437D
:1028D000334FB84202D1002724E054E0314FB842D0
:1028E00001D101271EE0304FB84201D1022719E083
:1028F0002E4FB84201D1032714E02D4FB84201D129
:1029000004270FE02B4FB84201D105270AE02A4FD8
:10291000B84201D1062705E0284FB84201D1072768
:1029200000E0082707FA08F72743CCF80878DAF818
:1029300000405746D1F804C09C435FEACC2C00D538
:102940001C433C60DBF800405F46D1F804C09C4368
:102950005FEA8C2C00D51C433C60DEF800407746D3
:10296000D1F804C09C435FEA8C3C00D51C433C601A
:10297000084F083F3C68D1F804C09C435FEACC3C58
:1029800000D51C433C60521C102AFFF42FAFBDE859
:10299000F88F0000083C01404438024000300140FC
:1029A000000002400004024000080240000C024007
:1029B000001002400014024000180240001C0240B7
:1029C0000069084000D0012070470AB1816170475A
:1029D0000904FBE70148806870470000B802002046
:1029E00070B5040011D021684CF6CC400860216815
:1029F00045F255500860D4E9000141602168A068A3
:102A00008860FFF7E7FF05460DE0012070BD00BFBD
:102A1000FFF7E0FF401B312805D92068C068800718
:102A200001D0032070BD2068C0688007F0D1216804
:102A30004AF6AA200860002070BD000002488168A4
:102A40000278114481607047B80200200B4810B52D
:102A5000016841F400710160016841F48061016026
:102A6000016841F480710160032000F0A3F80F2099
:102A700000F006F800F04AF8002010BD003C0240CB
:102A800030B505461C4887B00024016841F00101BB
:102A90000160006806A900F00100009001A800F0A4
:102AA00035F900F063F915494000B0FBF1F1154824
:102AB000134A491E026040F2E732C0E90324C0E92C
:102AC0000114846101F044F8040012D10D4801F0B2
:102AD00003F904000DD1192000F03EF8102D07D2A3
:102AE00000222946192000F045F80748056000E05B
:102AF000012407B0204630BD4438024040420F0058
:102B00000000014094160020BC020020114808B5C6
:102B1000016841F480410160006800F48040009049
:102B20000C48001F016841F08051016000680022DC
:102B300000F0805000900F21901E00F01BF8002242
:102B40000221512000F016F8BDE80840512000F0A5
:102B500003B8000044380240002809DB00F01F02DF
:102B6000012191404009800000F1E020C0F80011EF
:102B700070470000F0B40E4B1B680C46C3F30223F1
:102B8000C3F10705042D00D90425191D072901D219
:102B9000002300E0DB1E012606FA05F1491E214054
:102BA00099409E40761E16403143F0BC05F02CBB88
:102BB0000CED00E0064900F0070208684FF6FF033D
:102BC000184040EA0220034A1043086070470000A2
:102BD0000CED00E00000FA052DE9F0470E46050077
:102BE00065D0DFF81481D8F80000F7B200F00700D4
:102BF000B04207D288F80070D8F8000000F0070053
:102C0000B04254D128683D4C810712D5400703D506
:102C1000206840F4E05020602878000703D5206841
:102C200040F4604020602068A96820F0F00008436C
:102C300020602878C0072DD03049686808390128FD
:102C400012D0022813D0032811D00968890700295F
:102C50002DDA216821F0030101432160FFF7BAFE5C
:102C6000814641F2883A0EE009688903EFE7096876
:102C70008901ECE7FFF7AEFEA0EB0901514502D94F
:102C80000320BDE8F0872068696800F00C00B0EB15
:102C9000810FEFD1D8F80010404601F00701B14292
:102CA00007D90770006800F00700B04201D001208A
:102CB000E7E72878400705D52068E96820F4E05068
:102CC000084320602878000706D52068296920F489
:102CD000604040EAC100206000F058F82168084ACE
:102CE000C1F30311515CC8400649086006480068FA
:102CF000FFF7C6FE0020C4E7003C0240083802404F
:102D0000A0C20008C4020020BC0200200F22026002
:102D10000C4A136803F003034360136803F0F003E5
:102D20008360136803F4E053C36012684FF4E05308
:102D300003EAD20202610448006800F0070008605C
:102D40007047000008380240003C02400448054932
:102D500000680968044AC1F38221515CC840704789
:102D6000C402002008380240B0C2000804480549E7
:102D700000680968044AC1F34231515CC840704799
:102D8000C402002008380240B0C20008154810B53F
:102D9000006810F00C02144813D01449042A0FD014
:102DA000082A0ED10F4C241F2268236802F03F022C
:102DB0005B0207D52068C0F38810A0FB010106E084
:102DC000084610BD2168C1F38811A1FB0001002352
:102DD000FDF758FA2168C1F30141491C4900B0FBD5
:102DE000F1F010BD083802400024F40040787D0165
:102DF0002DE9F84F04006ED02078DFF84C93C0071F
:102E0000A9F104054AD009F104000168C1F3810168
:102E1000012908D00068C0F3810002280AD1D9F83E
:102E20000000400206D52868800337D56068002876
:102E3000E1D033E06068B0F5803F10D0B0F5A02F4E
:102E4000286810D020F480302860286820F4802082
:102E500028606068A8B1FFF7BDFD06460DE0286850
:102E600040F48030F4E740F480202860F7E700BFAA
:102E7000FFF7B0FD801B642873D828688003F7D55E
:102E80000CE0FFF7A7FD064605E000BFFFF7A2FD37
:102E9000801B6428F0D828688003F7D42078DFF8F6
:102EA000AC8280074FF0000A3ED5A748001D01689C
:102EB00011F00C0F08D00068C0F3810002280BD17C
:102EC000D9F80000400207D42868800716D5E068CA
:102ED000012800D112E033E1E068B8B10120C8F860
:102EE0000000FFF777FD064605E000BFFFF772FD23
:102EF000801B0228C0D828688007F7D52868216978
:102F000020F0F80040EAC10028600DE0C8F800A0F9
:102F1000FFF760FD064604E0FFF75CFD801B02281A
:102F20001FD828688007F7D42078000722D5864F5D
:102F300087486169703771B101210160FFF74AFD6F
:102F4000064604E0FFF746FD801B022809D83868D2
:102F50008007F7D50EE0C0F800A0FFF73BFD06465E
:102F600005E082E0FFF736FD801B02287DD8386837
:102F70008007F7D42078400768D5DFF8CCB1002768
:102F80000BF13C0BDBF80000C0000BD4DBF80010A9
:102F900041F08051CBF80010DBF80000012700F071
:102FA000805000906B4E3068C00510D4306840F4FB
:102FB00080703060FFF70EFD009005E0FFF70AFD1E
:102FC0000099401A022850D83068C005F6D55E4EE8
:102FD000A0686C3601280FD00528306810D020F08A
:102FE00001003060306820F004003060A068B8B1A3
:102FF000FFF7F0FC00900FE0306840F00100F4E7CC
:1030000040F004003060F7E7FFF7E4FC0099411A54
:1030100041F28830814266D830688007F4D50EE0EE
:10302000FFF7D8FC009007E0FFF7D4FC0099411AA5
:1030300041F28830814256D830688007F4D42FB1ED
:10304000DBF8001021F08051CBF80010A069C8B364
:103050003D49091D0968C1F3810102294AD00228AE
:10306000504607D0C8F8600000E03CE0FFF7B2FC33
:1030700004463BE04746C8F86000FFF7ABFC064655
:1030800005E000BFFFF7A6FC801B02282BD82868AC
:103090008001F7D4D4E907010843A16A2E4A490800
:1030A00002EB0141626A41EA8211084394F82C1054
:1030B00040EA0161C9F8001001203866FFF78AFC78
:1030C000044606E03EE000BFFFF784FC001B022838
:1030D00009D828688001F7D534E000BFFFF77AFCF3
:1030E000001B022802D90320BDE8F88F2868800160
:1030F000F4D427E00128F7D0D9F80000E26900F401
:10310000800191421CD1226A00F03F01914217D107
:1031100047F6C071626A0140B1EB821F10D1A26A0A
:103120004FF0FF3300F4403103EB5202B1EB024F9A
:1031300006D194F82C1000F07060B0EB016F01D054
:103140000120D1E70020CFE70438024000004742C9
:10315000800E4742007000400000FFFF10B5FDF7F1
:103160006FFD10BD2DE9FE430446002603200D46E9
:1031700084F83400606C03285ED0B5F5805F5BD0C6
:103180004FF4006700204FF08068BD421FD1814698
:10319000009001900021206803F068F9800113D4A9
:1031A0006946204603F056FD07000DD10198400303
:1031B00034D5B4F850000104206803F08FF90700FB
:1031C00002D10221206823E0A06B384328E01DB122
:1031D000A06B40F0006023E0814600900190002148
:1031E000206803F043F98001EED46946204603F0DD
:1031F00031FD0700E8D10198C0030FD5B4F85000A5
:103200000104206803F06AF90700DDD1002120687D
:1032100003F0B1F90700D7D14F46D5E74746D3E7CA
:10322000A063A06B144F4FF0010848B1206887637A
:1032300084F8348001260EE0A06B40F08050EFE768
:10324000211DD4E9050C0EC9CDE90050CDF808C008
:10325000206803F015F94FF40071206803F072F94B
:1032600028B121688F63A16B0143A163012684F813
:1032700034803046BDE8FE83FF0540007047000003
:10328000F0B5426E920F0A70426EC2F383624A70CA
:10329000426EC2F301628A70426E120CCA70B0F8BC
:1032A0006420120A0A7190F864204A71826E120D2D
:1032B000CA80826EC2F303420A72B0F86820C2F379
:1032C000C0324A72B0F86820C2F380328A72B0F815
:1032D0006820C2F34032CA72B0F86820C2F30032EC
:1032E0000A7300264E73426C4FF40075012462B1DC
:1032F000012A3AD0026847499163816B41F08051BD
:10330000816380F834400120F0BDB0F86820C36EBE
:103310009205120D42EA93720A61C26EC2F3C26252
:103320000A75C26EC2F302624A75C26EC2F342529D
:103330008A75C26EC2F38242CA75C26EC2F3C232CD
:103340000A760A69521C42650B7E03F007039B1C38
:103350009A4042650B7A03F00F0704FA07F383657E
:103360005B0A5A43C0E917250EE090F86820C36E47
:103370009206920A42EA13420A610A69521C9202B8
:103380004265C0E91652056630F86C2FC2F38032F0
:1033900001F8192F0288C2F3C6124A70027802F0AF
:1033A0007F028A704268D20FCA704268C2F34172CB
:1033B0000A714268C2F382624A714268C2F3835260
:1033C0008A714268C2F34052CA710E724268C2F3F7
:1033D00000424A728288C2F3C0328A728288C2F383
:1033E0008032CA728288C2F340320A738288C2F382
:1033F00000324A738288C2F381228A738288C2F3C0
:103400000122CA730079C0F3460008744C7400208E
:10341000F0BD0000FF054000426C0A60826C4A600B
:10342000C26C8A60026DCA60426D0A61826D4A6137
:10343000C26D8A61006EC8610020704770B5044695
:10344000B0F8500000250104206803F07CF918B1A1
:10345000A16B0143A16304E00021206803F006F89A
:103460000546C5F3432070BDF8B5056B04460068FA
:10347000416B09041BD5290719D5D4E90A56002E3A
:1034800014D00027206803F011F805F8010B010A99
:1034900005F8011B010C05F8021B000E361F7F1CEE
:1034A00005F8010C082FEDD3C4E90A56F8BD416BAD
:1034B0004FF00006C9054FF0010744D5390281637A
:1034C0002068C16B4CF23A329143C1632068C16AF3
:1034D00021F00101C16228071DD515F0220F09D086
:1034E000206803F061F928B1A16B0143A163204674
:1034F000FFF7C4FE216840F23A50886384F83470C4
:103500002663A80703D0204600F040FAF8BD204605
:1035100000F040FAF8BD2806FCD5A80609D52068B9
:1035200003F042F928B1A16B0143A1632046FFF7E4
:10353000A5FEA807EED12068C16A21F00801C1628A
:1035400084F83470E3E7416B490424D5290722D578
:10355000D4E90856002EDDD05FF0000715F8010B06
:10356000009015F8011B361F40EA0120009015F865
:10357000021B40EA0140009015F8011C40EA01607E
:1035800000906946206802F0A4FF7F1C082FE5D355
:10359000C4E90856F8BD416B40F23A221142F9D015
:1035A000416B890703D5A16B41F00201A163416B17
:1035B000090703D5A16B41F00801A163416B89069E
:1035C00003D5A16B41F02001A163416BC90603D56E
:1035D000A16B41F01001A163416B890503D5A16B7B
:1035E00041F00801A16340F23A7181632068C16B28
:1035F00040F23A329143C163206803F0D5F8A16BE1
:103600000843A063280706D584F834702663204653
:10361000FFF734FEF8BD2806FCD515F0300F0CD0AE
:10362000E16B11480865E06BFEF73AFF0028F1D026
:10363000E06BBDE8F84003F0EBBAA8070CD0216CB2
:103640000A480865206CFEF72BFF0028E2D0206CAA
:10365000BDE8F84003F0B3BAA66384F8347026637B
:103660002046FFF77BFDF8BD116C0008BF6B00081A
:1036700070B504000ED094F83400002518B92577F1
:10368000204600F04FF8032084F83400204600F074
:103690000BF808B1012070BDA5632563012084F8F3
:1036A0003400002070BD0000FEB5002504467620E1
:1036B0000095CDE9015029460B460A46206802F0E4
:1036C000DFFE48BB154E46F8A05F206802F0EAFE18
:1036D000012535600220FFF769F8204603F09EFBC4
:1036E00030B100BF84F83450A16B0143A16313E0F3
:1036F000204603F01CFB0028F4D14FF40071206831
:1037000002F020FF002808D0226805499163A16BD0
:103710000143A16384F834500120FEBD008025429E
:10372000FF0540002DE9F04F87B00546142168469B
:10373000FCF7F2FD4649286888427DD1454800687B
:10374000444940F400600860086800F40060059097
:103750004048143800683F4940F0040014390860BC
:10376000086800F004000590086840F00800086050
:103770000868022400F0080005904FF4F850CDE9E5
:10378000000402AA002003264FF00C0882E8410141
:1037900069463148FFF71CF802AA002082E841017F
:1037A0000427CDE9007469462C48FFF711F82D4C29
:1037B0002B484FF00068C4E9000800204FF48069EE
:1037C000A060C4E90309B8024FF4804BC4E9050BBB
:1037D000C4E909764FF0200A0020C4E907A07E055D
:1037E000B7102046C4E90B67FEF73EFF08B1FDF7AE
:1037F00059FD2C64A5631B4C194860344830C4E95A
:1038000000084020A0600020C4E90309C4E907A023
:103810000420606204F12802032082E8C1004FF412
:103820008051C4E9051B2046FEF71EFF08B1FDF7D5
:1038300039FDEC63002200E007E005213120A5639B
:10384000FFF798F93120FFF787F907B0BDE8F08F4F
:10385000002C01404438024000080240000C0240A5
:1038600058640240481200202DE9F04786B01F46F8
:103870000446154639B194F83400012807D00220D7
:1038800006B0BDE8F087A06B40F0006008E00020C3
:10389000A063E36DEA199A4204D9A06B40F000706E
:1038A000A06369E0032284F8342022688146D06254
:1038B0002268D36B40F22A363343D363236C2F4AFA
:1038C000DA63236C2E4ADA64226C1065226C9060F5
:1038D000206C0068026822F0C002026020680A467C
:1038E000266C4FEA472800F180014FEA98033046E2
:1038F000FEF724FFDFF88CA0012670B12068C16BB1
:1039000021F49571C1632168C1F838A0A06B40F023
:103910008040A06384F834602EE01B480660606C31
:10392000012800D06D024FF0FF30CDE90008902053
:10393000029002200596CDE903096946206802F04D
:103940007FFD012F06D9822020632946206802F0DE
:103950006BFE05E0812020632946206802F07DFE91
:1039600000288DD02268C2F838A0A16B0143A16362
:1039700084F83460C4F83090012081E77D6B000842
:10398000196B0008FF0540008C85254210B5FDF736
:1039900099F910BD10B5FDF7B1F910BD2DE9F04F43
:1039A0005FEA010B87B01E460446114607D094F823
:1039B0003400012807D0022007B0BDE8F08FA06BCB
:1039C00040F0006008E00025A563E26D8819904290
:1039D00004D9A06B40F00070A06356E0032084F887
:1039E00034002068C5622068C26B40F21A2942EA9E
:1039F0000902C263E26B2D48D063E26B2C48D064AD
:103A0000E06B0565606C012800D049024FF090081A
:103A1000012E05D9A0202063206802F0DFFE04E01B
:103A2000C4F83080206802F0F2FEDFF888A0012799
:103A300030B12268C2F838A0A16B0143A16321E034
:103A40001D480760E16B40208860E06B00680168FA
:103A500021F0C00141F04001016022687602B30804
:103A600059468032E06BFEF769FE80B12068C16B79
:103A700021EA0901C1632168C1F838A0A06B40F0B8
:103A80008040A06384F834702563012094E74FF0F0
:103A9000FF30CDE90006CDE90285CDE9045769463E
:103AA000206802F0CDFC002086E70000036C0008CF
:103AB000196B0008FF0540008C8525427047704750
:103AC00070B590F83C20012A32D0012480F83C40A7
:103AD000022280F83D2003685A689D6822F0700633
:103AE0000A6832435A60134B02689A4214D0B2F10A
:103AF000804F11D0104B9A420ED0104B9A420BD0EF
:103B00000F4B9A4208D00F4B9A4205D00E4B9A4267
:103B100002D00E4B9A4204D1496825F08003194324
:103B2000916080F83D40002180F83C10084670BD4F
:103B3000022070BD00000140000400400008004069
:103B4000000C00400004014000400140001800400B
:103B500010B5040003D094F83D0010B107E0012037
:103B600010BD002084F83C00204600F01FF8022021
:103B700084F83D00211D206803F06AFB012084F8D1
:103B8000460084F83E0084F83F0084F8400084F842
:103B9000410084F8420084F8430084F8440084F82B
:103BA000450084F83D00002010BD0000F0B587B04E
:103BB000044614216846FCF7AFFB424A25680024FE
:103BC0004049103A022301263F48B5F1804F25D0E5
:103BD0003E4FBD4241D10D6845F002050D600968B8
:103BE00001F002010591116841F0010111601168B5
:103BF00001F00101059180218DE81A00CDE9034310
:103C00006946FEF7E5FD002202211D20FEF7B2FF06
:103C10005FF01D00FEF7A0FF07B0F0BD0D6845F096
:103C200001050D60096801F001010591116841F07D
:103C300001011160116801F00101059122218DE857
:103C40001A00CDE903466946FEF7C2FD00220221B3
:103C50001C20FEF78FFF1C20DCE71D4FBD421ED14C
:103C60000D6845F008050D60096801F0080105912F
:103C7000116841F00101116011680096CDE901342D
:103C800001F00101CDE9043103946946FEF7A0FD7E
:103C9000002202213220FEF76DFF3220BAE70D48E4
:103CA0008542B9D1086840F4807008600868002235
:103CB00000F48070059002212D20FEF75BFF2D207F
:103CC000A8E7000040380240000002400004004025
:103CD000000C00400020004090F83D10012901D068
:103CE00001207047022180F83D100168CA6842F047
:103CF0000102CA6000681149884214D0B0F1804FB7
:103D000011D00F4988420ED00E4988420BD00E497F
:103D1000884208D00D49884205D00D49884202D01A
:103D20000C49884204D1816801F00701062903D0BB
:103D3000016841F00101016000207047000001406E
:103D40000004004000080040000C00400004014056
:103D5000004001400018004070B5044690F83C0057
:103D60000025012817D0012684F83C60022084F841
:103D70003D002068826822F0770222F47F42826050
:103D80000868502838D00DDC20284FD005DC90B3CF
:103D9000102811D14AE0022070BD302846D04028BA
:103DA0000AD13BE060282FD070280DD0B0F5805F9D
:103DB00003D0B0F5005F12D0012584F83D600020EB
:103DC00084F83C00284670BDCB68D1E90121206809
:103DD00003F0AFFA2068816841F0770109E0CB6811
:103DE000D1E90121206803F0A4FA2068816841F438
:103DF00080418160E1E719E0CA684968206803F002
:103E0000AAFA5021206806E0CA684968206803F0D1
:103E1000F3FA6021206803F096FACEE7CA68496891
:103E2000206803F098FA40212068F4E722680146F0
:103E30001046F0E72DE9F05F06460068DFF8F8B1BC
:103E400001257E4C0027B0F1804F6ED1DFF8F08164
:103E500098F80100012802D1E068401CE060DFF81A
:103E6000E09109F1180999F80100012802D12069AF
:103E7000401C206102215846FEF7A2FDDFF8C4A1D4
:103E8000012825D1A8F8067098F80000A8B10421EF
:103E9000304600F025FAE168C8F808103168496A30
:103EA000D8F81020891AC8F80C10E56088F801705D
:103EB0000121E06E05F0DAFD0AE098F803104046B3
:103EC00031B9C5704570DAF80010496A0161857032
:103ED00020215846FEF774FD012826D1C846A9F8CE
:103EE000067099F80000A8B10021304600F0F8F9FA
:103EF0002169C8F808103168496AD8F81020891A71
:103F0000C8F80C10256188F801700221E06E05F0F8
:103F1000ADFD0AE098F80310404631B9C570457010
:103F2000DAF80010496A01618570474930688842B3
:103F300039D1DFF80C8108F1300898F80100012828
:103F400002D16069401C606101215846FEF738FDCE
:103F5000012828D1A8F8067098F80000DFF8EC9046
:103F6000B0B10021484600F0BBF96169C8F80810FB
:103F7000D9F80010496AD8F81020891AC8F80C102E
:103F8000656188F801700421E06E05F06FFD0AE0BC
:103F900098F80310404631B9C5704570D9F8001043
:103FA000496A016185702A493068884242D1244EAD
:103FB00048367078012802D1A069401CA061802198
:103FC0005846FEF7FDFC012834D1F78031782148AE
:103FD00001B380460068016A41F21112114207D113
:103FE000016A9210114203D1016821F001010160C0
:103FF0000421184800F074F9A069B060D8F80000F6
:10400000406AF060A5617770E06EBDE8F05F08215E
:1040100005F02CBDF17800290CD101684F620168D0
:104020000A6842F001020A60F57075700068406A23
:104030003061B570BDE8F09F000002400C00002028
:104040002C08002008130020000C004098130020CA
:1040500000040040501300202DE9F041054690F87F
:104060003C0000260C46012810D0012085F83C00B9
:1040700072B1042A1CD0082A2CD00C2A50D0012658
:10408000002085F83C003046BDE8F0810220FBE7C7
:10409000D4E90012E368286803F06EF928688169A2
:1040A00021F00C01816128688169A26811430FE049
:1040B000D4E90012E368286803F0B0F92868816940
:1040C00021F44061816128688169A26841EA022186
:1040D0008161D5E72868D4E9002C277B016A21F4A7
:1040E00080710162C169036A21F0030141EA0C0198
:1040F00021F0F00C39074FF420674CEA116123F4EA
:10410000206307EA02221A43C16102622868C1697A
:1041100021F00C01C1612868C169A268114328E03F
:104120002868D4E90027E168036A23F48053036216
:10413000D0F81CC0036A2CF4407C4CEA07274FF6E9
:10414000FF7C27F470470CEA013139434FF42047D4
:1041500023F4204307EA02321A43C161026228684D
:10416000C16921F44061C1612868C169A26841EA5E
:104170000221C16184E710B5040003D094F83D002A
:1041800010B107E0012010BD002084F83C0020465B
:1041900000F01EF8022084F83D00211D206803F085
:1041A00057F8012084F8460084F83E0084F83F0068
:1041B00084F8400084F8410084F8420084F8430009
:1041C00084F8440084F8450084F83D00002010BDC8
:1041D0007047000030B50446002551B104290DD0C8
:1041E000082910D094F8410094F84520012811D1F5
:1041F0000EE094F83E0094F84220F7E794F83F0070
:1042000094F84320F2E794F8400094F84420EDE756
:10421000012A01D0012030BD022059B1042912D059
:10422000082919D084F8410084F845000C2944D0AD
:10423000012540E084F83E0084F842002068C2680E
:1042400042F0020210E084F83F0084F84300206846
:10425000C26842F0040207E084F8400084F8440099
:104260002068C26842F00802C2600122206803F0A0
:1042700053F814492068884214D0B0F1804F11D00F
:10428000114988420ED0114988420BD0104988420A
:1042900008D01049884205D00F49884202D00F4902
:1042A000884204D1816801F00701062903D0016822
:1042B00041F001010160284630BD2068C26842F02B
:1042C0001002D1E700000140000400400008004057
:1042D000000C004000040140004001400018004074
:1042E00070B50D0004464FF0000607D0042D0AD02B
:1042F000082D0DD00C2D10D001262FE02068C168AC
:1043000021F002010DE02068C16821F0040108E0FD
:104310002068C16821F0080103E02068C16821F02D
:104320001001C16000222946206802F0F5FF2068D4
:10433000016A41F21112114207D1016A9210114231
:1043400003D1016821F001010160012045B1042D74
:1043500009D0082D0AD004F8410F2071304670BDF5
:1043600004F83E0FF9E704F83F0FF6E704F8400FB2
:10437000F3E770B50446006801694FF00005C943D2
:10438000890715D4C168C943890711D4E91E0161A1
:1043900001202077206880698007204602D0FFF73F
:1043A00049FD04E000F098F8204600F096F82577E3
:1043B00020680169C943490717D4C168C94349073F
:1043C00013D46FF004010161022020772068806916
:1043D00010F4407F204602D0FFF72CFD04E000F0EF
:1043E0007BF8204600F079F8257720680169C943F9
:1043F000090716D4C168C943090712D46FF0080130
:104400000161042020772068C0698007204602D01F
:10441000FFF710FD04E000F05FF8204600F05DF8C3
:10442000257720680169C943C90617D4C168C94303
:10443000C90613D46FF010010161082020772068AD
:10444000C06910F4407F204602D0FFF7F3FC04E07F
:1044500000F042F8204600F040F825772068016916
:10446000C943C90708D1C168C943C90704D1891E16
:104470000161204600F032F820680169C94309064D
:1044800009D4C168C943090605D46FF080010161F0
:104490002046FFF713FB20680169C943490609D488
:1044A000C168C943490605D46FF040010161204647
:1044B00000F098F820680169C94389060BD4C168E7
:1044C000C943890607D46FF0200101612046BDE889
:1044D0007040FFF7F4BA70BD7047704730B40068A1
:1044E0003349884202D130BCFEF7A8BA314988422C
:1044F00057D131498D7801224FF496734FF44874A7
:1045000000204DB18D886D1C8D808D889D420AD311
:10451000888088700A7006E0CD886D1CCD80CD88BB
:10452000A54200D3888225498D784DB18D886D1CB8
:104530008D808D889D420AD3887088800A7006E03D
:10454000CD886D1CCD80CD88A54200D388821C49C2
:104550008D784DB18D886D1C8D808D889D420AD3DC
:10456000887088800A7006E0CD886D1CCD80CD886B
:10457000A54200D3888213498D7855B18C88641C7C
:104580008C808C889C4202D3887088800A7030BCF2
:104590007047CA88521CCA80CA88A242F7D3888250
:1045A000F5E709498842F2D130BC08A003F0F2BD1A
:1045B00000000140002000402C080020440800209A
:1045C0005C080020740800200004004074696D65D8
:1045D00072332074696D656F75742121212F722FDC
:1045E0006E0000007047704770B5044620680C30BC
:1045F00050E8001F21F4907140E80012002AF5D124
:104600002068143050E8001F21F0010140E800123A
:10461000002AF5D1206B012809D120680C3050E820
:10462000001F21F0100140E80012002AF5D1206897
:1046300040694FF00005400615D52068143050E859
:10464000001F21F0400140E80012002AF5D1A06BC4
:1046500048B10565A06BFDF7DAFE20B1A06BFDF750
:1046600031FF202806D0E585202084F83E00256310
:10467000002070BD10202064032070BD7047000032
:10468000F8B5016804460868CA684B6910F00F0F56
:104690004FF0000559D003F0010602F4907737433C
:1046A00065D0C10705D0D10503D5216C41F00101CA
:1046B0002164410705D5D90703D0216C41F00201DF
:1046C0002164810705D5D90703D0216C41F004018D
:1046D0002164010707D502F02001314303D0216C8A
:1046E00041F008012164216C00293AD0800604D5EC
:1046F000900602D5204603F085F820684069216CB9
:10470000C0F38010090700D460B3204603F045F8D9
:1047100020684069400621D52068143050E8001F09
:1047200021F0400140E80012002AF5D1A06BA8B1A9
:104730006C490165A06BFDF7B3FE002811D0A06B9A
:10474000016D01B0BDE8F040084783060FD5930620
:104750000DD52046BDE8F84003F054B82046FFF7D9
:104760008DFFF8BD2046FFF789FF2564F8BD266B55
:104770002023012E79D1C60677D5D60675D50868CF
:10478000486800904869400640D5A16B08684068B9
:104790000004000CEAD0A28D8242E7D9E085C86906
:1047A000B0F5807F2DD020680C3050E8001F21F438
:1047B000807140E80012002AF5D12068143050E8DA
:1047C000001F21F0010140E80012002AF5D1206805
:1047D000143050E8001F21F0400140E80012002A88
:1047E000F5D184F83E30256320680C3050E8001F76
:1047F00021F0100140E80012002AF5D1A06BFDF76E
:1048000006FEA08DE18D401A81B229E0A08DE18DD8
:10481000401A81B2E08D0028A8D00029A6D02068D7
:104820000C3050E8002F22F4907240E80026002E51
:10483000F5D12068143050E8002F22F0010240E842
:104840000026002EF5D184F83E30256320680C3018
:1048500050E8002F22F0100240E80023002BF5D191
:104860002046FFF7C0FEF8BDFFE705062BD515066D
:1048700029D594F83D002128F5D1A068B0F5805FD6
:1048800001D12069B0B1206A411C21622168007801
:104890004860E08C401E0004000CE084E3D12068F6
:1048A000C16821F08001C1602068C16841F0400109
:1048B000C160D8E7206A0088C0F308004860206A19
:1048C000801C2062E5E74006CDD55006CBD5CA68EE
:1048D000204622F04002CA6084F83D3000F0EFF933
:1048E000C1E70000A576000870B5040004D094F874
:1048F0003D00002510B106E0012070BD84F83C5059
:10490000204600F023F8242084F83D002068C16888
:1049100021F40051C160204602F0D4FF20680169F3
:1049200021F4904101612068416921F02A0141612F
:104930002068C16841F40051C1602564202084F8DA
:104940003D0084F83E00002070BD00002DE9F047D6
:1049500086B0054614216846FBF7DEFC7448DFF894
:10496000CC810221D5F800C0002403220723DFF800
:10497000C4A18E060715C4453ED1DFF8B4C10CF1C1
:10498000140CDCF8008048F01008CCF80080DCF84B
:1049900000C00CF0100CCDF814C0D0F800C04CF0E2
:1049A000010CC0F800C0006800F001000590500242
:1049B0008DE8130069465046CDE90323FDF708FF53
:1049C000DFF878815C494046E0E80216402192C059
:1049D00040F814498461C46104624046C8F8244028
:1049E000FDF742FE08B1FCF75DFCC5F83480C8F85D
:1049F000385006B0BDE8F087DFF84481DFF8309129
:104A0000C44509F1100944D1D9F8008048F40038B0
:104A1000C9F80080D9F800C00CF4003CCDF814C0EF
:104A2000D0F800C04CF0010CC0F800C0006800F0E5
:104A3000010005900C208DE8130069465046CDE931
:104A40000323FDF7C5FEDFF8F4803E4908F1600856
:104A50004046C8F80010C0E90164C0E90347C8F83F
:104A600014404FF44031C8F81840C8E90741C8F86D
:104A70002440FDF7F9FD08B1FCF714FCC5F83880B7
:104A8000002205212620C8F83850FEF773F82620AA
:104A900049E0DFF8B480C445ABD1D9F8008048F4D0
:104AA0008028C9F80080D9F800C00CF4802CCDF81B
:104AB00014C0D0F800C04CF0020CC0F800C0006870
:104AC00000F0020005904FF440608DE81300694645
:104AD0001E48CDE90323FDF77BFEDFF8608019490E
:104AE00008F1C00860394046C8F80010C0E9016408
:104AF000C0E90347C8F81440C8F81840C8F81C407B
:104B0000C8F82040C8F82440FDF7AEFD08B1FCF716
:104B1000C9FBC5F83880002205212720C8F8385085
:104B2000FEF728F82720FEF717F862E7001001408B
:104B30003038024000000240B86402407415002082
:104B400000440040886002400048004000040240E9
:104B500090F83E30202B0ED159B152B190F83C3034
:104B6000012B08D0012380F83C300023036302F0BE
:104B70002FBF012070470220704790F83E30202B55
:104B80000ED159B152B190F83C30012B08D001231D
:104B900080F83C300023036302F064BF01207047BB
:104BA0000220704700681249884220D1114881884C
:104BB000090417D48188B1F5006F0FD282880E499D
:104BC00009684AB181680D490A7881880C4B0B4409
:104BD000491C81801A7005E08160F4E7818841F406
:104BE00000418180012205490648FFF7C6BF704792
:104BF000004800400C000020C0020020B502002048
:104C0000407D002030150020704700002DE9F8435A
:104C1000044690F83D001F4616460D4620284CD10C
:104C2000C5B1BEB194F83C00012846D0012084F8FB
:104C30003C004FF00008C4F84080212084F83D007B
:104C4000FDF7C8FEA6848146E684A068B0F5805FC3
:104C500003D004E00120BDE8F883206928B12E4686
:104C60005FF0000584F83C800EE00026FAE7802122
:104C7000204602F014FFA0B9AEB116F8010B21686E
:104C80004860E08C401EE084E08C4B464FF0000210
:104C900000970028EBD14FF04001204602F0FFFEC4
:104CA00030B10320D7E735F8020BC0F30800E6E780
:104CB000202084F83D000020CDE70220CBE770479C
:104CC00001A003F067FAFEE74572726F725F4861F8
:104CD00072644661756C745F48616E646C65720DD8
:104CE0000A000000044C4AF6AA25206805606420EA
:104CF00004F06FFEF9E70000B81100207FB5002135
:104D000032480091019102912F4A039102600124DF
:104D10004FF480320461C0E90121047680F820104C
:104D20002B4AC0E90A210625C561C16080F83040E0
:104D30004461FCF74CFD08B1FCF7B4FA0C20CDE956
:104D400000040720029069462048FCF7E9FB08B1FF
:104D5000FCF7A8FA0B2000900220019069461B483E
:104D6000FCF7DEFB08B1FCF79DFA08200090032059
:104D7000019069461548FCF7D3FB08B1FCF792FA9D
:104D80000E2000900420019069461048FCF7C8FBF3
:104D900008B1FCF787FA0A200090052001906946C7
:104DA0000A48FCF7BDFB08B1FCF77CFA0F20CDE9FF
:104DB000000569460548FCF7B3FB08B1FCF772FA39
:104DC0000248FCF787FE7FBD00200140181000203C
:104DD0000100000F7FB500211E4800910191029152
:104DE0001B4A0391026001244FF480320461C0E940
:104DF0000121047680F82010174AC0E90A21022513
:104E0000C561C16080F830404461FCF7E0FC08B146
:104E1000FCF748FA0920CDE9000407200290694612
:104E20000C48FCF77DFB08B1FCF73CFA0620CDE905
:104E3000000569460748FCF773FB08B1FCF732FA36
:104E40000449142298390348FCF79AFD7FBD0000FD
:104E500000210140601000200100000F70B51948CA
:104E60001749002401601821C0E901144FF40031F2
:104E7000C0E9034109014161047644768476C47631
:104E8000047701254577FDF770F908B1FCF70AFAB8
:104E90000C48283801464461046104604460846021
:104EA0000562C460C0E906452830FCF74FFF0221C7
:104EB0000448FCF7CBFEBDE870400248FDF774BA29
:104EC0000064004090110020254808B5016841F4B5
:104ED00080010160016801F480010091016841F4E2
:104EE000001101600068002200F40010009002210F
:104EF0000C20FDF73FFE0C20FDF72EFE00220221C4
:104F00001020FDF737FE1020FDF726FE00220221BB
:104F10003820FDF72FFE3820FDF71EFE002202216B
:104F20003A20FDF727FE3A20FDF716FE0022072162
:104F30003B20FDF71FFE3B20FDF70EFE0022072160
:104F40004520FDF717FE4520FDF706FE002207214C
:104F50004620FDF70FFEBDE808404620FDF7FCBDEA
:104F60003038024010B504490448FCF7A9F9024959
:104F7000491E087010BD0000B102002084C2000864
:104F800070B501216B4A084604F01BFF6A4C694A60
:104F90000121A0651032084604F013FF654A012183
:104FA000E0652032084604F00CFF624A2066183A99
:104FB0004021042004F062FE6065604A00216048E0
:104FC00004F078FF5D4A6062243200215D4804F0FD
:104FD00071FF5A4AA062483200215B4804F06AFF20
:104FE000564AE0626C320021584804F063FF534A8D
:104FF000206390320021564804F05CFF4F4A606302
:10500000B4320021534804F055FF4C4AA063D83213
:105010000021514804F04EFF464AE063CC3A00219B
:105020004E4804F047FF434A2064A83A00214C4808
:1050300004F040FF3F4A6064843A0021494804F08C
:1050400039FF3C4AA064603A0021474804F032FF2F
:10505000384AE0643C3A0021444804F02BFF4FF00A
:10506000FF3520652946E06D04F068FE2946A06DF5
:1050700004F064FE606B08B13DA000E045A003F0C1
:1050800089F8606A08B14CA000E054A003F082F8EF
:10509000A06A08B15AA000E062A003F07BF8E06AC1
:1050A00008B169A000E071A003F074F8206B08B1AA
:1050B00077A000E080A003F06DF8A06B08B188A095
:1050C00000E090A003F066F8E06B08B197A000E064
:1050D0009FA003F05FF8206C08B1A6A000E0AEA08E
:1050E00003F058F8606C08B1B4A000E0BBA003F076
:1050F00051F8A06C08B1C1A000E0C9A003F04AF8C3
:10510000D0A003F047F8206D08B1D5A000E0DDA0E5
:1051100003F040F80748303004F092FC6066054820
:10512000403004F08DFCA0660248503004F088FC4A
:10513000E06670BD24C200080C0000205CC00008BE
:1051400015800008350D0008416300080D5E000859
:10515000B111000889700008751300083D1300089C
:10516000E54C0008655D0008510D00085574000805
:105170004454555F496E69745F5461736B48616E46
:10518000646C65C8CECEF1B4B4BDA8B3C9B9A621CC
:105190000D0A0000204454555F496E69745F5461E4
:1051A000736B48616E646C65C8CECEF1B4B4BDA8B3
:1051B000CAA7B0DC210D0A005769745F6461745F8F
:1051C0005461736B48616E646C65C8CECEF1B4B443
:1051D000BDA8B3C9B9A6210D0A0000002057697403
:1051E0005F6461745F5461736B48616E646C65C821
:1051F000CECEF1B4B4BDA8CAA7B0DC210D0A000020
:1052000043616E5F52785F5461736B48616E646C8A
:1052100065C8CECEF1B4B4BDA8B3C9B9A6210D0AF4
:10522000000000002043616E5F52785F5461736B31
:1052300048616E646C65C8CECEF1B4B4BDA8CAA78F
:10524000B0DC210D0A00000052425F526561645FCC
:105250005461736B48616E646C65C8CECEF1B4B4B2
:10526000BDA8B3C9B9A6210D0A0000002052425FB3
:10527000526561645F5461736B48616E646C65C8AC
:10528000CECEF1B4B4BDA8CAA7B0DC210D0A00008F
:105290004F696C446973706C61795F5461736B48DA
:1052A000616E646C65C8CECEF1B4B4BDA8B3C9B9A3
:1052B000A6210D0A00000000204F696C446973703C
:1052C0006C61795F5461736B48616E646C65C8CEC4
:1052D000CEF1B4B4BDA8CAA7B0DC210D0A0000000D
:1052E0005369676E616C5F34475F5461736B4861EB
:1052F0006E646C65C8CECEF1B4B4BDA8B3C9B9A60E
:10530000210D0A00205369676E616C5F34475F545A
:1053100061736B48616E646C65C8CECEF1B4B4BD88
:10532000A8CAA7B0DC210D0A000000004750535F57
:10533000496E69745F5461736B48616E646C65C8D3
:10534000CECEF1B4B4BDA8B3C9B9A6210D0A0000F0
:10535000204750535F496E69745F5461736B4861B5
:105360006E646C65C8CECEF1B4B4BDA8CAA7B0DC7B
:10537000210D0A004750535F4765745F5461736B9A
:1053800048616E646C65C8CECEF1B4B4BDA8B3C933
:10539000B9A6210D0A000000204750535F476574ED
:1053A0005F5461736B48616E646C65C8CECEF1B4B6
:1053B000B4BDA8CAA7B0DC210D0A00004957444774
:1053C0005F5461736B48616E646C65C8CECEF1B496
:1053D000B4BDA8B3C9B9A6210D0A0000204957449D
:1053E000475F5461736B48616E646C65C8CECEF1E3
:1053F000B4B4BDA8CAA7B0DC210D0A004F7468651B
:10540000726164635F7461736B48616E646C65C8DC
:10541000CECEF1B4B4BDA8B3C9B9A6210D0A00001F
:10542000204F746865726164635F7461736B486177
:105430006E646C65C8CECEF1B4B4BDA8CAA7B0DCAA
:10544000210D0A0043616E74785F48616E646C657B
:10545000C8CECEF1B4B4BDA8B3C9B9A6210D0A0017
:105460005479726553706565645461736B48616EFD
:10547000646C65C8CECEF1B4B4BDA8B3C9B9A621D9
:105480000D0A00002054797265537065656454619B
:10549000736B48616E646C65C8CECEF1B4B4BDA8C0
:1054A000CAA7B0DC210D0A00154808B5016841F013
:1054B00080010160016801F080010091016841F004
:1054C00004010160016801F004010091016841F0EC
:1054D00001010160016801F001010091016841F0E2
:1054E00002010160016801F002010091016841F0D0
:1054F00008010160006800F00800009008BD00008D
:105500003038024010B50C4C0A482060032060601F
:105510004FF47A70A0602046FDF762FA08B1FBF7FD
:10552000C1FE21684CF6CC40086021684AF6AA20EA
:10553000086010BD00300040B8110020074806493F
:105540004FF400620160002141608160C0E90312F4
:105550004161022181617047002C0140C41100208B
:105560000C4810B50A49016048F23F314160002102
:105570000422C0E9021201618161FEF7E9FA08B173
:10558000FBF790FEBDE810400248FEF7A5BB000007
:1055900000200040E013002030B58BB000252B4CDC
:1055A000049505950695079508950995009501952B
:1055B00002954FF080400395206048F23F30C4E9E7
:1055C0000105681EC4E903058020A0612046FEF79E
:1055D000BFFA08B1FBF766FE4FF48050049004A9AF
:1055E0001A48FEF7B9FB08B1FBF75CFE1748FEF757
:1055F000C2FD08B1FBF756FE089508A913480995A6
:10560000FEF75EFA08B1FBF74DFE0120CDE9005030
:105610000295002269460D480395FEF71DFD08B16D
:10562000FBF740FE042269460848FEF715FD08B165
:10563000FBF738FE04210548FEF7CCFD2068016821
:1056400041F0010101600BB030BD000008130020E3
:1056500010B58AB000242448049405940694079455
:10566000089409940094019402941E4903940160E3
:1056700048F23F31C0E901144CF25031C0E9031443
:105680008461FEF765FA08B1FBF70CFE4FF4805019
:10569000049004A91448FEF75FFB08B1FBF702FE73
:1056A0001148FEF768FD08B1FBF7FCFD089408A956
:1056B0000D480994FEF704FA08B1FBF7F3FD012049
:1056C000CDE9004002940422694607480394FEF79E
:1056D000C3FC08B1FBF7E6FD04210348FEF77AFDA1
:1056E0000AB010BD000400405013002030B58BB04C
:1056F0000025274C0495059506950795089509956D
:1057000000950195029521480395206048F23F30AD
:10571000C4E90105681EC4E903052046A561FEF73A
:1057200017FA08B1FBF7BEFD4FF48050049004A9AE
:105730001748FEF711FB08B1FBF7B4FD1448FEF75C
:105740001AFD08B1FBF7AEFD089508A910480995A8
:10575000FEF7B6F908B1FBF7A5FD0120CDE9005031
:105760000295002269460A480395FEF775FC08B1C8
:10577000FBF798FD00210648FEF72CFD2068016824
:1057800041F0010101600BB030BD0000000C004091
:10579000981300200C4810B50A4901604FF4E1311C
:1057A0004160002181600C22C160C0E90412816166
:1057B000C161FFF799F8002803D0BDE81040FBF75E
:1057C00071BD10BD00100140A814002038B5134C65
:1057D00011480C2120604FF4E13060600020A0608F
:1057E000E060C4E90401A061E0612046FFF77CF8B5
:1057F00008B1FBF757FD2068016841680091C16856
:1058000041F01001C160BDE8384004498022C4392C
:105810000248FFF79DB9000000440040EC1400204E
:1058200010B5114C0F480C2120604FF416506060E9
:105830000020A060E060C4E90401A061E0612046AE
:10584000FFF752F808B1FBF72DFD2068C16841F061
:105850002001C160BDE81040012204490248FFF761
:105860008CB900000048004030150020B50200202F
:10587000FEE703460DE002782A2A03D0202A01D34E
:105880007A2A01D9FF2070472C2A01D1491EC9B2BA
:10589000401C0029EFD1C01AC0B2704738B50A4683
:1058A00005460EA11046FAF742FD04460921FFF70E
:1058B000E0FFFF2805D02044694600F0F1F9C5F863
:1058C000630007212046FFF7D4FFFF2805D02044BE
:1058D000694600F0E5F985F84F0038BD47474100BB
:1058E000F8B50A46064624A11046FAF720FD0546FB
:1058F0000221FFF7BEFFFF2805D02844694600F0CB
:10590000CFF986F85C000024E01CC1B22846FFF7FE
:10591000B0FFFF280AD02844694600F0C1F93119C8
:10592000641CE4B281F850000C2CEDD30F21284602
:10593000FFF79FFFFF2805D02844694600F0B0F923
:10594000A6F85D0010212846FFF793FFFF2805D039
:105950002844694600F0A4F9A6F85F001121284602
:10596000FFF787FFFF2805D02844694600F098F923
:10597000A6F86100F8BD0000475341002DE9F84F3B
:105980000C4682464FF0000835A12046FAF7CFFCBE
:105990000546C07903213038C7B22846FFF769FFB2
:1059A000FF2805D02844694600F07AF98AF80000FB
:1059B000002651E02AA12046FAF7B9FC044600254A
:1059C0004FF0040B0BEB8500C1B22046FFF751FFEF
:1059D000FF283ED02044694600F062F908EB8802B7
:1059E00002EB0A0989F80100052000EB8500C1B22D
:1059F0002046FFF73EFFFF282BD02044694600F0E9
:105A00004FF989F80200062000EB8500C1B220465C
:105A1000FFF72FFFFF281CD02044694600F040F913
:105A2000A9F80300072000EB8500C1B22046FFF76C
:105A300020FFFF280DD02044694600F031F989F895
:105A400005006D1C08F10100EDB200F0FF08042D07
:105A5000B8D3761CF6B2641CBE42ABD3BDE8F88F57
:105A600024475047535600002DE9F8430A460446A0
:105A700083A11046FAF75BFC05460121FFF7F9FE0A
:105A800042F210764FF06408FF281ED02844694681
:105A900000F006F907469DF800100A2000F0F8F81B
:105AA000B7FBF0F1B1FBF6F084F841004046B1FBE2
:105AB000F0F2B2FBF0F308FB132284F84220B1FBB2
:105AC000F8F208FB121084F8430003212846FFF780
:105AD000D0FE9FED6C0AFF283ED02844694600F0B6
