:020000040800F2
:10000000E04F00206102000823220008B120000810
:100010002122000869040008CD310008000000001A
:10002000000000000000000000000000A101000826
:100030003505000800000000FD010008292E000819
:100040007B0200087B0200087B0200087B0200089C
:100050007B0200087B0200087B0200087B0200088C
:100060007B0200087B0200087B0200087B0200087C
:100070007B0200087B0200087B0200087B0200086C
:100080007B0200087B0200087B0200087B0200085C
:100090007B0200087B0200087B0200087B0200084C
:1000A0007B020008ED2E00087B0200087B0200089E
:1000B0007B0200087B0200087B0200087B0200082C
:1000C0007B0200087B0200087B0200087B0200081C
:1000D0007B0200087B0200087B0200087B0200080C
:1000E0007B0200087B0200087B0200087B020008FC
:1000F0007B0200087B0200087B0200087B020008EC
:100100007B020008592200087B0200087B020008DD
:100110007B0200087B0200087B0200087B020008CB
:100120007B0200087B0200087B0200086D040008C7
:100130007B0200087B0200087B0200087B020008AB
:100140007B0200087B0200087B0200087B0200089B
:100150007B02000879040008850400087B0200087F
:100160007B0200087B0200087B0200087B0200087B
:100170007B0200087B0200087B02000800000000F0
:100180007B02000881050008DFF810D000F0EEF8CF
:100190000048004755320008AFF30080E04F0020D0
:1001A0002C4B19680868B0E8F04F80F30988BFF35A
:1001B0006F8F4FF0000080F311887047000000003F
:1001C00008480068006880F308884FF0000080F35A
:1001D000148862B661B6BFF34F8FBFF36F8F00DF35
:1001E00000BF00BF08ED00E0DFF80C00016841F43B
:1001F00070010160704700BF88ED00E0EFF30980F7
:10020000BFF36F8F134B1A681EF0100F08BF20ED5D
:10021000108A20E9F04F106009B44FF0200080F3FD
:100220001188BFF34F8FBFF36F8F03F097FF4FF02D
:10023000000080F3118809BC19680868B0E8F04F25
:100240001EF0100F08BFB0EC108A80F30988BFF3CE
:100250006F8F704724000020EFF305807047000087
:100260000648804706480047FEE7FEE7FEE7FEE750
:10027000FEE7FEE7FEE7FEE7FEE7FEE7DD2E00080D
:10028000890100082DE9F05F0546002092469B4653
:1002900088460646814640241BE02846414647469C
:1002A000224600F053F853465A46C01A914110D3E3
:1002B00011461846224600F03AF82D1A67EB01085D
:1002C0004F4622460120002100F031F817EB0009CB
:1002D0004E41201EA4F10104DFDC484631462A4687
:1002E0004346BDE8F09F40EA01039B0703D009E0C5
:1002F00008C9121F08C0042AFAD203E011F8013B12
:1003000000F8013B521EF9D27047D2B201E000F86A
:10031000012B491EFBD270470022F6E710B51346A9
:100320000A4604461946FFF7F0FF204610BD202A72
:1003300004DB203A00FA02F1002070479140C2F13C
:10034000200320FA03F3194390407047202A04DB6E
:10035000203A21FA02F00021704721FA02F3D0403E
:10036000C2F120029140084319467047064C074DE0
:1003700006E0E06840F0010394E807009847103475
:10038000AC42F6D3FFF704FF084D0008284D0008E3
:10039000704700000146014801F03AB9D000002042
:1003A00010B5044801F046F9042801D0012010BD21
:1003B000002010BDD000002010B500F015F8012875
:1003C00001D0012010BD074801F04EFA040006D10B
:1003D0004FF40061034800F0C1FF00B10124204642
:1003E00010BD0000D000002008B501208DF80000ED
:1003F0009DF8000008BD0000134610B50A460146EE
:100400000024034801F02CFB00B10124204610BD5C
:10041000D000002008B50120ADF8000003480023FB
:100420001A466946406802F0E9FF08BD0400002052
:10043000134610B50A4601460024034801F0AAFB02
:1004400000B10124204610BDD000002008B50220D4
:10045000ADF80000034800231A466946406802F0E0
:10046000CDFF08BD04000020FEE70000014800F0B9
:100470005FB9000054010020014800F059B90000A4
:10048000B4010020014800F053B9000058020020D8
:1004900001681823CAB2103AB2FBF3F2054B6FF3AE
:1004A0000901032A9B5CC36500D9091D81650846C3
:1004B00070470000DC4C000810B5014600208B6935
:1004C0008A6A4FF0C07453B1B3F5005F15D072B1B2
:1004D000012A0CD0022A0AD0032A09D104E01AB159
:1004E000012A06D0022A03D1C96AC90100D5012018
:1004F00010BDC96AA142FAD010BD002AF7D0012A66
:10050000F2D0022AF3D0032AF3D010BD30B504682C
:10051000256825F480252560046863608368402B86
:10052000036803D099600068C26030BD9A600068BB
:10053000C16030BD704772B6FEE70022AFF30080A5
:1005400030B50E4B054601205C7A002C14D1587A48
:100550001C54587A03EB800045605D7A03F1080073
:100560002A54587A421C5A72303008703A20487027
:100570002F208870CC70002030BD000000030020C8
:10058000704770B5040003D094F8200010B104E067
:10059000012070BD204600F081F82068016841F01C
:1005A0000101016000F040FB0546052604E000F073
:1005B0003BFB401B0A2811D820684068C007F6D0D2
:1005C0002068016821F00201016000F02DFB054662
:1005D0000BE000F029FB401B0A2806D9606A40F4B2
:1005E0000030606284F82060D2E7206840688007AD
:1005F000EFD4207E0128206801683DD021F08001E1
:100600000160607E01282068016838D021F0400137
:100610000160A07E01282068016833D021F020010C
:100620000160E07E0128206801682ED041F01001B1
:100630000160207F01282068016829D021F008018D
:100640000160607F01282068016824D021F0040146
:100650000160D4E902010843D4E9041211430843BC
:100660006168491E08432168C8610020606201205A
:1006700084F82000002070BD41F08001C0E741F007
:100680004001C5E741F02001CAE721F01001CFE7A2
:1006900041F00801D4E741F00401D9E710B586B074
:1006A000044614216846FFF737FE14492068884243
:1006B00021D113480021026842F0007202600068F4
:1006C00000F0007005900E481038026842F00102F8
:1006D0000260006800F0010005904FF4C0500090E7
:1006E0000220CDE90101032003900920049069460E
:1006F000044800F0A1F906B010BD000000640040FD
:10070000403802400000024090F83510022903D022
:100710008021416501207047052180F8351000686F
:10072000016821F00101016000207047406D7047B1
:100730002DE9F84304464FF00009CDF800906348D6
:100740004FF41651A56D0068B0FBF1F72E6894F8D0
:100750005C10082000FA01F131420FD021680A68CC
:1007600052070BD50A6822F004020A6094F85C1064
:100770008840A860606D40F00100606594F85C10EE
:100780004FF0010808FA01F0304208D021684969A9
:10079000090604D5A860606D40F00200606594F819
:1007A0005C1004208840304208D02168096889071D
:1007B00004D5A860606D40F00400606594F85C109A
:1007C00010208840304218D021680968090714D5E4
:1007D000A86020680168490304D50068000308D5B3
:1007E000A16C07E00168C90503D4016821F0080184
:1007F0000160216C09B12046884794F85C102020E4
:100800008840304231D021680968C9062DD5A860DA
:1008100094F8350005282068016806D0490347D5BB
:10082000006800031DD4616C1CE021F0160101601A
:100830002068416921F080014161206C08B9A06CF9
:1008400020B12068016821F00801016094F85C1073
:100850003F208840A86084F8358084F83490216D6A
:100860001FE0E16B09B120468847606D00282BD05E
:10087000606DC00714D0052084F835002068016839
:1008800021F0010101600098401C0090B84203D89B
:1008900020680068C007F6D184F8358084F8349069
:1008A000E16C002910D001B02046BDE8F0430847B4
:1008B0000168C905D5D4016821F01001016084F8F0
:1008C000358084F83490CCE7BDE8F8832000002020
:1008D0002DE9F041044600F0A7F906465CB102207C
:1008E00084F83500002584F834502068016821F030
:1008F000010101600DE00120BDE8F08100F094F9F4
:10090000801B052805D920206065032084F8350068
:10091000F2E720680068C007F0D12268116820481B
:100920000140D4E901031843D4E9033633431843A3
:1009300063691843A3691843E3691843236A18439A
:100940000843616A042903D1D4E90B13194308430E
:10095000106020684069666A20F0070130460E4347
:10096000012704280CD1A06A0643E06A40B1204662
:10097000FFF7A2FD20B14020606584F83570BAE72A
:10098000206846612046FFF783FD94F85C203F21F4
:1009900091408160656584F835700020ACE7000007
:1009A0003F8010F02DE9F0410446866D90F8340048
:1009B000002501280DD0012084F8340094F835700A
:1009C0000020012F07D084F8340002252846BDE816
:1009D000F0810220FBE7022784F83570606520462D
:1009E000FFF794FD94F85C103F208840B0602068C9
:1009F000016841F016010160206C20B12068016897
:100A000041F0080101602068016841F001010160C6
:100A1000DCE7000070B5044600F006F90546601CEE
:100A200002D004480078044400F0FEF8401BA042C5
:100A3000FAD370BD140000202DE9F84FDFF8BCA1F7
:100A40000022012503264FF00F090AF1040BAAF139
:100A5000040E00BF0B6805FA02F42340A34270D1D4
:100A60000F7907F00307012F01D0022F16D18768F5
:100A70004FEA420806FA08FC27EA0C07D1F80CC036
:100A80000CFA08FC4CEA070CC0F808C04768A743FA
:100A90000C79C4F3001494403C4344600C79E44363
:100AA000A4070AD0C4684FEA420C06FA0CF7BC430C
:100AB0008F6807FA0CF72743C7600C7904F003042A
:100AC000022C12D1D40800EB840CDCF8204057072C
:100AD000FF0E09FA07F824EA0804D1F8108008FA92
:100AE00007F848EA0408CCF8208004684FEA420C72
:100AF00006FA0CF7BC430F7907F0030707FA0CF767
:100B0000274307604C6814F4403F70D03C4C276882
:100B100047F480472760246822F0030704F48044E8
:100B20000094384C07EB040CDCF8084897074FEAB0
:100B3000177809FA08F7BC43334FB84202D10027AF
:100B400024E054E0314FB84201D101271EE0304F7C
:100B5000B84201D1022719E02E4FB84201D1032734
:100B600014E02D4FB84201D104270FE02B4FB842BB
:100B700001D105270AE02A4FB84201D1062705E036
:100B8000284FB84201D1072700E0082707FA08F7E5
:100B90002743CCF80878DAF800405746D1F804C06B
:100BA0009C435FEACC2C00D51C433C60DBF8004042
:100BB0005F46D1F804C09C435FEA8C2C00D51C43EF
:100BC0003C60DEF800407746D1F804C09C435FEA01
:100BD0008C3C00D51C433C60084F083F3C68D1F872
:100BE00004C09C435FEACC3C00D51C433C60521CD3
:100BF000102AFFF42FAFBDE8F88F0000083C014039
:100C0000443802400030014000000240000402402D
:100C100000080240000C0240001002400014024094
:100C200000180240001C0240014880687047000024
:100C300014000020024881680278114481607047E6
:100C4000140000200B4810B5016841F400710160E8
:100C5000016841F480610160016841F480710160C4
:100C6000032000F0A3F80F2000F006F800F04AF887
:100C7000002010BD003C024030B505461C4887B03E
:100C80000024016841F001010160006806A900F03C
:100C90000100009001A800F035F900F063F9154952
:100CA0004000B0FBF1F11548134A491E026040F2C2
:100CB000E732C0E90324C0E90114846100F0FCFFBD
:100CC000040012D10D4801F025F804000DD11920BF
:100CD00000F03EF8102D07D200222946192000F01E
:100CE00045F80748056000E0012407B0204630BD04
:100CF0004438024040420F0000000140B80200208A
:100D000018000020114808B5016841F480410160D5
:100D1000006800F4804000900C48001F016841F01A
:100D2000805101600068002200F0805000900F2187
:100D3000901E00F01BF800220221512000F016F84E
:100D4000BDE80840512000F003B8000044380240DC
:100D5000002809DB00F01F020121914040098000BA
:100D600000F1E020C0F8001170470000F0B40E4B15
:100D70001B680C46C3F30223C3F10705042D00D9F9
:100D80000425191D072901D2002300E0DB1E0126DE
:100D900006FA05F1491E214099409E40761E1640F4
:100DA0003143F0BC02F01CBA0CED00E0064900F043
:100DB000070208684FF6FF03184040EA0220034A82
:100DC00010430860704700000CED00E00000FA05D9
:100DD0002DE9F0470E46050065D0DFF81481D8F8FC
:100DE0000000F7B200F00700B04207D288F80070A8
:100DF000D8F8000000F00700B04254D128683D4CFC
:100E0000810712D5400703D5206840F4E0502060E8
:100E10002878000703D5206840F4604020602068EF
:100E2000A96820F0F000084320602878C0072DD082
:100E3000304968680839012812D0022813D00328E5
:100E400011D00968890700292DDA216821F00301F2
:100E500001432160FFF7E8FE814641F2883A0EE047
:100E600009688903EFE709688901ECE7FFF7DCFE11
:100E7000A0EB0901514502D90320BDE8F0872068A5
:100E8000696800F00C00B0EB810FEFD1D8F80010CA
:100E9000404601F00701B14207D90770006800F031
:100EA0000700B04201D00120E7E72878400705D5C8
:100EB0002068E96820F4E0500843206028780007A3
:100EC00006D52068296920F4604040EAC10020600E
:100ED00000F058F82168084AC1F30311515CC8407A
:100EE0000649086006480068FFF7C6FE0020C4E710
:100EF000003C024008380240E44C0008200000207A
:100F0000180000200F2202600C4A136803F003034C
:100F10004360136803F0F0038360136803F4E05345
:100F2000C36012684FF4E05303EAD202026104483E
:100F3000006800F0070008607047000008380240B1
:100F4000003C02400448054900680968044AC1F3AE
:100F50008221515CC84070472000002008380240C0
:100F6000F44C00080448054900680968044AC1F3C4
:100F70004231515CC84070472000002008380240D0
:100F8000F44C0008154810B5006810F00C02144825
:100F900013D01449042A0FD0082A0ED10F4C241F55
:100FA0002268236802F03F025B0207D52068C0F385
:100FB0008810A0FB010106E0084610BD2168C1F3BE
:100FC0008811A1FB00010023FFF75CF92168C1F340
:100FD0000141491C4900B0FBF1F010BD0838024046
:100FE0000024F40040787D012DE9F84F04006ED014
:100FF0002078DFF84C93C007A9F104054AD009F125
:1010000004000168C1F38101012908D00068C0F320
:10101000810002280AD1D9F80000400206D52868CC
:10102000800337D560680028E1D033E06068B0F510
:10103000803F10D0B0F5A02F286810D020F4803069
:101040002860286820F4802028606068A8B1FFF735
:10105000EBFD06460DE0286840F48030F4E740F4EC
:1010600080202860F7E700BFFFF7DEFD801B6428C3
:1010700073D828688003F7D50CE0FFF7D5FD064646
:1010800005E000BFFFF7D0FD801B6428F0D828687A
:101090008003F7D42078DFF8AC8280074FF0000A95
:1010A0003ED5A748001D016811F00C0F08D000685C
:1010B000C0F3810002280BD1D9F80000400207D408
:1010C0002868800716D5E068012800D112E033E1D6
:1010D000E068B8B10120C8F80000FFF7A5FD06469A
:1010E00005E000BFFFF7A0FD801B0228C0D82868DC
:1010F0008007F7D52868216920F0F80040EAC10090
:1011000028600DE0C8F800A0FFF78EFD064604E059
:10111000FFF78AFD801B02281FD828688007F7D4B4
:101120002078000722D5864F87486169703771B1F2
:1011300001210160FFF778FD064604E0FFF774FD2A
:10114000801B022809D838688007F7D50EE0C0F860
:1011500000A0FFF769FD064605E082E0FFF764FDA9
:10116000801B02287DD838688007F7D42078400794
:1011700068D5DFF8CCB100270BF13C0BDBF80000A1
:10118000C0000BD4DBF8001041F08051CBF8001008
:10119000DBF80000012700F0805000906B4E3068B3
:1011A000C00510D4306840F480703060FFF73CFD1B
:1011B000009005E0FFF738FD0099401A022850D84A
:1011C0003068C005F6D55E4EA0686C3601280FD099
:1011D0000528306810D020F001003060306820F021
:1011E00004003060A068B8B1FFF71EFD00900FE06A
:1011F000306840F00100F4E740F004003060F7E7A9
:10120000FFF712FD0099411A41F28830814266D8F9
:1012100030688007F4D50EE0FFF706FD009007E088
:10122000FFF702FD0099411A41F28830814256D8F9
:1012300030688007F4D42FB1DBF8001021F0805122
:10124000CBF80010A069C8B33D49091D0968C1F376
:10125000810102294AD00228504607D0C8F8600010
:1012600000E03CE0FFF7E0FC04463BE04746C8F8FE
:101270006000FFF7D9FC064605E000BFFFF7D4FC8D
:10128000801B02282BD828688001F7D4D4E90701F5
:101290000843A16A2E4A490802EB0141626A41EA09
:1012A0008211084394F82C1040EA0161C9F800103B
:1012B00001203866FFF7B8FC044606E03EE000BFB8
:1012C000FFF7B2FC001B022809D828688001F7D577
:1012D00034E000BFFFF7A8FC001B022802D903205E
:1012E000BDE8F88F28688001F4D427E00128F7D002
:1012F000D9F80000E26900F4800191421CD1226A11
:1013000000F03F01914217D147F6C071626A014077
:10131000B1EB821F10D1A26A4FF0FF3300F44031CD
:1013200003EB5202B1EB024F06D194F82C1000F0FF
:101330007060B0EB016F01D00120D1E70020CFE752
:101340000438024000004742800E474200700040CF
:101350000000FFFF10B5FFF71BF810BD2DE9FE439D
:101360000446002603200D4684F83400606C0328F0
:101370005ED0B5F5805F5BD04FF4006700204FF082
:101380008068BD421FD181460090019000212068F5
:1013900000F05EFF800113D46946204601F04CFB4B
:1013A00007000DD10198400334D5B4F85000010472
:1013B000206800F085FF070002D10221206823E0A9
:1013C000A06B384328E01DB1A06B40F0006023E023
:1013D0008146009001900021206800F039FF8001D3
:1013E000EED46946204601F027FB0700E8D10198BA
:1013F000C0030FD5B4F850000104206800F060FF6E
:101400000700DDD10021206800F0A7FF0700D7D139
:101410004F46D5E74746D3E7A063A06B144F4FF084
:10142000010848B12068876384F8348001260EE003
:10143000A06B40F08050EFE7211DD4E9050C0EC9E8
:10144000CDE90050CDF808C0206800F00BFF4FF444
:101450000071206800F068FF28B121688F63A16BDC
:101460000143A163012684F834803046BDE8FE8341
:10147000FF05400070470000F0B5426E920F0A7001
:10148000426EC2F383624A70426EC2F301628A7096
:10149000426E120CCA70B0F86420120A0A7190F8F9
:1014A00064204A71826E120DCA80826EC2F30342BA
:1014B0000A72B0F86820C2F3C0324A72B0F86820ED
:1014C000C2F380328A72B0F86820C2F34032CA7226
:1014D000B0F86820C2F300320A7300264E73426CE3
:1014E0004FF40075012462B1012A3AD002684749DD
:1014F0009163816B41F08051816380F83440012019
:10150000F0BDB0F86820C36E9205120D42EA9372E6
:101510000A61C26EC2F3C2620A75C26EC2F302628F
:101520004A75C26EC2F342528A75C26EC2F38242DB
:10153000CA75C26EC2F3C2320A760A69521C42658B
:101540000B7E03F007039B1C9A4042650B7A03F065
:101550000F0704FA07F383655B0A5A43C0E91725AE
:101560000EE090F86820C36E9206920A42EA134297
:101570000A610A69521C92024265C0E91652056668
:1015800030F86C2FC2F3803201F8192F0288C2F3B1
:10159000C6124A70027802F07F028A704268D20F47
:1015A000CA704268C2F341720A714268C2F3826231
:1015B0004A714268C2F383528A714268C2F3405250
:1015C000CA710E724268C2F300424A728288C2F344
:1015D000C0328A728288C2F38032CA728288C2F3B1
:1015E00040320A738288C2F300324A738288C2F39F
:1015F00081228A738288C2F30122CA730079C0F300
:10160000460008744C740020F0BD0000FF05400047
:10161000426C0A60826C4A60C26C8A60026DCA6069
:10162000426D0A61826D4A61C26D8A61006EC86155
:101630000020704770B50446B0F850000025010442
:10164000206800F072FF18B1A16B0143A16304E0B0
:101650000021206800F0FCFD0546C5F3432070BD65
:10166000F8B5056B04460068416B09041BD52907D2
:1016700019D5D4E90A56002E14D00027206800F0AE
:1016800007FE05F8010B010A05F8011B010C05F81E
:10169000021B000E361F7F1C05F8010C082FEDD32E
:1016A000C4E90A56F8BD416B4FF00006C9054FF07A
:1016B000010744D5390281632068C16B4CF23A328C
:1016C0009143C1632068C16A21F00101C16228070A
:1016D0001DD515F0220F09D0206800F057FF28B162
:1016E000A16B0143A1632046FFF7C4FE216840F2CD
:1016F0003A50886384F834702663A80703D02046E4
:1017000000F040FAF8BD204600F040FAF8BD280687
:10171000FCD5A80609D5206800F038FF28B1A16BD8
:101720000143A1632046FFF7A5FEA807EED120687C
:10173000C16A21F00801C16284F83470E3E7416BAB
:10174000490424D5290722D5D4E90856002EDDD036
:101750005FF0000715F8010B009015F8011B361F0C
:1017600040EA0120009015F8021B40EA0140009079
:1017700015F8011C40EA016000906946206800F0FD
:101780009AFD7F1C082FE5D3C4E90856F8BD416BCC
:1017900040F23A221142F9D0416B890703D5A16B7F
:1017A00041F00201A163416B090703D5A16B41F030
:1017B0000801A163416B890603D5A16B41F02001AB
:1017C000A163416BC90603D5A16B41F01001A16370
:1017D000416B890503D5A16B41F00801A16340F27B
:1017E0003A7181632068C16B40F23A329143C16320
:1017F000206800F0CBFEA16B0843A063280706D544
:1018000084F8347026632046FFF734FEF8BD2806BE
:10181000FCD515F0300F0CD0E16B11480865E06B7A
:10182000FEF772FF0028F1D0E06BBDE8F84001F050
:10183000E1B8A8070CD0216C0A480865206CFEF7B7
:1018400063FF0028E2D0206CBDE8F84001F0A9B8A1
:10185000A66384F8347026632046FFF77BFDF8BD4D
:10186000F5290008A329000870B504000ED094F8EB
:101870003400002518B92577204600F04FF80320E2
:1018800084F83400204600F00BF808B1012070BD48
:10189000A5632563012084F83400002070BD00009A
:1018A000FEB50025044676200095CDE90150294675
:1018B0000B460A46206800F0D5FC48BB154E46F89A
:1018C000A05F206800F0E0FC012535600220FFF7F2
:1018D000A1F8204601F094F930B100BF84F83450EB
:1018E000A16B0143A16313E0204601F012F9002827
:1018F000F4D14FF40071206800F016FD002808D0E4
:10190000226805499163A16B0143A16384F83450B7
:101910000120FEBD00802542FF0540002DE9F04F6B
:1019200087B0054614216846FEF7F6FC464928684C
:1019300088427DD145480068444940F40060086011
:10194000086800F4006005904048143800683F497A
:1019500040F0040014390860086800F004000590A5
:10196000086840F0080008600868022400F00800D9
:1019700005904FF4F850CDE9000402AA0020032698
:101980004FF00C0882E8410169463148FFF754F8EE
:1019900002AA002082E841010427CDE900746946CB
:1019A0002C48FFF749F82D4C2B484FF00068C4E94C
:1019B000000800204FF48069A060C4E90309B80260
:1019C0004FF4804BC4E9050BC4E909764FF0200AB7
:1019D0000020C4E907A07E05B7102046C4E90B67C4
:1019E000FEF776FF08B1FEF7A6FD2C64A5631B4C3D
:1019F000194860344830C4E900084020A060002045
:101A0000C4E90309C4E907A00420606204F12802C4
:101A1000032082E8C1004FF48051C4E9051B204631
:101A2000FEF756FF08B1FEF786FDEC63002200E0EA
:101A300007E005213120A563FFF798F93120FFF772
:101A400087F907B0BDE8F08F002C01404438024010
:101A500000080240000C024058640240540100207B
:101A60002DE9F04786B01F460446154639B194F873
:101A70003400012807D0022006B0BDE8F087A06B33
:101A800040F0006008E00020A063E36DEA199A428C
:101A900004D9A06B40F00070A06369E0032284F8D1
:101AA000342022688146D0622268D36B40F22A3605
:101AB0003343D363236C2F4ADA63236C2E4ADA64F0
:101AC000226C1065226C9060206C0068026822F025
:101AD000C002026020680A46266C4FEA472800F1DF
:101AE00080014FEA98033046FEF75CFFDFF88CA0D8
:101AF000012670B12068C16B21F49571C163216822
:101B0000C1F838A0A06B40F08040A06384F8346036
:101B10002EE01B480660606C012800D06D024FF07B
:101B2000FF30CDE900089020029002200596CDE913
:101B300003096946206800F075FB012F06D9822051
:101B400020632946206800F061FC05E081202063C5
:101B50002946206800F073FC00288DD02268C2F866
:101B600038A0A16B0143A16384F83460C4F83090BD
:101B7000012081E761290008FD280008FF054000D9
:101B80008C85254210B5FEF745FC10BD10B5FEF75B
:101B90005DFC10BD2DE9F04F5FEA010B87B01E46DA
:101BA0000446114607D094F83400012807D00220DB
:101BB00007B0BDE8F08FA06B40F0006008E00025A2
:101BC000A563E26D8819904204D9A06B40F00070C3
:101BD000A06356E0032084F834002068C5622068C2
:101BE000C26B40F21A2942EA0902C263E26B2D4835
:101BF000D063E26B2C48D064E06B0565606C012813
:101C000000D049024FF09008012E05D9A020206392
:101C1000206800F0D5FC04E0C4F83080206800F0B3
:101C2000E8FCDFF888A0012730B12268C2F838A0AC
:101C3000A16B0143A16321E01D480760E16B4020D7
:101C40008860E06B0068016821F0C00141F040014C
:101C5000016022687602B30859468032E06BFEF7D5
:101C6000A1FE80B12068C16B21EA0901C16321682E
:101C7000C1F838A0A06B40F08040A06384F83470B5
:101C80002563012094E74FF0FF30CDE90006CDE950
:101C90000285CDE904576946206800F0C3FA0020A8
:101CA00086E70000E7290008FD280008FF0540003E
:101CB0008C8525427047704710B5040003D094F816
:101CC0003D0010B107E0012010BD002084F83C0069
:101CD000204600F01EF8022084F83D00211D2068F7
:101CE00001F00AF9012084F8460084F83E0084F8E7
:101CF0003F0084F8400084F8410084F8420084F8F2
:101D0000430084F8440084F8450084F83D00002036
:101D100010BD704790F83D10012901D00120704797
:101D2000022180F83D100168CA6842F00102CA60D1
:101D300000681149884214D0B0F1804F11D00F498A
:101D400088420ED00E4988420BD00E49884208D0F6
:101D50000D49884205D00D49884202D00C4988427D
:101D600004D1816801F00701062903D0016841F020
:101D700001010160002070470000014000040040A4
:101D800000080040000C00400004014000400140F9
:101D900000180040704770B50446006801694FF0B4
:101DA0000005C943890715D4C168C943890711D4FF
:101DB000E91E0161012020772068806980072046A4
:101DC00002D0FFF7E7FF04E000F098F8204600F0AB
:101DD00096F8257720680169C943490717D4C16877
:101DE000C943490713D46FF0040101610220207731
:101DF0002068806910F4407F204602D0FFF7CAFFB8
:101E000004E000F07BF8204600F079F825772068A0
:101E10000169C943090716D4C168C943090712D427
:101E20006FF008010161042020772068C0698007F5
:101E3000204602D0FFF7AEFF04E000F05FF8204636
:101E400000F05DF8257720680169C943C90617D4F9
:101E5000C168C943C90613D46FF01001016108209D
:101E600020772068C06910F4407F204602D0FFF739
:101E700091FF04E000F042F8204600F040F825779A
:101E800020680169C943C90708D1C168C943C907A6
:101E900004D1891E0161204600F032F820680169F2
:101EA000C943090609D4C168C943090605D46FF0BE
:101EB000800101612046FFF7FDFE20680169C943EA
:101EC000490609D4C168C943490605D46FF04001E9
:101ED0000161204600F01EF820680169C9438906A7
:101EE0000BD4C168C943890607D46FF02001016192
:101EF0002046BDE87040FFF7DEBE70BD70477047FA
:101F000000680349884201D1FEF794BE7047000083
:101F1000000001407047704770B5040004D094F889
:101F20003D00002510B106E0012070BD84F83C5052
:101F3000204600F023F8242084F83D002068C16882
:101F400021F40051C160204601F0BAF8206801690F
:101F500021F4904101612068416921F02A01416129
:101F60002068C16841F40051C1602564202084F8D4
:101F70003D0084F83E00002070BD000070B586B0C2
:101F8000064614216846FEF7C7F9204930688842A2
:101F900039D11F480025016841F010010160006837
:101FA00000F0100005901A481438016841F0010152
:101FB00001600068694600F0010005904FF4C060C0
:101FC00000900220CDE90105032003900720049032
:101FD0001048FEF731FD114C0F4820604FF00060B3
:101FE00060604020C4E902050001C4E90405A56160
:101FF000E561256220466562FEF76AFC08B1FEF7DE
:102000009AFA7463A66306B070BD00000010014028
:102010004438024000000240B864024058020020E8
:1020200070B5044690F83D00202836D191B38AB3AC
:1020300094F83C00012830D0012084F83C00216253
:10204000A284E28400252564212084F83D00636B8E
:102050001348D863636B13481864636B1248D864E1
:10206000606B134605652668606B321DFEF79AFCAF
:1020700021686FF04000086084F83C5020681430FC
:1020800050E8001F41F0800140E80012002AF5D11D
:10209000002070BDFFE70120FBE70220F9E7000008
:1020A0000B3000084D300008C12F00087047704702
:1020B000FEE700000D4810B50B490160102141609A
:1020C00000218160C16001614161017641768176C4
:1020D000C17601774177FEF754FA002803D0BDE8B6
:1020E0001040FEF728BA10BD00640040A800002090
:1020F000114808B5016841F48001016000680022C0
:1021000000F48000009007213B20FEF72FFE3B20CB
:10211000FEF71EFE002207214520FEF727FE452080
:10212000FEF716FE002207214620FEF71FFEBDE83F
:1021300008404620FEF70CBE3038024010B5044976
:102140000448FEF7FAF90249491E087010BD000064
:102150000D000020C84C000810B5044A00210448B6
:1021600001F080F90349086010BD0000A44C00088C
:10217000212E000800000020114808B5016841F038
:1021800080010160016801F080010091016841F067
:1021900004010160016801F004010091016841F04F
:1021A00001010160016801F001010091016841F045
:1021B00008010160006800F00800009008BD000000
:1021C00030380240074806494FF4006201600021A0
:1021D00041608160C0E90312416102218161704761
:1021E000002C0140D00000200C4810B50A490160C5
:1021F0004FF4E1314160002181600C22C160C0E9EF
:1022000004128161C161FFF787FE002803D0BDE899
:102210001040FEF790B910BD0010014014020020DC
:10222000FEE7FEE70A6842624A688262D1E9022359
:102230001A43D1E904310B43C16A1A4321F0F70173
:102240001143C16200207047006800F0030070472E
:1022500008444069704700000148FFF701BA0000D8
:10226000D000002070B50DF1100C11439CE87000F7
:102270002343194329434268314347F6FF639A4396
:102280000A434260002070BD0321016000207047B6
:10229000D0F8800070470A688260D1E901231A43B0
:1022A000D1E903310B43C1681A436FF30B011143AA
:1022B000C160002070470968C0F880100020704796
:1022C00010B585B004463720CDE9001040200290BB
:1022D000002003904FF48060049069462046FFF789
:1022E000DAFF41F288323721204600F09BF905B031
:1022F00010BD000010B504460A4885B001432920EE
:10230000CDE9001040200290002003904FF480603F
:10231000049069462046FFF7BEFF204600F03AFAD7
:1023200005B010BD0000108010B585B00446102027
:10233000CDE9001040200290002003904FF480600F
:10234000049069462046FFF7A6FF41F2883210212B
:10235000204600F067F905B010BD10B585B0044601
:102360000620CDE9001040200290002003904FF499
:102370008060049069462046FFF78DFF41F2883265
:102380000621204600F04EF905B010BD30B585B0ED
:1023900000240546009401944FF480600294CDE936
:1023A000034069462846FFF776FF0B484FF4FA5181
:1023B0000068B0FBF1F041F288314843401E03D27F
:1023C0004FF0004005B030BD696B0906F6D5C52059
:1023D000A8632046F6E700002000002010B585B075
:1023E00004464FF4D57000900820019040200290E0
:1023F000002003904FF48060049069462046FFF768
:102400004AFF204600F02CFA05B010BD10B585B08B
:1024100004461220CDE900104020029000200390D5
:102420004FF48060049069462046FFF734FF41F284
:1024300088321221204600F0F5F805B010BD10B525
:1024400085B004461120CDE9001040200290002004
:1024500003904FF48060049069462046FFF71BFF0D
:1024600041F288321121204600F0DCF805B010BDA1
:1024700010B585B004460720CDE900204020029029
:10248000002003904FF48060049069462046FFF7D7
:1024900002FF41F288320721204600F0C3F805B060
:1024A00010BD10B585B0044600210220CDE9001012
:1024B000C020CDE902014FF48060049069462046B7
:1024C000FFF7E9FE204600F03DF905B010BD10B55C
:1024D00085B004460920CDE90010C02002900020FC
:1024E00003904FF48060049069462046FFF7D3FEC6
:1024F000204600F027F905B010BD10B585B00446A0
:1025000000213320CDE900104020CDE90201000177
:10251000049069462046FFF7BEFE41F2883233211F
:10252000204600F07FF805B010BD10B585B0044618
:102530000D20CDE9001040200290002003904FF4C0
:102540008060049069462046FFF7A5FE41F288327C
:102550000D21204600F066F805B010BD30B585B0FD
:102560000C46054600210320CDE900104020CDE9AE
:1025700002010001049069462846FFF78CFE2246BE
:102580000321284600F028F905B030BD10B585B00C
:10259000044600210C20CDE900104020CDE90201C5
:1025A0000001049069462046FFF775FE034A0C219E
:1025B000204600F037F805B010BD000000E1F50539
:1025C00010B585B004461920CDE9001040200290D6
:1025D000002003904FF48060049069462046FFF786
:1025E0005AFE41F288321921204600F01BF805B04E
:1025F00010BD10B585B004461820CDE9001040206C
:102600000290002003904FF48060049069462046B9
:10261000FFF741FE41F288321821204600F002F80F
:1026200005B010BD454B10B51B684FF4FA54B3FB11
:10263000F4F353435B1E02D24FF0004010BD426BD7
:1026400012F0450FF6D01205F4D4426B520703D5B1
:1026500004218163084610BD426BD20702D00121DC
:10266000816305E0C52282630269D2B28A4201D049
:10267000012010BD0021FFF7EBFD3149084201D1D7
:10268000002010BD002802DA4FF0007010BD41009C
:1026900001D5402010BD810001D5802010BDC100B2
:1026A00002D54FF4807010BD010102D54FF40070C7
:1026B00010BD410102D54FF4806010BDC10102D5AB
:1026C0004FF4006010BD010202D54FF4805010BDE0
:1026D000410202D54FF4005010BD810202D54FF4E3
:1026E000804010BDC10202D54FF4004010BD41032F
:1026F00002D54FF4003010BD810302D54FF4802085
:1027000010BDC10302D54FF4002010BD010402D555
:102710004FF4801010BD410402D54FF4001010BDDD
:10272000810402D54FF4800010BD000702D54FF49C
:10273000000010BD4FF4803010BD000020000020CC
:1027400008E0FFFD12494FF4FA520968B1FBF2F1BB
:1027500041F288325143491E02D24FF00040704787
:10276000426B12F0450FF6D01205F4D4416B4907C5
:1027700003D50421816308467047416BC90703D024
:102780000121816308467047C5218163002070479D
:10279000200000200F494FF4FA520968B1FBF2F112
:1027A00041F288325143491E02D24FF00040704737
:1027B000426B12F0450FF6D01205F4D4416B490775
:1027C00003D50421816308467047C5218163002039
:1027D000704700002000002030B5204B4FF4FA5421
:1027E0001B68B3FBF4F341F2883463435B1E02D2EF
:1027F0004FF0004030BD446B14F0450FF6D0240577
:10280000F4D4436B5B0703D504218163084630BDD4
:10281000436BDB0702D00121816303E00369DBB274
:102820008B4201D0012030BDC52181630021FFF71B
:102830000FFD10F4604F04D0410406D54FF4005052
:1028400030BD000C1080002030BD000402D54FF4D4
:10285000805030BD4FF4803030BD0000200000209B
:1028600014494FF4FA520968B1FBF2F141F288328F
:102870005143491E02D24FF000407047426B12F0A4
:10288000450FF6D01205F4D4416B490703D5042156
:10289000816308467047416BC90703D001218163FA
:1028A00008467047416B490601D5402181630020ED
:1028B000704700002000002010B5064C0120207059
:1028C000FDF76EFD18B9207820F001002070207807
:1028D00010BD00000400002070B5054600F0FAFCB1
:1028E000044603E0FDF75CFD002806D000F0F2FC92
:1028F000001BA842F6D34FF0FF3070BD10B5846BBB
:10290000FDF714FF022828D0206C416DE06B406D6C
:10291000012901D001281DD1216810488863206851
:10292000C16B21F49D71C163A06B40F08040A06336
:102930002046FEF77FFE062801D0052805D1206835
:10294000FFF724FEA16B0843A063012084F8340044
:10295000002020632046FEF78DFD10BDFF054000DE
:1029600010B5846B206B822809D12068FFF70EFE1A
:1029700028B1A16B0143A1632046FEF77BFD2068CF
:10298000C16A21F00801C162216840F23A508863AF
:10299000012084F83400002020632046FFF7F2F87D
:1029A00010BD10B5846B40F23A5021688863204610
:1029B000FEF740FE012184F834100021216306282F
:1029C00001D0052805D12068FFF7E0FDA16B084381
:1029D000A063A06B0028204602D0FEF74BFD10BD7F
:1029E000FEF7B8FC10BD806B0068C16B41F48071CC
:1029F000C163704710B5846B40F23A502168886318
:102A00002046FEF717FE012184F8341000212163CF
:102A1000062801D0052805D12068FFF7B7FDA16B76
:102A20000843A063A06B0028204602D0FEF722FDD9
:102A300010BDFEF78FFC10BD2DE9F04788B00D46A4
:102A40000446FEF7F1F800268246009601963746C6
:102A500008212068FFF768FC002829D1B4F850004D
:102A600001042068FFF72CFC002821D1401E4FF004
:102A70000808CDE9020830204FF00209CDE9040929
:102A80000120CDE9067002A92068FFF7CBFB206882
:102A9000FFF733FD00280BD16F462068416B11F022
:102AA0002A0F08D0416B09071AD5C0F838800820D2
:102AB00008B0BDE8F087416B890205D5FFF7E8FB58
:102AC00047F82600761C02E0416B8904EAD5FEF740
:102AD000ABF8A0EB0A00401CDFD14FF00040E7E765
:102AE000416B890703D5C0F838900220E0E7416BBD
:102AF000890603D5202181630846D9E740F23A517F
:102B00008163019800BA2860009800BA68600020CC
:102B1000CEE710B590B004460120ADF8380020682B
:102B2000FFF792FB002854D0606C032842D0206845
:102B3000FFF7B7FC00284AD100212068FFF788FB87
:102B4000606704212068FFF783FBA06708212068E5
:102B5000FFF77EFBE0670C212068FFF779FBC4F8E4
:102B60008000606C032825D00EA92068FFF7F6FCD2
:102B700000282CD1606C03281CD0BDF838002065DB
:102B800001042068FFF7A3FC002820D10021206861
:102B9000FFF75EFB606604212068FFF759FBA06623
:102BA00008212068FFF754FBE0660C212068FFF73E
:102BB0004FFB206704212068FFF74AFB000DE0640B
:102BC00003A92046FEF758FC30B14FF0805010B0FA
:102BD00010BD4FF08060FAE7B4F850000023020403
:102BE0002068FFF745FC0028F1D104F1100007C868
:102BF0008DE8070094E80F00FFF734FB0020E6E7BC
:102C00002DE9F84F0026044600963546B046006888
:102C1000FFF7BCFB002827D12068FFF7DFFB4FF050
:102C2000805B4FF001094FF6FF7748B1A66420683A
:102C3000FFF7ACFB002817D1A06C012802D020E0E0
:102C4000C4F8489000212068FFF73AFB58B918E013
:102C500000212068FFF734FB002805D15146206889
:102C6000FFF748FB10B15846BDE8F88F00212068F7
:102C7000FFF7EEFA05464FEAD0780098401C009026
:102C800002E0DFF82CA00098B84202D2B8F1000FA1
:102C9000DED00098B84202D34FF08070E4E76800BD
:102CA00002D5C4F8449000E066640020DCE7000030
:102CB000000010C170B5104C05460120207000F0D6
:102CC000F9FA022816D1FDF777FB18B92846FFF765
:102CD000F3FD2070207801280CD0606850B90022E4
:102CE00002210A2000F05EFB606018B9207840F0F5
:102CF00001002070207870BD0400002010B512483B
:102D000088B014460078C00702D0032008B010BD78
:102D1000C1B1012905D0022908D003290CD0042013
:102D2000F4E76846FDF736FB06980AE06846FDF7CB
:102D300031FB0798208005E06846FDF72BFB0798DC
:102D4000400A20600020E1E7040000202DE9F8435C
:102D500047F230541E461746884601252046FFF7A5
:102D6000BBFD00281EDB324639464046FDF744FBDA
:102D7000C0B90F48234600226946406800F0E0FAD7
:102D800080B9BDF8000001280CD100F0A3FA064676
:102D900003E000BFFDF704FB38B100F09BFA801B95
:102DA000A042F7D32846BDE8F8830025FAE70000E3
:102DB00004000020FFF780BD2DE9F84347F23054AE
:102DC0001E461746884601252046FFF785FD002848
:102DD0001EDB324639464046FDF72AFBC0B90F4894
:102DE000234600226946406800F0AAFA80B9BDF87F
:102DF000000002280CD100F06DFA064603E000BF87
:102E0000FDF7CEFA38B100F065FA801BA042F7D387
:102E10002846BDE8F8830025FAE7000004000020FA
:102E2000012000F039FAFBE710B54FF0E02000690F
:102E300001F07AFD012803D0BDE8104001F03ABA54
:102E400010BD000030B593B030216846FDF764FA3C
:102E500014210CA8FDF760FA1E480025016841F016
:102E600080510160006800F0805011901A4801689C
:102E700041F4804101600068022400F48040119018
:102E800001200090000401908001CDE90640192046
:102E900008904FF4A870CDE9090408200B9068460B
:102EA000FEF7A2F808B172B6FEE70CA90F2081E880
:102EB00031004FF4A0500F904FF480501090052136
:102EC0000CA8FDF785FF002801D072B6FEE713B00D
:102ED00030BD0000403802400070004002480168E8
:102EE00041F470010160704788ED00E00148FEF791
:102EF00052BF0000B8020020F0B50268254C264DF4
:102F0000264E274F274B4FF0804CA04209D06045FA
:102F100007D0A84205D0B04203D0B84201D09842B1
:102F200004D122F0700E4A6842EA0E02A0421BD081
:102F3000604519D0A84217D0B04215D0B84213D07E
:102F4000984211D0184DA8420ED0184DA8420BD06F
:102F5000174DA84208D0174DA84205D0164DA842DB
:102F600002D0164DA84203D122F44075CA682A4304
:102F70004D6922F080022A4302608A68C2620A68B0
:102F80008262A04201D0984201D109690163012106
:102F90004161F0BD00000140000400400008004015
:102FA000000C00400004014000400140004401408A
:102FB0000048014000180040001C00400020004074
:102FC00070B5846B2068406994F83D10C0F3C01060
:102FD0000025212904D118B1E584204600F062F8CB
:102FE0002068406994F83E10C0F38010222904D173
:102FF00018B1E585204600F02EF8206C40F0100056
:1030000020642046FEF787FF70BD10B50146806B37
:1030100009680968C90516D40021C1840168143102
:1030200051E8002F22F0800241E80023002BF5D167
:1030300001680C3151E8002F42F0400241E80023C2
:10304000002BF5D110BDFFF731F810BD10B5806B26
:10305000FFF72DF810BD01680C3151E8002F22F464
:10306000907241E80023002BF5D10168143151E83A
:10307000002F22F0010241E80023002BF5D1016B63
:10308000012909D101680C3151E8002F22F010020A
:1030900041E80023002BF5D1202180F83E100021CB
:1030A0000163704701680C3151E8002F22F0C00223
:1030B00041E80023002BF5D1202180F83D10704716
:1030C00070B5044600680169E26821F4405111437B
:1030D00001612169A068E2690843616911430843FD
:1030E0002168CA6849F20C639A430243CA602068A7
:1030F0004169A26921F4407111434161314920685D
:10310000884202D03049884202D1FDF72BFF01E00E
:10311000FDF718FFE2690023192164253226B2F574
:10312000004F626828D0A0FB0101930F9200FDF7C9
:10313000A9F80146B0FBF5F06FF01802504301EB1F
:10314000800006EB0010B0FBF5F000F0F002B1FBE0
:10315000F5F002EB0012B1FBF5F06FF018035843E5
:1031600001EB800006EB0010B0FBF5F000F00F0063
:1031700021681044886070BDA0FB010192185B417A
:10318000FDF780F80146B0FBF5F00201B1FBF5F068
:103190006FF01803584301EB800006EBC000B0FB52
:1031A000F5F000F0F80002EB4002B1FBF5F05843F7
:1031B00001EB800006EBC000B0FBF5F000F007006B
:1031C000D6E700000010014000140140FEE70000B7
:1031D000014A024900F023B841320008A40000204F
:1031E0000907090E002804DB00F1E02080F8001434
:1031F000704700F00F0000F1E02080F8141D7047C8
:1032000002E008C8121F08C1002AFAD170477047AF
:10321000002001E001C1121F002AFBD170472DE9F7
:10322000F04116460F460446002503E03946B047F4
:10323000641C6D1C20780028F8D12846BDE8F08178
:1032400013B5012269460248FEF7EAFE00981CBD4C
:1032500014020020FDF7F6FCFFF7F4FDFEF78CFFEB
:10326000FEF746FFFEF726FFFEF7ACFFFEF766FF10
:10327000FEF7BAFF04A0FFF7ABFF00F033F8FEF74C
:103280006BFF00F041F8FEE7CDE2C9E8B3F5CABC38
:10329000BBAF2F722F6E000010B5EFF3058111B197
:1032A0006FF0050403E0002408B100F0A3FE2046FF
:1032B00010BD000010B501F037FB38B1022804D072
:1032C00003480068012800D0002010BD032010BD75
:1032D00074000020EFF3058008B101F039BB01F064
:1032E00031BB0000EFF3058010B16FF005007047AF
:1032F0000448016811B14FF0FF30704701210160AF
:10330000002070477400002010B5EFF3058010B165
:103310006FF0050010BD08480168012902D04FF088
:10332000FF3010BD054A002182F8141D0221016002
:1033300000F0C8FE002010BD740000200BE000E08B
:10334000F8B51D466FF003026FF002064FF000045F
:10335000EFF30583A3B1F0B1E9B1E5B90022009222
:103360006A4601F001FA012817D10098B0B10C4962
:103370004FF080500860BFF34F8FBFF36F8F0DE0A9
:1033800048B141B12A4601F053F9012806D025B1D0
:103390006FF0010402E0144600E034462046F8BD18
:1033A00004ED00E0F8B514464FF00005EFF3058298
:1033B00012BB08B301B3A4B1D4E9023263B1502AFD
:1033C0001AD32269C2B1676900FB01F6B74213D371
:1033D000009500F0A6FF07E072B9226962B9626940
:1033E00052B9002200F07CFF050005D00CB1216825
:1033F00000E0002100F0C8FD2846F8BDF8B51D46E4
:103400006FF003026FF002064FF00004EFF3058344
:10341000ABB100B3F9B1F5B90022134600926A4688
:1034200001F0A6F8012818D10098B8B10C494FF066
:1034300080500860BFF34F8FBFF36F8F0EE050B125
:1034400049B100232A4600F0E3FF012806D025B148
:103450006FF0010402E0144600E034462046F8BD57
:1034600004ED00E02DE9FF414FEA01034FF00005B4
:10347000EFF30581039549BB40B380271821002451
:103480004AB3166806B1344696691EB13146761EB7
:10349000382E02D21679F60703D0002004B0BDE81A
:1034A000F081566906B1B708D2F808C0BCF1000F28
:1034B0000DD0D5685C2D18D312693AB136B18DE8BC
:1034C00006103A46214601F004FA03900DE0D66852
:1034D0005EB912694AB903AACDE90012BAB221460F
:1034E00001F0CAF9012800D003950398D6E700003F
:1034F0002DE9F041134C0F460546E6682068001D93
:1035000000F044FC681C07D137B12168BDE8F041E8
:103510000D48091D00F08ABC20683544B54245605D
:10352000216805D2A06BBDE8F041091D00F066BC22
:10353000606B091D00F062FCA06A854200D2A562A2
:10354000BDE8F08124000020FC0700202DE9F041B7
:10355000054600F077FC2D4CA068401CA060206858
:103560002B4F10B1606930B32BE02560A0680128B3
:1035700027D1002606EB860007EB800000F030FC28
:10358000761C382EF6D3234800F02AFC214814304C
:1035900000F026FC1F48283000F022FC1D483C307B
:1035A00000F01EFC1B48503000F01AFC1948606304
:1035B0001430A06305E02068E96AC06A884200D838
:1035C0002560606A401C60626864E86A216988421C
:1035D00000D9206100EB800007EB8000291D00F07E
:1035E00025FC00F04FFC606900280CD02068E96AD7
:1035F000C06A884207D208494FF080500860BFF384
:103600004F8FBFF36F8FBDE8F081000024000020D2
:103610004C030020AC07002004ED00E038B500F0BA
:1036200011FC104C2068C8B90F4800F0D9FB0E48B7
:10363000143000F0D5FB0C48E060143020610A4BD8
:103640000020F03B009003F1500210210A2000F00E
:1036500068FE206010B105A100F096FCBDE838407E
:1036600000F010BC6000002000090020546D725171
:103670000000000030B4026C0B46002A0BD0C16879
:103680001144C1608468A14201D30168C16030BCAB
:103690001846FCF728BE30BC70472DE9F041856B19
:1036A000174604460026026C82B1C7B1E068FCF7F9
:1036B0001AFEE168206C091AE1602268914202D288
:1036C000A168081AE060022F16D017E02068A8B998
:1036D000A06801F0A9F906460020A0600EE060682D
:1036E000FCF701FE216C606808446060A1688842B4
:1036F00004D32068606001E005B16D1E6D1CA563F8
:103700003046BDE8F08110B5044690F8590058B134
:1037100001280CD002280FD0202080F31188BFF39D
:103720004F8FBFF36F8FFEE7206B00F0BFFB20468B
:10373000BDE8104000F0BABB10BD000010484FF4C7
:103740007051420706D0C01D0D4920F00700411AF4
:10375000C1F570510B4A00230144C2E90003083946
:10376000183A21F0070111604B600B600B1AC0E999
:10377000001393604FF000405360506170470000A9
:10378000E00F002090000020144E154CA6F29C473C
:103790004FF08058DFF84C9012E000BF00F052FB71
:1037A000F068C568281D00F0F1FAA068401EA0600E
:1037B0006068401E606000F065FB2846FFF7A3FFCD
:1037C00060680028EAD138680128F9D9C9F8008072
:1037D000BFF34F8FBFF36F8FF2E70000E8070020C1
:1037E0002400002004ED00E070B51D46049C51B19A
:1037F000C4F80020C4E90F010121204600F0C4FDF7
:1038000084F84C5070BD2460F4E700002DE9F05FAF
:103810008846DDE90B941546834691009A460A9E38
:10382000A522206BFCF771FD6FF00301206B01EB0B
:103830008501084420F00707780707D0202080F38F
:103840001188BFF34F8FBFF36F8FFEE70025B8F1EC
:10385000000F0FD05FF00000221818F8001082F857
:10386000341018F8001011B1401C1028F4D384F85B
:10387000435001E084F83450382E00D33726E662F6
:10388000C4E91365201D00F0B6FA04F1180000F039
:10389000B2FA2461C6F138006462A061656584F8FB
:1038A000585052465946384600F05AFA2060B9F14D
:1038B000000F01D0C9F80040BDE8F09F30B51149B4
:1038C00000E011460A688242FBD34B685C188442D0
:1038D00003D1406818444860084643681C18944265
:1038E00009D1084C183C2468A24209D052681A44F5
:1038F00042600A6812680260814200D0086030BDF0
:103900000460F9E79000002070B5002441600B4D81
:103910000061914206D8D11A8269914206D2011DF6
:10392000286907E09A4203D2994201D3012403E0B7
:10393000011DE86800F062FA204670BD60000020BA
:1039400010B5044600F07EFAA06B28B15FF00004C9
:1039500000F098FA204610BD0124F9E730B589B08F
:103960003C4D6EE00498002806DADDE90601059A70
:1039700090470498002864DB069C606910B1201D04
:1039800000F004FA03A800F0D7F8024604980A28C9
:1039900057D2DFE800F00505052D334A05052D3324
:1039A00094F8280040F0010084F828000599A069E7
:1039B000059B01442046FFF7A7FF68B3216A204614
:1039C000884794F8280040073BD5002000900598D0
:1039D000A169002342181946204601F02FF9D8B9F1
:1039E000202080F31188BFF34F8FBFF36F8FFEE766
:1039F00014F8280F20F00100207022E094F828002D
:103A000040F0010084F828000598A06128B18118D1
:103A100013462046FFF778FF13E0202080F311883B
:103A2000BFF34F8FBFF36F8FFEE794F82800810735
:103A300003D4204600F03AFA03E020F0010084F8B5
:103A40002800002204A9286800F0F2FD002889D18E
:103A500009B030BD600000202DE9FC410F4605464D
:103A600000F074FB01A800F067F80446019818B153
:103A700001F052F8BDE8FC81254EAFB13069006815
:103A8000D0B30027291B3A46306800F091FA01F0C4
:103A900043F80028EED11F494FF080500860BFF373
:103AA0004F8FBFF36F8FE5E7A542EBD801F034F8F5
:103AB000F0682746C068C468201D00F067F994F8D4
:103AC0002800410719D5A0692B4641193A462046DE
:103AD000FFF71AFFA8B100200346014600902A46CE
:103AE000204601F0ABF860B9202080F31188BFF3C5
:103AF0004F8FBFF36F8FFEE707E020F0010084F8DF
:103B00002800216A20468847B4E70127BAE7000069
:103B10006000002004ED00E00648416B096829B10F
:103B2000416BC968C9684968816270474FF0FF31CD
:103B3000FAE700002400002070B5054600F002FFFF
:103B4000064E0446B068844203D200F009F8012012
:103B500000E0002028602046B46070BD60000020B6
:103B6000F8B5194D20E0C068C4680668201D00F053
:103B70000DF9216A2046884794F82800400713D59C
:103B8000A0693044B04206D924616060211DE86814
:103B900000F034F908E00020034601460090324668
:103BA000204601F04BF838B1E86801680029DAD105
:103BB0002969C5E90310F8BD202080F31188BFF3FF
:103BC0004F8FBFF36F8FFEE760000020084840680A
:103BD000401C4FF0200080F3118804D0BFF34F8FBA
:103BE000BFF36F8FFEE7BFF34F8FBFF36F8FFEE71B
:103BF00098000020074CE068016841B1C0680021CE
:103C0000D0F80000FFF728FFFFF7A8FEF3E7012137
:103C10000020F7E7600000202DE9F041044600F0A5
:103C200011F994F9455004F1240609E0606A48B19D
:103C3000304600F039FF08B100F00AFA6D1E6DB28F
:103C4000002DF3DC4FF0FF3684F8456000F01AF9E0
:103C500000F0F8F894F9445004F1100709E02069E5
:103C600048B1384600F020FF08B100F0F1F96D1EB0
:103C70006DB2002DF3DC84F84460BDE8F04100F043
:103C800001B900002DE9F0410546002700F05EFA79
:103C9000324E306808B9FFF751FD706905424ED1C8
:103CA000C5B3083568070ED005F00700C0F108005D
:103CB0000544680707D0202080F31188BFF34F8F99
:103CC000BFF36F8FFEE72DB37068854237D8234866
:103CD000183001460C6801E020460C466168A94294
:103CE00002D221680029F7D131688C4227D00768B9
:103CF0002168016060680837411B10290FD96019DD
:103D0000420708D0202080F31188BFF34F8FBFF304
:103D10006F8FFEE713E041606560FFF7CFFD6168DC
:103D20007068401A7060B268904200D2B0607069EA
:103D300001430020C4E90001F068401CF06000F07D
:103D4000EBFE780707D0202080F31188BFF34F8F58
:103D5000BFF36F8FFEE73846BDE8F08178000020A2
:103D600010B5031F4FF080741C601B1F21F0010170
:103D70001960191F044B0B6014390A60091F6FF09A
:103D8000020244380A6010BDCD3B0008D0E9013280
:103D900001699A60D0E901235A604A68824201D1E0
:103DA00082684A60002202610868401E0860086854
:103DB00070470000034B036003F15C000860802043
:103DC0001060704728090020044B036003F15C0079
:103DD00008604FF48070106070470000840B002072
:103DE00000F108014FF0FF32C0E90112C16001612A
:103DF00000210160704700210161704730B50B68F8
:103E00005A1C02D000F1080202E0026904E02246D6
:103E1000546825689D42FAD953684B6099608A605E
:103E2000516008610168491C016030BD42684A6008
:103E300093688B6093685960916008610168491CC0
:103E400001607047202080F31188BFF34F8FBFF3CC
:103E50006F8F0A494868401C486001280CD1084807
:103E6000006810F0FF0F07D0202080F31188BFF307
:103E70004F8FBFF36F8FFEE7704700009800002060
:103E800004ED00E00849486828B1401E486001D1AF
:103E900080F311887047202080F31188BFF34F8F83
:103EA000BFF36F8FFEE700009800002070B5002878
:103EB0002AD0164DA0F1080460686969084207D14C
:103EC000202080F31188BFF34F8FBFF36F8FFEE781
:103ED00022683AB1202080F31188BFF34F8FBFF3DF
:103EE0006F8FFEE78843606000F030F960686968B2
:103EF000084468602046FFF7E1FC2869401C2861FF
:103F0000BDE8704000F008BE70BD000078000020E1
:103F10004FF0E02000210161816105494FF47A7280
:103F20000968B1FBF2F1491E416107210161704747
:103F30002000002010B5FCF78FF9114910280ED38E
:103F400000F1E02090F8F0030A78904207D2202098
:103F500080F31188BFF34F8FBFF36F8FFEE70948DF
:103F60000068896800F4E060884207D9202080F367
:103F70001188BFF34F8FBFF36F8FFEE710BD0000B6
:103F8000980000200CED00E010B5084B002200BFA7
:103F900053F832401CB1521C082AF9D310BD43F823
:103FA000321003EBC201486010BD00000C0300207A
:103FB00070B515460E460446FFF744FF94F94410C9
:103FC0000020491C01D184F8440094F94510491C93
:103FD00001D184F84500FFF755FFA06B28B92A46A8
:103FE000314604F1240000F051F82046BDE870404D
:103FF000FFF712BE10B5020014D00F48006B38B1A5
:10400000202080F31188BFF34F8FBFF36F8FFEE73F
:1040100000F09CF800211046FFF76AFA00F07CFDE2
:10402000002807D105494FF080500860BFF34F8F3B
:10403000BFF36F8F10BD00002400002004ED00E0EE
:1040400002490A6A0260C968416070472400002082
:1040500001490120C86170472400002010B50C46BA
:1040600050B1094909681831FFF7C8FE2046BDE87C
:1040700010400121FFF73CBA202080F31188BFF3E4
:104080004F8FBFF36F8FFEE72400002070B51446FA
:104090000D4668B10A4909681831FFF7C7FE0CB12F
:1040A0004FF0FF3521462846BDE87040FFF720BAA3
:1040B000202080F31188BFF34F8FBFF36F8FFEE78F
:1040C0002400002030B587B00024039405AA04A979
:1040D00003A80494FFF76EFEDDE903010094CDE927
:1040E0000110002315A11748059A00F0F2FB164DA8
:1040F0000028E8621FD000F071FD012809D0401CA3
:1041000019D1202080F31188BFF34F8FBFF36F8F39
:10411000FEE7202080F31188BFF34F8FBFF36F8F2E
:104120004FF0FF30A86201206861EC6007B0BDE885
:10413000304000F045B807B030BD000049444C4560
:104140000000000089370008240000200248016BAD
:10415000491C01637047000024000020164810B578
:10416000016B11B10121C16110BD0021C161016963
:10417000124A01E0B9B1491E01EB810352F8233024
:10418000002BF7D001EB810302EB830202F108045C
:1041900053685B685360A34201D15B685360DA687F
:1041A0000260016110BD202080F31188BFF34F8FA2
:1041B000BFF36F8FFEE70000240000204C030020B7
:1041C0001CB537480168374A914207D1202080F357
:1041D0001188BFF34F8FBFF36F8FFEE7006831493F
:1041E000491E884207D1202080F31188BFF34F8FEA
:1041F000BFF36F8FFEE72C4908780190FF2008700D
:1042000008788DF800009DF800009DF8002000F06F
:10421000F000904207D0202080F31188BFF34F8F29
:10422000BFF36F8FFEE79DF80000204C00F02000E8
:1042300020700720A06005E09DF8002052008DF856
:104240000020401E9DF800201206F5D4A06003282F
:1042500007D0202080F31188BFF34F8FBFF36F8FFB
:10426000FEE74FF44070A060019808700C482030C1
:10427000016841F470010160016841F07041016022
:10428000FFF746FE00206060FBF7AEFF08480168BC
:1042900041F040410160FBF793FF00201CBD00008E
:1042A00000ED00E071C20F4100E400E09800002042
:1042B00034EF00E010B5202080F31188BFF34F8F5A
:1042C000BFF36F8F00F04CFB18B104494FF08050E2
:1042D0000860002080F3118810BD000004ED00E0AC
:1042E000F8B517460E46050013D005FB06F0503012
:1042F000FFF7C8FC04000AD0002084F8460004F14F
:1043000050023B46314628460094FFF76DFA20469E
:10431000F8BD202080F31188BFF34F8FBFF36F8F5C
:10432000FEE738B5049D18B153B1CAB181B120E0A0
:10433000202080F31188BFF34F8FBFF36F8FFEE70C
:10434000202080F31188BFF34F8FBFF36F8FFEE7FC
:10435000202080F31188BFF34F8FBFF36F8FFEE7EC
:1043600039B1202080F31188BFF34F8FBFF36F8FD7
:10437000FEE750241C46012384F846302B46009467
:10438000FFF732FA204638BD70B50D46040025D03F
:10439000FFF758FDD4E90F20216802FB0011A1604E
:1043A0000021A163216861600A46D4E90F01401E23
:1043B00000FB0121E16021464FF0FF3001F8440F7E
:1043C000487004F110008DB1FFF70AFD04F12400DC
:1043D000FFF706FDFFF756FD012070BD202080F39A
:1043E0001188BFF34F8FBFF36F8FFEE7216900295C
:1043F000F0D000F059FB0028ECD004494FF0805079
:104400000860BFF34F8FBFF36F8FE3E704ED00E069
:104410002DE9FF4782B01D468A464FF00008040090
:1044200003D0BAF1000F08D011E0202080F31188EA
:10443000BFF34F8FBFF36F8FFEE7206C38B12020A2
:1044400080F31188BFF34F8FBFF36F8FFEE7022D0C
:104450000AD1E06B012807D0202080F31188BFF338
:104460004F8FBFF36F8FFEE700F05EFA3F4F4FF0C4
:1044700000094FF0805648B9049838B1202080F3E5
:104480001188BFF34F8FBFF36F8FFEE7FFF7DAFCA2
:10449000A06BE16B884207D3022D05D00498D0B100
:1044A000B8F1000F1AD01EE02A4651462046FFF709
:1044B000F4F8616A19B104F1240000F0F5FA20B1B2
:1044C0003E60BFF34F8FBFF36F8FFFF7DBFC012020
:1044D00006B0BDE8F087FFF7D5FC22E06846FFF79D
:1044E000AFFD4FF00108FFF7CDFCFFF72FFEFFF700
:1044F000A9FC94F94400401C01D184F8449094F93B
:104500004500401C01D184F84590FFF7BBFC04A98D
:10451000684600F077F930B12046FFF77DFB00F0E8
:10452000FBFA0020D4E7FFF78DFCA06BE16B88421B
:1045300013D1FFF7A7FC04F110000499FFF78EFDDB
:104540002046FFF769FB00F0E7FA00289ED13E60A5
:10455000BFF34F8FBFF36F8F98E7FFF793FC2046B1
:10456000FFF75AFB00F0D8FA90E7000004ED00E0F6
:104570002DE9F0471F4690468946040003D0B9F163
:10458000000F08D011E0202080F31188BFF34F8F77
:10459000BFF36F8FFEE7206C38B1202080F31188C5
:1045A000BFF34F8FBFF36F8FFEE7022F0AD1E06B8F
:1045B000012807D0202080F31188BFF34F8FBFF36D
:1045C0006F8FFEE7FFF7B6FC2020EFF3118680F334
:1045D0001188BFF34F8FBFF36F8FA06BE16B8842E1
:1045E00006D3022F04D0002086F31188BDE8F0879F
:1045F00094F94550A06B3A4649462046FFF74DF8DE
:10460000681C04D06D1C84F845500120ECE7606AFA
:104610000028FAD004F1240000F046FA0028F4D073
:10462000B8F1000FF1D00121C8F80010EDE700004B
:104630002DE9F747002683B08A46040003D0BAF17B
:10464000000F08D011E0202080F31188BFF34F8FB6
:10465000BFF36F8FFEE7206C38B1202080F3118804
:10466000BFF34F8FBFF36F8FFEE700F05DF9DFF808
:10467000F4804FF000094FF0805748B9059838B1E1
:10468000202080F31188BFF34F8FBFF36F8FFEE7B9
:10469000FFF7D8FBA56BC5B151462046FEF7EAFFF0
:1046A0006D1EA563206950B104F1100000F0FCF903
:1046B00028B1C8F80070BFF34F8FBFF36F8FFFF7BB
:1046C000E1FB012006B0BDE8F087059808B11EB1F6
:1046D00006E0FFF7D7FB27E06846FFF7B1FC0126AD
:1046E000FFF7D0FBFFF732FDFFF7ACFB94F9440076
:1046F000401C01D184F8449094F94500401C01D13C
:1047000084F84590FFF7BEFB05A9684600F07AF8EB
:10471000002820460AD0FFF77FFA00F0FDF9204676
:10472000FFF70EF90028B3D00020CBE7FFF708F918
:1047300090B104F124000599FFF790FC2046FFF7A3
:104740006BFA00F0E9F90028A2D1C8F80070BFF3B5
:104750004F8FBFF36F8F9BE72046FFF75DFA00F0A6
:10476000DBF995E704ED00E02DE9F0479046894636
:10477000040003D0B9F1000F08D011E0202080F32D
:104780001188BFF34F8FBFF36F8FFEE7206C38B1F6
:10479000202080F31188BFF34F8FBFF36F8FFEE7A8
:1047A000FFF7C8FB2020EFF3118680F31188BFF3D9
:1047B0004F8FBFF36F8FA76BF7B194F94450494601
:1047C0002046FEF757FF7F1EA763681C04D06D1CB0
:1047D00084F84450012010E020690028FAD004F148
:1047E000100000F061F90028F4D0B8F1000FF1D00A
:1047F0000121C8F80010EDE7002086F31188BDE81C
:10480000F08700002DE9F0410C46050011D0C4B13D
:10481000FFF718FB174BDA686E682068911B471C7E
:1048200017D02F681B6A9F4219D0964217D80124CF
:1048300010E0202080F31188BFF34F8FBFF36F8FFC
:10484000FEE7202080F31188BFF34F8FBFF36F8FF7
:10485000FEE70024FFF716FB2046BDE8F081884202
:1048600005D9401A20602846FFF7EAFBF1E700204F
:104870002060DCE7240000202DE9FF5F8346DDE9AE
:104880000E87994616468A469000FFF7FBF9050009
:104890001CD05C20FFF7F6F9040014D0002025633B
:1048A00084F85900CDE90240CDE900874B463246F5
:1048B00051465846FEF7AAFF2046FEF747FE012064
:1048C00004B0BDE8F09F2846FFF7F0FA4FF0FF3044
:1048D000F6E7F0B585B0DDE90B640A9DA6B1DCB161
:1048E0005C2700972663022684F85960002604AFEF
:1048F000CDE90246CDE90057FEF788FF2046FEF7D6
:1049000025FE049805B0F0BD202080F31188BFF388
:104910004F8FBFF36F8FFEE7202080F31188BFF326
:104920004F8FBFF36F8FFEE70548416919B1006BE8
:1049300018B1002070470120704702207047000026
:10494000240000200148C0687047000024000020B7
:1049500010B5FFF7EFFA0148C06810BD2400002031
:104960002DE9F0412E4C0027206B28B1A069401C96
:10497000A0613846BDE8F081E668761CE66013D198
:10498000606B006838B1202080F31188BFF34F8F2F
:10499000BFF36F8FFEE7606BA16B6163A063206A5A
:1049A000401C2062FFF7B8F8A06ADFF878808642E2
:1049B00009D3606B0068A0B1606BC068C5686868A7
:1049C000864211D2A0622068C06A00EB800158F8CC
:1049D0002100012800D90127E0690028C9D001275A
:1049E000C7E74FF0FF30EDE7281DFFF7CFF9A86AC2
:1049F00018B105F11800FFF7C9F9E86A2169884282
:104A000000D9206100EB800108EB8100291DFFF730
:104A10000DFAE86A2168C96A8842CAD30127C8E743
:104A2000240000204C03002070B504004FF000016A
:104A300033D01B4D2868844207D0202080F3118892
:104A4000BFF34F8FBFF36F8FFEE7206D38B1401E6D
:104A50002065E36CE26A9A421FD040B11DE020203D
:104A600080F31188BFF34F8FBFF36F8FFEE7201DD8
:104A7000FFF78CF9E06CE062C0F13800A061E06AF9
:104A80002969884200D92861064900EB800001EBC2
:104A90008000211DFFF7CAF90121084670BD000002
:104AA000240000204C03002070B5C068C46854B1D5
:104AB00004F118000646FFF769F9144D286B50B150
:104AC0003146134815E0202080F31188BFF34F8F43
:104AD000BFF36F8FFEE7201DFFF758F9E06A2969E1
:104AE000884200D928610B4900EB800001EB80006F
:104AF000211DFFF79BF9E06A2968C96A884202D93B
:104B00000120E86170BD002070BD0000240000207D
:104B1000D40700204C0300202DE9F0472C4D002441
:104B20002746286B38B1FFF78DF9286B401E2863A4
:104B3000286B40B146E0202080F31188BFF34F8FEF
:104B4000BFF36F8FFEE7A968224E0120D1B3A6F50F
:104B5000916980463068E0B1F068C46804F11800DB
:104B6000FFF714F9201DFFF711F9E06A296988425F
:104B700000D9286100EB800109EB8100211DFFF7BE
:104B800055F9E06A2968C96A8842E3D3C5F81C80F0
:104B9000E0E70CB1FEF7C0FFAC694CB14FEA080684
:104BA000FFF7DEFE00B1EE61641EF9D10020A861BE
:104BB000E86938B10849012738070860BFF34F8F0B
:104BC000BFF36F8FFFF75EF93846BDE8F08700004E
:104BD00024000020D407002004ED00E010B586B0CA
:104BE000FEF71CFD114C2068B8B100200390049022
:104BF00005AA04A903A8FFF7E7F8DDE903210220CD
:104C00008DE8070000230AA10B48059AFFF761FE13
:104C1000606010B106B0012010BD202080F3118823
:104C2000BFF34F8FBFF36F8FFEE7000060000020DF
:104C3000546D722053766300F53B00082DE9FF4167
:104C40001E46134602000A9D4FF0000016D0144C79
:104C50002768002F0FD0CDE900130292062917DA3A
:104C6000FFF762FE02284FF000030FD000226946D2
:104C70002068FFF7CDFB04B0BDE8F081202080F371
:104C80001188BFF34F8FBFF36F8FFEE72A46EEE721
:104C90000023324669463846FFF76AFCEBE700001E
:104CA00060000020FC4C0008000000000000000034
:104CB00000000000000000000002000018000000DA
:104CC0000000000000000000B52C0008B52D000811
:104CD0004D2D0008B92D0008FD2C00080006101607
:104CE000000610160000000000000000010203048E
:104CF00006070809000000000102030464656661FC
:104D0000756C745461736B00284D0008000000201E
:104D1000A800000000320008D04D0008A8000020C4
:104D2000384F0000103200080000000001000000B1
:104D30000000000000000000000000000100000072
:104D400010000000000000000024F400000000003B
:104D50000000000000000000000000000000000053
:104D60000000000000000000000000000000000043
:104D70000000000000000000000000000000000033
:104D80000000000000000000000000000000000023
:104D90000000000000000000000000000000000013
:104DA0000000000000000000000000000000000003
:104DB00000000000000000000000000000000000F3
:104DC00000000000AAAAAAAA00000000000000003B
:040000050800018965
:00000001FF
